:02000002D0002C
:1040000000400D00A8110E00000006000C00050184
:084010000401E80500000000B6
:0440180050000E0046
:1040200009480A49884208B505D0094A824202D0A7
:10403000121A0AF0AEFB0748074A0021121A0AF0CA
:10404000B3FB014808BD00BFD8BD0320BC100E0063
:104050009CBE03209CBE0320F0E7032070B506F051
:1040600031FC074C074BE41AA40800251E46A54264
:1040700004D056F8253098470135F8E770BD00BFE9
:10408000A8100E00FC0F0E0000F00CBD08B500F0EB
:10409000B9FBBDE8084006F0D7BB05F04DBC05F004
:1040A00053BC05F051BC0078B0FA80F0400970476D
:1040B0000123037070471068704770477047000015
:1040C000014B01221A70704729C103200368184769
:1040D000012A02D0022A02D004E0016002E00B684B
:1040E00000B103600020704703685A6898681B6835
:1040F00012F0010F4FEA620218BF8158104418BF36
:10410000CB58184738B5064D002404F170002844F8
:10411000103C05F077FE14F1800FF6D138BD00BFDA
:1041200000C0032010B5044605F06CFE204610BD0B
:1041300008B505F093F9034B1860034B01221A7080
:1041400008BD00BF7CD8032044C1032010B504463D
:1041500005F084F941F26462A358C31A092B05D90A
:1041600004F5B3510B6801330B60A05010BD38B596
:10417000044605F073F904F5B4510B6893B1C31A02
:10418000092B10D941F27C62A558AB4238BFA3502D
:1041900041F2746562591344635141F27862A35845
:1041A0000133A350086038BD10B5044600F5B05087
:1041B000043005F027FE04F6063005F014F804F18B
:1041C0000A0005F010F8204610BD436913B1836959
:1041D0000C301847704700007FB502460846137937
:1041E000956833B13DB90C4904B0BDE8704005F0A5
:1041F000F3BF0A4B00E00A4B167B0A4C0A49527B7C
:104200000292012E08BF214601910095074A002124
:1042100006F0F3F804B070BDA9000E00EC060E0025
:1042200098000E00A1000E00A5000E00BF000E00B9
:1042300013B500210446084605F058F902A90023E9
:10424000204641F8043D05F069F9019C0CB10123B9
:1042500023710021012005F049F92CB12368204683
:104260009B6898470023237102B010BD022A38B51D
:10427000044605D0032A0FD0012A11D10B6809E0AA
:104280000C200D68FFF709FF034618B195E80700F9
:1042900083E80700236003E00C21006807F0FEFAC2
:1042A000002038BD10B5054B00220446114640F8E9
:1042B000043B05F053FA204610BD00BF8C000E00F1
:1042C00010B50446FFF7EEFF2046202107F0E6FA7E
:1042D000204610BD10B58368044613B10322014681
:1042E0009847204610BD00221146406805F0ACBA40
:1042F000F0B500258E461549057185604561016060
:10430000044692E8030085B002AF04F10C0687E88A
:10431000030096E8030082E8030097E8030086E8BC
:1043200003009168606990606161D168A069D060A4
:10433000A1618DE82800064A2346714604F1080071
:1043400005F0DCF8204605B0F0BD00BF78000E0097
:1043500031420D0007B58068002338B18DE80A00AE
:10436000022105F0E3F8B0FA80F0400903B05DF8EF
:1043700004FB000038B5104B036083680446A3B10A
:104380006FF000410022FFF7E5FF0021A06805F073
:10439000E5F8237903F0FF0513B105F08FF8F8E78E
:1043A0002946A06805F0B2F8A56004F10C00FFF7FB
:1043B00091FF204638BD00BF78000E0010B50446BE
:1043C000FFF7D8FF20461C2107F068FA204610BDF1
:1043D00037B5054600220C461146FFF7BBFFA8681B
:1043E000002340B1019300941A46194605F09EF847
:1043F000B0FA80F0400903B030BD00002DE9F04F65
:104400004D4FDFF84891DFF848818DB00024012539
:10441000082C00F08D8014F8096007F00BFA314683
:1044200006F0B1FF07F006FA06F0B8FF00284ED0FC
:104430000A2006F0C3F907F0FDF9314606F0A3FFA4
:1044400007F0F8F906F0AAFF002840D007F0F2F9CB
:1044500006F0ABFF07F0EEF9314606F094FF07F0E7
:10446000E9F906F09BFF90B306F0F0FD33490546ED
:10447000684605F00EFD3946684605F0E8FD30490E
:1044800005F0F1FD2F4905F0EEFD10228246314680
:104490000DEB020005F071FD04A9504605F0D7FDB3
:1044A000014608A805F034FD0899284605F0ABFE42
:1044B00008A805F0A7FC04A805F0A4FC00256846A0
:1044C00005F0A0FC08F8045001341037A0E706F00E
:1044D000BDFD1A498246684605F0DBFC3946684650
:1044E00005F0B5FD184905F0BEFD164905F0BBFD08
:1044F0001022834631460DEB020005F03EFD04A973
:10450000584605F0A4FD014608A805F001FD0899EC
:10451000504605F078FE08A805F074FC04A805F0E4
:1045200071FC684605F06EFC012308F80430CBE707
:1045300028460DB0BDE8F08F00C00320DD000E005E
:10454000E5000E00ED000E00E9000E00D8BD0320CE
:1045500080D803202DE9F0431E4D1F4F8DB0064635
:10456000002415F8013FB3422DD106F06FFD1B4921
:104570008046684605F08DFC07EB0411684605F09F
:1045800066FD174905F06FFD164905F06CFD102218
:10459000814629780DEB020005F0EFFC04A948469E
:1045A00005F055FD014608A805F0B2FC0899404603
:1045B00005F029FE08A805F025FC04A805F022FC5A
:1045C000684605F01FFC0134082CCAD10DB0BDE8C7
:1045D000F08300BFD7BD032000C00320DD000E0024
:1045E000E9000E00ED000E0070B506F02FFD1D492C
:1045F00005F009FE0124002507F01CF9E1B206F0E0
:10460000C2FE07F017F906F0C9FE20B92046FFF7F1
:10461000A1FF013517E0042815D106F017FD124956
:1046200005F0DAFD0F2C04D806F010FD0F4905F057
:10463000D3FD06F00BFD10220646214605F0EFFDE6
:10464000304605F0D4FD01347F2CD5D11DB906F0DC
:10465000FDFC074902E006F0F9FC0649BDE87040A0
:1046600005F0D1BDF9000E0005010E0021010E007C
:1046700023010E0039010E00F8B54E4B0022114601
:10468000586805F009F978B906F0E0FC4A4905F0E8
:10469000BAFD06F0DBFC494905F0B5FD4EF6602099
:1046A00006F08CF805F0D8FA424D2846FFF71BFEBD
:1046B000044648BB06F0CAFC414905F0A4FD234668
:1046C00022462146686805F0C7F82346224621465F
:1046D000686805F0A1F8204604F0D8FE00250446DD
:1046E0004EF65F260027002004F0D0FE001B61EB91
:1046F00005018F4208BF864233D32E48FFF7F3FDF2
:1047000078BB05F0E9F8EEE706F0A0FC2D4905F0CE
:104710007AFD05F0F1F80446E0B906F097FC2A4965
:1047200005F071FD05F0E0F8204604F0AFFE00252D
:1047300004464EF65F260027002004F0A7FE001B6B
:1047400061EB05018F4208BF86421DD305F0D4F806
:10475000D0B92AE006F07AFC1C49BDE8F84005F023
:1047600052BD1448FFF7BFFD1248FFF7BCFD0028FB
:10477000CFD106F06BFC164905F045FDC82006F0C8
:104780001DF805F069FAC4E705F0B6F805F0B4F8CD
:1047900070B906F05BFC0F4905F035FDC82006F046
:1047A0000DF8BDE8F84005F057BA05F095F8C3E7F5
:1047B000F8BD00BFF8E503203F010E005B010E00CD
:1047C00073010E00AF010E00BE010E0006020E00C6
:1047D00094010E00E3010E0038B5046805467CB173
:1047E0006368013B63605BB9236820469B68984718
:1047F000A368013BA3601BB923682046DB68984788
:10480000284638BD70B55D4C2378A2B0002B00F06F
:104810008F805B485B4D04F0D3F8594902A803F040
:104820007BFF0299584805F0EEFC06F00FFC029958
:1048300005F0E9FC2B78002626701BB1534800F0E8
:10484000EBFC2E7000232370514C06F0FFFB514906
:1048500005F0D9FC0A22216806A805F0A0FB06A9EC
:104860000AA805F055FB4C490AA805F0FCFB217984
:1048700005460EA805F070FB0EA9284605F0E7FBDB
:10488000454905F0F0FB0A220546A16812A805F08B
:1048900086FB12A9284605F0DAFB3F4905F0E3FB49
:1048A0000A220546E16816A805F079FB16A92846F4
:1048B00005F0CDFB384905F0D6FB94ED040A05461A
:1048C00006211AA805F092FB1AA9284605F0BFFB9D
:1048D000314905F0C8FB94ED050A054606211EA8DE
:1048E00005F084FB1EA9284605F0B1FB2A4905F016
:1048F000BAFB2A4905F0ABFB0146294805F0F9FA55
:104900001EA805F07FFA1AA805F07CFA16A805F093
:1049100079FA12A805F076FA0EA805F073FA0AA83B
:1049200005F070FA06A805F06DFA02A805F06AFA1B
:104930001C4C2378DBB1124803F0E6FD104803F06D
:104940008BFD0F4803F01CFC174B18491B78002205
:1049500022701EA88DF800303C2306F021F91FA814
:10496000FFF73AFF06F072FB114905F04CFC114BC2
:104970001B780BB105F070F922B070BD44C1032063
:1049800064C10320ECC00320ACBE032034D8032054
:104990002CC1032019020E0037020E00A0C0032014
:1049A0000CDD032029C1032028C1032039020E0099
:1049B0004B020E001CDD032070B594B004F04EFDD8
:1049C0002F4D304E044604F049FD286004F084FF6A
:1049D000642005F0F3FE05F0A6FEB04205DC04F00D
:1049E0003DFD001BB0F5FA7FEDD305F09CFE264B94
:1049F000984207DD05F097FE0146244800F026FCAA
:104A000001203AE0224C23492368002204A805F043
:104A100037FE04A908A805F07BFA1F4908A805F08D
:104A200022FB0546194800F00BFC23681949024691
:104A30000CA805F025FE0CA9284605F008FB014648
:104A400010A805F065FA154B109A1B7814498DF8DB
:104A5000003002A83C2306F0A3F803A8FFF7BCFE31
:104A600010A805F0CFF90CA805F0CCF908A805F0BE
:104A7000C9F904A805F0C6F9002014B070BD00BF44
:104A800008E603204DB25E574EB25E5734D803207D
:104A9000E0BD032040E20320B9050E0028C1032039
:104AA00053020E0030B5002385B00222424943482C
:104AB00004F00AFF00250C230195ADF80430404BAB
:104AC00040490293042201AB3F48039504F0FCFEE9
:104AD00006F0BCFA4FF4E13106F0ACFA06F0A4FBA4
:104AE0004FF4E13106F09AFB384800F0D1FB012287
:104AF0000221364800F08AFB01220321334800F0EE
:104B000085FB41F2883005F059FEFFF777FCFFF78F
:104B10006BFD2E4800F044FB0446C8B906F096FA37
:104B20002B4905F070FB2B49264805F004FA224674
:104B30000121294804F012FE06F088FA274905F001
:104B400062FB42F2107005F039FE05F085F830E0A6
:104B5000234CFFF791FD22462946224800F0B3FC82
:104B6000214B22689A4208D02360224644F62063F3
:104B700029461C48E36000F097FCFFF71DFF18B1C1
:104B800006F064FA194902E006F060FA184905F0E7
:104B90003AFB184800F0C0FC174804F069F86FF0C1
:104BA00000411648FFF714FC6FF000411448FFF76E
:104BB0000FFC05B030BD00BF48030E0063020E00BD
:104BC000B7400D000CDD03206B020E0034D803202B
:104BD00078020E009A020E00E4BF0320C1020E000C
:104BE0002CC1032080C003204C1F1100D9020E00ED
:104BF000F0020E00B0C0032064C10320F0C0032007
:104C00000CC103201FB50A4B0A4C1B780A498DF8CA
:104C1000003022463C2302A805F0C2FF03A8FFF79C
:104C2000DBFD06F013FA214605F0EDFA04B010BDE5
:104C300028C1032078020E000B030E00F0B589B0E6
:104C4000044602A880E806001D460C2000230F46FB
:104C5000039E0693FFF721FA10B107604660856056
:104C60000B4B07930B4B06939DF840300490009339
:104C70009DF838209DF93C3004A9204606F042FA00
:104C8000044604A8FFF726FB204609B0F0BD00BF8C
:104C9000E9400D006D420D002DE9F047BC4BBD4FC2
:104CA00001248AB01C7004F039FBBB4BBB4883F86D
:104CB0007444642183F860143968C3F870040022D6
:104CC00011EA0406DA7183F83C2483F83D2483F862
:104CD0006A24C3F8782483F87C2483F87D241C4656
:104CE00005460AD13846FFF7DEF930B13146AC4807
:104CF00004F0DEFE3846FFF7DBF9A94BC4F86C344C
:104D0000A84CA94B069506AE002501270893022260
:104D10003346A1498DF81C5020468DF824708DF83B
:104D2000255000F079FCA14AA149DFF844932046C0
:104D300006F0A6FD40F6B8332A4614210320A362EC
:104D400004F04EFD4FF01E080346CDF80080019799
:104D500003224FF47F019748974C04F081FE934A59
:104D60009649944806F08CFD2946384604F018FD13
:104D7000934B069332462B464FF4FA619148CDF897
:104D800024900894FFF7B4FA3046FFF7A3FA874A55
:104D90008D498C4806F074FD8C4B069332462B46A9
:104DA0004EF660218A48CDF824900894FFF7A0FAC7
:104DB0003046FFF78FFA7D4A8349854806F060FD4B
:104DC000844B069332462B4641F288318248CDF817
:104DD00024900894814CFFF78BFA3046FFF77AFA5B
:104DE000724A79497C4806F04BFD204601F0BFF934
:104DF00004F1080003F077F8414604F10A0004F0DA
:104E000002FA414604F6063004F0FDF9744800F059
:104E1000B7F941F25C6A40F61F21724801F030F8A0
:104E2000042344F80A3004F5B3536F4A9A606F4A7A
:104E30001D601A6141F274634FF0FF39E55041F291
:104E400078631122E55041F27C6341F26C6844F8CA
:104E5000039004F5B45303201D6041F284630221E2
:104E6000E250634A44F8080000231360536041F2A3
:104E70009062A5505F4A136041F29862A5505E4A65
:104E8000136004F5B5521560536041F2A862A55055
:104E90005A4A1360536041F2B463E55006F06EFC69
:104EA00034F80800564B06934FF002080795029518
:104EB000CDF80490CDF8008096E806002346FFF771
:104EC000BDFE414634F80A0006F058FC34F80A00EA
:104ED0004C4B04938DE800030595029504AA2346E4
:104EE00006CAFFF7ABFE314A4749204606F0C8FC28
:104EF000464800F045F92D4A4549444806F0C0FCB3
:104F00003A4618234149434800F0C3FA18234FF4A6
:104F100096723E49404800F0F4FA4049404804F097
:104F2000B8FF224A3F493E4806F0AAFC3B493E48AA
:104F300004F0AFFF1D4A3B493B4806F0A1FC3B494A
:104F40003B4804F0A6FF3B493B4804F0A2FF3B4925
:104F50003B4804F09EFF3B493B4804F09AFF3B4925
:104F60003B4804F096FF3B493B4804F092FF3B4925
:104F70003B4804F08EFF3B493B4804F08AFF0B4A54
:104F80003A49284606F07CFC0AB0BDE8F08700BF2D
:104F900028C10320A0BE032088D803206C000E0087
:104FA000A4BE0320ACBE032080F0FA029CBE032006
:104FB00045570D00E0BF0320D1400D00A5420D0074
:104FC000C1400D00F0C0032075430D0031410D00BC
:104FD0000CC10320054C0D0048C1032064C103200F
:104FE00068D70320B0D703205839343CDBF9BE3FE3
:104FF000ECD70320F8D7032000D8032010D80320D3
:105000006F410D004D410D00A9410D0034D8032022
:1050100025410D0080C00320B0C00320EC060E0027
:105020000CDD0320059E0D00A0C0032015030E001B
:1050300000C0032019030E0010C003201D030E0042
:1050400020C0032028030E0030C003202C030E00D4
:1050500040C0032031030E0050C0032038030E006F
:1050600060C0032040030E0070C0032005410D0006
:10507000CD400D0008B504F051F9014B186008BD92
:1050800020DD032004F04AB9037C03F00803024644
:1050900003F0FF002BB1D36A506A181A48BF6FF0B3
:1050A000004070477047103001F092BF103001F09F
:1050B00069BE07B501220DF10701103001F0AFFD07
:1050C00001280CBF9DF807004FF0FF3003B05DF8DA
:1050D00004FB103002F0EAB807B502AB012203F876
:1050E000011D1030194602F0E1F803B05DF804FB31
:1050F00010B53421044606F0D1FB204610BD000057
:1051000030B585B01C4B009313798DF8043093684B
:105110000293137B8DF80C3000F58C65537B8DF872
:105120000D3004460A466B4600F26C41284602F0F8
:1051300005FCF0B1256004F23C45284601F07EFFF5
:105140000121204602F0A3FA014668B12146284613
:1051500001F04DFD68B194F83C3413F0700316BFB4
:10516000064B18461D6005E0204602F090FA002824
:10517000ECD1002005B030BD6C000E00E0E1032052
:1051800010B50649044604F084FE63232374052108
:1051900004F1140003F094FE204610BDEC060E004E
:1051A00037B5194B18681B798DF80430009006F05C
:1051B00041FB06F0F6F818B906F03CFB06F0ACF837
:1051C00000241DF8045006F035FB294606F0DBF8F4
:1051D00006F030FB06F0E2F820B90134052CF0D1DE
:1051E00001200FE006F026FB06F0DFF806F022FBB8
:1051F000294606F0C8F806F01DFB06F0CFF8002897
:10520000EBD0002003B030BD74030E00014802F063
:1052100042BE00BF25DD032010B5084C0122052148
:10522000204602F038FE322005F0C8FA204600225F
:105230000521BDE8104002F02EBE00BF25DD032091
:10524000014800F0B7BD00BF24DD0320014800F095
:1052500068BD00BF24DD032030B50024944212D085
:10526000085D0509092D00F00F0094BF3035373572
:1052700003F81450092803EB440594BF303037304D
:1052800068700134EAE7002203F8142030BD000002
:1052900030B58DB0054606F0CDFA06F082F818B9A3
:1052A00006F0C8FA06F038F8142005F087FA06F080
:1052B000C1FA202106F067F806F0BCFA06F06EF895
:1052C00080B106F0B7FA06F070F806F0B3FA2021C4
:1052D00006F059F806F0AEFA06F060F8B0FA80F47D
:1052E000640900E00124614802F0C6FD01220021AA
:1052F0005E4802F0C4FD012211465C4802F0BFFD89
:1053000001220221594802F0BAFD01220321574827
:1053100002F0B5FD01220421544802F0B0FD012243
:105320000521524802F0ABFD002206214F4802F051
:10533000A6FD012207214D4802F0A1FD002208210F
:105340004A4802F09CFD00220921484802F097FDDE
:1053500000220A21454802F092FD00220B21434819
:1053600002F08DFD00220C21404802F088FD002251
:105370000D213E4802F083FD00220E213B4802F041
:105380007EFD00220F21394802F079FD0122002123
:10539000364802F09DFD01221146344802F098FD86
:1053A00001220221314802F093FD012203212F48FE
:1053B00002F08EFD012204212C4802F089FD012219
:1053C00005212A4802F084FD01220621274802F027
:1053D0007FFD01220721254802F07AFD01220821E4
:1053E000224802F075FD01220921204802F070FDDB
:1053F00001220A211D4802F06BFD01220B211B48EE
:1054000002F066FD01220C21184802F061FD012224
:105410000D21164802F05CFD01220E21134802F016
:1054200057FD01220F21114802F052FD00210D22EB
:1054300008A801910291079109F0B6F901A90C4859
:1054400000F02EFB07AB082201A92846FFF704FF56
:1054500007A903A804F01DFD03A9284604F063FD75
:1054600003A804F0CFFC20460DB030BD25DD03209D
:1054700024DD032013B504460498E0600090226008
:105480002371A16004F1100003F00EFE204602B06B
:1054900010BD37B501F11005009514310446FFF732
:1054A000E9FF204603B030BD13B502AB632403F817
:1054B000014D103003F023FE9DF80700B0FA80F094
:1054C000400902B010BD13B502AB632403F8014DCF
:1054D000103003F0FEFD9DF80700B0FA80F040099F
:1054E00002B010BD13B504460498E060009022603D
:1054F0002371A16004F1100003F017FE204602B0F2
:1055000010BD37B501F11005009514310446FFF7C1
:10551000E9FF204603B030BD103003F03EBE00006E
:1055200070B503F0FBFE1E481E4E00F0B8FA1E4890
:105530001E4A1F4900244FF47A7304744474446073
:1055400083601C4B036006F09BF91B4B3168DC71D8
:10555000642283F86024194AC3F87024012211EAF6
:10556000020583F83C4483F83D4483F86A44C3F859
:10557000784483F87C4483F87D4483F874241C4683
:105580000AD13046FEF78FFD30B129460C4804F0B1
:105590008FFA3046FEF78CFD094BC4F86C3470BDB1
:1055A00024DD0320A0BE032028DD03209CBE0320B1
:1055B000A5500D0054030E005CDD03206C000E00AE
:1055C000A4BE0320F8B50E46074605F0E3F80546ED
:1055D00005F0D8F8044605F0CBF86401C0B2ADB2CE
:1055E00004F4FF54A5F2BC75044344EA45243C800E
:1055F00005F0A0F8054605F0A7F8044605F0AEF85A
:10560000ED02640105F4FF2504F4FF542C43C0F3BC
:10561000460004433480F8BD70B50446002545605B
:1056200022731D481D4A2060A16022611A792275EB
:105630009A68A2611A7B22775B7B6377184B23629F
:10564000184B63620A23A36242F2107304F58E764C
:10565000E362012384F830306563A56384F8C830C1
:1056600084F8C950C4F8CC3084F8D05084F8D150B4
:1056700084F8F45084F8F55010222946304609F099
:1056800093F8C4F82C51C4F82461C4F82861C4F814
:105690003051204670BD00BF18040E006C000E0093
:1056A00079030E0040420F0010B500F1BC040B4618
:1056B000034A0C21204604F067F9204610BD00BFC4
:1056C0007E030E00F8B5D0F82451044600F1D0074F
:1056D000D4F82C21A36A9A4221D929692046FFF7E0
:1056E000E3FF064605F0B2FC33460D4A012104F003
:1056F00084FE3146384601F0F7FC284606F022F9D0
:1057000004F58E710646284606F094F9FEF7C7FCAC
:10571000D4F82C31013BC4F82C313546D8E7F8BD1C
:1057200087030E0070B506460C464CB1E168304662
:10573000FFF7F8FFA5682046FEF7B1FC2C46F4E71A
:1057400070BD000010B5054BD0F820110360044671
:1057500000F58C70FFF7E6FF204610BD18040E0020
:1057600010B50446FFF7EEFF20464FF49A7106F09D
:1057700095F8204610BD2DE9F0470E4606F1040AC3
:105780008968054617465446012359B13A680B69A2
:105790009A42B4BF8A68CA680C46B4BF012300238A
:1057A0001146F2E733B1F3689C420ED0204606F072
:1057B000DCF800E0204602693B689A4205DB28607D
:1057C00000232B712846BDE8F087A24508D03A682F
:1057D00023699A42ACBF4FF000094FF0010901E084
:1057E0004FF001091420FEF758FC3B6810F1100F30
:1057F00018BF03618046534601462246484606F0DC
:10580000B6F87369C5F80080013373610123D8E7E6
:1058100037B5D0F8CC100446FFF746FF40F20A2314
:10582000024604F1D00104F1F40001F00EFC05463B
:1058300030B104F1CC0204F58C716846FFF79BFF90
:10584000284603B030BD000030B5002380F8C830D2
:1058500090F8C9309DB00446E3B9494B494A007BF2
:105860001A60012105F08AFF474B0C93237D8DF8C8
:105870003430A3690E93237F8DF83C30217B637F06
:10588000A0688DF83D300CAAFFF73AFC84F8C900F7
:1058900000286BD0226A32B3A168002301F23C4198
:1058A0000CA88DF830308DF8313001F0CEFB054674
:1058B000C8B905F0CBFB236A344A012104F09DFDF1
:1058C000A168226A8DF83050012301F23C410CA8F6
:1058D0008DF8315001F099FC28B905F0B7FB2C4A3E
:1058E000012104F08AFDA168226A04F1D005002399
:1058F00001F23C41284601F0A8FB88B3002128466C
:1059000001F070FA00238DF80C308DF80D30002274
:10591000294603A801F01DFBD0B140220CA903A821
:1059200000F0F0FC0CA808F017FE009060B16A4689
:1059300004F58C7101A8FFF71EFF009BD4F8CC2062
:105940009A42B8BFC4F8CC3003A801F077FBDEE779
:105950002046FFF7B7FE2046FFF75AFF68B905E07B
:1059600005F074FB0B4A012104F047FD012384F884
:10597000C83003F073FDC4F830011DB030BD00BF66
:10598000E4E10320C5550D006C000E00C5030E00B8
:10599000A0030E00AD030E0038B50446406B28B1DD
:1059A0000368A26BDB6804F13C01984794F8C830A7
:1059B0005BB1D4F83031002B53D003F04FFDD4F855
:1059C0003031C01AE36A98424BD294F8C930002BA8
:1059D00044D094F8F430002B40D004F1F405A26BCD
:1059E00004F13C01284601F061FC002821DD94F817
:1059F000303013B1284601F0EBFA626AD4F8103166
:105A00009A422BD2284601F019FBD4F8CC3001334E
:105A1000C4F8CC3005F01AFBD4F8CC30134A01217D
:105A200004F0EBFC2046FFF7F3FE2046FFF74AFEAA
:105A300014E005F00BFB0E4A012104F0DEFC2846C1
:105A400001F0FCFA04F1D00001F0F8FA012384F827
:105A5000C830002384F8C930C4F830310023A36370
:105A600038BD2046FFF7F0FEAFE700BFDA030E00B7
:105A7000F5030E0008B5836B5A1C03447F2A82632A
:105A800083F83C1001D80A2901D1FFF785FF0120D6
:105A900008BD03F043BC0368C9B29B681847704750
:105AA00038B50C4605F0C6FE572105F070FC05F030
:105AB000C1FEF221FFF7EFFF05F0BCFE05F06EFC22
:105AC00005F0B8FE0622572105F05AFC651E053484
:105AD00005F0B0FE03685B69984705F8010FA54221
:105AE000F6D138BD2DE9F74F9A469DF83030019335
:105AF00093460D469DF834709DF838609DF83C90B3
:105B000005F098FE804605F055FC05F093FE6F21E8
:105B10000A2405F03CFC05F08DFE0021FFF7BBFFD9
:105B200005F088FEB5FBF4F204FB125505EB0215F7
:105B3000EDB205F07F01FFF7AEFF05F07BFEBBFB8A
:105B4000F4F104FB11BB0BEB011101F07F01FFF736
:105B5000A2FF05F06FFEBAFBF4F104FB11AA0AEBF9
:105B6000011101F03F01FFF796FF05F063FE019B75
:105B7000B3FBF4F104FB113101F0070141F008011E
:105B8000FFF789FF05F056FEB7FBF4F104FB117730
:105B900007EB011101F03F01FFF77DFF05F04AFE21
:105BA000B6FBF4F104FB116606EB011101F01F01D5
:105BB000FFF771FF05F03EFEB9FBF4F1036804FB4B
:105BC000119404EB01119B68C9B2984705F032FEAD
:105BD00005F0E4FB05F02EFE6F2105F0D8FB05F083
:105BE00029FE0021FFF757FF05F024FE45F0800154
:105BF000FFF751FF05F01EFE05F0D0FB404603B055
:105C0000BDE8F04F05F0DFBB2DE9F84FDDF8288047
:105C10000B9F0C9E0D9D994692468B4605F00AFE01
:105C2000044605F0C7FB05F005FE6F2105F0AFFB4C
:105C300005F000FE0021FFF72EFF05F0FBFD05F04B
:105C4000ADFB05F0F7FD6F21072205F099FB05F08C
:105C5000F1FD03685B699847C0B2C0F3021303EB20
:105C6000830300F00F0000EB43008BF8000005F009
:105C7000E1FD03685B699847C0B2C0F3021303EB10
:105C8000830300F00F0000EB43008AF8000005F0EA
:105C9000D1FD03685B699847C0B2C0F3011303EB01
:105CA000830300F00F0000EB430089F8000005F0CB
:105CB000C1FD03685B69984700F0070088F80000A1
:105CC00005F0B8FD03685B699847C0B2C0F30113E3
:105CD00003EB830300F00F0000EB4300387005F086
:105CE000A9FD03685B699847C0B2C0F30012930036
:105CF000134400F00F0000EB4300307005F09AFDF4
:105D000003685B699847C0B2030903EB830300F0A3
:105D10000F0000EB430028702046BDE8F84F05F067
:105D200052BB2DE9F04F07468DB008460C4604F0F3
:105D3000F7FB8046204604F0EBFB8146204604F04A
:105D4000DFFB8246204604F0FBFB0546204604F0BC
:105D5000EFFB0646204604F0FDFB8346204604F098
:105D600003FC0A22014604A804F019F904A902223E
:105D700008A804F0C3F908A804F0C7F9044608A865
:105D800004F040F8E4B25FFA8BF3F6B2EDB202939E
:105D90005FFA89F25FFA8AF35FFA88F13846039472
:105DA00001960095FFF79EFE04A804F02BF80DB0B5
:105DB000BDE8F08F00B591B00DF11B0303930DF119
:105DC0001A0302930DF11903019306AB00930DF131
:105DD00016020DF117030DF11501FFF715FF9DF8E0
:105DE0001B30252B84BF00238DF81B309DF8153008
:105DF00007939DF8163008939DF8173009939DF886
:105E000019300A939DF81A30013B0B939DF81B3013
:105E100007A864330C9308F0ABFD11B05DF804FBE8
:105E200003F07CBA7047000038B50C4605462822BE
:105E30000021204608F0B8FC0B220A49204609F050
:105E40009EFC00230122E372E260AA686362064BB3
:105E5000A36100232261E3610522044B6261236296
:105E600038BD00BF40030E0000E0AB476F12833A1D
:105E700010B51021044605F011FD204610BD0000AC
:105E8000044A026000220273427110228271816012
:105E9000704700BF44040E00807970474079704716
:105EA0004FF6FF73994210B539D09A4237D04379F3
:105EB000013BDBB2042B97BF1A4CDFED1B5A04EBFE
:105EC0008303D3ED005A8379202BB7EE007A08D0F4
:105ED000302B09D0102BF3EE096A18BFF0EE476A99
:105EE00004E0DFED126A01E0DFED116A07EE901ABF
:105EF00006EE102AF8EE677AB8EE466A65EEA66AF4
:105F000086EE275A77EEC67A37EE457A9FED096A14
:105F100067EE277A86EE867A87EE870A10BD9FEDB8
:105F2000060A10BD28040E000000C8420000D64337
:105F300000501A460000CC430000000010B50C468B
:105F400005F078FC292105F022FA05F073FC0368BE
:105F500021469B68984705F06DFC05F01FFA05F097
:105F600069FC0122292105F00BFA05F063FC0368A6
:105F70005B699847C0B210BD10B50C4605F05AFCDD
:105F8000292105F004FA05F055FC036821469B68B9
:105F9000984705F04FFC05F001FA05F04BFC022292
:105FA000292105F0EDF905F045FC03685B69984788
:105FB000044605F03FFC03685B69984744EA00200B
:105FC00080B210BD38B514460D4605F033FC2921CA
:105FD00005F0DDF905F02EFC036829469B6898471B
:105FE00005F028FC036821469B68984705F022FCD1
:105FF000BDE8384005F0D2B938B5037B04460D46FC
:1060000073B1204600F02EF86279A57120462A432C
:10601000A121FFF7D7FF2046BDE8384000F032B895
:1060200000F003F80028ECD138BD38B5044605F07F
:1060300001FC05F071F9B2212046FFF77FFF5028DF
:106040000ED1012561792573204600F02BF8A17946
:106050002046FFF7D1FF204600F014F8284638BD4F
:10606000002038BD10B5037B044633B1204693228F
:10607000A021BDE81040FFF7A5BFFFF7D6FF00281D
:10608000F4D110BD10B5037B044633B12046002285
:10609000A021BDE81040FFF795BFFFF7C6FF00281D
:1060A000F4D110BD38B5037B04460D4673B12046CC
:1060B000FFF7D8FFA279657120462A43A121FFF797
:1060C00081FF2046BDE83840FFF7DCBFFFF7ADFF9A
:1060D0000028ECD138BD38B5037B054623B12846EE
:1060E000FFF7C0FF002404E0FFF79FFF0028F6D170
:1060F00038BD6A79E3B29A4204F1010403D37820EF
:1061000004F05CFBF5E7B4212846FFF735FFB62124
:1061100084B22846FFF730FF44EA00442846FFF7E0
:10612000B1FF204638BDF8B505460C46FFF7D3FF52
:106130002846FFF7D0FF242706463A46002120468E
:1061400008F032FB2760AB6863600523A36003F0AF
:1061500085F9320C2061B1B22846FFF7A1FE84ED2B
:10616000050A0120F8BD03F0D9B803F0D7B870478D
:1061700030B585B0054605F05DFB5C2105F007F9FB
:10618000022004F01BFB05F055FB05F007F905F0B4
:1061900051FB5C2105F0FBF805F04CFB0321FFF7F8
:1061A0007AFC05F047FB0021FFF775FC05F042FB88
:1061B0000421FFF770FC05F03DFB05F0EFF80A2025
:1061C00004F0FCFA05F036FB08225C2105F0D8F853
:1061D000002405F02FFB03685B69984701AB185555
:1061E0000134082CF5D19DF80430032B34D19DF8EF
:1061F0000530042B30D19DF806309FED196A07EE6B
:10620000103A9DF8073007EE903AB8EE477AF8EE6C
:10621000E77AF2EE046AE7EE067A9DF8083003F0BA
:106220007F0287EEA67ADB094FF0010085ED007A48
:1062300007EE102A9DF8092007EE902AB8EEC77ADB
:10624000F8EEE77AE7EE067A87EEA67A18BFB1EEA7
:10625000477A85ED017A00E0002005B030BD00BF2F
:106260000000804310B5044605F0E4FA05F054F848
:106270002046BDE81040FFF77BBF70B504460E46D0
:106280001546FFF775FF18B16368336023682B600C
:1062900070BD03F043B803F041B803F03FB810B548
:1062A0000446243001F0E4F828B104F50C70BDE890
:1062B000104001F0DDB810BD411E00F10A020020BF
:1062C000430843EAC01011F8013F53FA80F08A42B4
:1062D000C0B2F5D1704738B5CB6804460D4623B936
:1062E0008968BDE8384000F082BC2422002108F013
:1062F0005BFA102301202370A070AB68A360EB68E9
:10630000236238BD2DE9F0438BB003780025804629
:106310000E4617468DF804508DF8055063B10C2ACF
:106320000AD90EE0414601A8FFF7D5FF20B10124AC
:1063300098F80330A3420BD24FF0000986F8009082
:1063400055E0C378002BEDD100F0B4FB81464EE060
:10635000B8F80410091B490101A800F043FD81466B
:106360000028E9D0002101A800F01FFD0028E3D09B
:10637000C37A0F2BE0D1037803F01F039C42DBD1DB
:10638000631E0D225A4306EB020E0023042BD9B2E2
:1063900004D800EB4301B1F801100BE00A2995BFC6
:1063A00003F1FF31591C00EB410100EB410194BFA7
:1063B000C988898861B1974210D97E2994BFC9B232
:1063C0003F210EF8031001330D2B02F10102DDD144
:1063D000974203D90378590648BFB554F31903F817
:1063E000015C03785B0602D40134E4B2A0E74846BE
:1063F0000BB0BDE8F08300002DE9F0470378202BB7
:1064000000F1010401D12046F8E7704F886005468D
:106410002C1A2E4615F8013B0BB32F2B01D1031973
:1064200017E05C2B02D10020BDE8F087A3F1220425
:10643000E4B21D2C03D827FA04F4E407F3D403F0E4
:10644000BF043C2CEFD0203B5E2BE1D9EBE72F2D96
:1064500005D11E4613F8015B202DF8D1F9E716602F
:1064600003199842C0EB030809D013F8012D2E2A16
:10647000F7D0202AF5D0B8F1FF0FD4DC01E04FF0BF
:106480000008C1F8048001F10C0301F11702202477
:1064900003F8014F9342FBD103461A1A13F8014B3C
:1064A0002E2CFAD0202CF8D0B2FA82F4640908F12C
:1064B000FF36731C07D100274FF0070E3D46BA4642
:1064C0004FF0080909E0835D2E2BF4D0013EF0E780
:1064D000835C202B04D1002401324245F8DB4BE0E1
:1064E0002E2B02D1B242F6D103E0222B17D07C2B07
:1064F00015D0A3F12A0CBCF1050F01D82D2B0ED11C
:10650000A3F13A0CBCF1050F09D9A3F15B0CBCF166
:10651000020F04D9A3F1210CBCF15D0F02D9B242E4
:106520000ED149E0B24247D0754521D8A3F1610CA4
:10653000BCF1190F08D8203BDBB249EA07070AE093
:10654000754515D800245F23A3F1410CBCF1190F48
:1065500098BF49EA0A0A05F1010C5FFA8CFC0D4468
:10656000BCF1060F6B7301D881F80CC06546B3E728
:10657000BEF10A0F17D100244B7B202B3FF453AF01
:106580003CB11AEA070F18BF02270F700120BDE8BF
:10659000F0870B7B0120087019447E234B73312355
:1065A0008B73BDE8F087B242E5DC32464FF00A0E4D
:1065B00008254FF010098EE7BEF10A0FDBD03246F6
:1065C0004FF00A0E08254FF0100985E70101003150
:1065D000F0B58BB000238DF804308DF805300378CA
:1065E0001907044608D583789A0705D5016A29B1A9
:1065F000A06801F02EF808B9002049E001212046EA
:1066000000F0BCFA05460028F6D0FFF755FEE52657
:106610002E70002307462370A068FFF740FE002875
:10662000EAD0E378002B33D0214601A8FFF753FED0
:106630000028E1D00125E378AB42DDD3A188491BD6
:10664000490101A800F0CEFB0028D5D0002101A807
:1066500000F0ABFB0028CFD0C37A0F2BCCD102784F
:1066600002F01F039D42C7D1437BBB42C4D10670D9
:10667000A16891F8243043F0010381F824305306D7
:1066800003D5A068FFF70BFE02E00135EDB2D2E7BB
:106690000BB0F0BD2DE9F84391F80C9006460D467D
:1066A00002247E2701F10D086968AA6863189BB26D
:1066B0001144914206D012F8010B03EB43134340FF
:1066C0009BB2F6E7B9F1030F28BF4FF0030909F1B8
:1066D0000402D2B203F00F01A818013A0929D2B27C
:1066E00094BF30313731914541734FEA1313F1D3E1
:1066F00005EB090300215F73304600F073FB0121B5
:10670000304600F052FB014628B97078B0FA80F0AC
:106710004009BDE8F88303784BB1C37A1B07EED478
:106720000B22404608F026F80028E8D102E00120BC
:10673000BDE8F8830134A4B2642CB5D1BDE8F88378
:106740002DE9F04F9B460B7889B013F0700F059040
:106750000E46914601D10020A0E1059B1B78002B3D
:10676000F9D15368029313789B0700F08D81029B47
:106770000D270C33B3FBF7F70137FFB2002130468A
:1067800000F030FB4FF0000809F10D02CDF80C804D
:10679000434644464546CDF81080069272690793F9
:1067A00001213046C2F34F1A00F0FFFA079B20B9CF
:1067B0007378002B00F09080CDE70278E52A00D0B6
:1067C00042B9002C08BFD046BC423CBF0134E4B201
:1067D00022B981E0BC4238BF002403E0E52A01D1A0
:1067E0000025DBE72E2AFBD0C17A0F2952D13DB913
:1067F0005106D3D5437B039302F01F052B4607E0D8
:10680000013BDBB29A42EBD1427B03999142E7D143
:106810005A1E4FF00D0C0CFB02FC029A6245DFD9A8
:106820004FF0000EBEF1040F5FFA8EF204D800EBB9
:106830004E02B2F801200CE00A2A95BF0EF1FF3299
:106840000EF1010200EB420200EB420294BFD2883B
:1068500092880299614503D1002A18BF00259DE75F
:10686000FF2ABDD8D2B2A2F141011929D9F80810E6
:1068700011F80C1098BF20320CF1010AA1F1410C63
:1068800098BFD2B2BCF1190F9CBF2031C9B291425E
:10689000A6D1FBE00907A3D44DB1012B7FF45BAF78
:1068A000FFF70AFD039B83427FF455AF0FE00B22F5
:1068B0000699079307F05EFF079B00287FF46EAFF1
:1068C00099F80020D20702D50122049266E71BF452
:1068D000006F00F0D1803EE71BF4007F3FF43BAF38
:1068E0000BF00303013B012B3FF635AF002C08BF33
:1068F000D046BC4202D3049BCBB91FE000213046F6
:1069000000F053FA10B973785BB124E70134E4B2B4
:10691000EFE7B3681B79012BEDD81034E4B2A7423E
:10692000E9D9304600F0EAF80028F2D113E74946E9
:106930003046FFF7AFFE00283FF40DAF4FEA481195
:10694000304600F04FFA00283FF405AF7D1EEDB24F
:106950002C464FF0000A4FF00F0841E0002130466E
:1069600000F023FA074600283FF4F5AEB26892F82B
:106970002430AC4243F0010382F824300CBF44F0D1
:1069800040022246027080F80B8080F80CA009F1CA
:106990000D000392FFF790FC039A787387F81AA012
:1069A00087F81BA002F01F020D23013AD9F808E076
:1069B0005A4300230299914215D91EF80210042B64
:1069C0005FFA83FC03F1010013D807EB4303A3F83C
:1069D00001100D2802F101020346EBD1013CE4B2A3
:1069E000002CBBD10EE014BF4FF0FF31002189B263
:1069F000E5E7BCF10A0F94BF07EB430307EB400345
:106A00009980E6E7736921463046C3F34F1A00F0D8
:106A1000CCF9074600283FF49EAE2022214607F01D
:106A2000C3FE4B4653F80D2F3A605A687A601A89B4
:106A30003A819B7ABB7299F8003003F018033B73DC
:106A4000184B1B682BB107F10E0107F11000984796
:106A500006E021233B7428237B740823BC73FB735B
:106A60003B8A7B823B83FB89FB82B26892F82430AD
:106A700043F0010382F8243000955B4652463146CC
:106A8000059800F0F8F909E0012777E60EF1010E0C
:106A9000BEF10D0F3FF482AED446C3E609B0BDE8A7
:106AA000F08F00BFE4E1032002F038BC02F036BCF6
:106AB00002F034BC10B50C46017809B9002010BDB5
:106AC00011F0600104D02F2323700023637006E0CF
:106AD00000F054F80028F1D0214600F05EF80120C3
:106AE00010BD02F01BBC8378016943F0040383707E
:106AF00000F11002806800F071BD00002DE9F04146
:106B0000037803F02003044603F0FF050BB10026D1
:106B10002EE04269184B9A42F9D8FFF7E4FF064687
:106B20000028F4D02169A06800F0EDFC0746A068B9
:106B300005223946243000F0C2FC80460028E6D009
:106B400029464FF4007207F02FFE0125A3681A7939
:106B5000AA4209D94246E919186801F02DF800281F
:106B6000D5D00135EDB2F1E7636903EB42236361F0
:106B70003046BDE8F08100BFFFFD1F0010B50446A0
:106B800080680A462430A16900F099FC20B1A388EE
:106B900003F00F0300EB431010BDF0B50024451EB9
:106BA000082623462E2715F8012F202A18D0082C56
:106BB00002BFCF545A1CD3B22A78A2F1410E08BFAB
:106BC0001026BEF1190F06D890F80CE016EA0E0F49
:106BD0001CBF2032D2B203F1010ECA545FFA8EF309
:106BE00001340B2CDFD10022CA541846F0BD70B519
:106BF000047805460E4684B92422214607F0D4FDC8
:106C0000AE60F379102B03D0202B06D1402300E097
:106C1000202301202B70A87070BD002070BD2DE9CD
:106C2000F74F03780446894615464BB18278D10761
:106C300006D50CE05A46216900F06BFC00283DDACD
:106C4000637843F0020363704FF0FF3097E01A0758
:106C500003D5E36962699B1A07E09A0608D5A36821
:106C60001A896369C3EB42139BB29D4228BF1D463C
:106C70002E464FF0000804F1100B002E35D022787C
:106C80006369A06812F0200FC3F3080A4FEA53218A
:106C900002D0036A19441DE090F8058001EA080853
:106CA000BAF1000F10D1B8F1000F0DD1002BC1D1F6
:106CB00053064CBF036A236A236105E004D123789D
:106CC00013F0700F11D1BBE72169A06800F01BFC25
:106CD00008EB0001A068BAF1000F35D1B6F5007FCE
:106CE00032D3C36A994202D12EE0A81B47E0B6F521
:106CF000806F1BD3227897064FEA562A06D4027972
:106D0000C8EB0202D2B2924528BF924699424FEA9E
:106D10004A2707D2A06853464A46006800F00AFF97
:106D200060B98DE75344994221D3F3E74A4600689E
:106D300000F0B8FE002883D04FF4007763693B442D
:106D4000B9446361F61B98E70022243000F0B7FBDA
:106D500000283FF475AFCAF50077B74228BF374621
:106D600000EB0A013A46484607F013FDE6E72430F7
:106D7000019100F07DFB01990028CBD160E703B0C1
:106D8000BDE8F08F73B501220DF107010446466995
:106D90000569FFF744FF012805BF9DF807006661FC
:106DA0004FF0FF30256102B070BD37B54369C3F3C2
:106DB0004315044605B169B901220DF107012046CA
:106DC000FFF72DFF40B2012801D0002008E06369E1
:106DD0001F3300E02033A0686361303000EB4510C2
:106DE00003B030BD2DE9F0410E4601780769044635
:106DF000002939D04569B5423AD00EB9066131E073
:106E00000B0703D5C3699E422ED807E0880605D537
:106E1000A3681B89B6EB431F26D823E0D4F808E00B
:106E20009EF806306A1E03F10900731EC240C3407B
:106E30009A4200D84DB94A064CBFDEF82020226A9B
:106E400022611D4604F110080AE09B1AF9E7424648
:106E50002169A06800F05DFB002805F1FF3503DD26
:106E6000002DF4D1666103E027610020BDE8F081C8
:106E70000120BDE8F081F8B50F4615460021242217
:106E800004461E4607F090FCB868A06005F00F02AB
:106E9000A58000F1300152013B6AE3601144CB7AD6
:106EA0001D074CD4831893F83B3003F0170323706D
:106EB000C97A11F0180F04BF43F0080323709DF83E
:106EC0001830E37006F00303012B09D0022B05D024
:106ED000002B34D1710532D4012302E0032300E0FA
:106EE0000223A370A1788B0703D5237813F0110F29
:106EF00025D14BB216F4005F06F0080114BF6FF005
:106F00007F07002719433943A170C36AA361024474
:106F10007505B2F84410B2F84A3043EA014104D58D
:106F200081B100F096FB68B909E02162D36CE3619E
:106F300073040CD5E1692046FFF754FF38B90020EF
:106F40002070F8BDA37843F00403A370F0E701209C
:106F5000F8BD2DE9F743037806460D46174653BBA7
:106F60000B7813F0700F26D04C6914F01F0422D157
:106F7000A04600212846D5F81490FFF716FFD0B19F
:106F80000378C3B12E2B01D10024F2E7E52BFBD00F
:106F9000C17A11F0080F05D17CB1FFF78DF980455A
:106FA00009D10AE00F29EFD15906E2D503F01F04F9
:106FB00090F80D80DDE7002007E000943B46C9F320
:106FC0004F1229463046FFF756FF03B0BDE8F08365
:106FD00038B5037804460BB9012038BD83785A07C9
:106FE00023D50121FFF7CAFD054628B9637843F090
:106FF00001036370002038BD0378E52BF6D02378B9
:107000001B0744BFE369C361238C4383638C838282
:10701000094B1B682BB100F11601183098472B8BD8
:107020006B82A37823F00403A370A068FFF737F9FD
:107030000028DBD0D0E700BFE4E1032010B5044610
:10704000FFF7C6FF0023237010BDF0B593B01F46B5
:1070500000238DF824308DF8253003780192064600
:107060000C460BB100203DE00B7813F0700FF9D007
:1070700013782F2B12D1019B1A782F2A02D10133BA
:107080000193F8E7A1681AB93046FFF7B0FD29E08F
:1070900009A8FFF7ACFD0028E4D009AC01AA03A9B8
:1070A0000198FFF7A9F90028DCD0019B1B789BB160
:1070B000002303AA21463046FFF742FB0028D1D027
:1070C00035460FCD09AC0FC40FCD0FC42B6823601C
:1070D0003046FFF7B3FFE0E73B4603AA21463046C0
:1070E000FFF72EFB13B0F0BD00B58BB000238DF879
:1070F00004308DF805300A460123014601A8FFF748
:10710000A4FF10B101A8FFF763FA0BB05DF804FB10
:107110002DE9F0410B7813F0700F88B004460F464C
:107120001CD040F60223FFF70BFBB8B10126102557
:10713000A67025702046FFF7E1FC78B12369236231
:1071400000212046FFF74EFE2046FFF741FF28B101
:1071500031462046FFF712FD034608B9002051E0F2
:10716000C57202466E4600F1200C6D4610685168EB
:10717000B646AEE80300083262457646F6D1B3F86B
:1071800014805E8B2E238DF8003020210023EA1816
:1071900001330A2B5170FAD1216AA06800F0B3F9CB
:1071A000A3680146012203F1240000F088F9034698
:1071B0000028D3D0ADF81A60ADF81480AE4606466C
:1071C0000DF1200C724603CA62453060716096462C
:1071D00006F10806F6D12E228DF801203A6AADF8A4
:1071E0001A20110CADF81410203308AE2A4603CA39
:1071F000B24218605960154603F10803F6D1A06841
:10720000FFF74DF808B0BDE8F081F0B593B01F4628
:1072100000238DF824308DF825300378019206463E
:107220000C46002B3ED10B7813F0700F3AD0137838
:107230002F2B0CD1019B1A782F2A02D101330193F5
:10724000F8E7A16809A8FFF7D2FC58B309AC01AA76
:1072500003A90198FFF7D0F820B3019B1B78DBB19D
:10726000002303AA21463046FFF76AFA58B1354693
:107270000FCD09AC0FC40FCD0FC42B68236030466F
:10728000FFF7DCFEE2E76FB103AA21463046FFF7C5
:107290003FFF0028EBD105E003AA21463046FFF767
:1072A00037FF00E0002013B0F0BD00002DE9F047EB
:1072B0000378894619070446904608D583789A07CB
:1072C00005D51B070BD5E169FFF78CFD38B963784D
:1072D00043F0010363704FF0FF30BDE8F08763694E
:1072E000DB439845F3D846464FF0000A6369002E09
:1072F00000F08180A068427912EA5325C3F30807A1
:107300001CD1DFB9216971B104F1100200F001F95B
:107310000028DCDB40F08E802046FFF7E4FB0028ED
:1073200040F08880D3E7236A3BB92046FFF7DBFBB8
:107330000028CCD02369236200E023612169A06882
:1073400000F0E1F8291817B9B6F5007F21D2C7F58A
:107350000075B54228BF354637B96369E269934283
:1073600034BF0122052200E00122A068243000F091
:10737000A6F80028ABD038442A4649462F4407F0E7
:1073800008FAB7F5007F30D1A068243000F070F81B
:1073900017E0B6F5806FA06815D30279521B730A07
:1073A000D2B2934228BF1346C26A91424FEA4325A4
:1073B00002D31A44914237D3A7684A46386800F08E
:1073C0006DFC90B983E7C36A994202BF4FF0FF3367
:1073D00080F824A0C362A3684A46186800F0ECFB5A
:1073E00000283FF474AF4FF4007563692B44636168
:1073F000A944761B7AE7E269934201D9E36102E08E
:107400000F4B1B681BB1A37843F00403A37094F9DE
:107410000230002B02DB4046BDE8F0872046FFF734
:10742000D7FD0028F7D152E74FF0FF3280F824A0B3
:10743000C262C1E72169A06800F065F8014683E7F0
:10744000E4E1032001F06ABF70B505460C4608462A
:1074500049B108F077F92B68024621462846DB68D7
:10746000BDE87040184770BD01F058BF01F056BF2D
:1074700070B50378DA0704461ED54368816800F1C9
:107480000C063246186800F097FB054608B900253F
:1074900013E023789B0704D4237823F0010323709F
:1074A0000BE06368A068196932460144186800F06F
:1074B00083FB0028F0D1EAE70125284670BD70B5AE
:1074C00083688B4204460E46154614D0FFF7D0FF62
:1074D00008B9002070BD6B0703D500232370A66098
:1074E00009E0636804F10C023146186800F0DAFA2A
:1074F0000028F2D1EDE72378204605F003051D436F
:1075000000F80C5B70BD83794069023999400844EA
:107510007047012970B505460C46164602D84FF053
:10752000FF3070BDC3699942F9D8C379202B10D1BF
:107530008169022201EBD41100F50C70FFF7BFFF47
:107540000028ECD004F07F0450F8243023F070437E
:107550000FE0102BE3D18369C1F307210222194404
:1075600000F50C70FFF7ABFF0028D8D0E4B230F87C
:107570001430EA6993429ABF33600120002070BD45
:10758000012938B50C46154601D8002038BDC3691D
:107590009942FAD8C379202B0ED18169032201EBDD
:1075A000D41100F50C70FFF78AFF0028EDD004F02D
:1075B0007F0440F824500FE0102BE6D18369C1F31B
:1075C00007210322194400F50C70FFF778FF00280B
:1075D000DBD0E4B220F81450012038BD2DE9F3418E
:1075E000C4688C4205460E46904607D20C460027DA
:1075F000EB6901349C4203D9CFB9EC680127F7E766
:10760000A64214D001AA21462846FFF782FF00288F
:107610000DDBEDD0019B002BEAD107B1EC606FF0E0
:10762000704221462846FFF7ABFF074608B90027FE
:107630000BE016B9C8F8004007E02246314628465C
:10764000FFF79EFF0028F5D1F1E7384602B0BDE80C
:10765000F08173B505460C4601AA21462846FFF77E
:1076600058FF061E01DA00200FE0002221462846BE
:10767000FFF786FF0028F6D0EB689C429CBF04F120
:10768000FF34EC60019C002EE6D102B070BD70B5F5
:10769000012304460022C3604FF0FF33C2710D4640
:1076A000A06280F82420C362C4F8340280F830223B
:1076B000C0F83832A1B104295DD811462430FFF753
:1076C000FEFE002857D000EB051393F8AE315B06A1
:1076D00051D11B3500EB0515D5F80650002D4AD0C9
:1076E0000022294604F12400FFF7E9FE002842D0D9
:1076F000B0F80B30B3F5007F3DD1037C022B3AD1BB
:10770000C389002B37D0417B21714B1E637100234D
:10771000A371092601238B4207D0013E2BD0A27909
:107720005B000132DBB2A271F5E7C28A02B9426A9C
:107730002261C6892E44A661B0F81130238106EB80
:1077400042012162B0F81120520102F2FF1201EB56
:1077500062226261B0F8133003B9036AAD1A2B4498
:10776000A57923FA05F56B1CE36140F6F4739D429D
:1077700003D80C23E371002070BD4FF6F4739D42D3
:1077800085BFC36A236210232023E371012070BDEB
:1077900001F0C4BD01F0C2BD01F0C0BD70B50E4C1A
:1077A0000E46154601F052FE2368C01A0B4B984254
:1077B00008D901F053FE0A4B186002F08DF801F071
:1077C00045FE206001F04AFE80B2801BA842D4BF73
:1077D0000020012070BD00BFE8E10320A086010069
:1077E00008E6032038B5057A04464DB9406800F034
:1077F0007DFA63682946187D03F0D1FF01232372C7
:1078000038BD10B5037A04466BB143680121187D79
:1078100003F0C5FFFF21606800F09AFA606800F08D
:1078200079FA0023237210BDF8B504460D461646BA
:1078300001F014FE87B2606800F06FFAFF286072F2
:1078400009D14FF47A7239462046FFF7A7FF002886
:10785000F1D055230BE0FE2801D0502307E032463B
:107860002946606800F05EFA607230B160232046FD
:107870002370FFF7C6FF0020F8BD606800F04DFAE6
:10788000606800F04AFA0120F8BD70B504460E4663
:1078900001F0E4FD85B2324629462046FFF77EFF1F
:1078A00030B9606800F039FAFF28F4D1012070BDCA
:1078B000002070BDF7B5037A019204460D460BB95E
:1078C000FFF790FF25B14FF496712046FFF7DDFFDB
:1078D00045F04001606800F03BFA0DF107060DF13C
:1078E000030716F80119606800F032FABE42F8D1B9
:1078F000002D0CBF95218721606800F029FA60688F
:1079000000F00BFA0B25606800F007FA03066072BE
:1079100003D5013D15F0FF05F5D103B0F0BD70B5FD
:1079200004460D46164637210022FFF7C3FF3246B4
:1079300029462046BDE87040FFF7BCBF2DE9F04165
:1079400000250572057085724160044690461E460A
:1079500001F084FD41460746606800F0CBF963689A
:107960004F4A1D724FF00108DA605D7483F8108091
:107970002046FFF737FF63684146187D03F00FFF8D
:107980000A25FF216068013D00F0E2F915F0FF05CE
:10799000F7D163682946187D03F001FF0A2500220C
:1079A00011462046FFF786FF0128804612D0013D90
:1079B00015F0FF0501D1202357E0FD21606800F09C
:1079C000C7F94FF40278606800F0A7F9B8F1010830
:1079D000F9D1E4E74FF4D57208212046FFF76AFF9A
:1079E000052802D184F80A800FE00425606800F0C1
:1079F00094F9013D15F0FF056072F7D1AA2802D174
:107A00000223A37201E025232FE0A37A022B0CBFEF
:107A10004FF080450025BFB22A4629212046FFF7B6
:107A20007EFF024648B14FF4FA6239462046FFF71E
:107A3000B5FE0028F0D0432317E0A37A022B0ED026
:107A40002046FFF7DEFE6368B0683479317B727BD5
:107A50005A74D8601C7219740120BDE8F0813A2173
:107A60002046FFF727FF38B1372320462370FFF762
:107A7000C8FE0020BDE8F081606800F04EF900F01B
:107A8000C000C02804BF0323A372606800F045F95A
:107A9000606800F042F9606800F03FF9D0E700BF8D
:107AA00090D0030038B5837A032B18BF49021546DE
:107AB0000A4611210446FFF7FDFE10B13023237062
:107AC0000BE029464FF400722046FFF7ADFE054655
:107AD00018B12046FFF795FE03E02046FFF791FE20
:107AE0000025284638BD10B5837A032B0A4618BFF7
:107AF0004A0212210446FFF7DDFE30B13123204651
:107B00002370FFF77EFE002010BD012010BD10B5D0
:107B100000220C210446FFF7CDFE30B12823204679
:107B20002370FFF76EFE002010BD2046FFF769FEB0
:107B3000012010BDF8B5054616461F46FFF7D3FFD6
:107B400098B10024A3B29F4206EB442108D94FF418
:107B500000722846FFF768FE01340028F2D104E0E5
:107B60002846BDE8F840FFF7D2BF0020F8BD38B581
:107B700004461546406800F0EBF84FF400722946C1
:107B8000606800F0E9F8FF21606800F0E1F8FF218B
:107B9000606800F0DDF8606800F0BFF8607200F027
:107BA0001F00052806D0572320462370FFF729FE23
:107BB000002038BD012038BD70B5837A032B18BF73
:107BC000490215460A4618210446FFF773FE064689
:107BD00008B132231DE02A46FE212046FFF7C7FFE9
:107BE000C0B14FF4FA612046FFF74FFE054608B9D1
:107BF0005A230EE032460D212046FFF75BFE38B9CE
:107C0000606800F08AF818B92046FFF7FAFD05E031
:107C1000292323702046FFF7F4FD0025284670BD78
:107C200038B50D464FF4FA610446FFF72EFE10B941
:107C30005B23237005E02A46FC212046FFF797FFCF
:107C400018B92046FFF7DDFD002038BD10B5837A56
:107C5000032B0A4618BF4A0219210446FFF72AFEE1
:107C600030B1332320462370FFF7CBFD002010BD39
:107C7000012010BD38B54FF4FA610446FFF705FE48
:107C8000054620B1FD21606800F062F801E056234E
:107C900023702046FFF7B5FD284638BDF8B50546E8
:107CA00016461F46FFF7D2FF70B10024BC4206EB18
:107CB0004421284604D0FFF7B3FF28B10134F5E78B
:107CC000BDE8F840FFF7D6BF2846FFF79AFD002031
:107CD000F8BD01F023BB01F021BB01F01FBB000088
:107CE000014B01221A707047ECE10320011D00686E
:107CF00001F012BF10B504460175006801F0E2FE04
:107D0000207D012103F03AFD207D0121BDE81040D6
:107D100003F045BD006801F0E6BEFF21006801F0F8
:107D20006BBF000037B5084B00930025074C006877
:107D3000257013460A46294601F064FF2378002B7C
:107D4000FCD0002003B030BDE17C0D00ECE103204D
:107D5000006801F051BF000037B5074B00930025C4
:107D6000064C0068257013462A4601F04BFF237825
:107D7000002BFCD003B030BDE17C0D00ECE1032012
:107D800001F0CCBA10B5044603F054FD0368214657
:107D90009B68BDE81040184708B503F04BFD036829
:107DA0005B699847C0B208BD38B504460D4603F07C
:107DB00041FD217841F0200103F0E9FA2846FFF760
:107DC000E1FF03F037FD03F0E9FA03F033FD21781A
:107DD000012241F0200103F0D3FABDE83840FFF75B
:107DE000DBBF70B5064614460D4603F023FD31781F
:107DF00041F0200103F0CBFA2846FFF7C3FF2046ED
:107E0000FFF7C0FF03F016FDBDE8704003F0C6BAEF
:107E10002DE9F0419DF81860072998BF1E4601F032
:107E200007079046314601240546BC40FFF7BCFFDA
:107E3000B8F1000F01D0044301E020EA0404E2B2EB
:107E400031462846BDE8F041FFF7CBBF10B5072902
:107E500028BF07210170044603F0ECFC03F05CFA34
:107E60002046FF220021FFF7BCFF2046FF22012110
:107E7000BDE81040FFF7B5BF0021FFF7E7BF07B52A
:107E80000123B2FA82F2009352090023FFF7C0FFE8
:107E900003B05DF804FB0829F8B501F007060C46AD
:107EA00034BF1421152105461746FFF77DFF012336
:107EB000B3400FB1034301E020EA0303082CDAB218
:107EC000284634BF12211321BDE8F840FFF789BFCF
:107ED00007B50D2300930C23FFF79AFF03B05DF85D
:107EE00004FB01F01BBA704710B50C4603F0A2FC6E
:107EF000602103F04CFA03F09DFC036821469B6867
:107F0000984703F097FC002103F044FA03F092FC39
:107F10000122602103F034FA03F08CFC03685B69F2
:107F20009847C0B210BD10B5044603F083FC03F0BF
:107F3000F3F90C212046FFF7D7FFA0F1C403584204
:107F4000584110BD38B514460D4603F073FC60214E
:107F500003F01DFA03F06EFC036829469B689847FE
:107F600003F068FC036821469B68984703F062FCB5
:107F70000121BDE8384003F00DBA10B526210446B2
:107F8000FFF7B2FF262100F07F022046BDE8104037
:107F9000FFF7D8BF072928BF072138B50D4626218E
:107FA0000446FFF7A1FF00F0C70040EAC502D2B2C5
:107FB00020462621BDE83840FFF7C4BF0722132121
:107FC000FFF7C0BF10B526210446FFF78DFF26211D
:107FD00000F0FD022046FFF7B5FF26212046FFF7FF
:107FE00083FF40F00202D2B220462621BDE81040B5
:107FF000FFF7A8BFF8B500210746FFF775FF00217E
:108000003846FFF771FF03F015FC602103F0BFF95C
:1080100003F010FC0121FDF73EFD03F00BFC0021F5
:1080200003F0B8F903F006FC0322602103F0A8F97D
:1080300003282CD103F0FEFB03685B6998470646D2
:1080400003F0F8FB03685B699847044603F0F2FB12
:1080500003685B6998473604240206F47F0604F43B
:108060007F44C5B234432C433846FFF7ABFFC5F31A
:108070000115A31107EE905A00EE103AF8EE677A58
:10808000B8EEC00AB5EE007AA7EE870AF8BD9FEDFC
:10809000010AF8BD00C079C401F040B913B5054B21
:1080A0001B788DF800303C23044602F079FD204611
:1080B00002B010BDEDE103202DE9F84F2DED028B4C
:1080C00041F27865044643598A4623B99FED2A0A4E
:1080D00081ED000A4CE000F5B35341F2746B18696E
:1080E00005F0B2FC0022254B05F002FD0646605962
:1080F00054F80B3007EE900AF8EE677A0F4617EE49
:10810000900A08EE103A05F09FFC32463B4605F017
:10811000EFFCF8EE487A804617EE900A894605F0A3
:1081200093FC02460B464046494605F00BFE05F01F
:10813000D7FF002344F80B30635141F27C65804641
:10814000605907EE900AF8EE677A17EE900A05F08C
:108150007BFC0B4602463946304605F0F3FD05F040
:10816000BFFF4FF0FF33CAF8000000EE108A6351E2
:10817000BDEC028BBDE8F88F0000000000408F408E
:10818000F8B5054603F056FB02224D2103F0F8F83E
:1081900003F050FB03681B699847022832D103F0B3
:1081A00049FB03685B699847064603F043FB036895
:1081B0005B69984740EA062007EE900AF8EE677A76
:1081C00005F5B55417EE900A05F03EFC0022104B61
:1081D00005F08EFC0CA3D3E9002305F089FC0646CC
:1081E00020690F4605F030FC02460B463046394602
:1081F00005F0CCFA05F074FF41F2B4622061AB588F
:108200000133AB50F8BD00BF48E17A14AE472B40B4
:108210000000303F41F2B46200F5B5538158D3ED10
:10822000046A07EE901AB8EE677A82B0C6EE877AD3
:1082300000211961002383509FED057A67EE877A4C
:10824000FCEEE77ACDED017ABDF8040002B070478C
:1082500000007A4400F5B35393ED000AD3ED027A9F
:10826000B8EE400A00221A6020EE270A704700008C
:10827000F8B541F290672DED028BC3599FED288A26
:108280000446002B41D007EE903A00F5B456D6EDE7
:10829000036A96ED027AF8EE677A3546C7EE278ACA
:1082A00086EEA77AC7EE287A17EE900A05F0CCFB87
:1082B00041EC100B03F0E4FD002251EC100B194BC4
:1082C00005F016FC14A3D3E9002305F03BFD05F0EF
:1082D00007FFF4EEC88AF1EE10FA00EE100A48BF6C
:1082E000DFED117A86ED028A48BF30EE270A0023BF
:1082F000B5EEC00AF1EE10FA85ED038AE35106D51A
:10830000DFED0A7A30EE270A01E0B0EE480ABDEC54
:10831000028BF8BDAFF300806E861BF0F921094097
:108320000000000000806640000034430000B443B9
:10833000A1F69803C72B42D9A1F63403632B41D988
:10834000A1F54863622B40D9A1F61C43632B3FD9AA
:10835000A1F632736C2B3ED9A1F674634F2B3DD935
:10836000A1F6C4636D2B3CD9A1F64853632B3BD9CE
:10837000A1F6F253812B3AD9A1F62823632B39D9E0
:10838000A1F6BE23632B38D9A1F2E653452B37D98A
:10839000A1F22C63452B36D9A1F2BE53272B35D938
:1083A000A1F26C73632B34D9A1F2A461DFED1A7AC8
:1083B0003229BFEE000A38BFB0EE670A70479FED62
:1083C000170A70479FED160A70479FED160A70470F
:1083D0009FED150A70479FED150A70479FED140A2F
:1083E0007047B1EE060A70479FED120A70479FED85
:1083F000120A70479FED110A70479FED110A7047EE
:108400009FED100A70479FED100A70479FED0F0A0D
:1084100070479FED0F0A7047295C2F40C3F5484015
:1084200085EB61401F857B40713D8A4052B8964084
:108430001F85A340E17ABC400000000014AEC73E97
:10844000713D4A3F3D0A973FC3F5C83F48E1FA3FB7
:108450003D0A17400000000030B52DED028B41F2BF
:10846000846383B00446C05A03F0B2F90146204643
:10847000FFF75EFFB5EEC00AF1EE10FA3CDD10EE3C
:10848000100A05F0E1FA1EA3D3E9002341EC180B12
:1084900005F0A0FD80B3B0EE480AF0EE680A03F0E4
:1084A0003BFF04F5B45553EC102BA868CDE900232D
:1084B00005F0CAFADDE9002305F068F905F010FEC1
:1084C000B0EE480AF0EE680AA86003F08DFF04F5EC
:1084D000B45553EC102BE868CDE9002305F0B4FA4D
:1084E000DDE9002305F052F905F0FAFD41F2906252
:1084F000E860A3580133A35003B0BDEC028B30BD3C
:1085000037C30DF8FC90184030B585B002AA03A916
:108510000446FDF7B2FEDDED037AB2EE047A67EEB3
:10852000877A0546FCEEE77A04F10A0017EE901A06
:1085300001F6AC2189B200F076FEDDED027AFCEEA8
:10854000E77A04F60630CDED017ABDF8041000F0AC
:108550006AFE002D48D09DED027AB5EEC07AF1EEAC
:1085600010FA13DDDFED317AB4EEE77AF1EE10FAAE
:108570000CD504F5B453D3ED057A77EE877A41F242
:108580009862C3ED057AA3580133A350039805F010
:108590005BFA0022264B05F0ABFA0022254B05F0D2
:1085A000D1FB0022244B05F0F1F805F099FDDFED39
:1085B000237A07EE100AB4EEE77AF1EE10FA13DD33
:1085C000DFED1F7AB4EEE77AF1EE10FA0CD504F580
:1085D000B453D3ED077A77EE877A04F5B552C3ED3D
:1085E000077A13680133136004F10800FFF702FDF6
:1085F000DFED147AB4EEE70AF1EE10FA13DDDFEDE9
:10860000127AB4EEE70AF1EE10FA0CD504F5B55380
:10861000D3ED017A37EE800A41F2A86283ED010AB8
:10862000A3580133A35005B030BD00BF0000D242B3
:10863000000022400000144000004040000048C2FA
:108640000000164300409C4700D8D64700F5B552BD
:108650009FED090A13686BB107EE903A00F5B4502C
:1086600090ED077A80ED070AF8EE677A002387EE2F
:10867000270A1360704700BF0000000041F2A861A4
:108680009FED090A43586BB107EE903A00F5B552D9
:1086900092ED017A82ED010AF8EE677A002387EE07
:1086A000270A4350704700BF00000000F8B5044699
:1086B000104692681E4602F1080323F0070300AF3C
:1086C000ADEB030D69460023013201F0DEFC2E21E3
:1086D00068466D4606F0E6FAA8B10346F21AD042A3
:1086E000194603D40A780133002AF7D100224B1E21
:1086F0000A701978302902D103F80129F9E72E29E7
:1087000004BF00221A702946204601F0C2FB204611
:10871000BD46F8BD000000002DE9F0479E4C9F4D7E
:10872000C0B00E4680460A222168684601F04AFC25
:10873000694604A801F0ECFB294604A801F093FC6B
:108740000A220746A18808A801F029FC08A9384692
:1087500001F07DFC294601F086FC8146E088904FBF
:1087600007EE900AF8EE677A17EE900A05F06CF9BA
:1087700083A3D3E9002305F0E5FA02460B460CA8D3
:10878000394601F0C7FC01230CAA314610A8FFF7B7
:108790008DFF10A9484601F05AFC294601F063FC00
:1087A0000A228146217A14A801F0E7FB14A9484661
:1087B00001F04DFC294601F056FC8146608907EE28
:1087C000900AF8EE677A17EE900A05F03DF96EA36D
:1087D000D3E9002304F0D8FF0022724B05F088F99A
:1087E0000022714B05F0AEFA0022704B04F0CEFF70
:1087F00002460B4618A8394601F08CFC18AA012342
:1088000031461CA8FFF752FF1CA9484601F01FFC87
:10881000294601F028FCA3899FED657ADFF89C9139
:1088200007EE903AF8EE677A8246C7EE876A16EE50
:10883000900A05F009F902460B4620A8494601F0C6
:1088400069FC20AA0323314624A8FFF72FFF24A99F
:10885000504601F0FCFB294601F005FC82462069E8
:1088600005F0F2F84AA3D3E9002305F06BFA0246BB
:108870000B4628A84F4901F04DFC28AA0223314697
:108880002CA8FFF713FF2CA9504601F0E0FB294666
:1088900001F0E9FB8246A08A05F0C4F838A3D3E9C9
:1088A000002305F04FFA05F01BFC05F0CDF8024659
:1088B0000B4630A8394601F02DFC30AA0123314681
:1088C00034A8FFF7F3FE34A9504601F0C0FB294657
:1088D00001F0C9FB0546E08A07EE900AF8EE677AD8
:1088E00017EE900A05F0B0F80022334B05F02AFA93
:1088F00002460B4638A8494601F00CFC032338AA6F
:1089000031463CA8FFF7D2FE3CA9284601F09FFB68
:108910000146404601F0FCFA3CA801F073FA38A881
:1089200001F070FA34A801F06DFA30A801F06AFA8B
:108930002CA801F067FA28A801F064FA24A801F035
:1089400061FA20A801F05EFA1CA801F05BFA18A8F1
:1089500001F058FA14A801F055FA10A801F052FAE3
:108960000CA801F04FFA08A801F04CFA04A801F095
:1089700049FA684601F046FA404640B0BDE8F08743
:108980008FC2F5285C259940000000000057A540E3
:10899000A1D634EF382A75401CD8032058040E00A5
:1089A0005A040E00000022400000494000004040F0
:1089B0000070C64664040E0000408F405F040E0045
:1089C00030B5054600F5B05089B00430FCF738FCEE
:1089D000874C01A920602846FFF76EFB10EE100AB5
:1089E00005F032F87AA3D3E9002305F081F841ECD1
:1089F000100B03F001FC51EC100B05F051FB80B2A1
:108A000005F010F874A3D3E9002305F09BF905F0F5
:108A100047FB0A2281B204A8E18001F0C0FA049A5F
:108A2000744902A8FFF73AFB03A8FBF7D5FE04A898
:108A300001F0E8F92846FFF70DFCDFED6F7A60EEF4
:108A4000277A17EE900A04F0FFFF41EC100B03F0B9
:108A5000D3FB51EC100B05F023FB80B204F0E2FFD6
:108A60005FA3D3E9002305F06DF905F019FB0A2295
:108A700081B204A8A18101F092FA049A5F4902A888
:108A8000FFF70CFB03A8FBF7A7FE04A801F0BAF957
:108A90002846FFF7EDFB10EE100A04F0D5FF41EC7D
:108AA000100B03F0A9FB51EC100B05F0F9FA0A22A8
:108AB00081B204A8A18001F072FA049A504902A878
:108AC000FFF7ECFA03A8FBF787FE04A801F09AF978
:108AD0002846FFF7BBFD10EE100A04F0B5FF002298
:108AE000484B04F051FE0022474B05F001F80022EC
:108AF000464B05F027F93CA3D3E9002304F046FEDA
:108B000041EC100B03F078FB51EC100B05F0C8FAA8
:108B10000A2281B204A8618101F041FA049A3C4919
:108B200002A8FFF7BBFA03A8FBF756FE04A801F062
:108B300069F905F6063000F0B9FB04F063FF41EC7B
:108B4000100B03F059FB51EC100B05F0A9FA0A22A7
:108B5000C1B204A8217201F010FA049A2D4902A8AA
:108B6000FFF79CFA03A8FBF737FE04A801F04AF9C7
:108B70002846FFF783FDF2EE047A80EE270A0621ED
:108B800004A884ED040A01F031FA049A224902A8EB
:108B9000FFF784FA03A8FBF71FFE04A801F032F9DF
:108BA0002846FFF737FB0A220146E08204A801F0BD
:108BB000F6F9049A194902A8FFF770FA03A8FBF71F
:108BC0000BFE04A801F01EF909B030BDAFF3008020
:108BD0008FC2F5285C2599408AE5965643E2E33F2B
:108BE00051DA1B7C6132D93F000000000057A540DC
:108BF0001CD8032069040E000070C6467F040E00D6
:108C000092040E0000004040000049400000224055
:108C1000A7040E00B3040E00BB040E00C3040E0034
:108C20002DE9F04107460C4615462AB90368C9B23A
:108C30009B68BDE8F0411847002907DA0A2A05D1E8
:108C40002D2101F0CDFA6142064601E021460026C1
:108C5000EAB2384601F0E3FA3044BDE8F0810000A2
:108C6000024B00221A7000F059BB00BFEDE1032057
:108C700041F27462002330B5835041F278624FF0C4
:108C8000FF31835041F27C6200F10805815000F50C
:108C9000B4528BB0136004462846FFF744F92846C7
:108CA000FFF76BF907212846FFF774F92846FFF70D
:108CB00085F92046FDF7D6FA04F5B25402F0C6F95C
:108CC0004FF4165102F0B6F90C3402F0BFF96949BD
:108CD00001F0A3FA2046FDF7A8F918B102F0B6F9A1
:108CE000654902E002F0B2F9644901F096FA69467A
:108CF0002046FDF799F802F0A9F9614901F08DFAD3
:108D000002F0A4F95F4901F06EFA02F09FF969469A
:108D100001F079FA02F09AF95B4901F064FA02F085
:108D200095F90A2203990546FFF77AFF284601F0D4
:108D30005EFA02F08BF9554901F055FA02F086F916
:108D40000A2204990546FFF76BFF284601F04FFA07
:108D500002F07CF94E4901F046FA02F077F99DEDF8
:108D6000060A022101F03AFB02F070F9494901F0CC
:108D700054FA02F06BF9484901F035FA02F066F94D
:108D80009DED070A022101F029FB02F05FF941493C
:108D900001F043FA02F05AF9404901F024FA02F0D6
:108DA00055F99DED080A042101F018FB02F04EF977
:108DB000384901F032FA02F049F9314901F02DFA4F
:108DC00002F044F9364901F028FA4FF4FA7001F044
:108DD000F5FC10212046FDF70FF902212046FDF792
:108DE00061F902F033F9264901F017FA02F02EF981
:108DF0002C4901F0F8F92046FDF74EF810280DD067
:108E000004D8A0B902F022F927490EE0202809D0A1
:108E100030280CD102F01AF9244906E002F016F9C4
:108E2000234902E002F012F9224901F0F6F902F0BA
:108E30000DF9214901F0D7F902F008F9054620465D
:108E4000FDF72CF864210A2200FB01112846FFF7E8
:108E5000E7FE02F0FBF8194901F0DFF902F0F6F83D
:108E6000074901F0DAF902F0F1F80D4901F0D5F9FE
:108E70000BB030BDCB040E00EB040E0002050E005B
:108E800029050E004E050E005D050E006C050E0056
:108E90007B050E008A050E008F050E009E050E0054
:108EA000EC060E00AD050E00BC050E00DE050E0042
:108EB000C5050E00D2050E00EA050E00F9050E00EC
:108EC0005022427041F6FF7210B5426043F6FF72C5
:108ED0008260C26047F6FF720261426182614FF6B2
:108EE000FF720170C2618024002200EB81010262E6
:108EF00044624A6882627F3AD209C262046310BD4A
:108F00002DE9F0411E4614460F46054602F092FC3C
:108F1000804602F04FFA02F08DFC697802F033FAD5
:108F200002F088FCC7F30721FCF7B5FD02F082FCD4
:108F3000F9B2FCF7B0FD02F07DFC02F02FFA02F06E
:108F400079FC2246697802F01BFA013C751E344414
:108F5000A54207D002F06EFC03685B69984705F8EC
:108F6000010FF5E702F066FC02F018FA4046BDE892
:108F7000F04102F028BA2DE9F0411E4614460D4694
:108F8000804602F057FC074602F014FA02F052FC49
:108F900098F8011002F0F7F902F04CFCC5F3072134
:108FA000FCF779FD02F046FCE9B2FCF774FD013CE8
:108FB000751E3444A54207D002F03CFC036815F846
:108FC000011F9B689847F5E702F034FC02F0E6F9D0
:108FD0003846BDE8F04102F0F6B9F8B51446426AE9
:108FE0008A4207461ED8806A81421BD8621E7F2AA9
:108FF0001AD80A44904219D31D46CE1A1D2C05EBEF
:10900000060107D92B461E223846FFF779FF1E3589
:109010001E3CF3E724B12B46E2B23846FFF770FF5F
:109020000020F8BD0120F8BD0220F8BD0320F8BDE6
:10903000F8B51446426A8A4207461ED8806A8142C1
:109040001BD8621E7F2A1AD80A44904219D31D46A3
:10905000CE1A1D2C05EB060107D92B461E223846D9
:10906000FFF789FF1E351E3CF3E724B12B46E2B221
:109070003846FFF780FF0020F8BD0120F8BD022030
:10908000F8BD0320F8BD10B5046B836A21449942F2
:1090900038BF01634FF000032DBF0321A0B213704E
:1090A000117028BF184610BD10B50446802B084625
:1090B00011462160029A2371E06004D25943FFF700
:1090C000E2FFA06003E0042313700023A3602046A6
:1090D00010BD70B5856816461C460DB9062303E021
:1090E00003688B4202D80523237070BD0279C068E3
:1090F000334602FB0151FFF770FF207070BD70B561
:10910000856816461C460DB9062303E003688B42AA
:1091100002D80523237070BD0279C068334602FB74
:109120000151FFF785FF207070BD38B50446154624
:10913000802B0846049A25602371E1600BD201352B
:1091400005FB03F125600C31FFF79DFFE368A0608C
:109150001B6BA36103E0042313700023A36020466C
:1091600038BD83686BB142690369816A0362134445
:1091700042625A18034643F81C2F0C22C068FFF7BE
:1091800057BF70476323036264234362816A00F11F
:109190001C030C22C068FFF720BF10B5044602F084
:1091A00049FB02F0FEF818B902F044FB02F0B4F8F3
:1091B000A3690C3BA3622046FFF7E4FF04F1200102
:1091C0000EC9E0690B441344834213BF002321619D
:1091D0006261236118BF63612046BDE81040FFF75C
:1091E000C0BF00F09BB8704700238380C38003702A
:1091F000418800F5B0609AB28A4203D220F8022F6B
:109200000133F8E7704710B5044629B140F2BD2399
:109210009942A8BF194600E0012120466180FFF76E
:10922000E3FF204610BDC288531C04329BB2C380AA
:1092300020F812104288934224BF0023C380838801
:109240009A4284BF013383800023037070472DE965
:10925000F043B0F804E000260EF1FF3CB2B26245E4
:1092600020DA01231F46C2EB0E05AB4217DA00EBF2
:1092700043020133B2F88015B2F8824501F10409C6
:1092800004F1040830F8199030F81880C14582BF05
:10929000A2F88045A2F8821500279BB2E5E70136C7
:1092A000002FDBD001230370BDE8F08310B5838865
:1092B0000446F3B103780BB9FFF7C9FFA38813F095
:1092C000010F4FEA530304EB430305D0B3F8823593
:1092D000043334F813300CE0B3F88225043234F848
:1092E0001210B3F88025043234F812300B44C3F363
:1092F0004F03184610BD00F011B8000008B5024B2E
:109300001B689B68019308BD6802030008B5024B07
:109310001B68DB68019308BD6802030008B5024BB7
:109320001B681B68019308BD2C02030008B5024BA3
:109330001B685B68019308BD2C02030008B5024B53
:109340001B689B68019308BD2C02030008B5024B03
:109350001B68DB68019308BD2C02030008B5024BB3
:109360001B681B69019308BD2C02030008B5024B62
:109370001B689B69019308BD2C02030008B5024BD2
:109380001B68DB69019308BD2C02030008B5024B82
:109390001B681B6B019308BD2C02030008B5024B30
:1093A0001B681B68019308BD3002030008B5024B1F
:1093B0001B685B69019308BD3002030008B5024BCE
:1093C0001B68DB69019308BD3002030008B5024B3E
:1093D0001B681B6A019308BD3002030008B5024BED
:1093E0001B685B6A019308BD3002030008B5024B9D
:1093F0001B689B6A019308BD3002030008B5024B4D
:109400001B689B6B019308BD3002030008B5024B3B
:109410001B68DB6B019308BD3002030008B5024BEB
:109420001B681B6C019308BD3002030008B5024B9A
:109430001B685B6C019308BD3002030008B5024B4A
:109440001B685B68019308BD1802030008B5024B56
:109450001B681B69019308BD1802030008B5024B85
:109460001B685B69019308BD1802030008B5024B35
:109470001B68DB69019308BD1802030008B5024BA5
:109480001B689B6D019308BD1802030008B5024BD1
:109490001B68DB6D019308BD1802030008B5024B81
:1094A0001B689B6E019308BD3402030008B5024B94
:1094B0001B689B68019308BD4802030008B5024B76
:1094C0001B68DB68019308BD4802030008B5024B26
:1094D0001B681B69019308BD4802030008B5024BD5
:1094E0001B685B69019308BD4802030008B5024B85
:1094F0001B68DB69019308BD4802030008B5024BF5
:109500001B681B6A019308BD4802030008B5024BA3
:109510001B685B6A019308BD4802030008B5024B53
:109520001B689B6A019308BD4802030008B5024B03
:109530001B68DB6A019308BD4802030008B5024BB3
:109540001B685B6C019308BD4802030008B5024B21
:109550001B689B6C019308BD4802030008B5024BD1
:109560001B681B6F019308BD4802030008B5024B3E
:109570001B685B69019308BD6402030008B5024BD8
:109580001B681B68019308BD3C02030008B5024B31
:109590001B68DB68019308BD3C02030008B5024B61
:1095A0001B681B69019308BD3C02030008B5024B10
:1095B0001B685B69019308BD3C02030008B5024BC0
:1095C0001B689B69019308BD3C02030008B5024B70
:1095D0001B68DB69019308BD3C02030008B5024B20
:1095E0001B681B6A019308BD3C02030008B5024BCF
:1095F0001B689B6A019308BD3C02030008B5024B3F
:109600001B68DB6A019308BD3C02030008B5024BEE
:109610001B68DB68019308BD2802030008B5024BF4
:109620001B689B69019308BD2802030008B5024B23
:109630001B68DB69019308BD2802030008B5024BD3
:109640001B681B6A019308BD2802030008B5024B82
:109650001B685B6A019308BD2802030008B5024B32
:109660001B689B6A019308BD2802030008B5024BE2
:109670001B68DB6A019308BD2802030008B5024B92
:109680001B681B6B019308BD2802030008B5024B41
:109690001B685B6B019308BD2802030008B5024BF1
:1096A0001B681B6C019308BD2802030008B5024B20
:1096B0001B685B6C019308BD2802030008B5024BD0
:1096C0001B689B6C019308BD2802030008B5024B80
:1096D0001B68DB6C019308BD2802030008B5024B30
:1096E0001B681B6D019308BD2802030008B5024BDF
:1096F0001B681B68019308BD4C02030008B5024BB0
:109700001B685B68019308BD4C02030008B5024B5F
:109710001B681B69019308BD4C02030008B5024B8E
:109720001B685B69019308BD4C02030008B5024B3E
:109730001B689B69019308BD4C02030008B5024BEE
:109740001B68DB69019308BD4C02030008B5024B9E
:109750001B681B6A019308BD4C02030008B5034B4C
:109760001B68D3F88030019308BD0000600203003D
:1097700008B5024B1B681B68019308BD200203005B
:1097800008B5024B1B685B68019308BD200203000B
:1097900008B5024B1B685B69019308BD20020300FA
:1097A00008B5024B1B68DB6A019308BD2002030069
:1097B00008B5024B1B68DB6C019308BD2002030057
:1097C00008B5024B1B685B6D019308BD20020300C6
:1097D00008B5024B1B689B6D019308BD2002030076
:1097E00008B5024B1B68DB6F019308BD2002030024
:1097F00008B5034B1B68D3F88830019308BD0000FF
:109800002002030008B5034B1B68D3F89430019382
:1098100008BD00002002030008B5024B1B685B680E
:10982000019308BD4002030008B5024B1B689B680A
:10983000019308BD4002030008B5024B1B68DB68BA
:10984000019308BD4002030008B5024B1B681B6969
:10985000019308BD4002030008B5024B1B685B6919
:10986000019308BD4002030008B5024B1B689B69C9
:10987000019308BD4002030008B5024B1B68DB6979
:10988000019308BD4002030008B5024B1B681B6A28
:10989000019308BD4002030008B5024B1B685B6AD8
:1098A000019308BD4002030008B5024B1B681B6B07
:1098B000019308BD4002030008B5024B1B685B6BB7
:1098C000019308BD4002030008B5024B1B681B68EA
:1098D000019308BD4402030008B5024B1B689B6856
:1098E000019308BD4402030008B5024B1B68DB6806
:1098F000019308BD4402030008B5024B1B685B6975
:10990000019308BD4402030008B5024B1B681B6AA3
:10991000019308BD4402030008B5024B1B681B6B92
:10992000019308BD4402030008B5024B1B68DB6BC2
:10993000019308BD4402030008B5024B1B681B6875
:10994000019308BD1C02030008B5024B1B685B684D
:10995000019308BD1C02030008B5024B1B689B68FD
:10996000019308BD1C02030008B5024B1B681B696C
:10997000019308BD1C02030008B5024B1B689B69DC
:10998000019308BD1C02030008B5024B1B68DB698C
:10999000019308BD1C02030008B5024B1B681B6A3B
:1099A000019308BD1C02030008B5024B1B685B6AEB
:1099B000019308BD1C02030008B5024B1B68DB6A5B
:1099C000019308BD1C02030008B5024B1B681B6B0A
:1099D000019308BD1C020300002211464068FFF7F6
:1099E00053BF002211464068FFF766BF002240685F
:1099F000FFF75ABF002281F001014068FFF73CBF2A
:109A000000231A4619464068FFF72EBF00231A4666
:109A100019464068FFF720BF002211464068FFF753
:109A200013BF002211464068FFF7FEBE002202214C
:109A30004068FFF701BF00231A464068FFF7ECBEFD
:109A4000024B03225A60024A1A607047F0E1032079
:109A500008060E000A680B46926801461846104731
:109A600070B50E4C04601C2444609DF814409DF8B1
:109A7000106004F0030444EA86040025E4B2047490
:109A8000427485744161427C85600F2A08BF044B93
:109A9000C56006BF8361C061038370BD8C000E008A
:109AA000559A0D000021FFF7B9BC0021FFF7BEBC9D
:109AB00010B5044601700846FFF780FC0023636080
:109AC000204610BD10B504460078FFF7EBFF48B9FB
:109AD00020784FF6FF71FFF761FC2078BDE8104059
