:02000002D0002C
:1040000000400D00D85D0E00000006000D00050107
:084010000401E80500000000B6
:044018001C420E0038
:1040200009480A49884208B505D0094A824202D0A7
:10403000121A0CF03AFF0748074A0021121A0CF036
:104040003FFF014808BD00BF24BC0320AC5C0E004C
:1040500028BD032028BD0320F0E7032070B508F039
:10406000ADFC074C074BE41AA40800251E46A542E8
:1040700004D056F8253098470135F8E770BD00BFE9
:10408000945C0E00C45B0E0000F022BE08B500F088
:104090009FFBBDE8084008F053BC07F0FBB907F0F0
:1040A000F9B907F0FFB907F0FDB90078B0FA80F070
:1040B00040097047012303707047106870477047CC
:1040C00070470000014B01221A707047E5BF0320C2
:1040D00003681847012A02D0022A02D004E00160D6
:1040E00002E00B6800B103600020704703685A6863
:1040F00098681B6812F0010F4FEA620218BF8158DE
:10410000104418BFCB58184738B5064D002404F1A9
:1041100080002844103C07F0F1FE14F1900FF6D116
:1041200038BD00BF8CBE032010B5044607F0E6FE84
:10413000204610BD08B506F0D7FE034B1860034BB0
:1041400001221A7008BD00BF30D7032010C0032021
:1041500010B5044606F0C8FE41F26462A358C31AC3
:10416000092B05D904F5B3510B6801330B60A0503E
:1041700010BD38B5044606F0B7FE04F5B4510B681F
:1041800093B1C31A092B10D941F27C62A558AB42F6
:1041900038BFA35041F2746562591344635141F230
:1041A0007862A3580133A350086038BD10B50446A7
:1041B00000F5B050043007F0A1FE04F6063006F01A
:1041C00050FD04F10A0006F04CFD204610BD436985
:1041D00013B183690C301847704700007FB5024661
:1041E00008461379956833B13DB90C4904B0BDE870
:1041F000704008F06DB80A4B00E00A4B167B0A4C81
:104200000A49527B0292012E08BF21460191009576
:10421000074A002108F06DF904B070BD75420E0028
:10422000D34B0E0064420E006D420E0071420E0030
:104230008B420E0013B500210446084606F09CFE92
:1042400002A90023204641F8043D06F0ADFE019C82
:104250000CB1012323710021012006F08DFE2CB149
:10426000236820469B6898470023237102B010BD45
:10427000022A38B5044605D0032A0FD0012A11D1ED
:104280000B6809E00C200D68FFF707FF034618B123
:1042900095E8070083E80700236003E00C2100682D
:1042A00009F070FE002038BD10B5054B0022044611
:1042B000114640F8043B06F0FFFF204610BD00BF4A
:1042C00058420E0010B50446FFF7EEFF20462021AD
:1042D00009F058FE204610BD00221146406807F044
:1042E00061B810B58368044613B1032201469847AC
:1042F000204610BDF0B500258E4615490571856034
:1043000045610160044692E8030085B002AF04F104
:104310000C0687E8030096E8030082E8030097E8AC
:10432000030086E803009168606990606161D1686C
:10433000A069D060A1618DE82800064A2346714635
:1043400004F1080006F020FE204605B0F0BD00BFD5
:1043500044420E0035420D0007B58068002338B195
:104360008DE80A00022106F027FEB0FA80F040092D
:1043700003B05DF804FB000038B5104B03608368A0
:104380000446A3B16FF000410022FFF7E5FF0021D2
:10439000A06806F029FE237903F0FF0513B106F0AB
:1043A000D3FDF8E72946A06806F0F6FDA56004F104
:1043B0000C00FFF796FF204638BD00BF44420E00B8
:1043C00010B50446FFF7D8FF20461C2109F0DAFD9E
:1043D000204610BD37B5054600220C461146FFF7B2
:1043E000BBFFA868002340B1019300941A46194608
:1043F00006F0E2FDB0FA80F0400903B030BD0000E5
:104400002DE9F04F4D4FDFF84891DFF848818DB02E
:1044100000240125092C00F08D8014F8096009F0B2
:104420007DFD314609F097F809F078FD09F09EF816
:1044300000284ED00A2008F03DFA09F06FFD314601
:1044400009F089F809F06AFD09F090F8002840D0D9
:1044500009F064FD09F091F809F060FD314609F0BA
:104460007AF809F05BFD09F081F890B308F08EFE50
:1044700033490546684607F088FD3946684607F027
:1044800062FE304907F06BFE2F4907F068FE1022EC
:10449000824631460DEB020007F0EBFD04A95046C1
:1044A00007F051FE014608A807F0AEFD089928461E
:1044B00007F025FF08A807F021FD04A807F01EFD5E
:1044C0000025684607F01AFD08F80450013410373B
:1044D000A0E708F05BFE1A498246684607F055FDE2
:1044E0003946684607F02FFE184907F038FE16498E
:1044F00007F035FE1022834631460DEB020007F02F
:10450000B8FD04A9584607F01EFE014608A807F0AA
:104510007BFD0899504607F0F2FE08A807F0EEFC74
:1045200004A807F0EBFC684607F0E8FC012308F854
:104530000430CBE728460DB0BDE8F08F8CBE0320D9
:10454000A9420E00B1420E00B9420E00B5420E0063
:1045500024BC032034D703202DE9F0431E4D1F4F08
:104560008DB00646002415F8013FB3422DD108F066
:104570000DFE1B498046684607F007FD07EB041156
:10458000684607F0E0FD174907F0E9FD164907F016
:10459000E6FD1022814629780DEB020007F069FD47
:1045A00004A9484607F0CFFD014608A807F02CFDF6
:1045B0000899404607F0A3FE08A807F09FFC04A84E
:1045C00007F09CFC684607F099FC0134092CCAD11D
:1045D0000DB0BDE8F08300BF23BC03208CBE0320D8
:1045E000A9420E00B5420E00B9420E0070B508F0A7
:1045F000CDFD1D4907F083FE0124002509F08EFC46
:10460000E1B208F0A8FF09F089FC08F0AFFF20B97B
:104610002046FFF7A1FF013517E0042815D108F067
:10462000B5FD124907F054FE0F2C04D808F0AEFD7A
:104630000F4907F04DFE08F0A9FD1022064621465D
:1046400007F069FE304607F04EFE01347F2CD5D1CD
:104650001DB908F09BFD074902E008F097FD0649E7
:10466000BDE8704007F04BBEC5420E00D1420E00BF
:10467000D0480E00ED420E0003430E00F8B5414D48
:104680002846FFF729FE044640BB08F07FFD3E495F
:104690003E4E07F034FE234622462146686806F067
:1046A00089FE234622462146686806F063FE2046BE
:1046B00006F032FC002504460027002006F02CFC02
:1046C000001B61EB05018F4208BF864235D32D48A0
:1046D000FFF702FE88BB06F0A5FEEEE708F056FDE8
:1046E0002B4907F00CFE06F0ADFE0446F0B908F0C9
:1046F0004DFD284907F003FE06F09CFE204606F01B
:104700000BFC002504464EF65F260027002006F02D
:1047100003FC001B61EB05018F4208BF86421FD3DB
:1047200006F090FEE0B906F07DFEEFE708F02EFD02
:104730001949BDE8F84007F0E2BD1248FFF7CCFD8B
:104740001048FFF7C9FD0028CDD108F01FFD13491F
:1047500007F0D5FDC82008F0ADF807F03BF8C2E738
:1047600006F070FE06F06EFE58B908F00FFD0C4919
:1047700007F0C5FDC82008F09DF8BDE8F84007F037
:1047800029B8F8BDDCE2032009430E001FBF020078
:104790004A430E0059430E00A1430E002B430E0066
:1047A0007E430E0038B5046805467CB16368013B62
:1047B00063605BB9236820469B689847A368013B08
:1047C000A3601BB923682046DB689847284638BD9C
:1047D0002DE9F0472DED048B0021F2B0C248C34D06
:1047E00001F000FB0121C04801F0FCFA0221BE48A3
:1047F00001F0F8FA0321BC4801F0F4FA2B78002B01
:1048000000F0BB81BA4CBB4805F022FDE088D4F82B
:1048100000A00BF08BFCB0A3D3E900230BF0ECFC61
:104820000BF0E2FF8146A0890BF080FC0022B24B26
:104830000BF00CFE0BF0D8FFA3888046608908EED1
:10484000103A0BF073FC0022AC4B0BF0FFFDA4A35D
:10485000D3E900230BF01CFB0BF0C6FF0021074639
:10486000A148668A247A01F0BDFA012108EE900A77
:104870009D4801F0B7FA022109EE100A9A4801F0AA
:10488000B1FA032109EE900A974801F0ABFA07EE5E
:10489000900AF8EE677AB8EE488A17EE900A0BF0A5
:1048A00057FC0022964B0BF0A7FC0BF09DFF0BF082
:1048B0004FFCF8EE697ACDE9100117EE900A0BF083
:1048C00047FC00228E4B0BF097FC0BF08DFF0BF09A
:1048D0003FFCF8EE497ACDE90E0117EE900A0BF095
:1048E00037FC0022864B0BF087FC0BF07DFF0BF0B2
:1048F0002FFCF8EE687ACDE90C0117EE900A0BF068
:1049000027FC00227E4B0BF077FC0BF06DFF0BF0C9
:104910001FFCCDE90A013846099608940BF018FCF3
:10492000CDE9060118EE100A0BF012FCCDE90401E6
:1049300040460BF00DFCCDE9020148460BF008FCA7
:104940005346CDE900016F4A4FF4807132A806F05A
:10495000D1FD6D4B6D491B788DF8003032AA3C2398
:104960002EA808F099F92FA8FFF71CFF07EE90AAD0
:1049700067496848B8EE670A04F07DF900EE109ABE
:104980006549644804F077F900EE108A634961488C
:1049900004F071F9B0EE480A61495E4804F06BF921
:1049A00000EE107A5F495B4804F065F907EE904A23
:1049B0005D4958485D4CB8EE670A04F05CF907EEB3
:1049C000906A5B495348B8EE670A04F054F9594BB2
:1049D00050481A78584B196804F056F9454912A8FE
:1049E00005F006FD1299554807F089FC08F0CEFB4A
:1049F000129907F084FC237800262E701BB15048D2
:104A000000F05AFD267000234E4C2B7008F0BEFBC0
:104A10004D4907F074FC0A22216816A807F03BFBF9
:104A200016A91AA807F0F0FA48491AA807F097FB48
:104A3000217905461EA807F00BFB1EA9284607F0A2
:104A400082FB424907F08BFB0A220546A16822A897
:104A500007F021FB22A9284607F075FB3B4907F028
:104A60007EFB0A220546E16826A807F014FB26A96A
:104A7000284607F068FB354907F071FB94ED040AFE
:104A8000054606212AA807F02DFB2AA9284607F08B
:104A90005AFB2E4907F063FB94ED050A05460621F3
:104AA0002EA807F01FFB2EA9284607F04CFB27492C
:104AB00007F055FB264907F046FB0146254807F05D
:104AC00094FA2EA807F01AFA2AA807F017FA26A8CF
:104AD00042E000BFAFF30080FCA9F1D24D62503F2D
:104AE000666666666612714012C0032010C003201D
:104AF000D4D603201CC0032000408F400000244077
:104B00000000C83FB4430E00E4BF0320CB440E00B6
:104B100044440E00E8BF03204D440E0062440E00E2
:104B200070440E0085440E0091440E008CBF03209B
:104B300099440E001CBF032030BC032038BD032065
:104B4000E8D60320F8BF0320A3440E0097470E00C9
:104B500040BF0320C4DB032007F0D0F922A807F0F0
:104B6000CDF91EA807F0CAF91AA807F0C7F916A8C8
:104B700007F0C4F912A807F0C1F9144C2378DBB18F
:104B8000134805F091FA124805F036FA104805F07E
:104B9000C7F8104B10491B780022227032A88DF8FC
:104BA00000303C2308F078F833A8FFF7FBFD08F04D
:104BB000EDFA0A4907F0A3FB094B1B780BB106F08D
:104BC00009FE72B0BDEC048BBDE8F087E5BF0320A1
:104BD0001CC00320E4BF0320C1440E00D3440E00D8
:104BE000D4DB032070B594B006F07EF92F4D304E23
:104BF000044606F079F9286006F014FC642007F0FA
:104C000059FE07F00CFEB04205DC06F06DF9001B02
:104C1000B0F5FA7FEDD307F002FE264B984207DD90
:104C200007F0FDFD0146244800F060FC01203AE059
:104C3000224C23492368002204A807F09DFD04A903
:104C400008A807F0E1F91F4908A807F088FA054607
:104C5000194800F045FC2368194902460CA807F0E2
:104C60008BFD0CA9284607F06EFA014610A807F044
:104C7000CBF9154B109A1B7814498DF8003002A817
:104C80003C2308F009F803A8FFF78CFD10A807F0F3
:104C900035F90CA807F032F908A807F02FF904A895
:104CA00007F02CF9002014B070BD00BF08E6032007
:104CB0004DB25E574EB25E57E8D6032034BC032097
:104CC00018E20320354F0E00E4BF0320DB440E0042
:104CD00030B5012185B04A4803F0D9FF00230222F4
:104CE0004849494806F096FB00240C230194ADF88E
:104CF0000430464B46490293042201AB45480394D5
:104D000006F088FB08F042FA4FF4E13108F032FA7D
:104D100008F072FB4FF4E13108F068FB3E4801F007
:104D200058F821463C4801F05BF83C4800F000FC94
:104D300001220221394800F0B9FB01220321374842
:104D400000F0B4FB06F0D0F8354B186041F2883023
:104D500007F0B0FDFFF754FBFFF748FC2F4800F0C9
:104D60006FFB0546C8B908F011FA2E4907F0C7FADB
:104D70002D49274807F05BF92A4601212B4806F008
:104D80009BFA08F003FA2A4907F0B9FA42F21070C8
:104D900007F090FD06F01EFD30E0264DFFF76EFC9B
:104DA0002A462146244800F0DEFC244B2A689A4219
:104DB00008D02B602A4644F6206321461E48EB604B
:104DC00000F0C2FCFFF70EFF18B108F0DFF91C4934
:104DD00002E008F0DBF91B4907F091FA1A4800F0ED
:104DE000EBFC1A4805F082FC6FF000411848FFF711
:104DF000F1FA6FF000411748FFF7ECFA05B030BD4B
:104E0000E8BF0320E8450E00EB440E00BB400D0058
:104E1000C4DB0320F3440E0012C00320E8D60320B5
:104E200018C0032000450E0022450E0070BE03206E
:104E300049450E00F8BF032020BF03204C1F11007E
:104E400061450E0078450E0050BF03201CC00320B2
:104E500090BF0320C8BF03201FB50A4B0A4C1B7824
:104E60000A498DF8003022463C2302A807F014FFBF
:104E700003A8FFF797FC08F089F9214607F03FFAED
:104E800004B010BDE4BF032000450E0093450E00A2
:104E9000F0B589B0044602A880E806001D460C2043
:104EA00000230F46039E0693FFF7F7F810B1076043
:104EB000466085600B4B07930B4B06939DF8403083
:104EC000049000939DF838209DF93C3004A92046B9
:104ED00008F0B8F9044604A8FFF703FA204609B021
:104EE000F0BD00BFED400D0071420D002DE9F0470F
:104EF000BD4BBE4F00241C70BD4B8AB001251D70F8
:104F000005F04AFF05F0F0FF0322BA49BA4803F062
:104F100085FEBA4ABA49B84809F026F8B94B39684B
:104F2000DC71642283F86024B74A83F83C4411EAB8
:104F3000050683F83D4483F86A4483F87454C3F843
:104F4000784483F87C4483F87D44C3F870241C467D
:104F500015460AD13846FFF7A8F830B13146AB48BC
:104F600006F064FB3846FFF7A5F8A84BC4F86C348C
:104F7000A74CA84B069506AE0025012708930222F0
:104F80003346A0498DF81C5020468DF824708DF8CA
:104F9000255000F091FC994A9F49DFF83093204654
:104FA00008F0E2FF40F6B8332A4614210320A3623A
:104FB00006F0C4F94FF01E080346CDF800800197B3
:104FC00003224FF47F019548954C06F007FB8B4A6E
:104FD0009449924808F0C8FF2946384606F08EF9F1
:104FE000914B069332462B464FF4FA618F48CDF829
:104FF00024900894FFF77EF93046FFF772F97F4A54
:105000008B498A4808F0B0FF8A4B069332462B46FC
:105010004EF660218848CDF824900894FFF76AF98D
:105020003046FFF75EF9754A8149834808F09CFFD6
:10503000824B069332462B4641F288318048CDF8A8
:10504000249008947F4CFFF755F93046FFF749F953
:105050006A4A77497A4808F087FF204601F059FAF2
:1050600004F1080004F01BFD414604F10A0005F0BC
:1050700008FE414604F6063005F003FE724800F0D3
:10508000CFF941F25C6A40F61F21704801F0CAF87E
:10509000042344F80A3004F5B3536D4A9A606D4A0C
:1050A0001D601A6141F274634FF0FF39E55041F21F
:1050B00078631122E55041F27C6341F26C6844F858
:1050C000039004F5B45303201D6041F28463022170
:1050D000E250614A44F8080000231360536041F233
:1050E0009062A5505D4A136041F29862A5505C4AF7
:1050F000136004F5B5521560536041F2A862A550E3
:10510000584A1360536041F2B463E55008F0AAFEB8
:1051100034F80800544B06934FF0020807950295A7
:10512000CDF80490CDF8008096E806002346FFF7FE
:10513000AFFE414634F80A0008F094FE34F80A0045
:105140004A4B04938DE800030595029504AA234673
:1051500006CAFFF79DFE294A4549204608F004FF8C
:10516000444800F05DF9254A4349424808F0FCFEF6
:105170003A4618233F49414800F0DBFA14234FF424
:1051800096723C493E4800F00CFB3E493E4806F012
:10519000FCFE1A4A3D493C4808F0E6FE39493C48C5
:1051A00006F0F3FE154A3949394808F0DDFE394961
:1051B000394806F0EAFE3949394806F0E6FE394931
:1051C000394806F0E2FE3949394806F0DEFE394931
:1051D000394806F0DAFE3949394806F0D6FE394931
:1051E000394806F0D2FE73E01CBF03202CBD03201B
:1051F000E4BF03209D450E00E8BF032028BD032027
:10520000398C0D0040D7032038420E0030BD0320FA
:1052100038BD032080F0FA02E5590D006CBE032072
:10522000D5400D00A9420D00C5400D0090BF0320E0
:1052300079430D0035410D00C8BF0320594E0D00C4
:10524000ACBF03201CC0032020D6032068D6032057
:105250005839343CDBF9BE3FA4D60320B0D6032036
:10526000B8D60320C8D6032073410D0051410D006C
:10527000AD410D00E8D6032029410D0020BF0320D9
:1052800050BF0320D34B0E00C4DB0320FDBE0D0036
:1052900040BF0320A5450E008CBE0320A9450E008B
:1052A0009CBE0320AD450E00ACBE0320B8450E00E9
:1052B000BCBE0320BC450E00CCBE0320C1450E0081
:1052C000DCBE0320C8450E00ECBE0320D1400D001B
:1052D00009490A4806F059FE09490A4806F055FEF0
:1052E000094A0A49284608F03FFE4821084800F0CC
:1052F00069FD0AB0BDE8F087D0450E00FCBE032072
:10530000D8450E000CBF032028BD032009410D0025
:1053100012C0032008B505F03FFD014B186008BD21
:10532000D8DB032005F038BD037C03F008030246F8
:1053300003F0FF002BB1D36A506A181A48BF6FF010
:10534000004070477047103002F014B8103001F080
:10535000EBBE07B501220DF10701103001F031FE5F
:1053600001280CBF9DF807004FF0FF3003B05DF837
:1053700004FB103002F06CB907B502AB012203F850
:10538000011D1030194602F063F903B05DF804FB0B
:1053900010B53421044608F0F5FD204610BD00008C
:1053A00030B585B01C4B009313798DF804309368A9
:1053B0000293137B8DF80C3000F58C65537B8DF8D0
:1053C0000D3004460A466B4600F26C41284602F056
:1053D00087FCF0B1256004F23C45284602F000F855
:1053E0000121204602F025FB014668B121462846EE
:1053F00001F0CFFD68B194F83C3413F0700316BF90
:10540000064B18461D6005E0204602F012FB0028FE
:10541000ECD1002005B030BD38420E0098E00320EA
:1054200010B50649044606F0B0FD63232374052138
:1054300004F1140005F082FA204610BDD34B0E0093
:1054400037B5194B18681B798DF80430009008F0B7
:1054500065FD08F08EF818B908F060FD08F044F812
:1054600000241DF8045008F059FD294608F073F88F
:1054700008F054FD08F07AF820B90134052CF0D179
:1054800001200FE008F04AFD08F077F808F046FD2B
:10549000294608F060F808F041FD08F067F8002898
:1054A000EBD0002003B030BD14460E00014802F0DE
:1054B000C4BE00BFDDDB032010B5084C012205216E
:1054C000204602F0BAFE322007F0F4F9204600220E
:1054D0000521BDE8104002F0B0BE00BFDDDB0320B7
:1054E000014800F039BE00BFDCDB0320014800F0BA
:1054F000EABD00BFDCDB032030B50024944212D0AB
:10550000085D0509092D00F00F0094BF30353735CF
:1055100003F81450092803EB440594BF30303730AA
:1055200068700134EAE7002203F8142030BD00005F
:1055300030B58DB0054608F0F1FC08F01AF818B93E
:1055400008F0ECFC07F0D0FF142007F0B3F908F0E6
:10555000E5FC202107F0FFFF08F0E0FC08F006F86A
:1055600080B108F0DBFC08F008F808F0D7FC202137
:1055700007F0F1FF08F0D2FC07F0F8FFB0FA80F472
:10558000640900E00124614802F048FE0122002184
:105590005E4802F046FE012211465C4802F041FEE0
:1055A00001220221594802F03CFE01220321574802
:1055B00002F037FE01220421544802F032FE01229B
:1055C0000521524802F02DFE002206214F4802F02C
:1055D00028FE012207214D4802F023FE0022082167
:1055E0004A4802F01EFE00220921484802F019FE36
:1055F00000220A21454802F014FE00220B214348F4
:1056000002F00FFE00220C21404802F00AFE0022A8
:105610000D213E4802F005FE00220E213B4802F01B
:1056200000FE00220F21394802F0FBFD012200217B
:10563000364802F01FFE01221146344802F01AFEDD
:1056400001220221314802F015FE012203212F48D8
:1056500002F010FE012204212C4802F00BFE012270
:1056600005212A4802F006FE01220621274802F001
:1056700001FE01220721254802F0FCFD012208213C
:10568000224802F0F7FD01220921204802F0F2FD34
:1056900001220A211D4802F0EDFD01220B211B48C9
:1056A00002F0E8FD01220C21184802F0E3FD01227E
:1056B0000D21164802F0DEFD01220E21134802F0F2
:1056C000D9FD01220F21114802F0D4FD00210D2245
:1056D00008A80191029107910BF0F2FB01A90C4877
:1056E00000F0B0FB07AB082201A92846FFF704FF32
:1056F00007A903A806F049FC03A9284606F08FFC79
:1057000003A806F0FBFB20460DB030BDDDDB032017
:10571000DCDB032013B504460498E06000902260AF
:105720002371A16004F1100005F0FCF9204602B0DD
:1057300010BD37B501F11005009514310446FFF78F
:10574000E9FF204603B030BD13B502AB632403F874
:10575000014D103005F011FA9DF80700B0FA80F005
:10576000400902B010BD13B502AB632403F8014D2C
:10577000103005F0ECF99DF80700B0FA80F0400910
:1057800002B010BD13B504460498E060009022609A
:105790002371A16004F1100005F005FA204602B063
:1057A00010BD37B501F11005009514310446FFF71F
:1057B000E9FF204603B030BD103005F02CBA0000E0
:1057C00070B505F0E9FA1E481E4E00F03AFB1E487F
:1057D0001E4A1F4900244FF47A73047444744460D1
:1057E00083601C4B036008F0BFFB1B4B3168DC710E
:1057F000642283F86024194AC3F87024012211EA54
:10580000020583F83C4483F83D4483F86A44C3F8B6
:10581000784483F87C4483F87D4483F874241C46E0
:105820000AD13046FEF741FC30B129460C4805F05C
:10583000FDFE3046FEF73EFC094BC4F86C3470BDEB
:10584000DCDB03202CBD0320E0DB032028BD03208C
:1058500045530D00F4450E0014DC032038420E00C1
:1058600030BD0320F8B50E46074607F00FF8054691
:1058700007F004F8044606F0F7FF6401C0B2ADB2C9
:1058800004F4FF54A5F2BC75044344EA45243C806B
:1058900006F0CCFF054606F0D3FF044606F0DAFF1B
:1058A000ED02640105F4FF2504F4FF542C43C0F31A
:1058B000460004433480F8BD70B5044600254560B9
:1058C00022731D481D4A2060A16022611A79227549
:1058D0009A68A2611A7B22775B7B6377184B2362FD
:1058E000184B63620A23A36242F2107304F58E76AA
:1058F000E362012384F830306563A56384F8C8301F
:1059000084F8C950C4F8CC3084F8D05084F8D15011
:1059100084F8F45084F8F5501022294630460BF0F4
:10592000CFFAC4F82C51C4F82461C4F82861C4F833
:105930003051204670BD00BFB8460E0038420E0000
:1059400019460E0040420F0010B500F1BC040B4692
:10595000034A0C21204605F0CDFD204610BD00BFB6
:105960001E460E00F8B5D0F82451044600F1D007C9
:10597000D4F82C21A36A9A4221D929692046FFF73D
:10598000E3FF064607F002FC33460D4A012106F00C
:10599000B0FD3146384601F079FD284608F059FB44
:1059A00004F58E710646284608F0CBFBFEF779FB1E
:1059B000D4F82C31013BC4F82C313546D8E7F8BD7A
:1059C00027460E0070B506460C464CB1E1683046DD
:1059D000FFF7F8FFA5682046FEF763FB2C46F4E7C7
:1059E00070BD000010B5054BD0F8201103600446CF
:1059F00000F58C70FFF7E6FF204610BDB8460E009C
:105A000010B50446FFF7EEFF20464FF49A7108F0F8
:105A1000B9FA204610BD2DE9F0470E4606F1040AFA
:105A20008968054617465446012359B13A680B69FF
:105A30009A42B4BF8A68CA680C46B4BF01230023E7
:105A40001146F2E733B1F3689C420ED0204608F0CD
:105A500013FB00E0204602693B689A4205DB2860A0
:105A600000232B712846BDE8F087A24508D03A688C
:105A700023699A42ACBF4FF000094FF0010901E0E1
:105A80004FF001091420FEF708FB3B6810F1100FDE
:105A900018BF03618046534601462246484608F037
:105AA000EDFA7369C5F80080013373610123D8E70B
:105AB00037B5D0F8CC100446FFF746FF40F20A2372
:105AC000024604F1D00104F1F40001F090FC054617
:105AD00030B104F1CC0204F58C716846FFF79BFFEE
:105AE000284603B030BD000030B5002380F8C83030
:105AF00090F8C9309DB00446E3B9494B494A007B50
:105B00001A60012108F0AEF9474B0C93237D8DF804
:105B10003430A3690E93237F8DF83C30217B637F63
:105B2000A0688DF83D300CAAFFF73AFC84F8C90054
:105B300000286BD0226A32B3A168002301F23C41F5
:105B40000CA88DF830308DF8313001F050FC05464E
:105B5000C8B907F01BFB236A344A012106F0C9FCCF
:105B6000A168226A8DF83050012301F23C410CA853
:105B70008DF8315001F01BFD28B907F007FB2C4AC6
:105B8000012106F0B6FCA168226A04F1D0050023C9
:105B900001F23C41284601F02AFC88B30021284646
:105BA00001F0F2FA00238DF80C308DF80D30002250
:105BB000294603A801F09FFBD0B140220CA903A8FD
:105BC00000F072FD0CA80BF04EF8009060B16A4630
:105BD00004F58C7101A8FFF71EFF009BD4F8CC20C0
:105BE0009A42B8BFC4F8CC3003A801F0F9FBDEE755
:105BF0002046FFF7B7FE2046FFF75AFF68B905E0D9
:105C000007F0C4FA0B4A012106F073FC012384F863
:105C1000C83005F069F9C4F830011DB030BD00BFCF
:105C20009CE0032065580D0038420E0065460E00CA
:105C300040460E004D460E0038B50446406B28B174
:105C40000368A26BDB6804F13C01984794F8C83004
:105C50005BB1D4F83031002B53D005F045F9D4F8BE
:105C60003031C01AE36A98424BD294F8C930002B05
:105C700044D094F8F430002B40D004F1F405A26B2A
:105C800004F13C01284601F0E3FC002821DD94F8F2
:105C9000303013B1284601F06DFB626AD4F8103140
:105CA0009A422BD2284601F09BFBD4F8CC3001332A
:105CB000C4F8CC3007F06AFAD4F8CC30134A01218A
:105CC00006F017FC2046FFF7F3FE2046FFF74AFEDA
:105CD00014E007F05BFA0E4A012106F00AFC2846A0
:105CE00001F07EFB04F1D00001F07AFB012384F87F
:105CF000C830002384F8C930C4F830310023A363CE
:105D000038BD2046FFF7F0FEAFE700BF7A460E0031
:105D100095460E0008B5836B5A1C03447F2A8263A4
:105D200083F83C1001D80A2901D1FFF785FF012033
:105D300008BD05F031B810B5044608F0EFF8036867
:105D400021469B68BDE81040184708B508F0E6F802
:105D500003685B699847C0B208BD70B50646144633
:105D60000D4608F0DBF8314607F0F5FB2846FFF753
:105D7000E2FF200AFFF7DFFFE0B2FFF7DCFF08F0E9
:105D8000CDF8BDE8704007F0F1BB10B5044608F04F
:105D9000C5F8214607F0DFFB0020FFF7CCFF08F035
:105DA000BDF807F0E3FB08F0B9F82146022207F03E
:105DB000CFFBFFF7CAFF0446FFF7C7FF40EA042006
:105DC00080B210BD00220170082182804170827073
:105DD000704708B508F0A2F8BDE8084007F084BB9A
:105DE00081807047032910B5044622D80229828891
:105DF00008D0032909D0012914BF42F4834242F498
:105E0000A34204E042F4C34201E042F4E34242F020
:105E1000030242F4004201212078FFF79EFF6078E0
:105E200006F048FD2078FFF7B0FFA378184180B254
:105E300010BD002010BD04F0AFBF0368C9B29B685D
:105E40001847704738B50C4608F068F8572107F036
:105E500086FB08F063F8F221FFF7EFFF08F05EF829
:105E600007F084FB08F05AF80622572107F070FB70
:105E7000651E053408F052F803685B69984705F819
:105E8000010FA542F6D138BD2DE9F74F9A469DF88E
:105E90003030019393460D469DF834709DF838607C
:105EA0009DF83C9008F03AF8804607F06BFB08F04C
:105EB00035F86F210A2407F052FB08F02FF8002173
:105EC000FFF7BBFF08F02AF8B5FBF4F204FB12550C
:105ED00005EB0215EDB205F07F01FFF7AEFF08F00C
:105EE0001DF8BBFBF4F104FB11BB0BEB011101F03E
:105EF0007F01FFF7A2FF08F011F8BAFBF4F104FBF1
:105F000011AA0AEB011101F03F01FFF796FF08F01B
:105F100005F8019BB3FBF4F104FB113101F007011B
:105F200041F00801FFF789FF07F0F8FFB7FBF4F134
:105F300004FB117707EB011101F03F01FFF77DFF33
:105F400007F0ECFFB6FBF4F104FB116606EB011160
:105F500001F01F01FFF771FF07F0E0FFB9FBF4F15B
:105F6000036804FB119404EB01119B68C9B29847C4
:105F700007F0D4FF07F0FAFA07F0D0FF6F2107F01F
:105F8000EEFA07F0CBFF0021FFF757FF07F0C6FF3F
:105F900045F08001FFF751FF07F0C0FF07F0E6FA78
:105FA000404603B0BDE8F04F07F0F5BA2DE9F84FD1
:105FB000DDF828800B9F0C9E0D9D994692468B46DE
:105FC00007F0ACFF044607F0DDFA07F0A7FF6F21EA
:105FD00007F0C5FA07F0A2FF0021FFF72EFF07F038
:105FE0009DFF07F0C3FA07F099FF6F21072207F022
:105FF000AFFA07F093FF03685B699847C0B2C0F33C
:10600000021303EB830300F00F0000EB43008BF857
:10601000000007F083FF03685B699847C0B2C0F3D4
:10602000021303EB830300F00F0000EB43008AF838
:10603000000007F073FF03685B699847C0B2C0F3C4
:10604000011303EB830300F00F0000EB430089F81A
:10605000000007F063FF03685B69984700F00700E2
:1060600088F8000007F05AFF03685B699847C0B2E0
:10607000C0F3011303EB830300F00F0000EB4300B8
:10608000387007F04BFF03685B699847C0B2C0F3F4
:1060900000129300134400F00F0000EB4300307037
:1060A00007F03CFF03685B699847C0B2030903EB44
:1060B000830300F00F0000EB430028702046BDE88A
:1060C000F84F07F068BA2DE9F04F07468DB0084643
:1060D0000C4606F0A1FA8046204606F095FA814665
:1060E000204606F089FA8246204606F0A5FA0546C3
:1060F000204606F099FA0646204606F0A7FA83469F
:10610000204606F0ADFA0A22014604A805F0C3FFB6
:1061100004A9022208A806F06DF808A806F071F894
:10612000044608A805F0EAFEE4B25FFA8BF3F6B283
:10613000EDB202935FFA89F25FFA8AF35FFA88F1AF
:106140003846039401960095FFF79EFE04A805F0DB
:10615000D5FE0DB0BDE8F08F00B591B00DF11B0379
:1061600003930DF11A0302930DF11903019306AB8A
:1061700000930DF116020DF117030DF11501FFF754
:1061800015FF9DF81B30252B84BF00238DF81B3095
:106190009DF8153007939DF8163008939DF8173039
:1061A00009939DF819300A939DF81A30013B0B931F
:1061B0009DF81B3007A864330C930AF065FF11B0FB
:1061C0005DF804FB04F0E8BD7047000038B50C46EC
:1061D00005462822002120460AF072FE0B220A49B9
:1061E00020460BF058FE00230122E372E260AA6809
:1061F0006362064BA36100232261E3610522044B25
:106200006261236238BD00BFD0450E0000E0AB479D
:106210006F12833A10B51021044607F0B3FE2046F2
:1062200010BD0000044A0260002202734271102275
:1062300082718160704700BFE4460E00807970472C
:10624000407970474FF6FF73994210B539D09A42A2
:1062500037D04379013BDBB2042B97BF1A4CDFEDFB
:106260001B5A04EB8303D3ED005A8379202BB7EE3E
:10627000007A08D0302B09D0102BF3EE096A18BF32
:10628000F0EE476A04E0DFED126A01E0DFED116A2B
:1062900007EE901A06EE102AF8EE677AB8EE466A14
:1062A00065EEA66A86EE275A77EEC67A37EE457A0D
:1062B0009FED096A67EE277A86EE867A87EE870A6F
:1062C00010BD9FED060A10BDC8460E000000C84272
:1062D0000000D64300501A460000CC4300000000E6
:1062E00010B50C4607F01AFE292107F038F907F01F
:1062F00015FE036821469B68984707F00FFE07F0DC
:1063000035F907F00BFE0122292107F021F907F0EA
:1063100005FE03685B699847C0B210BD10B50C4616
:1063200007F0FCFD292107F01AF907F0F7FD0368D3
:1063300021469B68984707F0F1FD07F017F907F031
:10634000EDFD0222292107F003F907F0E7FD0368BC
:106350005B699847044607F0E1FD03685B6998476D
:1063600044EA002080B210BD38B514460D4607F04F
:10637000D5FD292107F0F3F807F0D0FD0368294681
:106380009B68984707F0CAFD036821469B689847B9
:1063900007F0C4FDBDE8384007F0E8B838B5037B26
:1063A00004460D4673B1204600F02EF86279A571BF
:1063B00020462A43A121FFF7D7FF2046BDE83840F9
:1063C00000F032B800F003F80028ECD138BD38B541
:1063D000044607F0A3FD07F087F8B2212046FFF737
:1063E0007FFF50280ED1012561792573204600F0EA
:1063F0002BF8A1792046FFF7D1FF204600F014F8D2
:10640000284638BD002038BD10B5037B044633B1A3
:1064100020469322A021BDE81040FFF7A5BFFFF75B
:10642000D6FF0028F4D110BD10B5037B044633B16C
:1064300020460022A021BDE81040FFF795BFFFF7DE
:10644000C6FF0028F4D110BD38B5037B04460D46C5
:1064500073B12046FFF7D8FFA279657120462A4321
:10646000A121FFF781FF2046BDE83840FFF7DCBFE0
:10647000FFF7ADFF0028ECD138BD38B5037B0546EA
:1064800023B12846FFF7C0FF002404E0FFF79FFF79
:106490000028F6D138BD6A79E3B29A4204F10104CA
:1064A00003D3782006F006FAF5E7B4212846FFF773
:1064B00035FFB62184B22846FFF730FF44EA004496
:1064C0002846FFF7B1FF204638BDF8B505460C4613
:1064D000FFF7D3FF2846FFF7D0FF242706463A46AA
:1064E000002120460AF0ECFC2760AB6863600523BE
:1064F000A36004F0F9FC320C2061B1B22846FFF72A
:10650000A1FE84ED050A0120F8BD04F045BC04F0AD
:1065100043BC704730B585B0054607F0FFFC5C21F1
:1065200007F01DF8022006F0C5F907F0F7FC07F0A8
:106530001DF807F0F3FC5C2107F011F807F0EEFC02
:106540000321FFF77AFC07F0E9FC0021FFF775FC57
:1065500007F0E4FC0421FFF770FC07F0DFFC07F014
:1065600005F80A2006F0A6F907F0D8FC08225C21FD
:1065700006F0EEFF002407F0D1FC03685B69984742
:1065800001AB18550134082CF5D19DF80430032BCC
:1065900034D19DF80530042B30D19DF806309FEDA5
:1065A000196A07EE103A9DF8073007EE903AB8EEF8
:1065B000477AF8EEE77AF2EE046AE7EE067A9DF89B
:1065C000083003F07F0287EEA67ADB094FF0010066
:1065D00085ED007A07EE102A9DF8092007EE902A33
:1065E000B8EEC77AF8EEE77AE7EE067A87EEA67A93
:1065F00018BFB1EE477A85ED017A00E0002005B0C2
:1066000030BD00BF0000804310B5044607F086FC93
:1066100006F06AFF2046BDE81040FFF77BBF70B56B
:1066200004460E461546FFF775FF18B163683360E0
:1066300023682B6070BD04F0AFBB04F0ADBB04F069
:10664000ABBB10B50446243001F0E4F828B104F5E2
:106650000C70BDE8104001F0DDB810BD411E00F126
:106660000A020020430843EAC01011F8013F53FA20
:1066700080F08A42C0B2F5D1704738B5CB68044685
:106680000D4623B98968BDE8384000F082BC242259
:1066900000210AF015FC102301202370A070AB68C4
:1066A000A360EB68236238BD2DE9F0438BB003781B
:1066B000002580460E4617468DF804508DF805508B
:1066C00063B10C2A0AD90EE0414601A8FFF7D5FFB5
:1066D00020B1012498F80330A3420BD24FF00009F7
:1066E00086F8009055E0C378002BEDD100F0B4FBA4
:1066F00081464EE0B8F80410091B490101A800F0DA
:1067000043FD81460028E9D0002101A800F01FFDCB
:106710000028E3D0C37A0F2BE0D1037803F01F03E6
:106720009C42DBD1631E0D225A4306EB020E00236E
:10673000042BD9B204D800EB4301B1F801100BE0EF
:106740000A2995BF03F1FF31591C00EB410100EB11
:10675000410194BFC988898861B1974210D97E29C7
:1067600094BFC9B23F210EF8031001330D2B02F183
:106770000102DDD1974203D90378590648BFB554C9
:10678000F31903F8015C03785B0602D40134E4B228
:10679000A0E748460BB0BDE8F08300002DE9F047C4
:1067A0000378202B00F1010401D12046F8E7704F57
:1067B000886005462C1A2E4615F8013B0BB32F2B8B
:1067C00001D1031917E05C2B02D10020BDE8F0874E
:1067D000A3F12204E4B21D2C03D827FA04F4E40741
:1067E000F3D403F0BF043C2CEFD0203B5E2BE1D967
:1067F000EBE72F2D05D11E4613F8015B202DF8D1B4
:10680000F9E7166003199842C0EB030809D013F8A2
:10681000012D2E2AF7D0202AF5D0B8F1FF0FD4DCB5
:1068200001E04FF00008C1F8048001F10C0301F110
:106830001702202403F8014F9342FBD103461A1A92
:1068400013F8014B2E2CFAD0202CF8D0B2FA82F497
:10685000640908F1FF36731C07D100274FF0070EBB
:106860003D46BA464FF0080909E0835D2E2BF4D06F
:10687000013EF0E7835C202B04D100240132424525
:10688000F8DB4BE02E2B02D1B242F6D103E0222BF3
:1068900017D07C2B15D0A3F12A0CBCF1050F01D821
:1068A0002D2B0ED1A3F13A0CBCF1050F09D9A3F1A0
:1068B0005B0CBCF1020F04D9A3F1210CBCF15D0FFC
:1068C00002D9B2420ED149E0B24247D0754521D833
:1068D000A3F1610CBCF1190F08D8203BDBB249EAE7
:1068E00007070AE0754515D800245F23A3F1410C82
:1068F000BCF1190F98BF49EA0A0A05F1010C5FFAC9
:106900008CFC0D44BCF1060F6B7301D881F80CC0F0
:106910006546B3E7BEF10A0F17D100244B7B202B4D
:106920003FF453AF3CB11AEA070F18BF02270F70AC
:106930000120BDE8F0870B7B0120087019447E23FD
:106940004B7331238B73BDE8F087B242E5DC3246EE
:106950004FF00A0E08254FF010098EE7BEF10A0F1E
:10696000DBD032464FF00A0E08254FF0100985E7BC
:1069700001010031F0B58BB000238DF804308DF8A3
:10698000053003781907044608D583789A0705D59A
:10699000016A29B1A06801F02EF808B9002049E089
:1069A0000121204600F0BCFA05460028F6D0FFF78A
:1069B00055FEE5262E70002307462370A068FFF7DA
:1069C00040FE0028EAD0E378002B33D0214601A80E
:1069D000FFF753FE0028E1D00125E378AB42DDD379
:1069E000A188491B490101A800F0CEFB0028D5D0A1
:1069F000002101A800F0ABFB0028CFD0C37A0F2BF9
:106A0000CCD1027802F01F039D42C7D1437BBB4229
:106A1000C4D10670A16891F8243043F0010381F8D5
:106A20002430530603D5A068FFF70BFE02E00135C2
:106A3000EDB2D2E70BB0F0BD2DE9F84391F80C9020
:106A400006460D4602247E2701F10D086968AA68F2
:106A500063189BB21144914206D012F8010B03EB6C
:106A6000431343409BB2F6E7B9F1030F28BF4FF041
:106A7000030909F10402D2B203F00F01A818013A88
:106A80000929D2B294BF30313731914541734FEA71
:106A90001313F1D305EB090300215F73304600F0B7
:106AA00073FB0121304600F052FB014628B9707893
:106AB000B0FA80F04009BDE8F88303784BB1C37A9F
:106AC0001B07EED40B2240460AF0E0F90028E8D17B
:106AD00002E00120BDE8F8830134A4B2642CB5D1F2
:106AE000BDE8F8832DE9F04F9B460B7889B013F091
:106AF000700F05900E46914601D10020A0E1059B44
:106B00001B78002BF9D15368029313789B0700F090
:106B10008D81029B0D270C33B3FBF7F70137FFB2D2
:106B20000021304600F030FB4FF0000809F10D0263
:106B3000CDF80C80434644464546CDF81080069279
:106B40007269079301213046C2F34F1A00F0FFFA31
:106B5000079B20B97378002B00F09080CDE7027876
:106B6000E52A00D042B9002C08BFD046BC423CBF49
:106B70000134E4B222B981E0BC4238BF002403E012
:106B8000E52A01D10025DBE72E2AFBD0C17A0F29A7
:106B900052D13DB95106D3D5437B039302F01F0573
:106BA0002B4607E0013BDBB29A42EBD1427B0399D3
:106BB0009142E7D15A1E4FF00D0C0CFB02FC029AD9
:106BC0006245DFD94FF0000EBEF1040F5FFA8EF27E
:106BD00004D800EB4E02B2F801200CE00A2A95BF5F
:106BE0000EF1FF320EF1010200EB420200EB420215
:106BF00094BFD28892880299614503D1002A18BFB8
:106C000000259DE7FF2ABDD8D2B2A2F14101192982
:106C1000D9F8081011F80C1098BF20320CF1010AB5
:106C2000A1F1410C98BFD2B2BCF1190F9CBF203129
:106C3000C9B29142A6D1FBE00907A3D44DB1012B03
:106C40007FF45BAFFFF70AFD039B83427FF455AFF0
:106C50000FE00B22069907930AF018F9079B00280A
:106C60007FF46EAF99F80020D20702D5012204927A
:106C700066E71BF4006F00F0D1803EE71BF4007F55
:106C80003FF43BAF0BF00303013B012B3FF635AF65
:106C9000002C08BFD046BC4202D3049BCBB91FE0F6
:106CA0000021304600F053FA10B973785BB124E745
:106CB0000134E4B2EFE7B3681B79012BEDD810344F
:106CC000E4B2A742E9D9304600F0EAF80028F2D150
:106CD00013E749463046FFF7AFFE00283FF40DAFFB
:106CE0004FEA4811304600F04FFA00283FF405AF54
:106CF0007D1EEDB22C464FF0000A4FF00F0841E028
:106D00000021304600F023FA074600283FF4F5AE94
:106D1000B26892F82430AC4243F0010382F8243088
:106D20000CBF44F040022246027080F80B8080F8CD
:106D30000CA009F10D000392FFF790FC039A787301
:106D400087F81AA087F81BA002F01F020D23013A52
:106D5000D9F808E05A4300230299914215D91EF848
:106D60000210042B5FFA83FC03F1010013D807EB38
:106D70004303A3F801100D2802F101020346EBD1F1
:106D8000013CE4B2002CBBD10EE014BF4FF0FF3148
:106D9000002189B2E5E7BCF10A0F94BF07EB43037A
:106DA00007EB40039980E6E7736921463046C3F359
:106DB0004F1A00F0CCF9074600283FF49EAE20227F
:106DC00021460AF07DF84B4653F80D2F3A605A6879
:106DD0007A601A893A819B7ABB7299F8003003F085
:106DE00018033B73184B1B682BB107F10E0107F119
:106DF0001000984706E021233B7428237B74082366
:106E0000BC73FB733B8A7B823B83FB89FB82B2684A
:106E100092F8243043F0010382F8243000955B4659
:106E200052463146059800F0F8F909E0012777E667
:106E30000EF1010EBEF10D0F3FF482AED446C3E653
:106E400009B0BDE8F08F00BF9CE0032003F0A4BFB1
:106E500003F0A2BF03F0A0BF10B50C46017809B93A
:106E6000002010BD11F0600104D02F2323700023F7
:106E7000637006E000F054F80028F1D0214600F0DD
:106E80005EF8012010BD03F087BF8378016943F0ED
:106E90000403837000F11002806800F071BD0000EF
:106EA0002DE9F041037803F02003044603F0FF05C9
:106EB0000BB100262EE04269184B9A42F9D8FFF731
:106EC000E4FF06460028F4D02169A06800F0EDFC3C
:106ED0000746A06805223946243000F0C2FC8046EF
:106EE0000028E6D029464FF4007209F0E9FF012599
:106EF000A3681A79AA4209D94246E919186801F02B
:106F00002DF80028D5D00135EDB2F1E7636903EB28
:106F1000422363613046BDE8F08100BFFFFD1F00E2
:106F200010B5044680680A462430A16900F099FC37
:106F300020B1A38803F00F0300EB431010BDF0B5A0
:106F40000024451E082623462E2715F8012F202A47
:106F500018D0082C02BFCF545A1CD3B22A78A2F101
:106F6000410E08BF1026BEF1190F06D890F80CE0AC
:106F700016EA0E0F1CBF2032D2B203F1010ECA5422
:106F80005FFA8EF301340B2CDFD10022CA5418466D
:106F9000F0BD70B5047805460E4684B9242221461A
:106FA00009F08EFFAE60F379102B03D0202B06D1B1
:106FB000402300E0202301202B70A87070BD00202A
:106FC00070BD2DE9F74F03780446894615464BB14D
:106FD0008278D10706D50CE05A46216900F06BFC97
:106FE00000283DDA637843F0020363704FF0FF300E
:106FF00097E01A0703D5E36962699B1A07E09A06CE
:1070000008D5A3681A896369C3EB42139BB29D42FA
:1070100028BF1D462E464FF0000804F1100B002E2D
:1070200035D022786369A06812F0200FC3F3080AF4
:107030004FEA532102D0036A19441DE090F80580FD
:1070400001EA0808BAF1000F10D1B8F1000F0DD114
:10705000002BC1D153064CBF036A236A236105E0AC
:1070600004D1237813F0700F11D1BBE72169A06818
:1070700000F01BFC08EB0001A068BAF1000F35D14D
:10708000B6F5007F32D3C36A994202D12EE0A81B25
:1070900047E0B6F5806F1BD3227897064FEA562A51
:1070A00006D40279C8EB0202D2B2924528BF9246BA
:1070B00099424FEA4A2707D2A06853464A460068D9
:1070C00000F00AFF60B98DE75344994221D3F3E7FA
:1070D0004A46006800F0B8FE002883D04FF40077DD
:1070E00063693B44B9446361F61B98E7002224308E
:1070F00000F0B7FB00283FF475AFCAF50077B74240
:1071000028BF374600EB0A013A46484609F0CDFE53
:10711000E6E72430019100F07DFB01990028CBD1F6
:1071200060E703B0BDE8F08F73B501220DF10701F0
:10713000044646690569FFF744FF012805BF9DF82D
:10714000070066614FF0FF30256102B070BD37B5B2
:107150004369C3F34315044605B169B901220DF132
:1071600007012046FFF72DFF40B2012801D0002083
:1071700008E063691F3300E02033A06863613030AA
:1071800000EB451003B030BD2DE9F0410E4601780B
:1071900007690446002939D04569B5423AD00EB98D
:1071A000066131E00B0703D5C3699E422ED807E084
:1071B000880605D5A3681B89B6EB431F26D823E0B4
:1071C000D4F808E09EF806306A1E03F10900731E29
:1071D000C240C3409A4200D84DB94A064CBFDEF8BF
:1071E0002020226A22611D4604F110080AE09B1A41
:1071F000F9E742462169A06800F05DFB002805F12F
:10720000FF3503DD002DF4D1666103E02761002026
:10721000BDE8F0810120BDE8F081F8B50F461546C4
:107220000021242204461E4609F04AFEB868A060E8
:1072300005F00F02A58000F1300152013B6AE360C6
:107240001144CB7A1D074CD4831893F83B3003F0DC
:1072500017032370C97A11F0180F04BF43F0080315
:1072600023709DF81830E37006F00303012B09D05A
:10727000022B05D0002B34D1710532D4012302E05A
:10728000032300E00223A370A1788B0703D52378A2
:1072900013F0110F25D14BB216F4005F06F0080170
:1072A00014BF6FF07F07002719433943A170C36AE9
:1072B000A36102447505B2F84410B2F84A3043EABB
:1072C000014104D581B100F096FB68B909E0216263
:1072D000D36CE36173040CD5E1692046FFF754FFDA
:1072E00038B900202070F8BDA37843F00403A370E0
:1072F000F0E70120F8BD2DE9F743037806460D4677
:10730000174653BB0B7813F0700F26D04C6914F05E
:107310001F0422D1A04600212846D5F81490FFF77B
:1073200016FFD0B10378C3B12E2B01D10024F2E7B0
:10733000E52BFBD0C17A11F0080F05D17CB1FFF726
:107340008DF9804509D10AE00F29EFD15906E2D520
:1073500003F01F0490F80D80DDE7002007E00094A3
:107360003B46C9F34F1229463046FFF756FF03B09C
:10737000BDE8F08338B5037804460BB9012038BD69
:1073800083785A0723D50121FFF7CAFD054628B99E
:10739000637843F001036370002038BD0378E52B68
:1073A000F6D023781B0744BFE369C361238C438372
:1073B000638C8382094B1B682BB100F116011830D6
:1073C00098472B8B6B82A37823F00403A370A068EB
:1073D000FFF737F90028DBD0D0E700BF9CE003209F
:1073E00010B50446FFF7C6FF0023237010BDF0B5AB
:1073F00093B01F4600238DF824308DF82530037894
:10740000019206460C460BB100203DE00B7813F0CC
:10741000700FF9D013782F2B12D1019B1A782F2AD5
:1074200002D101330193F8E7A1681AB93046FFF79A
:10743000B0FD29E009A8FFF7ACFD0028E4D009ACB5
:1074400001AA03A90198FFF7A9F90028DCD0019B44
:107450001B789BB1002303AA21463046FFF742FB6D
:107460000028D1D035460FCD09AC0FC40FCD0FC4C5
:107470002B6823603046FFF7B3FFE0E73B4603AAE3
:1074800021463046FFF72EFB13B0F0BD00B58BB0A0
:1074900000238DF804308DF805300A46012301469B
:1074A00001A8FFF7A4FF10B101A8FFF763FA0BB022
:1074B0005DF804FB2DE9F0410B7813F0700F88B0F4
:1074C00004460F461CD040F60223FFF70BFBB8B171
:1074D00001261025A67025702046FFF7E1FC78B143
:1074E0002369236200212046FFF74EFE2046FFF766
:1074F00041FF28B131462046FFF712FD034608B987
:10750000002051E0C57202466E4600F1200C6D4627
:1075100010685168B646AEE8030008326245764608
:10752000F6D1B3F814805E8B2E238DF80030202125
:107530000023EA1801330A2B5170FAD1216AA0689E
:1075400000F0B3F9A3680146012203F1240000F022
:1075500088F903460028D3D0ADF81A60ADF814803E
:10756000AE4606460DF1200C724603CA62453060F5
:107570007160964606F10806F6D12E228DF801209C
:107580003A6AADF81A20110CADF81410203308AE89
:107590002A4603CAB24218605960154603F108032F
:1075A000F6D1A068FFF74DF808B0BDE8F081F0B55E
:1075B00093B01F4600238DF824308DF825300378D2
:1075C000019206460C46002B3ED10B7813F0700F4B
:1075D0003AD013782F2B0CD1019B1A782F2A02D185
:1075E00001330193F8E7A16809A8FFF7D2FC58B36B
:1075F00009AC01AA03A90198FFF7D0F820B3019BB9
:107600001B78DBB1002303AA21463046FFF76AFA54
:1076100058B135460FCD09AC0FC40FCD0FC42B6840
:1076200023603046FFF7DCFEE2E76FB103AA214694
:107630003046FFF73FFF0028EBD105E003AA2146C3
:107640003046FFF737FF00E0002013B0F0BD000028
:107650002DE9F0470378894619070446904608D576
:1076600083789A0705D51B070BD5E169FFF78CFDD9
:1076700038B9637843F0010363704FF0FF30BDE821
:10768000F0876369DB439845F3D846464FF0000A1C
:107690006369002E00F08180A068427912EA5325C8
:1076A000C3F308071CD1DFB9216971B104F11002DD
:1076B00000F001F90028DCDB40F08E802046FFF767
:1076C000E4FB002840F08880D3E7236A3BB92046DA
:1076D000FFF7DBFB0028CCD02369236200E02361A5
:1076E0002169A06800F0E1F8291817B9B6F5007F04
:1076F00021D2C7F50075B54228BF354637B9636951
:10770000E269934234BF0122052200E00122A06811
:10771000243000F0A6F80028ABD038442A46494669
:107720002F4409F0C2FBB7F5007F30D1A0682430A8
:1077300000F070F817E0B6F5806FA06815D30279F5
:10774000521B730AD2B2934228BF1346C26A9142B7
:107750004FEA432502D31A44914237D3A7684A46D9
:10776000386800F06DFC90B983E7C36A994202BFA4
:107770004FF0FF3380F824A0C362A3684A4618681C
:1077800000F0ECFB00283FF474AF4FF40075636920
:107790002B446361A944761B7AE7E269934201D9DD
:1077A000E36102E00F4B1B681BB1A37843F00403B5
:1077B000A37094F90230002B02DB4046BDE8F0874D
:1077C0002046FFF7D7FD0028F7D152E74FF0FF32F0
:1077D00080F824A0C262C1E72169A06800F065F8C2
:1077E000014683E79CE0032003F0D6BA70B5054656
:1077F0000C46084649B10AF031FB2B680246214687
:107800002846DB68BDE87040184770BD03F0C4BA75
:1078100003F0C2BA70B50378DA0704461ED5436890
:10782000816800F10C063246186800F097FB0546A7
:1078300008B9002513E023789B0704D4237823F0AC
:10784000010323700BE06368A068196932460144A4
:10785000186800F083FB0028F0D1EAE701252846EC
:1078600070BD70B583688B4204460E46154614D031
:10787000FFF7D0FF08B9002070BD6B0703D50023C8
:107880002370A66009E0636804F10C0231461868B1
:1078900000F0DAFA0028F2D1EDE72378204605F06F
:1078A00003051D4300F80C5B70BD83794069023904
:1078B000994008447047012970B505460C461646A4
:1078C00002D84FF0FF3070BDC3699942F9D8C3792F
:1078D000202B10D18169022201EBD41100F50C702C
:1078E000FFF7BFFF0028ECD004F07F0450F82430ED
:1078F00023F070430FE0102BE3D18369C1F307211C
:107900000222194400F50C70FFF7ABFF0028D8D015
:10791000E4B230F81430EA6993429ABF3360012030
:10792000002070BD012938B50C46154601D800204D
:1079300038BDC3699942FAD8C379202B0ED1816929
:10794000032201EBD41100F50C70FFF78AFF002829
:10795000EDD004F07F0440F824500FE0102BE6D166
:107960008369C1F307210322194400F50C70FFF766
:1079700078FF0028DBD0E4B220F81450012038BD95
:107980002DE9F341C4688C4205460E46904607D265
:107990000C460027EB6901349C4203D9CFB9EC684F
:1079A0000127F7E7A64214D001AA21462846FFF78F
:1079B00082FF00280DDBEDD0019B002BEAD107B13F
:1079C000EC606FF0704221462846FFF7ABFF074698
:1079D00008B900270BE016B9C8F8004007E02246B6
:1079E00031462846FFF79EFF0028F5D1F1E73846DB
:1079F00002B0BDE8F08173B505460C4601AA2146E8
:107A00002846FFF758FF061E01DA00200FE000228B
:107A100021462846FFF786FF0028F6D0EB689C42F7
:107A20009CBF04F1FF34EC60019C002EE6D102B053
:107A300070BD70B5012304460022C3604FF0FF33D0
:107A4000C2710D46A06280F82420C362C4F83402DB
:107A500080F83022C0F83832A1B104295DD811462F
:107A60002430FFF7FEFE002857D000EB051393F8F3
:107A7000AE315B0651D11B3500EB0515D5F806502C
:107A8000002D4AD00022294604F12400FFF7E9FE28
:107A9000002842D0B0F80B30B3F5007F3DD1037C15
:107AA000022B3AD1C389002B37D0417B21714B1E69
:107AB00063710023A371092601238B4207D0013E85
:107AC0002BD0A2795B000132DBB2A271F5E7C28A4A
:107AD00002B9426A2261C6892E44A661B0F811300B
:107AE000238106EB42012162B0F81120520102F21B
:107AF000FF1201EB62226261B0F8133003B9036A2E
:107B0000AD1A2B44A57923FA05F56B1CE36140F609
:107B1000F4739D4203D80C23E371002070BD4FF62F
:107B2000F4739D4285BFC36A236210232023E3714F
:107B3000012070BD03F030B903F02EB903F02CB969
:107B400070B50E4C0E46154603F0C6F92368C01AF0
:107B50000B4B984208D903F0C7F90A4B186003F0A1
:107B600061FC03F0B9F9206003F0BEF980B2801B1C
:107B7000A842D4BF0020012070BD00BFA0E00320B8
:107B8000A086010008E6032038B5057A04464DB901
:107B9000406800F07DFA63682946187D06F073F9A5
:107BA0000123237238BD10B5037A04466BB14368D4
:107BB0000121187D06F067F9FF21606800F09AFA4C
:107BC000606800F079FA0023237210BDF8B504460E
:107BD0000D46164603F088F987B2606800F06FFA28
:107BE000FF28607209D14FF47A7239462046FFF7B8
:107BF000A7FF0028F1D055230BE0FE2801D0502329
:107C000007E032462946606800F05EFA607230B1E3
:107C1000602320462370FFF7C6FF0020F8BD606890
:107C200000F04DFA606800F04AFA0120F8BD70B526
:107C300004460E4603F058F985B2324629462046DE
:107C4000FFF77EFF30B9606800F039FAFF28F4D101
:107C5000012070BD002070BDF7B5037A0192044683
:107C60000D460BB9FFF790FF25B14FF496712046F2
:107C7000FFF7DDFF45F04001606800F03BFA0DF1D1
:107C800007060DF1030716F80119606800F032FAD3
:107C9000BE42F8D1002D0CBF95218721606800F00D
:107CA00029FA606800F00BFA0B25606800F007FA0B
:107CB0000306607203D5013D15F0FF05F5D103B051
:107CC000F0BD70B504460D46164637210022FFF779
:107CD000C3FF324629462046BDE87040FFF7BCBFCF
:107CE0002DE9F0410025057205708572416004465A
:107CF00090461E4603F0F8F841460746606800F0DB
:107D0000CBF963684F4A1D724FF00108DA605D7469
:107D100083F810802046FFF737FF63684146187DDF
:107D200006F0B1F80A25FF216068013D00F0E2F994
:107D300015F0FF05F7D163682946187D06F0A3F812
:107D40000A25002211462046FFF786FF01288046BB
:107D500012D0013D15F0FF0501D1202357E0FD2190
:107D6000606800F0C7F94FF40278606800F0A7F986
:107D7000B8F10108F9D1E4E74FF4D57208212046A3
:107D8000FFF76AFF052802D184F80A800FE0042576
:107D9000606800F094F9013D15F0FF056072F7D1BD
:107DA000AA2802D10223A37201E025232FE0A37A9F
:107DB000022B0CBF4FF080450025BFB22A46292177
:107DC0002046FFF77EFF024648B14FF4FA6239467B
:107DD0002046FFF7B5FE0028F0D0432317E0A37A32
:107DE000022B0ED02046FFF7DEFE6368B0683479C0
:107DF000317B727B5A74D8601C7219740120BDE803
:107E0000F0813A212046FFF727FF38B1372320467B
:107E10002370FFF7C8FE0020BDE8F081606800F025
:107E20004EF900F0C000C02804BF0323A3726068AD
:107E300000F045F9606800F042F9606800F03FF931
:107E4000D0E700BF90D0030038B5837A032B18BF6A
:107E5000490215460A4611210446FFF7FDFE10B1FE
:107E6000302323700BE029464FF400722046FFF7C1
:107E7000ADFE054618B12046FFF795FE03E020460B
:107E8000FFF791FE0025284638BD10B5837A032BF5
:107E90000A4618BF4A0212210446FFF7DDFE30B140
:107EA000312320462370FFF77EFE002010BD012005
:107EB00010BD10B500220C210446FFF7CDFE30B1F5
:107EC000282320462370FFF76EFE002010BD2046B9
:107ED000FFF769FE012010BDF8B5054616461F469E
:107EE000FFF7D3FF98B10024A3B29F4206EB4421D1
:107EF00008D94FF400722846FFF768FE01340028C5
:107F0000F2D104E02846BDE8F840FFF7D2BF0020D8
:107F1000F8BD38B504461546406800F0EBF84FF45C
:107F200000722946606800F0E9F8FF21606800F0FF
:107F3000E1F8FF21606800F0DDF8606800F0BFF84C
:107F4000607200F01F00052806D0572320462370DA
:107F5000FFF729FE002038BD012038BD70B5837AB7
:107F6000032B18BF490215460A4618210446FFF79D
:107F700073FE064608B132231DE02A46FE21204644
:107F8000FFF7C7FFC0B14FF4FA612046FFF74FFE7D
:107F9000054608B95A230EE032460D212046FFF768
:107FA0005BFE38B9606800F08AF818B92046FFF720
:107FB000FAFD05E0292323702046FFF7F4FD002594
:107FC000284670BD38B50D464FF4FA610446FFF7F8
:107FD0002EFE10B95B23237005E02A46FC212046C3
:107FE000FFF797FF18B92046FFF7DDFD002038BDE9
:107FF00010B5837A032B0A4618BF4A02192104469A
:10800000FFF72AFE30B1332320462370FFF7CBFD64
:10801000002010BD012010BD38B54FF4FA610446B0
:10802000FFF705FE054620B1FD21606800F062F80B
:1080300001E0562323702046FFF7B5FD284638BDE2
:10804000F8B5054616461F46FFF7D2FF70B100246B
:10805000BC4206EB4421284604D0FFF7B3FF28B109
:108060000134F5E7BDE8F840FFF7D6BF2846FFF733
:108070009AFD0020F8BD02F08FBE02F08DBE02F026
:108080008BBE0000014B01221A707047A4E0032050
:10809000011D006803F0FEBA10B5044601750068C2
:1080A00003F0CEFA207D012105F0DCFE207D0121C8
:1080B000BDE8104005F0E7BE006803F0D2BAFF212A
:1080C000006803F057BB000037B5084B009300254C
:1080D000074C0068257013460A46294603F050FBFA
:1080E0002378002BFCD0002003B030BD85800D002C
:1080F000A4E00320006803F03DBB000037B5074B48
:1081000000930025064C0068257013462A4603F0AC
:1081100037FB2378002BFCD003B030BD85800D00E9
:10812000A4E0032002F038BE10B5044605F0F6FEC8
:10813000036821469B68BDE81040184708B505F064
:10814000EDFE03685B699847C0B208BD38B50446C8
:108150000D4605F0E3FE217841F0200105F0FFF91E
:108160002846FFF7E1FF05F0D9FE05F0FFF905F01D
:10817000D5FE2178012241F0200105F0E9F9BDE8A2
:108180003840FFF7DBBF70B5064614460D4605F0D4
:10819000C5FE317841F0200105F0E1F92846FFF7EE
:1081A000C3FF2046FFF7C0FF05F0B8FEBDE87040F2
:1081B00005F0DCB92DE9F0419DF81860072998BF5A
:1081C0001E4601F007079046314601240546BC4093
:1081D000FFF7BCFFB8F1000F01D0044301E020EA33
:1081E0000404E2B231462846BDE8F041FFF7CBBFB8
:1081F00010B5072928BF07210170044605F08EFE3F
:1082000005F072F92046FF220021FFF7BCFF20464F
:10821000FF220121BDE81040FFF7B5BF0021FFF7A5
:10822000E7BF07B50123B2FA82F200935209002397
:10823000FFF7C0FF03B05DF804FB0829F8B501F0B3
:1082400007060C4634BF1421152105461746FFF7D3
:108250007DFF0123B3400FB1034301E020EA030394
:10826000082CDAB2284634BF12211321BDE8F840A9
:10827000FFF789BF07B50D2300930C23FFF79AFF83
:1082800003B05DF804FB02F087BD01757047000084
:1082900038B584690A4B036005467CB16368013BCD
:1082A00063605BB9236820469B689847A368013BDD
:1082B000A3601BB923682046DB689847284638BD71
:1082C00078520E0010B50446FFF7E2FF20461C214D
:1082D00005F058FE204610BD30B5064D056000255E
:1082E0000575836041F28835039B85614160C360F9
:1082F000026130BD04480E002DE9F0410D461746DD
:10830000064604F043FF1C4903F0F9FF00241B4814
:1083100005F06CFC68BB052C01D1BDE8F081337D14
:10832000C3B104F033FF164903F0D2FF04F02EFF6F
:10833000294603F0CDFF04F029FF124903F0C8FFDE
:1083400004F024FF0A228046214603F0E4FF404661
:1083500003F0C9FF094805F0D5FB0023BAB229464E
:10836000064805F0D3FA4FF47A7004F0A3FA01340A
:10837000CDE7BDE8F08100BFF8460E00A8E003207D
:1083800010470E0026470E0070B5054600240D4824
:1083900005F0D0FB064610B9AB699C4201DB012019
:1083A00070BD012004F086FAAB6901349C42EEDB1B
:1083B000287D30B104F0EAFE034903F0A0FF304607
:1083C00070BD70BDA8E003203A470E002DE9F843C8
:1083D000037D0646884615464BB104F0D7FE264974
:1083E00003F08DFF04F0D2FE244903F088FF00243F
:1083F00040F2BB29224805F09DFB78B1204805F0EA
:1084000042FA337DC7B22BB104F0C0FE036839468F
:108410009B6898472F5501344C45EBD1337D23B1F0
:1084200004F0B4FE174903F06AFF00232B55164BE6
:1084300098450DD11549284609F040FDDFED147A25
:108440000028B7EE000A08BFB0EE670ABDE8F8835F
:108450007C21284608F0B2FF50B1013008F000FC42
:1084600051EC100B08F0C0F900EE100ABDE8F883DB
:108470009FED070ABDE8F88381470E006D470E00A7
:10848000A8E0032080470E008C470E0091470E00A5
:108490005F42A2CD70B52DED028B044600230E463F
:1084A00015464168494842F2343205F02FFA204619
:1084B00042F234326168FFF71FFF444805F04FF97C
:1084C000002877D0A168414803F002FF40493F48A7
:1084D00003F0FEFEE1683D4803F0FAFE3D493B48EB
:1084E00003F0F6FE3146394803F0F2FE3A493748C8
:1084F00003F0EEFE2946354803F0EAFE37493348DB
:1085000003F0E6FE237DB3B304F040FE344903F0EC
:10851000F6FE04F03BFE334903F0F1FE04F036FEB4
:10852000A16803F0D5FE04F031FE294903F0D0FE26
:1085300004F02CFEE16803F0CBFE04F027FE254991
:1085400003F0C6FE04F022FE314603F0C1FE04F043
:108550001DFE214903F0BCFE04F018FE294603F07D
:10856000B7FE04F013FE1D4903F0B2FE04F00EFE48
:108570001D4903F0C4FE2046FFF706FF28B9134843
:1085800005F0C0FA9FED190A1DE04FF42F7002F0BC
:1085900081FF1749024605462046FFF717FF0B48A3
:1085A000B0EE408A05F0AEFA284602F07BFFB0EE4E
:1085B000480A08E0237D002BE1D004F0E7FD0D49D7
:1085C00003F09DFEDBE7BDEC028B70BDA8E003204D
:1085D00094470E0097470E00F0480E002E490E00FB
:1085E000AF470E0099470E00AE470E005F42A2CD86
:1085F000B4470E00B7470E0070B52DED028B044650
:108600004168224842F234321D46002305F07EF9CB
:10861000204642F234326168FFF76EFE1B4805F0D7
:108620009EF830B32946194803F052FE2046FFF762
:10863000ABFE054620B9154805F064FA002521E097
:10864000642002F027FF1249024606462046FFF743
:10865000BDFE3046B0EE408A02F024FFDFED0D7A19
:10866000B4EE678AF1EE10FAE5D0084805F04AFA50
:1086700008E0237D002BDED004F088FD064903F0DE
:108680003EFED8E7BDEC028B284670BDA8E0032073
:108690008C470E005F42A2CDDD470E0010B5064CA0
:1086A00002F07AFB204605F0E5FA2046034A044929
:1086B000BDE8104005F058BCA8E0032028BD032009
:1086C00091820D0038B504460120607494F91000C1
:1086D000E56800EB800045F8201094F91010E06880
:1086E00001EB810100EB810181ED020A94F9101088
:1086F000E06801EB810100EB81014A6094F91020F0
:10870000E16802EB820201EB8202D36094F910303F
:10871000E26803EB830302EB8303049A1A61237C70
:1087200001335BB20A2B237408DDA37C23B104F070
:108730002DFD034903F0E3FD0A23237438BD00BF78
:1087400010480E008174406803689B681847000059
:1087500030B510EE100A87B00C4607F0F9FC01ADF9
:1087600002460B462846094902F0ACFE0022134699
:10877000A95C202905D0E1540133DBB209B9E154E9
:1087800002E00132142AF3D107B030BD93480E0045
:108790002DE9F0430C4689B005464949204608F0CA
:1087A00025FE002695F910309E426ADA06EB86080F
:1087B000EB684FEA88073B440DF10C0993ED020A80
:1087C00049462846FFF7C4FFEB68CDF8009053F800
:1087D00028303C492246204602F074FEEB683B44B8
:1087E000DB686BB322463849204602F06BFEEB682B
:1087F0003B441B69FBB10A2093FBF0F191FBF0FCB9
:1088000000FB1C1C00FB1131C9B2642293FBF2F285
:1088100092FBF0FE00FB1E2200915FFA8CF3D2B2B5
:108820002A4902A802F04EFE02AB22462849204601
:1088300002F048FE04E022462649204602F042FEAD
:10884000EB681F447B6823B122462349204602F08F
:1088500039FE22462149204602F034FE013695F9C0
:108860001030F6B29E42224604DA1D49204602F03C
:1088700029FE97E71949204602F024FE00232B74B5
:1088800090E7AB7CC3B104F081FC164903F037FDDF
:1088900004F07CFC144903F032FD04F077FC21461F
:1088A00003F02DFD04F072FC0E4903F028FD04F0E6
:1088B0006DFC0E4903F023FD09B0BDE8F08300BF55
:1088C00098480E009A480E00AD480E00C0480E00B1
:1088D000C7480E00CC480E00D2480E00E1480E00FA
:1088E000E5480E0081470E00E9480E00D34B0E000C
:1088F0002DE9F0430C46054689B0504920461646FE
:108900001F4608F073FDAB684D4A4E49204602F001
:10891000D9FD334622464C490097204602F0D2FD4D
:1089200022464A49204602F0CDFD002695F9103036
:108930009E4264DA06EB8608EB684FEA88073B4400
:108940000DF10C0993ED020A49462846FFF700FF96
:10895000EB68CDF8009053F828303B49224620467A
:1089600002F0B0FDEB683B445B6823B12246384916
:10897000204602F0A7FDEB683B44DB6863B3224668
:108980003449204602F09EFDEB681F443F69F7B171
:108990000A2097FBF0F191FBF0F300FB131300FBAF
:1089A0001171C9B2642297FBF2F292FBF0FE00FB58
:1089B0001E220091DBB2D2B2274902A802F082FD4A
:1089C00002AB22462549204602F07CFD04E0224607
:1089D0002349204602F076FD013695F91030F6B2B3
:1089E0009E42224604DA1F49204602F06BFD9DE7B5
:1089F0001D49204602F066FD00232B7496E7AB7CF0
:108A0000C3B104F0C3FB194903F079FC04F0BEFBC9
:108A1000174903F074FC04F0B9FB214603F06FFC26
:108A200004F0B4FB114903F06AFC04F0AFFB034906
:108A300003F065FC09B0BDE8F08300BFD34B0E0026
:108A4000F2480E0006490E0012490E001A490E00A7
:108A50001F490E0025490E00C0480E00C7480E00F1
:108A6000CC480E00E5480E002C490E0081470E0050
:108A7000E9480E002DE9F74304464FF42F701F46D6
:108A80000E46904602F006FDE37C013B012B0546B5
:108A900006D80146434632462046FFF729FF03E049
:108AA00001462046FFF774FEA37C23B104F06EFB61
:108AB0000D4903F024FC6068036800973146424684
:108AC000D3F800902B46C8470646284602F0EAFC39
:108AD0000121384605F056FA002306B1637430468A
:108AE000237403B0BDE8F08333490E0070B504462B
:108AF00001200D461646FBF7D0FA067003462A46BB
:108B000029462046BDE87040FFF7B4BF70B5064661
:108B10000C4684B1E1683046FFF7F8FFE369A568C9
:108B200023B104F114010322084698472046FBF7BD
:108B3000B8FA2C46EDE770BDF0B58DB0044601A83B
:108B40000D4617461E4602F085FC03980130FBF7E0
:108B5000A6FA0199206008F049FC2A4633463946B6
:108B6000E67405A800F08EFDC82002F093FCE060DA
:108B700005A800F095FC0023606023740899A560A7
:108B800006A8FFF7C3FF01A803F0B8F90DB0F0BDC8
:108B900038B50025044605744574FFF7CDFF20461F
:108BA00038BD0000024B00221A7002F0F5B800BF79
:108BB000C4E003202DE9F0410446502023730D4604
:108BC00016461F4602F066FCA0604FF48270FBF769
:108BD00064FA804610B1294600F0DAFD237BC4F820
:108BE0000080042B4FF014000CD0FBF756FA80469F
:108BF00020B13B4632462946FFF7CAFFC4F804803D
:108C0000BDE8F081FBF749FA074620B1012332465F
:108C10002946FFF7BDFF6760BDE8F08110B500236E
:108C20000446437383731346024AFFF7C3FF20468B
:108C300010BD00BF43490E0038B50446806802F0FD
:108C400031FC25683DB1284600F0BAFD4FF4827131
:108C5000284605F097F9204638BD30B4057B029CC4
:108C6000042D03D1006830BC00F0B2BD029440680E
:108C700030BCFFF727BD07B5002300931A46FFF766
:108C8000ECFF03B05DF804FB4068FFF72FBF037BE8
:108C90008173042B02D04068FFF754BD006800F0D8
:108CA000EBBD08B502F078F8BDE8084002F01CB949
:108CB0000175704770B50446142002F0EBFB0646C0
:108CC000142002F0E7FB0546204609F0C7F82246CB
:108CD00000230238984217DD12F8011B0D2911D12B
:108CE00011780A290ED151780D290BD191780A29D2
:108CF00008D1191D14222144304609F0CCF8002374
:108D0000337501E00133E5E70A21304608F056FBF0
:108D1000044600B30A21013008F050FBD8B12146C7
:108D2000284608F063FB284609F098F828440023F9
:108D300000F8013C284607F093FF51EC100B07F0B8
:108D400053FD0446284602F0ADFB304602F0AAFB74
:108D500000EE104A70BD9FED010A70BD5F42A2CDCA
:108D600030B5074D05600025057541F288358561F0
:108D700083600525039B05774160C360026130BDB8
:108D80006C4A0E002DE9F84305460F469046002434
:108D90001D48E6B204F0E3FC98BB2B7FB34201D838
:108DA000BDE8F8832B7DC3B104F0F0F9174903F057
:108DB0008FFA04F0EBF9394603F08AFA04F0E6F989
:108DC000134903F085FA04F0E1F90A22814631469D
:108DD00003F0A1FA484603F086FA00231FFA88F24E
:108DE0003946094804F092FD2B7D23B104F0CEF9F9
:108DF000084903F084FA4FF47A7003F05BFD013404
:108E0000C6E7BDE8F88300BFC8E0032010470E00A6
:108E100026470E00784A0E0070B54D1E0C4601F52F
:108E20002F7206462B46002103F8011F9342FBD107
:108E3000337D4BB104F0AAF9134903F060FA04F052
:108E4000A5F9124903F05BFA04F2BA24104804F0C1
:108E500071FE40B9337DB3B104F098F90D49BDE816
:108E6000704003F04CBA0A4804F00DFD05F8010FFC
:108E7000337D2BB104F08AF9036829789B68984701
:108E8000A542E3D1E6E770BD81470E006D470E00B5
:108E9000C8E0032080470E0070B5054600240D4849
:108EA00004F048FE064610B9AB699C4201DB012084
:108EB00070BD012003F0FEFCAB6901349C42EEDB87
:108EC000287D30B104F062F9034903F018FA304606
:108ED00070BD70BDC8E003203A470E00F8B50F46DC
:108EE0000269416804461E46FFF74CFF804804F0C3
:108EF00036FC0546002800F0EC807E497C4803F0F3
:108F0000E7F939467A4803F0E3F97B49784803F0FA
:108F1000DFF97A49764803F0DBF96168744803F0B9
:108F2000D7F97749724803F0D3F97649704803F0CE
:108F3000CFF9A1686E4803F0CBF971496C4803F092
:108F4000C7F971496A4803F0C3F9E168684803F05A
:108F5000BFF96B49664803F0BBF96C49644803F0FC
:108F6000B7F96B49624803F0B3F9304608F076FF71
:108F7000684905465E4803F0ABF9002D05DA2D215E
:108F80005B4803F0A9F9694200E029460A225848E3
:108F900003F0C1F96049564803F09AF93146544844
:108FA00003F096F95649524803F092F9504804F0FC
:108FB000D5FB237D002B71D004F0E8F8574903F06E
:108FC0009EF904F0E3F84B4903F082F904F0DEF86F
:108FD000394603F07DF904F0D9F8474903F078F9F0
:108FE00004F0D4F8454903F073F904F0CFF8616850
:108FF00003F06EF904F0CAF8414903F069F904F08E
:10900000C5F8404903F064F904F0C0F8A16803F022
:109010005FF904F0BBF83A4903F05AF904F0B6F8E6
:10902000394903F055F904F0B1F8E16803F050F95B
:1090300004F0ACF8324903F04BF904F0A7F83349D7
:1090400003F046F904F0A2F8314903F041F904F0C5
:109050009DF8304903F03CF904F098F8002D0746DC
:1090600003DA2D2103F038F96D420A2229463846E9
:1090700003F051F904F08AF8274903F029F904F0C4
:1090800085F8314603F024F904F080F81C4903F018
:109090001FF904F07BF8224903F031F92046FFF76D
:1090A000FBFE237D0BB901241DE004F06FF81D4980
:1090B00003F025F90E4804F03DFD0028F3D00C48DC
:1090C00004F0E1FB044604F061F8E1B203F004F9B6
:1090D000F0E7237D33B104F059F8134903F00FF999
:1090E0002C4600E01C46024804F00CFD2046F8BD6A
:1090F000C8E00320894A0E00A14A0E00AD4A0E00C6
:10910000D14B0E00B44A0E00C14A0E00D04A0E00E8
:10911000E44A0E00054B0E00CF4B0E00164B0E001E
:10912000324B0E00504B0E006C4B0E0070B52DED07
:10913000028B044600230E461546416868485022BB
:1091400004F0E4FB204650226168FFF71BFE6448F0
:1091500004F005FB002800F0B4806249604803F089
:10916000B7F831465E4803F0B3F85F495C4803F056
:10917000AFF829465A4803F0ABF85C49584803F069
:10918000A7F85B49564803F0A3F85A49544803F03E
:109190009FF80A225021524803F0BDF85649504822
:1091A00003F096F855494E4803F092F8A1684C48F0
:1091B00003F08EF850494A4803F08AF8504948486D
:1091C00003F086F8E168464803F082F84A494448CB
:1091D00003F07EF84B49424803F07AF8237D002BD8
:1091E00050D003F0D3FF3F4903F072F803F0CEFFF5
:1091F000314603F06DF803F0C9FF3B4903F068F80E
:1092000003F0C4FF294603F063F803F0BFFF3749BA
:1092100003F05EF803F0BAFF354903F059F803F0A4
:10922000B5FF344903F054F803F0B0FF0A2250218F
:1092300003F071F803F0AAFF2F4903F049F803F097
:10924000A5FF2E4903F044F803F0A0FFA16803F046
:109250003FF803F09BFF284903F03AF803F096FF2C
:10926000274903F035F803F091FFE16803F030F887
:1092700003F08CFF204903F02BF803F087FF21490E
:1092800003F026F82046FFF707FE28B914489FEDA3
:109290001E8A04F037FC1DE04FF42F7002F0FAF83C
:1092A000014605462046FFF7B7FD2846FFF702FDB9
:1092B0000B48B0EE408A04F025FC284602F0F2F894
:1092C00008E0237D002BE1D003F060FF0F4903F09D
:1092D00016F8DBE7B0EE480ABDEC028B70BD00BFAC
:1092E000C8E00320964B0E00AB4B0E00AD4B0E00BA
:1092F000A14A0E00AD4A0E00D14B0E00B44A0E003A
:10930000C14A0E00B14B0E005F42A2CDD44B0E00FD
:1093100010B5064C01F040FD204604F0ABFC2046A1
:10932000034A0449BDE8104004F01EBEC8E0032013
:1093300028BD032091820D0003681847012A02D03E
:10934000022A02D004E0016002E00B6800B1036071
:109350000020704713B51C20FAF79FFE044648B161
:10936000064B07491B68009342F23432054B0968EB
:10937000FEF7B2FF204602B010BD00BF1CE1032083
:1093800020E10320F2480E0013B52020FAF785FEF5
:10939000044640B1054B06491B6800935022054B1B
:1093A0000968FFF7DDFC204602B010BD1CE1032078
:1093B00020E10320F2480E0013B51C20FAF76DFEE1
:1093C000044648B1064B07491B68009342F2343209
:1093D000054B096800F068FA204602B010BD00BFD6
:1093E0001CE1032020E10320F2480E0013B51420F5
:1093F000FAF753FE044640B1054B06491B6800933B
:1094000000231A46096800F0E9FA204602B010BDB0
:109410001CE1032020E1032010B5064B03606433F8
:109420000446036102F0DFFA204602F0A1FC204668
:1094300010BD00BFC04F0E0010B50446FFF7ECFF93
:1094400020464C2104F09EFD204610BD10B586B08C
:1094500000230446049321B10F4B05930F4B029157
:10946000049302AB93E803008DE8030094E8030043
:1094700083E803009DE80300049A84E80300A168E0
:10948000A260059A04911846E168E2600591FAF736
:1094900028FF204606B010BD39930D003D930D0006
:1094A00070B500F10801C2680B464AB10478157C1A
:1094B000A54236BFD46894681A4613462246F4E79C
:1094C000994204D000781A7C904238BF0B46DA6982
:1094D0000AB904F00EFF1A6A03F11400BDE87040E7
:1094E00010478B6870B5164604460D1D01225BB10E
:1094F00030781A7C904234BF9868D8681D4634BFD3
:10950000012200220346F2E732B1CA6895420AD02E
:10951000284604F0B1FD00E028463378027C9A42E8
:109520004FF0000302D284E8280001E084E809003B
:10953000204670BD2DE9F743064624201F460C4601
:10954000FAF7ABFD3B6810F110081CBF1B780374E1
:1095500006F104071CBF0023C361A742054608D1DA
:109560007369002B5CD03169037C0A7C9A423AD340
:1095700056E090F81090237C994517D2F368A342E7
:10958000204611D004F078FD037C4B4505D2C3681A
:10959000002B14BF2046002406E0684642463146B0
:1095A000FFF79FFF009C019801461AE02FD933690D
:1095B000A34213D0204604F039FD037C4B4505D966
:1095C000E368002B14BF0446002008E068464246CA
:1095D0003146FFF786FF9DE8110000E0002021469C
:1095E0000446A1B144B98F4206D0087C2B7C83424B
:1095F0002CBF0020012000E001203B460A462946FE
:1096000004F03CFD736901337361284610E005F1F5
:109610001400FAF766FE2846FAF743FD204607E0F5
:10962000314642466846FFF75CFF009C0199D8E747
:1096300003B0BDE8F08300007FB5041D83680A46CF
:1096400021464BB115781E7CAE4236BFDD689D6861
:109650000B4619462B46F4E78C4203D014780B7C5A
:109660009C4208D204AB43F8042D02AA0092044A9B
:10967000FFF760FF014601F1140004B070BD00BFA8
:10968000FA4B0E002DE9F74304461D4689469046E5
:1096900000211022083007F013FC257002AD0123D1
:1096A00005F8013D04F10802261D002722616261D0
:1096B0002946A7613046FFF7BFFF1549FFF7C6FEF1
:1096C000294630468DF80770FFF7B6FF1149FFF7BE
:1096D000BDFE0223294630468DF80730FFF7ACFF68
:1096E0000D49FFF7B3FE0323294630468DF80730B6
:1096F000FFF7A2FF0949FFF7A9FE094BC3F8009045
:10970000084B2046C3F8008003B0BDE8F08300BFDB
:1097100055930D0089930D00B9930D00ED930D0045
:1097200020E103201CE1032070B5104D104C114EB8
:1097300001F032FB284604F09DFA28460E4D2246E1
:10974000314604F011FC284604F094FA28460B4DEB
:109750002246314604F008FC284602F0EBFA224685
:1097600028460749BDE8704004F0FEBB00E1032035
:1097700028BD032091820D00E4E0032024E10320B2
:1097800019940D0000221146406801F00BBE000044
:109790001FB50A4B04466846196001F05BFE02984B
:1097A0000130FAF77CFC0099206007F01FFE684644
:1097B00002F0A4FB204604B010BD00BF78E10320F6
:1097C00010B50446006808B1FAF76DFC204610BDDC
:1097D0002DE9F047A4B00646894610EE10AA1F46B0
:1097E000DDF8B08015460BAC52B1104608F036FBE0
:1097F000642807D903F0CAFC1A4902F080FD01E091
:10980000194900E02946204607F0F0FD08AD2FB1C8
:109810003A461649284601F055FE03E0124928460B
:1098200007F0E4FD07AFB8F1000F05D0424610493C
:10983000384601F047FE03E00B49384607F0D6FDF5
:10984000504604970395029406F082FC0436CDE955
:1098500000014A460749304601F034FE24B0BDE815
:10986000F08700BFFB4B0E00364F0E00BC480E00C9
:10987000D0520E00354C0E00014B1970704700BFDE
:1098800070E1032008B501F087FA01F02DFB014BD0
:10989000186008BD74E103209FED010A704700BF06
:1098A0005F42A2CD0175704730B5064D05600025B9
:1098B0000575836041F28835039B85614160C36013
:1098C000026130BD184E0E0010B5064C01F064FA6E
:1098D000204602F02FFA2046034A0449BDE8104012
:1098E00004F042BB7CE1032028BD032019940D0045
:1098F00010B504464A68024904F00DFA204610BD2E
:10990000DCE20320F0B58FB00146064602A81F46F0
:10991000FFF7EEFF02A803F09BFBA0B9337D23B154
:1099200003F034FC254902F0EAFCF32300933722CC
:109930003D23A92108A809AD03F0AEFB0FCD03AC70
:109940000FC42B682370002240F2BD211C4802F096
:1099500021FA002242F23431194801F0F6FF03AD3A
:10996000184B08930FCD09AC0FC42B681448237013
:1099700042F2343208A902F027FA68B167B13846DA
:1099800008F06CFA394602460D4802F03AF818B170
:109990000B4802F095F858B9337D23B103F0F6FB7C
:1099A000094902F0ACFC064802F01DF8002003E073
:1099B000034802F018F801200FB0F0BD634D0E000F
:1099C0007CE1032058510E00EF4D0E009FED010A7F
:1099D000704700BF5F42A2CD0174704710B5044CC0
:1099E000046083600024029B04744160C36010BD66
:1099F0002C4E0E0070B5064600200C4601F086FC89
:109A000008B9002070BD002C03DD01F06DFA054699
:109A100000E0002573783BB9002C07DD01F064FA03
:109A2000401BA04202D3ECE7012070BD01F0FAFC1C
:109A3000F0E730B585B01A46089B1B788DF80030EA
:109A400002A83C2303F028F9029C00212046FFF7DE
:109A5000D1FF6378BFF35F8F33B100212046FFF75A
:109A6000C9FF2378012B13D00025039C94B16368B0
:109A7000013B636073B9236820469B689847A368DD
:109A8000013BA36033B923682046DB68984701E0B7
:109A9000257BEAE7284605B030BD01F07DB9704767
:109AA00010B50C4604F03AFA602103F058FD04F0BA
:109AB00035FA036821469B68984704F02FFA002185
:109AC00003F050FD04F02AFA0122602103F040FD6A
:109AD00004F024FA03685B699847C0B210BD10B562
