:02000002D0002C
:1040000000400D00F8640E00000006000D000501E0
:084010000401E80500000000B6
:04401800D4480E007A
:1040200009480A49884208B505D0094A824202D0A7
:10403000121A0DF096FA0748074A0021121A0DF0DD
:104040009BFA014808BD00BF04BB0320CC630E00EF
:1040500008BC032008BC0320F0E7032070B509F07A
:1040600009F8074C074BE41AA40800251E46A54290
:1040700004D056F8253098470135F8E770BD00BFE9
:10408000B4630E00E4620E0000F01EBC08B500F040
:10409000EBFDBDE8084008F0AFBF07F057BD07F0E3
:1040A00055BD07F05BBD07F059BD0078B0FA80F050
:1040B00040097047012303707047106870477047CC
:1040C00070470000014B01221A70704718BC032092
:1040D00003681847012A02D0022A02D004E00160D6
:1040E00002E00B6800B103600020704703685A6863
:1040F00098681B6812F0010F4FEA620218BF8158DE
:10410000104418BFCB58184738B5064D002404F1A9
:1041100080002844103C08F04DFA14F1900FF6D1BD
:1041200038BD00BF68BC032010B5044608F042FA51
:10413000204610BD08B507F023FA034B1860034B67
:1041400001221A7008BD00BF10C4032000C503205F
:1041500010B5044607F014FA41F26462A358C31A7A
:10416000092B05D904F5B3510B6801330B60A0503E
:1041700010BD38B5044607F003FA04F5B4510B68D6
:1041800093B1C31A092B10D941F27C62A558AB42F6
:1041900038BFA35041F2746562591344635141F230
:1041A0007862A3580133A350086038BD10B50446A7
:1041B00000F5B050043008F0FDF904F6063007F0C1
:1041C00094F804F10A0007F090F8204610BD436906
:1041D00013B183690C301847704710B50446006866
:1041E00009F060FC204610BD7FB5024608461379F1
:1041F000956833B13DB90C4904B0BDE8704008F092
:10420000C3BB0A4B00E00A4B167B0A4C0A49527B9F
:104210000292012E08BF214601910095074A002114
:1042200008F0C3FC04B070BD31490E00F7520E0017
:1042300020490E0029490E002D490E0047490E0065
:1042400013B500210446084607F0E2F902A900234D
:10425000204641F8043D07F0F3F9019C0CB101231D
:1042600023710021012007F0D3F92CB123682046E7
:104270009B6898470023237102B010BD022A38B50D
:10428000044605D0032A0FD0012A11D10B6809E09A
:104290000C200D68FFF701FF034618B195E80700F1
:1042A00083E80700236003E00C2100680AF0C6F9E8
:1042B000002038BD10B5054B00220446114640F8D9
:1042C000043B07F055FB204610BD00BF10490E000F
:1042D00010B50446FFF7EEFF204620210AF0AEF9A4
:1042E000204610BD00221146406807F0B7BB10B54C
:1042F0008368044613B1032201469847204610BD47
:10430000F0B500258E46154905718560456101604F
:10431000044692E8030085B002AF04F10C0687E87A
:10432000030096E8030082E8030097E8030086E8AC
:1043300003009168606990606161D168A069D06094
:10434000A1618DE82800064A2346714604F1080061
:1043500007F066F9204605B0F0BD00BFFC480E002E
:1043600041420D0007B58068002338B18DE80A008E
:10437000022107F06DF9B0FA80F0400903B05DF852
:1043800004FB000038B5104B036083680446A3B1FA
:104390006FF000410022FFF7E5FF0021A06807F061
:1043A0006FF9237903F0FF0513B107F019F9F8E766
:1043B0002946A06807F03CF9A56004F10C00FFF75E
:1043C00096FF204638BD00BFFC480E0010B50446DD
:1043D000FFF7D8FF20461C210AF030F9204610BD17
:1043E00037B5054600220C461146FFF7BBFFA8680B
:1043F000002340B1019300941A46194607F028F9AA
:10440000B0FA80F0400903B030BD00002DE9F04F54
:104410004D4FDFF84891DFF848818DB00024012529
:10442000092C00F08D8014F809600AF0D3F83146A9
:1044300009F0EDFB0AF0CEF809F0F4FB00284ED0AD
:104440000A2008F093FD0AF0C5F8314609F0DFFBB9
:104450000AF0C0F809F0E6FB002840D00AF0BAF8EC
:1044600009F0E7FB0AF0B6F8314609F0D0FB0AF094
:10447000B1F809F0D7FB90B309F0E4F933490546E8
:10448000684608F0DEF83946684608F0B8F9304961
:1044900008F0C1F92F4908F0BEF9102282463146D2
:1044A0000DEB020008F041F904A9504608F0A7F905
:1044B000014608A808F004F90899284608F07BFA94
:1044C00008A808F077F804A808F074F800256846F2
:1044D00008F070F808F8045001341037A0E709F02C
:1044E000B1F91A498246684608F0ABF83946684681
:1044F00008F085F9184908F08EF9164908F08BF98B
:104500001022834631460DEB020008F00EF904A993
:10451000584608F074F9014608A808F0D1F808993F
:10452000504608F048FA08A808F044F804A808F033
:1045300041F8684608F03EF8012308F80430CBE75C
:1045400028460DB0BDE8F08F68BC032065490E0019
:104550006D490E0075490E0071490E0004BB032021
:1045600008C503202DE9F0431E4D1F4F8DB00646B0
:10457000002415F8013FB3422DD109F063F91B491E
:104580008046684608F05DF807EB0411684608F0BD
:1045900036F9174908F03FF9164908F03CF910229E
:1045A000814629780DEB020008F0BFF804A94846BF
:1045B00008F025F9014608A808F082F80899404655
:1045C00008F0F9F908A807F0F5FF04A807F0F2FFD2
:1045D000684607F0EFFF0134092CCAD10DB0BDE8E1
:1045E000F08300BF03BB032068BC032065490E00B5
:1045F00071490E0075490E0070B509F023F91D4987
:1046000008F0D9F90124002509F0E4FFE1B209F02E
:10461000FEFA09F0DFFF09F005FB20B92046FFF79D
:10462000A1FF013517E0042815D109F00BF9124953
:1046300008F0AAF90F2C04D809F004F90F4908F082
:10464000A3F909F0FFF810220646214608F0BFF949
:10465000304608F0A4F901347F2CD5D11DB909F0FA
:10466000F1F8074902E009F0EDF80649BDE87040AD
:1046700008F0A1B981490E008D490E00F44F0E00DB
:10468000A9490E00BF490E00F8B5414D2846FFF775
:1046900029FE044640BB09F0D5F83E493E4E08F0DD
:1046A0008AF9234622462146686807F0DFF9234647
:1046B00022462146686807F0B9F9204606F078FFDF
:1046C000002504460027002006F072FF001B61EB66
:1046D00005018F4208BF864235D32D48FFF702FE01
:1046E00088BB07F0FBF9EEE709F0ACF82B4908F0BE
:1046F00062F907F003FA0446F0B909F0A3F8284973
:1047000008F059F907F0F2F9204606F051FF0025AC
:1047100004464EF65F260027002006F049FF001BE6
:1047200061EB05018F4208BF86421FD307F0E6F90F
:10473000E0B907F0D3F9EFE709F084F81949BDE8CB
:10474000F84008F038B91248FFF7CCFD1048FFF7E1
:10475000C9FD0028CDD109F075F8134908F02BF9EF
:10476000C82008F003FC07F091FBC2E707F0C6F988
:1047700007F0C4F958B909F065F80C4908F01BF9BD
:10478000C82008F0F3FBBDE8F84007F07FBBF8BD98
:10479000DCE20320C5490E001FBF0200064A0E00DE
:1047A000154A0E005D4A0E00E7490E003A4A0E0017
:1047B00038B5046805467CB16368013B63605BB94A
:1047C000236820469B689847A368013BA3601BB9F8
:1047D00023682046DB689847284638BD70B594B0FA
:1047E00006F0CEFE2F4D304E044606F0C9FE28607E
:1047F00007F074F9642008F0B9FB08F06CFBB042D4
:1048000005DC06F0BDFE001BB0F5FA7FEDD308F025
:1048100062FB264B984207DD08F05DFB0146244809
:1048200001F0A8F901203AE0224C23492368002234
:1048300004A808F0FDFA04A908A807F041FF1F49E1
:1048400008A807F0E8FF0546194801F08DF923682C
:10485000194902460CA808F0EBFA0CA9284607F003
:10486000CEFF014610A807F02BFF154B109A1B78BE
:1048700014498DF8003002A83C2308F069FD03A814
:10488000FFF796FF10A807F095FE0CA807F092FE20
:1048900008A807F08FFE04A807F08CFE002014B0D3
:1048A00070BD00BF08E603204DB25E574EB25E57A2
:1048B00024C3032014BB032018E2032059560E0022
:1048C00058BC0320704A0E0030B5012185B047481E
:1048D00004F021FD002302224549464807F0F6F87E
:1048E00000240C230194ADF80430434B4349029358
:1048F000042201AB4248039407F0E8F808F0A2FF55
:104900004FF4165108F092FF3E4801F0A6FD2146F3
:104910003C4801F0A9FD3C4801F04EF9012202217A
:10492000394801F007F901220321374801F002F963
:1049300006F026FE354B186041F2883008F016FB71
:10494000FFF764FDFFF758FE2F4801F0BDF805465C
:10495000C8B908F077FF2E4908F02DF82D492748EF
:1049600007F0C1FE2A4601212B4807F001F808F0A4
:1049700069FF2A4908F01FF842F2107008F0F6FAB1
:1049800007F084FA30E0264DFFF77EFE2A462146E6
:10499000244801F02CFA244B2A689A4208D02B6054
:1049A0002A4644F6206321461E48EB6001F010FAC7
:1049B000FFF714FF18B108F045FF1C4902E008F0AA
:1049C00041FF1B4907F0F7FF1A4801F039FA1A486E
:1049D00006F0D0F96FF000411848FFF701FD6FF0C5
:1049E00000411748FFF7FCFC05B030BDE8C40320C8
:1049F0001C490E00804A0E00BB400D0030C403204D
:104A0000884A0E0020BC032024C3032030BC0320AE
:104A1000954A0E00B74A0E0080C10320DE4A0E0000
:104A200080C40320ACC303204C1F1100F64A0E00C3
:104A30000D4B0E009CC1032020C5032038BC032071
:104A4000F4C303201FB50A4B0A4C1B780A498DF8A2
:104A5000003022463C2302A808F07AFC03A8FFF7A6
:104A6000A7FE08F0EFFE214607F0A5FF04B010BD39
:104A700058BC0320954A0E00284B0E00F0B589B0B3
:104A8000044602A880E806001D460C2000230F46BD
:104A9000039E0693FFF701FB10B107604660856037
:104AA0000B4B07930B4B06939DF8403004900093FB
:104AB0009DF838209DF93C3004A9204608F01EFFDF
:104AC000044604A8FFF713FC204609B0F0BD00BF60
:104AD000ED400D007D420D00F8B50446022501268B
:104AE000206803681B69984700284FDD638F2068A2
:104AF000238703685B69984787B2422F678702D193
:104B0000E7876663ECE74D2F616B06D1012904D17D
:104B1000E38F65634D33E387E2E78B1E1D2BDFD800
:104B2000208FE28F07EB0023A1F10B0E9BB2BEF1A9
:104B3000140F26D8DFE80EF00B250D250F251125C3
:104B400013251525172519251B2525251D00A360CF
:104B500017E0E36015E0236113E0636111E0A361F6
:104B60000FE0E3610DE023620BE0636209E0A36202
:104B700007E0101A80B2A3871B1AE08758425841F9
:104B8000F8BD3A440131E2876163A9E70020F8BD2E
:104B900010B506F0F5FC04460B48FFF79DFF08B181
:104BA0000A4B1C600A4A136841F28831E31A8B42AF
:104BB00008D9064B1B68E31A8B4202D8024B98684F
:104BC00010BD146010BD00BF40C403209CC403206E
:104BD0001CBC032010B506F0D3FC04460B48FFF7BD
:104BE0007BFF08B10A4B1C600A4B1B6841F28832FC
:104BF000E31A934209D9064B1B68E31A934202D881
:104C0000024BD86810BD044B1C6010BD40C403208B
:104C1000A8C30320D0C403201CBC032010B506F099
:104C2000AFFC04460B48FFF757FF08B10A4B1C6066
:104C30000A4B1B6841F28832E31A934209D9064BAA
:104C40001B68E31A934202D8024B186910BD044B4B
:104C50001C6010BD40C40320E0C4032098C403209E
:104C60001CBC0320000000002DE9F04F2DED048B4B
:104C7000C54CC6482368C64EDFF848B3C54DC64F7D
:104C8000DFF844A3ADF5457D01330021236001F039
:104C9000EDFB0BF097FD0022C04B0BF009FE00224C
:104CA000BF4B0BF02FFFD6E900230BF04FFC8046E3
:104CB0008946C6E9008920680BF094FD02460B4640
:104CC000404649460BF01EFFCBE900010121AF48E9
:104CD00001F0CCFB0BF076FD0022B04B0BF0E8FDB1
:104CE0000022AF4B0BF00EFFD5E900230BF02EFC9A
:104CF00080468946C5E9008920680BF073FD0246AD
:104D00000B46404649460BF0FDFEA64BC3E90001A9
:104D100002219E4801F0AAFB0BF054FD00229F4B9C
:104D20000BF0C6FD00229E4B0BF0ECFED7E90023F2
:104D30000BF00CFC80468946C7E9008920680BF01F
:104D400051FD02460B46404649460BF0DBFE964BB2
:104D5000C3E9000103218D4801F088FB0BF032FD0F
:104D600000228E4B0BF0A4FD00228D4B0BF0CAFEEF
:104D7000DAE900230BF0EAFB80468946CAE900899C
:104D800020680BF02FFD0B460246494640460BF0CB
:104D9000B9FE864BC3E90001854B1B78002B00F060
:104DA0003A83DFF82882834805F096FDB8F80600BC
:104DB000D8ED009A0BF016FD6BA3D3E900230BF09E
:104DC00077FD0CF06DF81E90B8F80C000BF00AFDA2
:104DD0000022734B0BF096FE0CF062F8B8F804302A
:104DE0001F90B8F80A0008EE103A0BF0FBFC002206
:104DF000714B0BF087FE5EA3D3E900230BF0A4FBFD
:104E00000CF04EF8B8F81230209008EE903A98F86E
:104E1000083009EE103AFFF7BBFE2190FFF7DAFEEB
:104E20002290FFF7FBFE00212390584801F01EFB63
:104E30000BF0C8FC0022594B0BF03AFD0022584BF6
:104E40000BF060FED6E900230BF080FB804689461C
:104E5000C6E9008920680BF0C5FC02460B464046B7
:104E600049460BF04FFECBE900010121474801F014
:104E7000FDFA0BF0A7FC0022484B0BF019FD0022B5
:104E8000474B0BF03FFED5E900230BF05FFB80465C
:104E90008946C5E9008920680BF0A4FC02460B4650
:104EA000404649460BF02EFE3E4BC3E9000102216D
:104EB000364801F0DBFA0BF085FC0022374B0BF093
:104EC000F7FC0022364B0BF01DFED7E900230BF058
:104ED0003DFB80468946C7E9008920680BF082FCCB
:104EE00002460B46404649460BF00CFE2E4BDFF8BF
:104EF000E090DFF8E080C3E900010321234801F0DE
:104F0000B5FA0BF05FFC0022244B0BF0D1FC002221
:104F1000234B0BF0F7FDDAE900230BF017FB0646F5
:104F20000F46CAE9006720680BF05CFC02460B469E
:104F3000304639460BF0E6FD1C4B204FC3E900011B
:104F40000DA3D3E90023DBE900010BF0FDFA0CA36C
:104F5000D3E900230BF0ACFC194B1E6801361E6030
:104F60003AE000BFAFF30080FCA9F1D24D62503FA0
:104F7000666666666612714097FE25A94C71F93F18
:104F800008AC1C5A64DB4DC034BC032020BC032099
:104F900028BC0320B8C40320D8C403200000C83FA5
:104FA00000408F4060BC0320D0C30320E0C1032039
:104FB00000C5032020C503200000244070C3032047
:104FC000DCC1032018C5032018C40320E0C303205C
:104FD00004C5032080C30320D7E900230BF0B6FAF1
:104FE00004460D46C7E9004530460BF0FBFB024680
:104FF0000B4606460F46204629460BF083FD664BBE
:1050000004460D46C3E90045002200230BF0D6FEFE
:10501000B8EE488A40B1204629460BF041FFC9F856
:105020000000C8F8000003E0D8F80030C9F80030EC
:10503000DFF89081594CDFF888A1DFF88CB14AA3E2
:10504000D3E90023D8E900010BF07EFA48A3D3E9A5
:1050500000230BF02DFCD4E900230BF077FA324645
:10506000C4E900013B460BF04DFD4D4B04460D4697
:10507000C3E90045002200230BF0A0FE40B120460A
:1050800029460BF00DFFCAF80000CBF8000003E042
:10509000DBF80030CAF800304249434CDFF81CA16D
:1050A000DFF828B134A3D3E90023D1E900010BF0E4
:1050B0004BFA33A3D3E900230BF0FAFBD4E9002326
:1050C0000BF044FA3246C4E900013B460BF01AFDEE
:1050D000364B04460D46C3E90045002200230BF081
:1050E0006DFE40B1204629460BF0DAFECAF80000FA
:1050F000CBF8000003E0DBF80030CAF800302C4B9E
:10510000DFF8CCA0DFF8CCB0D3E900451EA3D3E98B
:105110000023204629460BF017FA1DA3D3E90023EC
:105120000BF0C6FBDAE900230BF010FA32463B46DF
:10513000CAE900010BF0E6FC1E4BDFF87CA0064636
:105140000F46C3E90067002200230BF037FE00285A
:1051500042D0304639460BF0A3FECAF80000CBF827
:1051600000003DE0AFF300807252852CF81AFA3F40
:105170003352EFA96035B0408A3DB48F15FCF93F3A
:10518000CCB7C2D95CDE57C0C5C5B9FEFB17FB3F23
:10519000F2F3688C2AA47540C0C4032020C4032005
:1051A000F8C40320D0C3032028C40320C8C40320AC
:1051B000E0C1032078C3032084C3032054BC032030
:1051C000A4C3032060BC0320D8C10320DCC3032098
:1051D000E8C10320E4C40320DBF80030CAF8003043
:1051E000239B1C93229B1B93CDE91845219B1A936B
:1051F0009E4B9F4DD3E90023CDE91623D8E9002328
:10520000CDE914239B4BD3E90023CDE912239A4B1C
:1052100018680BF0F9FACDE91001984B18680BF0FB
:10522000F3FACDE90E01964B18680BF0EDFACDE9D3
:105230000C01D9F800000BF0E7FACDE90A0120983B
:10524000CDED098A8DED089A0BF0DEFACDE9060165
:1052500018EE100A0BF0D8FACDE904011F980BF0F4
:10526000D3FACDE902011E980BF0CEFA19EE903A6E
:10527000CDE90001834A4FF4007144A806F096FC82
:10528000814B82491B788DF8003044AA3C2340A80A
:1052900008F05EF841A8FFF78BFAB8EE690A7C497E
:1052A0007C4804F02CF89DED1E0A7B49794804F0F7
:1052B00026F89DED1F0A7949764804F020F8B0EEF3
:1052C000480A7749734804F01AF89DED200A754999
:1052D000704804F014F8B8EE490A73496D4804F0B8
:1052E0000EF8B8EE680A71496A4804F008F8704B85
:1052F00068481A786F4B196804F00AF86E4924A8B8
:1053000005F0BAFB24996D4807F055FB08F09AFAAE
:10531000249907F050FB6A4B2A7800261E701C4621
:105320001AB1684800F00CFC2E7000232370664C04
:1053300008F088FA654907F03EFB0A22216828A890
:1053400007F005FA28A92CA807F0BAF960492CA89B
:1053500007F061FA2179054630A807F0D5F930A9A0
:10536000284607F04CFA5A4907F055FA0A22054632
:10537000A16834A807F0EBF934A9284607F03FFAF2
:10538000534907F048FA0A220546E16838A807F0B1
:10539000DEF938A9284607F032FA4D4907F03BFA02
:1053A00094ED040A054606213CA807F0F7F93CA94C
:1053B000284607F024FA464907F02DFA94ED050A2D
:1053C0000546062140A807F0E9F940A9284607F05C
:1053D00016FA3F4907F01FFA3E4907F010FA014656
:1053E0003D4807F05EF940A807F0E4F83CA807F054
:1053F000E1F838A807F0DEF834A807F0DBF830A8A9
:1054000007F0D8F82CA807F0D5F828A807F0D2F8AC
:1054100024A807F0CFF8314C2378DBB1264805F0FB
:1054200087F9254805F02CF9234804F0BDFF164BF9
:105430002B491B780022227044A88DF800303C23B1
:1054400007F086FF45A8FFF7B3F908F0FBF92549F7
:1054500007F0B1FA244B1B780BB106F017FD0DF5E0
:10546000457DBDEC048BBDE8F08F00BFD0C30320A9
:10547000A4C4032018C5032084C3032054BC032004
:10548000A4C30320324B0E0058BC0320B34C0E00C3
:105490002C4C0E00E8C40320354C0E004A4C0E0084
:1054A000584C0E006D4C0E00794C0E00814C0E00D5
:1054B000D8C3032010BB032020C50320F0C1032064
:1054C00000C5032024C3032080C403208B4C0E009E
:1054D000BB4E0E00A8C4032030C4032018BC032018
:1054E000A94C0E00BB4C0E00CCC303202DE9F047A5
:1054F0001A4B1B4E1B4C00251D701B4B8AB04FF0E6
:10550000010883F8008005F08BFF306006F038F862
:1055100008F0CEFA07272A464FF41651206067603C
:1055200008F0BCFA4146384608F0F8FFA388326814
:105530001B01D118D45C4B7803F01F0343EA4414D9
:105540002F2C05DD094A29460A2006F001FA01E060
:105550001F2C0FDD04F01F04054B0DE0D8C3032002
:10556000A0C4032040C4032058BC032061B50D0033
:10557000000300504FF0A043012505FA04F4C3F8DE
:105580000845BD4ABD49BE48BE4F09F049F803224F
:10559000BD49BE4803F086FEB74ABD49BB4809F085
:1055A0003FF8BC4BBC4883F87454642183F8601402
:1055B0003968C3F87004002211EA0506DA7183F82D
:1055C0003C2483F83D2483F86A24C3F8782483F8C4
:1055D0007C2483F87D241C4605460AD13846FEF714
:1055E00064FD30B13146AD4806F07CFB3846FEF72D
:1055F00061FDAA4BC4F86C34A94CAA4B069506AEC3
:1056000000250127089302223346A2498DF81C5039
:1056100020468DF824708DF8255000F091FC964AB4
:10562000A149DFF84093204608F0FAFF40F6B8336E
:105630002A4614210320A36206F0DCF94FF01E086D
:105640000346CDF80080019703224FF47F0197486D
:10565000974C06F01FFB884A9649944808F0E0FFF3
:105660002946384606F0A6F9934B069332462B4658
:105670004FF4FA619148CDF824900894FEF740FE6B
:105680003046FEF734FE7C4A8D498C4808F0C8FF4E
:105690008C4B069332462B4642F210718A48CDF865
:1056A00024900894FEF72CFE3046FEF720FE724A46
:1056B0008349854808F0B4FF844B069332462B4655
:1056C00041F288318248CDF824900894814CFEF74D
:1056D00017FE3046FEF70BFE674A79497C4808F012
:1056E0009FFF204601F059FA04F1080004F01BFD69
:1056F000414604F10A0005F008FE414604F6063072
:1057000005F003FE744800F0CFF941F25C6A40F600
:105710001F21724801F0CAF8042344F80A3004F546
:10572000B3536F4A9A606F4A1D601A6141F2746305
:105730004FF0FF39E55041F278631122E55041F214
:105740007C6341F26C6844F8039004F5B453032081
:105750001D6041F284630221E250634A44F808006C
:1057600000231360536041F29062A5505F4A1360BA
:1057700041F29862A5505E4A136004F5B552156077
:10578000536041F2A862A5505A4A1360536041F237
:10579000B463E55008F0C2FE34F80800564B069397
:1057A0004FF0020807950295CDF80490CDF80080DF
:1057B00096E806002346FFF761F9414634F80A00EF
:1057C00008F0ACFE34F80A004C4B04938DE800035B
:1057D0000595029504AA234606CAFFF74FF9264A03
:1057E0004749204608F01CFF464800F05DF9224A70
:1057F0004549444808F014FF3A46182341494348B4
:1058000000F0DBFA14234FF496723E49404800F052
:105810000CFB4049404806F014FF174A3F493E48F8
:1058200008F0FEFE3B493E4806F00BFF124A3B499A
:105830003B4808F0F5FE3B493B4806F002FF3B4978
:105840003B4806F0FEFE3B493B4806F0FAFE3B496A
:105850003B4806F0F6FE3B493B4806F0F2FE3B496A
:105860003B4806F0EEFE3B493B4806F0EAFE3B496A
:105870003B4806F0E6FE77E008BC0320DB410D0064
:1058800040C403200CBC0320C34C0E00E8C403201A
:10589000C1920D00F8BC0320F0480E0010BC03209C
:1058A000F0C1032080F0FA026D600D007CC103207E
:1058B000D5400D00B5420D00C5400D0038BC032099
:1058C00085430D0035410D00F4C30320454A0D000A
:1058D00088C3032020C5032024DB03206CDB0320C6
:1058E0005839343CDBF9BE3FA8DB0320B4DB03208E
:1058F000BCDB0320CCDB032073410D0051410D00C4
:10590000AD410D0024C3032029410D00ACC3032089
:105910009CC10320F7520E0030C40320B5C50D0012
:10592000A8C40320CB4C0E0068BC0320CF4C0E0053
:1059300078BC0320D34C0E0088BC0320DE4C0E0044
:1059400098BC0320E24C0E00A8BC0320E74C0E00DC
:10595000B8BC0320EE4C0E00C8BC0320F64C0E0071
:10596000D8BC0320D1400D000749084806F069FE65
:10597000074A0849284608F053FE4821064800F027
:1059800065FD0AB0BDE8F087FE4C0E00E8BC0320C0
:1059900008BC032009410D0020BC032008B505F018
:1059A0003FFD014B186008BDD8DB032005F038BD72
:1059B000037C03F00803024603F0FF002BB1D36A17
:1059C000506A181A48BF6FF0004070477047103097
:1059D00002F014B8103001F0EBBE07B501220DF152
:1059E0000701103001F031FE01280CBF9DF80700BF
:1059F0004FF0FF3003B05DF804FB103002F06CB9DB
:105A000007B502AB012203F8011D1030194602F060
:105A100063F903B05DF804FB10B53421044608F0C7
:105A20000DFE204610BD000030B585B01C4B009324
:105A300013798DF8043093680293137B8DF80C3042
:105A400000F58C65537B8DF80D3004460A466B4695
:105A500000F26C41284602F087FCF0B1256004F2A8
:105A60003C45284602F000F80121204602F025FBC3
:105A7000014668B12146284601F0CFFD68B194F88F
:105A80003C3413F0700316BF064B18461D6005E04A
:105A9000204602F012FB0028ECD1002005B030BDFA
:105AA000F0480E0098E0032010B50649044606F0C1
:105AB000C8FD63232374052104F1140005F082FA64
:105AC000204610BDF7520E0037B5194B18681B79E8
:105AD0008DF80430009008F07DFD08F0A6F818B9A4
:105AE00008F078FD08F05CF800241DF8045008F078
:105AF00071FD294608F08BF808F06CFD08F092F86B
:105B000020B90134052CF0D101200FE008F062FD2E
:105B100008F08FF808F05EFD294608F078F808F0E4
:105B200059FD08F07FF80028EBD0002003B030BD0D
:105B3000384D0E00014802F0C4BE00BFDDDB03207B
:105B400010B5084C01220521204602F0BAFE322091
:105B500007F00CFA204600220521BDE8104002F0B3
:105B6000B0BE00BFDDDB0320014800F039BE00BF3E
:105B7000DCDB0320014800F0EABD00BFDCDB0320D2
:105B800030B50024944212D0085D0509092D00F0BB
:105B90000F0094BF3035373503F81450092803EB54
:105BA000440594BF3030373068700134EAE7002292
:105BB00003F8142030BD000030B58DB0054608F064
:105BC00009FD08F032F818B908F004FD07F0E8FF05
:105BD000142007F0CBF908F0FDFC202108F017F89D
:105BE00008F0F8FC08F01EF880B108F0F3FC08F0AB
:105BF00020F808F0EFFC202108F009F808F0EAFC92
:105C000008F010F8B0FA80F4640900E0012461485B
:105C100002F048FE012200215E4802F046FE012209
:105C200011465C4802F041FE01220221594802F06F
:105C30003CFE01220321574802F037FE01220421D5
:105C4000544802F032FE01220521524802F02DFE96
:105C5000002206214F4802F028FE012207214D486C
:105C600002F023FE002208214A4802F01EFE002214
:105C70000921484802F019FE00220A21454802F095
:105C800014FE00220B21434802F00FFE00220C21DB
:105C9000404802F00AFE00220D213E4802F005FEB7
:105CA00000220E213B4802F000FE00220F2139485D
:105CB00002F0FBFD01220021364802F01FFE012206
:105CC0001146344802F01AFE01220221314802F046
:105CD00015FE012203212F4802F010FE01220421AB
:105CE0002C4802F00BFE012205212A4802F006FE94
:105CF00001220621274802F001FE01220721254842
:105D000002F0FCFD01220821224802F0F7FD0122E9
:105D10000921204802F0F2FD01220A211D4802F06B
:105D2000EDFD01220B211B4802F0E8FD01220C21B0
:105D3000184802F0E3FD01220D21164802F0DEFDB5
:105D400001220E21134802F0D9FD01220F21114832
:105D500002F0D4FD00210D2208A8019102910791C3
:105D60000BF00AFC01A90C4800F0B0FB07AB0822BD
:105D700001A92846FFF704FF07A903A806F061FC64
:105D800003A9284606F0A7FC03A806F013FC20464A
:105D90000DB030BDDDDB0320DCDB032013B5044692
:105DA0000498E060009022602371A16004F110006B
:105DB00005F0FCF9204602B010BD37B501F1100521
:105DC000009514310446FFF7E9FF204603B030BDCB
:105DD00013B502AB632403F8014D103005F011FA3E
:105DE0009DF80700B0FA80F0400902B010BD13B56D
:105DF00002AB632403F8014D103005F0ECF99DF877
:105E00000700B0FA80F0400902B010BD13B5044697
:105E10000498E060009022602371A16004F11000FA
:105E200005F005FA204602B010BD37B501F11005A6
:105E3000009514310446FFF7E9FF204603B030BD5A
:105E4000103005F02CBA000070B505F0E9FA1E48D4
:105E50001E4E00F03AFB1E481E4A1F4900244FF414
:105E60007A7304744474446083601C4B036008F0CC
:105E7000D7FB1B4B3168DC71642283F86024194A1C
:105E8000C3F87024012211EA020583F83C4483F828
:105E90003D4483F86A44C3F8784483F87C4483F82B
:105EA0007D4483F874241C460AD13046FEF7FDF881
:105EB00030B129460C4805F015FF3046FEF7FAF8D8
:105EC000094BC4F86C3470BDDCDB03200CBC032030
:105ED000E0DB032008BC0320CD590D00184D0E0057
:105EE00014DC0320F0480E0010BC0320F8B50E4669
:105EF000074607F027F8054607F01CF8044607F0A8
:105F00000FF86401C0B2ADB204F4FF54A5F2BC7541
:105F1000044344EA45243C8006F0E4FF054606F0CD
:105F2000EBFF044606F0F2FFED02640105F4FF25E5
:105F300004F4FF542C43C0F3460004433480F8BDFE
:105F400070B504460025456022731D481D4A206037
:105F5000A16022611A7922759A68A2611A7B227760
:105F60005B7B6377184B2362184B63620A23A3623F
:105F700042F2107304F58E76E362012384F8303028
:105F80006563A56384F8C83084F8C950C4F8CC3080
:105F900084F8D05084F8D15084F8F45084F8F55047
:105FA0001022294630460BF0E7FAC4F82C51C4F809
:105FB0002461C4F82861C4F83051204670BD00BF88
:105FC000DC4D0E00F0480E003D4D0E0040420F002B
:105FD00010B500F1BC040B46034A0C21204605F025
:105FE000E5FD204610BD00BF424D0E00F8B5D0F8CB
:105FF0002451044600F1D007D4F82C21A36A9A4218
:1060000021D929692046FFF7E3FF064607F01AFC6D
:1060100033460D4A012106F0C8FD3146384601F0ED
:1060200079FD284608F071FB04F58E710646284676
:1060300008F0E3FBFEF735F8D4F82C31013BC4F847
:106040002C313546D8E7F8BD4B4D0E0070B50646ED
:106050000C464CB1E1683046FFF7F8FFA5682046D2
:10606000FEF71FF82C46F4E770BD000010B5054B95
:10607000D0F820110360044600F58C70FFF7E6FFAE
:10608000204610BDDC4D0E0010B50446FFF7EEFFB4
:1060900020464FF49A7108F0D1FA204610BD2DE940
:1060A000F0470E4606F1040A89680546174654462D
:1060B000012359B13A680B699A42B4BF8A68CA6829
:1060C0000C46B4BF012300231146F2E733B1F36855
:1060D0009C420ED0204608F02BFB00E020460269CF
:1060E0003B689A4205DB286000232B712846BDE8F7
:1060F000F087A24508D03A6823699A42ACBF4FF0B6
:1061000000094FF0010901E04FF001091420FDF7EB
:10611000C4FF3B6810F1100F18BF0361804653465F
:1061200001462246484608F005FB7369C5F8008021
:10613000013373610123D8E737B5D0F8CC1004469A
:10614000FFF746FF40F20A23024604F1D00104F1B2
:10615000F40001F090FC054630B104F1CC0204F5E6
:106160008C716846FFF79BFF284603B030BD0000E6
:1061700030B5002380F8C83090F8C9309DB004468F
:10618000E3B9494B494A007B1A60012108F0C6F97E
:10619000474B0C93237D8DF83430A3690E93237FF6
:1061A0008DF83C30217B637FA0688DF83D300CAAD0
:1061B000FFF73AFC84F8C90000286BD0226A32B39A
:1061C000A168002301F23C410CA88DF830308DF815
:1061D000313001F050FC0546C8B907F033FB236AA3
:1061E000344A012106F0E1FCA168226A8DF83050A2
:1061F000012301F23C410CA88DF8315001F01BFD48
:1062000028B907F01FFB2C4A012106F0CEFCA1683B
:10621000226A04F1D005002301F23C41284601F036
:106220002AFC88B30021284601F0F2FA00238DF8F9
:106230000C308DF80D300022294603A801F09FFB99
:10624000D0B140220CA903A800F072FD0CA80BF0FD
:1062500066F8009060B16A4604F58C7101A8FFF7FA
:106260001EFF009BD4F8CC209A42B8BFC4F8CC30B3
:1062700003A801F0F9FBDEE72046FFF7B7FE204652
:10628000FFF75AFF68B905E007F0DCFA0B4A012175
:1062900006F08BFC012384F8C83005F071F9C4F8CE
:1062A00030011DB030BD00BF9CE00320ED5E0D004D
:1062B000F0480E00894D0E00644D0E00714D0E0029
:1062C00038B50446406B28B10368A26BDB6804F163
:1062D0003C01984794F8C8305BB1D4F83031002BBA
:1062E00053D005F04DF9D4F83031C01AE36A984222
:1062F0004BD294F8C930002B44D094F8F430002BE2
:1063000040D004F1F405A26B04F13C01284601F0F1
:10631000E3FC002821DD94F8303013B1284601F069
:106320006DFB626AD4F810319A422BD2284601F0F4
:106330009BFBD4F8CC300133C4F8CC3007F082FAA0
:10634000D4F8CC30134A012106F02FFC2046FFF789
:10635000F3FE2046FFF74AFE14E007F073FA0E4AF8
:10636000012106F022FC284601F07EFB04F1D0005A
:1063700001F07AFB012384F8C830002384F8C93087
:10638000C4F830310023A36338BD2046FFF7F0FE88
:10639000AFE700BF9E4D0E00B94D0E0008B5836BF0
:1063A0005A1C03447F2A826383F83C1001D80A29CF
:1063B00001D1FFF785FF012008BD05F031B810B508
:1063C000044608F007F9036821469B68BDE81040C1
:1063D000184708B508F0FEF803685B699847C0B233
:1063E00008BD70B5064614460D4608F0F3F8314670
:1063F00007F00DFC2846FFF7E2FF200AFFF7DFFF5A
:10640000E0B2FFF7DCFF08F0E5F8BDE8704007F008
:1064100009BC10B5044608F0DDF8214607F0F7FB8B
:106420000020FFF7CCFF08F0D5F807F0FBFB08F0E1
:10643000D1F82146022207F0E7FBFFF7CAFF044626
:10644000FFF7C7FF40EA042080B210BD00220170B0
:106450000821828041708270704708B508F0BAF850
:10646000BDE8084007F09CBB81807047032910B548
:10647000044622D80229828808D0032909D001299C
:1064800014BF42F4834242F4A34204E042F4C34204
:1064900001E042F4E34242F0030242F400420121EF
:1064A0002078FFF79EFF607806F060FD2078FFF708
:1064B000B0FFA378184180B210BD002010BD04F0D9
:1064C000AFBF0368C9B29B681847704738B50C4620
:1064D00008F080F8572107F09EFB08F07BF8F221C6
:1064E000FFF7EFFF08F076F807F09CFB08F072F872
:1064F0000622572107F088FB651E053408F06AF86C
:1065000003685B69984705F8010FA542F6D138BDCD
:106510002DE9F74F9A469DF83030019393460D468A
:106520009DF834709DF838609DF83C9008F052F862
:10653000804607F083FB08F04DF86F210A2407F02E
:106540006AFB08F047F80021FFF7BBFF08F042F8AC
:10655000B5FBF4F204FB125505EB0215EDB205F0A4
:106560007F01FFF7AEFF08F035F8BBFBF4F104FB49
:1065700011BB0BEB011101F07F01FFF7A2FF08F047
:1065800029F8BAFBF4F104FB11AA0AEB011101F09E
:106590003F01FFF796FF08F01DF8019BB3FBF4F1F4
:1065A00004FB113101F0070141F00801FFF789FFF9
:1065B00008F010F8B7FBF4F104FB117707EB0111B9
:1065C00001F03F01FFF77DFF08F004F8B6FBF4F19E
:1065D00004FB116606EB011101F01F01FFF771FFCB
:1065E00007F0F8FFB9FBF4F1036804FB119404EB26
:1065F00001119B68C9B2984707F0ECFF07F012FB46
:1066000007F0E8FF6F2107F006FB07F0E3FF00212A
:10661000FFF757FF07F0DEFF45F08001FFF751FF5E
:1066200007F0D8FF07F0FEFA404603B0BDE8F04F90
:1066300007F00DBB2DE9F84FDDF828800B9F0C9E6D
:106640000D9D994692468B4607F0C4FF044607F01D
:10665000F5FA07F0BFFF6F2107F0DDFA07F0BAFF88
:106660000021FFF72EFF07F0B5FF07F0DBFA07F078
:10667000B1FF6F21072207F0C7FA07F0ABFF0368ED
:106680005B699847C0B2C0F3021303EB830300F0C9
:106690000F0000EB43008BF8000007F09BFF03683E
:1066A0005B699847C0B2C0F3021303EB830300F0A9
:1066B0000F0000EB43008AF8000007F08BFF03682F
:1066C0005B699847C0B2C0F3011303EB830300F08A
:1066D0000F0000EB430089F8000007F07BFF036820
:1066E0005B69984700F0070088F8000007F072FF28
:1066F00003685B699847C0B2C0F3011303EB8303DF
:1067000000F00F0000EB4300387007F063FF0368F0
:106710005B699847C0B2C0F300129300134400F0C5
:106720000F0000EB4300307007F054FF03685B6913
:106730009847C0B2030903EB830300F00F0000EB9E
:10674000430028702046BDE8F84F07F080BA2DE9D5
:10675000F04F07468DB008460C4606F0B9FA804661
:10676000204606F0ADFA8146204606F0A1FA8246A0
:10677000204606F0BDFA0546204606F0B1FA064668
:10678000204606F0BFFA8346204606F0C5FA0A22E4
:10679000014604A805F0DBFF04A9022208A806F0C0
:1067A00085F808A806F089F8044608A805F002FF55
:1067B000E4B25FFA8BF3F6B2EDB202935FFA89F2BC
:1067C0005FFA8AF35FFA88F13846039401960095E0
:1067D000FFF79EFE04A805F0EDFE0DB0BDE8F08FBA
:1067E00000B591B00DF11B0303930DF11A03029351
:1067F0000DF11903019306AB00930DF116020DF193
:1068000017030DF11501FFF715FF9DF81B30252B20
:1068100084BF00238DF81B309DF8153007939DF839
:10682000163008939DF8173009939DF819300A9394
:106830009DF81A30013B0B939DF81B3007A8643379
:106840000C930AF07DFF11B05DF804FB04F0E8BD85
:106850007047000038B50C46054628220021204626
:106860000AF08AFE0B220A4920460BF070FE002334
:106870000122E372E260AA686362064BA36100230F
:106880002261E3610522044B6261236238BD00BFCF
:10689000F64C0E0000E0AB476F12833A10B51021A2
:1068A000044607F0CBFE204610BD0000044A0260FB
:1068B000002202734271102282718160704700BF12
:1068C000084E0E0080797047407970474FF6FF738D
:1068D000994210B539D09A4237D04379013BDBB2A7
:1068E000042B97BF1A4CDFED1B5A04EB8303D3ED47
:1068F000005A8379202BB7EE007A08D0302B09D0CC
:10690000102BF3EE096A18BFF0EE476A04E0DFEDE2
:10691000126A01E0DFED116A07EE901A06EE102A06
:10692000F8EE677AB8EE466A65EEA66A86EE275AF2
:1069300077EEC67A37EE457A9FED096A67EE277AD9
:1069400086EE867A87EE870A10BD9FED060A10BD97
:10695000EC4D0E000000C8420000D64300501A461D
:106960000000CC430000000010B50C4607F032FEDA
:10697000292107F050F907F02DFE036821469B6896
:10698000984707F027FE07F04DF907F023FE012294
:10699000292107F039F907F01DFE03685B69984764
:1069A000C0B210BD10B50C4607F014FE292107F047
:1069B00032F907F00FFE036821469B68984707F0FD
:1069C00009FE07F02FF907F005FE0222292107F042
:1069D0001BF907F0FFFD03685B699847044607F061
:1069E000F9FD03685B69984744EA002080B210BD56
:1069F00038B514460D4607F0EDFD292107F00BF9D7
:106A000007F0E8FD036829469B68984707F0E2FD18
:106A1000036821469B68984707F0DCFDBDE83840D5
:106A200007F000B938B5037B04460D4673B1204624
:106A300000F02EF86279A57120462A43A121FFF7C4
:106A4000D7FF2046BDE8384000F032B800F003F828
:106A50000028ECD138BD38B5044607F0BBFD07F07F
:106A60009FF8B2212046FFF77FFF50280ED1012565
:106A700061792573204600F02BF8A1792046FFF7B5
:106A8000D1FF204600F014F8284638BD002038BD5C
:106A900010B5037B044633B120469322A021BDE804
:106AA0001040FFF7A5BFFFF7D6FF0028F4D110BDB7
:106AB00010B5037B044633B120460022A021BDE877
:106AC0001040FFF795BFFFF7C6FF0028F4D110BDB7
:106AD00038B5037B04460D4673B12046FFF7D8FF57
:106AE000A279657120462A43A121FFF781FF204644
:106AF000BDE83840FFF7DCBFFFF7ADFF0028ECD161
:106B000038BD38B5037B054623B12846FFF7C0FFE3
:106B1000002404E0FFF79FFF0028F6D138BD6A7912
:106B2000E3B29A4204F1010403D3782006F01EFA7E
:106B3000F5E7B4212846FFF735FFB62184B2284691
:106B4000FFF730FF44EA00442846FFF7B1FF204634
:106B500038BDF8B505460C46FFF7D3FF2846FFF7CA
:106B6000D0FF242706463A46002120460AF004FDBD
:106B70002760AB6863600523A36004F001FD320C5D
:106B80002061B1B22846FFF7A1FE84ED050A01207D
:106B9000F8BD04F045BC04F043BC704730B585B087
:106BA000054607F017FD5C2107F035F8022006F0D6
:106BB000DDF907F00FFD07F035F807F00BFD5C215C
:106BC00007F029F807F006FD0321FFF77AFC07F02C
:106BD00001FD0021FFF775FC07F0FCFC0421FFF725
:106BE00070FC07F0F7FC07F01DF80A2006F0BEF96C
:106BF00007F0F0FC08225C2107F006F8002407F0FB
:106C0000E9FC03685B69984701AB18550134082C0F
:106C1000F5D19DF80430032B34D19DF80530042BB9
:106C200030D19DF806309FED196A07EE103A9DF8B5
:106C3000073007EE903AB8EE477AF8EEE77AF2EED0
:106C4000046AE7EE067A9DF8083003F07F0287EECB
:106C5000A67ADB094FF0010085ED007A07EE102AD5
:106C60009DF8092007EE902AB8EEC77AF8EEE77A89
:106C7000E7EE067A87EEA67A18BFB1EE477A85ED81
:106C8000017A00E0002005B030BD00BF0000804365
:106C900010B5044607F09EFC06F082FF2046BDE8D2
:106CA0001040FFF77BBF70B504460E461546FFF750
:106CB00075FF18B16368336023682B6070BD04F002
:106CC000AFBB04F0ADBB04F0ABBB10B50446243041
:106CD00001F0E4F828B104F50C70BDE8104001F0B3
:106CE000DDB810BD411E00F10A020020430843EA4E
:106CF000C01011F8013F53FA80F08A42C0B2F5D1BA
:106D0000704738B5CB6804460D4623B98968BDE89D
:106D1000384000F082BC242200210AF02DFC102310
:106D200001202370A070AB68A360EB68236238BDBC
:106D30002DE9F0438BB00378002580460E461746B8
:106D40008DF804508DF8055063B10C2A0AD90EE075
:106D5000414601A8FFF7D5FF20B1012498F8033080
:106D6000A3420BD24FF0000986F8009055E0C3789B
:106D7000002BEDD100F0B4FB81464EE0B8F80410D2
:106D8000091B490101A800F043FD81460028E9D014
:106D9000002101A800F01FFD0028E3D0C37A0F2BCB
:106DA000E0D1037803F01F039C42DBD1631E0D2268
:106DB0005A4306EB020E0023042BD9B204D800EB91
:106DC0004301B1F801100BE00A2995BF03F1FF312F
:106DD000591C00EB410100EB410194BFC98889882F
:106DE00061B1974210D97E2994BFC9B23F210EF8F4
:106DF000031001330D2B02F10102DDD1974203D9BB
:106E00000378590648BFB554F31903F8015C0378B9
:106E10005B0602D40134E4B2A0E748460BB0BDE8FB
:106E2000F08300002DE9F0470378202B00F10104E6
:106E300001D12046F8E7704F886005462C1A2E468F
:106E400015F8013B0BB32F2B01D1031917E05C2B75
:106E500002D10020BDE8F087A3F12204E4B21D2C8A
:106E600003D827FA04F4E407F3D403F0BF043C2C5E
:106E7000EFD0203B5E2BE1D9EBE72F2D05D11E464D
:106E800013F8015B202DF8D1F9E716600319984239
:106E9000C0EB030809D013F8012D2E2AF7D0202AC1
:106EA000F5D0B8F1FF0FD4DC01E04FF00008C1F8D5
:106EB000048001F10C0301F11702202403F8014FB3
:106EC0009342FBD103461A1A13F8014B2E2CFAD029
:106ED000202CF8D0B2FA82F4640908F1FF36731C52
:106EE00007D100274FF0070E3D46BA464FF008097C
:106EF00009E0835D2E2BF4D0013EF0E7835C202B6C
:106F000004D1002401324245F8DB4BE02E2B02D1A4
:106F1000B242F6D103E0222B17D07C2B15D0A3F17F
:106F20002A0CBCF1050F01D82D2B0ED1A3F13A0C80
:106F3000BCF1050F09D9A3F15B0CBCF1020F04D918
:106F4000A3F1210CBCF15D0F02D9B2420ED149E090
:106F5000B24247D0754521D8A3F1610CBCF1190F9D
:106F600008D8203BDBB249EA07070AE0754515D887
:106F700000245F23A3F1410CBCF1190F98BF49EA2B
:106F80000A0A05F1010C5FFA8CFC0D44BCF1060FF6
:106F90006B7301D881F80CC06546B3E7BEF10A0FE8
:106FA00017D100244B7B202B3FF453AF3CB11AEA9E
:106FB000070F18BF02270F700120BDE8F0870B7B79
:106FC0000120087019447E234B7331238B73BDE875
:106FD000F087B242E5DC32464FF00A0E08254FF04A
:106FE00010098EE7BEF10A0FDBD032464FF00A0ED1
:106FF00008254FF0100985E701010031F0B58BB08D
:1070000000238DF804308DF8053003781907044605
:1070100008D583789A0705D5016A29B1A06801F0DF
:107020002EF808B9002049E00121204600F0BCFA02
:1070300005460028F6D0FFF755FEE5262E70002302
:1070400007462370A068FFF740FE0028EAD0E378E7
:10705000002B33D0214601A8FFF753FE0028E1D0D2
:107060000125E378AB42DDD3A188491B490101A882
:1070700000F0CEFB0028D5D0002101A800F0ABFB2A
:107080000028CFD0C37A0F2BCCD1027802F01F0397
:107090009D42C7D1437BBB42C4D10670A16891F821
:1070A000243043F0010381F82430530603D5A0684F
:1070B000FFF70BFE02E00135EDB2D2E70BB0F0BDF9
:1070C0002DE9F84391F80C9006460D4602247E27E0
:1070D00001F10D086968AA6863189BB211449142D6
:1070E00006D012F8010B03EB431343409BB2F6E7C3
:1070F000B9F1030F28BF4FF0030909F10402D2B21E
:1071000003F00F01A818013A0929D2B294BF303117
:107110003731914541734FEA1313F1D305EB09035E
:1071200000215F73304600F073FB0121304600F010
:1071300052FB014628B97078B0FA80F04009BDE8EA
:10714000F88303784BB1C37A1B07EED40B22404679
:107150000AF0F8F90028E8D102E00120BDE8F88340
:107160000134A4B2642CB5D1BDE8F8832DE9F04F09
:107170009B460B7889B013F0700F05900E46914630
:1071800001D10020A0E1059B1B78002BF9D15368A9
:10719000029313789B0700F08D81029B0D270C331F
:1071A000B3FBF7F70137FFB20021304600F030FBA8
:1071B0004FF0000809F10D02CDF80C80434644461B
:1071C0004546CDF81080069272690793012130463A
:1071D000C2F34F1A00F0FFFA079B20B97378002B17
:1071E00000F09080CDE70278E52A00D042B9002C6B
:1071F00008BFD046BC423CBF0134E4B222B981E0B2
:10720000BC4238BF002403E0E52A01D10025DBE7BA
:107210002E2AFBD0C17A0F2952D13DB95106D3D5C0
:10722000437B039302F01F052B4607E0013BDBB2D3
:107230009A42EBD1427B03999142E7D15A1E4FF01B
:107240000D0C0CFB02FC029A6245DFD94FF0000ED8
:10725000BEF1040F5FFA8EF204D800EB4E02B2F8D2
:1072600001200CE00A2A95BF0EF1FF320EF1010257
:1072700000EB420200EB420294BFD288928802994E
:10728000614503D1002A18BF00259DE7FF2ABDD81C
:10729000D2B2A2F141011929D9F8081011F80C1045
:1072A00098BF20320CF1010AA1F1410C98BFD2B273
:1072B000BCF1190F9CBF2031C9B29142A6D1FBE0AD
:1072C0000907A3D44DB1012B7FF45BAFFFF70AFD93
:1072D000039B83427FF455AF0FE00B22069907937F
:1072E0000AF030F9079B00287FF46EAF99F8002070
:1072F000D20702D50122049266E71BF4006F00F06A
:10730000D1803EE71BF4007F3FF43BAF0BF003035B
:10731000013B012B3FF635AF002C08BFD046BC42E5
:1073200002D3049BCBB91FE00021304600F053FA92
:1073300010B973785BB124E70134E4B2EFE7B368C6
:107340001B79012BEDD81034E4B2A742E9D93046BD
:1073500000F0EAF80028F2D113E749463046FFF77B
:10736000AFFE00283FF40DAF4FEA4811304600F061
:107370004FFA00283FF405AF7D1EEDB22C464FF0CA
:10738000000A4FF00F0841E00021304600F023FAD8
:10739000074600283FF4F5AEB26892F82430AC42BC
:1073A00043F0010382F824300CBF44F0400222462F
:1073B000027080F80B8080F80CA009F10D00039298
:1073C000FFF790FC039A787387F81AA087F81BA040
:1073D00002F01F020D23013AD9F808E05A430023B6
:1073E0000299914215D91EF80210042B5FFA83FC12
:1073F00003F1010013D807EB4303A3F801100D2894
:1074000002F101020346EBD1013CE4B2002CBBD1F6
:107410000EE014BF4FF0FF31002189B2E5E7BCF167
:107420000A0F94BF07EB430307EB40039980E6E79D
:10743000736921463046C3F34F1A00F0CCF9074672
:1074400000283FF49EAE202221460AF095F84B46D4
:1074500053F80D2F3A605A687A601A893A819B7AFC
:10746000BB7299F8003003F018033B73184B1B688C
:107470002BB107F10E0107F11000984706E0212318
:107480003B7428237B740823BC73FB733B8A7B8289
:107490003B83FB89FB82B26892F8243043F00103FE
:1074A00082F8243000955B4652463146059800F03C
:1074B000F8F909E0012777E60EF1010EBEF10D0F94
:1074C0003FF482AED446C3E609B0BDE8F08F00BFFA
:1074D0009CE0032003F0A4BF03F0A2BF03F0A0BF11
:1074E00010B50C46017809B9002010BD11F06001FB
:1074F00004D02F2323700023637006E000F054F8BB
:107500000028F1D0214600F05EF8012010BD03F004
:1075100087BF8378016943F00403837000F1100290
:10752000806800F071BD00002DE9F041037803F0A0
:107530002003044603F0FF050BB100262EE042694C
:10754000184B9A42F9D8FFF7E4FF06460028F4D01A
:107550002169A06800F0EDFC0746A06805223946C5
:10756000243000F0C2FC80460028E6D029464FF4C3
:1075700000720AF001F80125A3681A79AA4209D914
:107580004246E919186801F02DF80028D5D00135D8
:10759000EDB2F1E7636903EB422363613046BDE876
:1075A000F08100BFFFFD1F0010B5044680680A4649
:1075B0002430A16900F099FC20B1A38803F00F03E7
:1075C00000EB431010BDF0B50024451E08262346ED
:1075D0002E2715F8012F202A18D0082C02BFCF54CF
:1075E0005A1CD3B22A78A2F1410E08BF1026BEF170
:1075F000190F06D890F80CE016EA0E0F1CBF2032C7
:10760000D2B203F1010ECA545FFA8EF301340B2C8F
:10761000DFD10022CA541846F0BD70B50478054683
:107620000E4684B92422214609F0A6FFAE60F37904
:10763000102B03D0202B06D1402300E02023012073
:107640002B70A87070BD002070BD2DE9F74F037836
:107650000446894615464BB18278D10706D50CE021
:107660005A46216900F06BFC00283DDA637843F04C
:10767000020363704FF0FF3097E01A0703D5E36908
:1076800062699B1A07E09A0608D5A3681A8963699C
:10769000C3EB42139BB29D4228BF1D462E464FF0BE
:1076A000000804F1100B002E35D022786369A06821
:1076B00012F0200FC3F3080A4FEA532102D0036AE5
:1076C00019441DE090F8058001EA0808BAF1000F9E
:1076D00010D1B8F1000F0DD1002BC1D153064CBF12
:1076E000036A236A236105E004D1237813F0700F45
:1076F00011D1BBE72169A06800F01BFC08EB000179
:10770000A068BAF1000F35D1B6F5007F32D3C36A55
:10771000994202D12EE0A81B47E0B6F5806F1BD33B
:10772000227897064FEA562A06D40279C8EB02025D
:10773000D2B2924528BF924699424FEA4A2707D2D1
:10774000A06853464A46006800F00AFF60B98DE71A
:107750005344994221D3F3E74A46006800F0B8FE4B
:10776000002883D04FF4007763693B44B9446361D8
:10777000F61B98E70022243000F0B7FB00283FF406
:1077800075AFCAF50077B74228BF374600EB0A014C
:107790003A46484609F0E5FEE6E72430019100F05C
:1077A0007DFB01990028CBD160E703B0BDE8F08FE5
:1077B00073B501220DF10701044646690569FFF71B
:1077C00044FF012805BF9DF8070066614FF0FF30B8
:1077D000256102B070BD37B54369C3F34315044654
:1077E00005B169B901220DF107012046FFF72DFF10
:1077F00040B2012801D0002008E063691F3300E097
:107800002033A0686361303000EB451003B030BD19
:107810002DE9F0410E46017807690446002939D068
:107820004569B5423AD00EB9066131E00B0703D580
:10783000C3699E422ED807E0880605D5A3681B8938
:10784000B6EB431F26D823E0D4F808E09EF80630B4
:107850006A1E03F10900731EC240C3409A4200D859
:107860004DB94A064CBFDEF82020226A22611D462F
:1078700004F110080AE09B1AF9E742462169A06862
:1078800000F05DFB002805F1FF3503DD002DF4D18C
:10789000666103E027610020BDE8F0810120BDE8BA
:1078A000F081F8B50F4615460021242204461E46F5
:1078B00009F062FEB868A06005F00F02A58000F133
:1078C000300152013B6AE3601144CB7A1D074CD46E
:1078D000831893F83B3003F017032370C97A11F033
:1078E000180F04BF43F0080323709DF81830E370AD
:1078F00006F00303012B09D0022B05D0002B34D155
:10790000710532D4012302E0032300E00223A370B7
:10791000A1788B0703D5237813F0110F25D14BB233
:1079200016F4005F06F0080114BF6FF07F07002710
:1079300019433943A170C36AA36102447505B2F8C3
:107940004410B2F84A3043EA014104D581B100F055
:1079500096FB68B909E02162D36CE36173040CD52E
:10796000E1692046FFF754FF38B900202070F8BDC8
:10797000A37843F00403A370F0E70120F8BD2DE9DC
:10798000F743037806460D46174653BB0B7813F0B2
:10799000700F26D04C6914F01F0422D1A04600219C
:1079A0002846D5F81490FFF716FFD0B10378C3B17D
:1079B0002E2B01D10024F2E7E52BFBD0C17A11F088
:1079C000080F05D17CB1FFF78DF9804509D10AE098
:1079D0000F29EFD15906E2D503F01F0490F80D806E
:1079E000DDE7002007E000943B46C9F34F1229462B
:1079F0003046FFF756FF03B0BDE8F08338B5037893
:107A000004460BB9012038BD83785A0723D50121DC
:107A1000FFF7CAFD054628B9637843F00103637098
:107A2000002038BD0378E52BF6D023781B0744BF30
:107A3000E369C361238C4383638C8382094B1B6896
:107A40002BB100F11601183098472B8B6B82A3786D
:107A500023F00403A370A068FFF737F90028DBD0F8
:107A6000D0E700BF9CE0032010B50446FFF7C6FF37
:107A70000023237010BDF0B593B01F4600238DF88E
:107A800024308DF825300378019206460C460BB160
:107A900000203DE00B7813F0700FF9D013782F2BF6
:107AA00012D1019B1A782F2A02D101330193F8E7F2
:107AB000A1681AB93046FFF7B0FD29E009A8FFF721
:107AC000ACFD0028E4D009AC01AA03A90198FFF796
:107AD000A9F90028DCD0019B1B789BB1002303AAE5
:107AE00021463046FFF742FB0028D1D035460FCD66
:107AF00009AC0FC40FCD0FC42B6823603046FFF7CD
:107B0000B3FFE0E73B4603AA21463046FFF72EFBD2
:107B100013B0F0BD00B58BB000238DF804308DF8A4
:107B200005300A460123014601A8FFF7A4FF10B162
:107B300001A8FFF763FA0BB05DF804FB2DE9F041F3
:107B40000B7813F0700F88B004460F461CD040F637
:107B50000223FFF70BFBB8B101261025A670257094
:107B60002046FFF7E1FC78B123692362002120461B
:107B7000FFF74EFE2046FFF741FF28B13146204671
:107B8000FFF712FD034608B9002051E0C572024616
:107B90006E4600F1200C6D4610685168B646AEE89E
:107BA0000300083262457646F6D1B3F814805E8B46
:107BB0002E238DF8003020210023EA1801330A2BF0
:107BC0005170FAD1216AA06800F0B3F9A3680146A8
:107BD000012203F1240000F088F903460028D3D0E5
:107BE000ADF81A60ADF81480AE4606460DF1200CD3
:107BF000724603CA624530607160964606F1080617
:107C0000F6D12E228DF801203A6AADF81A20110C17
:107C1000ADF81410203308AE2A4603CAB2421860E9
:107C20005960154603F10803F6D1A068FFF74DF837
:107C300008B0BDE8F081F0B593B01F4600238DF881
:107C400024308DF825300378019206460C46002B2F
:107C50003ED10B7813F0700F3AD013782F2B0CD144
:107C6000019B1A782F2A02D101330193F8E7A1680A
:107C700009A8FFF7D2FC58B309AC01AA03A90198DF
:107C8000FFF7D0F820B3019B1B78DBB1002303AAD8
:107C900021463046FFF76AFA58B135460FCD09AC98
:107CA0000FC40FCD0FC42B6823603046FFF7DCFEF6
:107CB000E2E76FB103AA21463046FFF73FFF0028F5
:107CC000EBD105E003AA21463046FFF737FF00E07D
:107CD000002013B0F0BD00002DE9F047037889467D
:107CE00019070446904608D583789A0705D51B07DF
:107CF0000BD5E169FFF78CFD38B9637843F00103D8
:107D000063704FF0FF30BDE8F0876369DB4398454F
:107D1000F3D846464FF0000A6369002E00F08180D8
:107D2000A068427912EA5325C3F308071CD1DFB9D2
:107D3000216971B104F1100200F001F90028DCDBC7
:107D400040F08E802046FFF7E4FB002840F088805A
:107D5000D3E7236A3BB92046FFF7DBFB0028CCD0F2
:107D60002369236200E023612169A06800F0E1F843
:107D7000291817B9B6F5007F21D2C7F50075B542AD
:107D800028BF354637B96369E269934234BF01229F
:107D9000052200E00122A068243000F0A6F80028A7
:107DA000ABD038442A4649462F4409F0DAFBB7F5F0
:107DB000007F30D1A068243000F070F817E0B6F5ED
:107DC000806FA06815D30279521B730AD2B2934216
:107DD00028BF1346C26A91424FEA432502D31A4490
:107DE000914237D3A7684A46386800F06DFC90B9D5
:107DF00083E7C36A994202BF4FF0FF3380F824A0A3
:107E0000C362A3684A46186800F0ECFB00283FF400
:107E100074AF4FF4007563692B446361A944761B0A
:107E20007AE7E269934201D9E36102E00F4B1B68F4
:107E30001BB1A37843F00403A37094F90230002B24
:107E400002DB4046BDE8F0872046FFF7D7FD00285B
:107E5000F7D152E74FF0FF3280F824A0C262C1E7A9
:107E60002169A06800F065F8014683E79CE00320E3
:107E700003F0D6BA70B505460C46084649B10AF07B
:107E800049FB2B68024621462846DB68BDE8704066
:107E9000184770BD03F0C4BA03F0C2BA70B50378D6
:107EA000DA0704461ED54368816800F10C063246A5
:107EB000186800F097FB054608B9002513E0237801
:107EC0009B0704D4237823F0010323700BE063683D
:107ED000A068196932460144186800F083FB002845
:107EE000F0D1EAE70125284670BD70B583688B4262
:107EF00004460E46154614D0FFF7D0FF08B90020FF
:107F000070BD6B0703D500232370A66009E063688A
:107F100004F10C023146186800F0DAFA0028F2D1B8
:107F2000EDE72378204605F003051D4300F80C5BC0
:107F300070BD83794069023999400844704701292E
:107F400070B505460C46164602D84FF0FF3070BD9E
:107F5000C3699942F9D8C379202B10D181690222D3
:107F600001EBD41100F50C70FFF7BFFF0028ECD037
:107F700004F07F0450F8243023F070430FE0102BFE
:107F8000E3D18369C1F307210222194400F50C7083
:107F9000FFF7ABFF0028D8D0E4B230F81430EA691C
:107FA00093429ABF33600120002070BD012938B58B
:107FB0000C46154601D8002038BDC3699942FAD84D
:107FC000C379202B0ED18169032201EBD41100F576
:107FD0000C70FFF78AFF0028EDD004F07F0440F812
:107FE00024500FE0102BE6D18369C1F3072103224F
:107FF000194400F50C70FFF778FF0028DBD0E4B2DD
:1080000020F81450012038BD2DE9F341C4688C429A
:1080100005460E46904607D20C460027EB69013410
:108020009C4203D9CFB9EC680127F7E7A64214D0E8
:1080300001AA21462846FFF782FF00280DDBEDD07C
:10804000019B002BEAD107B1EC606FF07042214632
:108050002846FFF7ABFF074608B900270BE016B923
:10806000C8F8004007E0224631462846FFF79EFF49
:108070000028F5D1F1E7384602B0BDE8F08173B5CC
:1080800005460C4601AA21462846FFF758FF061E62
:1080900001DA00200FE0002221462846FFF786FF84
:1080A0000028F6D0EB689C429CBF04F1FF34EC60E2
:1080B000019C002EE6D102B070BD70B501230446CC
:1080C0000022C3604FF0FF33C2710D46A06280F8FA
:1080D0002420C362C4F8340280F83022C0F8383259
:1080E000A1B104295DD811462430FFF7FEFE002817
:1080F00057D000EB051393F8AE315B0651D11B3519
:1081000000EB0515D5F80650002D4AD0002229466F
:1081100004F12400FFF7E9FE002842D0B0F80B304C
:10812000B3F5007F3DD1037C022B3AD1C389002BEC
:1081300037D0417B21714B1E63710023A371092647
:1081400001238B4207D0013E2BD0A2795B00013284
:10815000DBB2A271F5E7C28A02B9426A2261C6891E
:108160002E44A661B0F81130238106EB4201216252
:10817000B0F81120520102F2FF1201EB622262619B
:10818000B0F8133003B9036AAD1A2B44A57923FA6A
:1081900005F56B1CE36140F6F4739D4203D80C2394
:1081A000E371002070BD4FF6F4739D4285BFC36A32
:1081B000236210232023E371012070BD03F030B946
:1081C00003F02EB903F02CB970B50E4C0E461546CF
:1081D00003F0CEF92368C01A0B4B984208D903F07C
:1081E000CFF90A4B186003F079FC03F0C1F9206065
:1081F00003F0C6F980B2801BA842D4BF0020012042
:1082000070BD00BFA0E00320A086010008E60320A7
:1082100038B5057A04464DB9406800F07DFA6368C8
:108220002946187D06F08BF90123237238BD10B55D
:10823000037A04466BB143680121187D06F07FF98B
:10824000FF21606800F09AFA606800F079FA002374
:10825000237210BDF8B504460D46164603F090F99A
:1082600087B2606800F06FFAFF28607209D14FF49E
:108270007A7239462046FFF7A7FF0028F1D0552330
:108280000BE0FE2801D0502307E032462946606803
:1082900000F05EFA607230B1602320462370FFF771
:1082A000C6FF0020F8BD606800F04DFA606800F07D
:1082B0004AFA0120F8BD70B504460E4603F060F995
:1082C00085B2324629462046FFF77EFF30B9606806
:1082D00000F039FAFF28F4D1012070BD002070BDF4
:1082E000F7B5037A019204460D460BB9FFF790FFEC
:1082F00025B14FF496712046FFF7DDFF45F04001B0
:10830000606800F03BFA0DF107060DF1030716F85F
:108310000119606800F032FABE42F8D1002D0CBF9E
:1083200095218721606800F029FA606800F00BFA57
:108330000B25606800F007FA0306607203D5013D63
:1083400015F0FF05F5D103B0F0BD70B504460D463C
:10835000164637210022FFF7C3FF32462946204642
:10836000BDE87040FFF7BCBF2DE9F0410025057264
:10837000057085724160044690461E4603F000F980
:1083800041460746606800F0CBF963684F4A1D72AA
:108390004FF00108DA605D7483F810802046FFF723
:1083A00037FF63684146187D06F0C9F80A25FF21AA
:1083B0006068013D00F0E2F915F0FF05F7D1636850
:1083C0002946187D06F0BBF80A25002211462046F2
:1083D000FFF786FF0128804612D0013D15F0FF050A
:1083E00001D1202357E0FD21606800F0C7F94FF468
:1083F0000278606800F0A7F9B8F10108F9D1E4E764
:108400004FF4D57208212046FFF76AFF052802D1F4
:1084100084F80A800FE00425606800F094F9013DBB
:1084200015F0FF056072F7D1AA2802D10223A372CA
:1084300001E025232FE0A37A022B0CBF4FF08045EB
:108440000025BFB22A4629212046FFF77EFF0246BB
:1084500048B14FF4FA6239462046FFF7B5FE0028CE
:10846000F0D0432317E0A37A022B0ED02046FFF76B
:10847000DEFE6368B0683479317B727B5A74D860F1
:108480001C7219740120BDE8F0813A212046FFF7E3
:1084900027FF38B1372320462370FFF7C8FE00209E
:1084A000BDE8F081606800F04EF900F0C000C0281F
:1084B00004BF0323A372606800F045F9606800F010
:1084C00042F9606800F03FF9D0E700BF90D00300A8
:1084D00038B5837A032B18BF490215460A46112185
:1084E0000446FFF7FDFE10B1302323700BE0294650
:1084F0004FF400722046FFF7ADFE054618B1204646
:10850000FFF795FE03E02046FFF791FE0025284681
:1085100038BD10B5837A032B0A4618BF4A021221D0
:108520000446FFF7DDFE30B1312320462370FFF70C
:108530007EFE002010BD012010BD10B500220C21D0
:108540000446FFF7CDFE30B1282320462370FFF705
:108550006EFE002010BD2046FFF769FE012010BD11
:10856000F8B5054616461F46FFF7D3FF98B100241D
:10857000A3B29F4206EB442108D94FF4007228466B
:10858000FFF768FE01340028F2D104E02846BDE878
:10859000F840FFF7D2BF0020F8BD38B504461546B5
:1085A000406800F0EBF84FF400722946606800F074
:1085B000E9F8FF21606800F0E1F8FF21606800F051
:1085C000DDF8606800F0BFF8607200F01F00052859
:1085D00006D0572320462370FFF729FE002038BD20
:1085E000012038BD70B5837A032B18BF49021546A8
:1085F0000A4618210446FFF773FE064608B13223E7
:108600001DE02A46FE212046FFF7C7FFC0B14FF408
:10861000FA612046FFF74FFE054608B95A230EE0DF
:1086200032460D212046FFF75BFE38B9606800F046
:108630008AF818B92046FFF7FAFD05E029232370D0
:108640002046FFF7F4FD0025284670BD38B50D46DD
:108650004FF4FA610446FFF72EFE10B95B23237036
:1086600005E02A46FC212046FFF797FF18B920466F
:10867000FFF7DDFD002038BD10B5837A032B0A46D5
:1086800018BF4A0219210446FFF72AFE30B13323EE
:1086900020462370FFF7CBFD002010BD012010BD48
:1086A00038B54FF4FA610446FFF705FE054620B1E0
:1086B000FD21606800F062F801E056232370204637
:1086C000FFF7B5FD284638BDF8B5054616461F46E6
:1086D000FFF7D2FF70B10024BC4206EB44212846CC
:1086E00004D0FFF7B3FF28B10134F5E7BDE8F84047
:1086F000FFF7D6BF2846FFF79AFD0020F8BD02F02D
:108700008FBE02F08DBE02F08BBE0000014B012235
:108710001A707047A4E00320011D006803F016BB27
:1087200010B504460175006803F0E6FA207D0121CA
:1087300005F0F4FE207D0121BDE8104005F0FFBEEC
:10874000006803F0EABAFF21006803F06FBB000085
:1087500037B5084B00930025074C00682570134679
:108760000A46294603F068FB2378002BFCD0002042
:1087700003B030BD0D870D00A4E00320006803F0B6
:1087800055BB000037B5074B00930025064C006829
:10879000257013462A4603F04FFB2378002BFCD0AC
:1087A00003B030BD0D870D00A4E0032002F038BEF9
:1087B00010B5044605F00EFF036821469B68BDE82E
:1087C0001040184708B505F005FF03685B69984736
:1087D000C0B208BD38B504460D4605F0FBFE217851
:1087E00041F0200105F017FA2846FFF7E1FF05F0F8
:1087F000F1FE05F017FA05F0EDFE2178012241F0B7
:10880000200105F001FABDE83840FFF7DBBF70B585
:10881000064614460D4605F0DDFE317841F0200194
:1088200005F0F9F92846FFF7C3FF2046FFF7C0FF20
:1088300005F0D0FEBDE8704005F0F4B92DE9F04137
:108840009DF81860072998BF1E4601F0070790465B
:10885000314601240546BC40FFF7BCFFB8F1000FCC
:1088600001D0044301E020EA0404E2B23146284684
:10887000BDE8F041FFF7CBBF10B5072928BF07219E
:108880000170044605F0A6FE05F08AF92046FF2295
:108890000021FFF7BCFF2046FF220121BDE8104068
:1088A000FFF7B5BF0021FFF7E7BF07B50123B2FA15
:1088B00082F2009352090023FFF7C0FF03B05DF876
:1088C00004FB0829F8B501F007060C4634BF142153
:1088D000152105461746FFF77DFF0123B3400FB171
:1088E000034301E020EA0303082CDAB2284634BF30
:1088F00012211321BDE8F840FFF789BF07B50D230A
:1089000000930C23FFF79AFF03B05DF804FB02F01D
:1089100087BD01757047000038B584690A4B036054
:1089200005467CB16368013B63605BB92368204600
:108930009B689847A368013BA3601BB92368204646
:10894000DB689847284638BD9C590E0010B5044690
:10895000FFF7E2FF20461C2105F070FE204610BD07
:1089600030B5064D056000250575836041F28835F8
:10897000039B85614160C360026130BD284F0E00DA
:108980002DE9F0410D461746064604F05BFF1C49F1
:1089900004F011F800241B4805F084FC68BB052C8A
:1089A00001D1BDE8F081337DC3B104F04BFF16491E
:1089B00003F0EAFF04F046FF294603F0E5FF04F068
:1089C00041FF124903F0E0FF04F03CFF0A22804619
:1089D000214603F0FCFF404603F0E1FF094805F0A3
:1089E000EDFB0023BAB22946064805F0EBFA4FF436
:1089F0007A7004F0BBFA0134CDE7BDE8F08100BF26
:108A00001C4E0E00A8E00320344E0E004A4E0E000D
:108A100070B5054600240D4805F0E8FB064610B980
:108A2000AB699C4201DB012070BD012004F09EFA7D
:108A3000AB6901349C42EEDB287D30B104F002FFCB
:108A4000034903F0B8FF304670BD70BDA8E00320B5
:108A50005E4E0E002DE9F843037D06468846154616
:108A60004BB104F0EFFE264903F0A5FF04F0EAFE47
:108A7000244903F0A0FF002440F2BB29224805F05E
:108A8000B5FB78B1204805F05AFA337DC7B22BB157
:108A900004F0D8FE036839469B6898472F55013487
:108AA0004C45EBD1337D23B104F0CCFE174903F0E4
:108AB00082FF00232B55164B98450DD115492846AA
:108AC00009F058FDDFED147A0028B7EE000A08BF60
:108AD000B0EE670ABDE8F8837C21284608F0CAFF9B
:108AE00050B1013008F018FC51EC100B08F0D8F927
:108AF00000EE100ABDE8F8839FED070ABDE8F88391
:108B0000A54E0E00914E0E00A8E00320A44E0E00CC
:108B1000B04E0E00B54E0E005F42A2CD70B52DEDE9
:108B2000028B044600230E4615464168494842F22E
:108B3000343205F047FA204642F234326168FFF7DA
:108B40001FFF444805F067F9002877D0A168414825
:108B500003F01AFF40493F4803F016FFE1683D4823
:108B600003F012FF3D493B4803F00EFF3146394800
:108B700003F00AFF3A49374803F006FF2946354813
:108B800003F002FF3749334803F0FEFE237DB3B301
:108B900004F058FE344903F00EFF04F053FE33494D
:108BA00003F009FF04F04EFEA16803F0EDFE04F0AF
:108BB00049FE294903F0E8FE04F044FEE16803F0B1
:108BC000E3FE04F03FFE254903F0DEFE04F03AFE2A
:108BD000314603F0D9FE04F035FE214903F0D4FEFE
:108BE00004F030FE294603F0CFFE04F02BFE1D49B1
:108BF00003F0CAFE04F026FE1D4903F0DCFE204609
:108C0000FFF706FF28B9134805F0D8FA9FED190AB7
:108C10001DE04FF42F7002F099FF174902460546F8
:108C20002046FFF717FF0B48B0EE408A05F0C6FA62
:108C3000284602F093FFB0EE480A08E0237D002B9F
:108C4000E1D004F0FFFD0D4903F0B5FEDBE7BDEC1C
:108C5000028B70BDA8E00320B84E0E00BB4E0E0084
:108C600014500E0052500E00D34E0E00BD4E0E009A
:108C7000D24E0E005F42A2CDD84E0E00DB4E0E004B
:108C800070B52DED028B04464168224842F2343221
:108C90001D46002305F096F9204642F23432616801
:108CA000FFF76EFE1B4805F0B6F830B329461948A9
:108CB00003F06AFE2046FFF7ABFE054620B91548D3
:108CC00005F07CFA002521E0642002F03FFF124904
:108CD000024606462046FFF7BDFE3046B0EE408A0B
:108CE00002F03CFFDFED0D7AB4EE678AF1EE10FA88
:108CF000E5D0084805F062FA08E0237D002BDED0BD
:108D000004F0A0FD064903F056FED8E7BDEC028B47
:108D1000284670BDA8E00320B04E0E005F42A2CDF1
:108D2000014F0E0010B5064C02F07AFB204605F00C
:108D3000FDFA2046034A0449BDE8104005F070BC26
:108D4000A8E0032008BC032019890D0038B50446AB
:108D50000120607494F91000E56800EB800045F88C
:108D6000201094F91010E06801EB810100EB810103
:108D700081ED020A94F91010E06801EB810100EB2B
:108D800081014A6094F91020E16802EB820201EB54
:108D90008202D36094F91030E26803EB830302EBA4
:108DA0008303049A1A61237C01335BB20A2B237478
:108DB00008DDA37C23B104F045FD034903F0FBFD6E
:108DC0000A23237438BD00BF344F0E0081744068FD
:108DD00003689B681847000030B510EE100A87B092
:108DE0000C4607F011FD01AD02460B462846094925
:108DF00002F0C4FE00221346A95C202905D0E154EC
:108E00000133DBB209B9E15402E00132142AF3D193
:108E100007B030BDB74F0E002DE9F0430C4689B0C6
:108E200005464949204608F03DFE002695F91030D8
:108E30009E426ADA06EB8608EB684FEA88073B44F5
:108E40000DF10C0993ED020A49462846FFF7C4FFCD
:108E5000EB68CDF8009053F828303C492246204674
:108E600002F08CFEEB683B44DB686BB3224638496A
:108E7000204602F083FEEB683B441B69FBB10A20ED
:108E800093FBF0F191FBF0FC00FB1C1C00FB11318B
:108E9000C9B2642293FBF2F292FBF0FE00FB1E22A9
:108EA00000915FFA8CF3D2B22A4902A802F066FE62
:108EB00002AB22462849204602F060FE04E022462A
:108EC0002649204602F05AFEEB681F447B6823B116
:108ED00022462349204602F051FE224621492046DF
:108EE00002F04CFE013695F91030F6B29E42224651
:108EF00004DA1D49204602F041FE97E71949204651
:108F000002F03CFE00232B7490E7AB7CC3B104F06D
:108F100099FC164903F04FFD04F094FC144903F04A
:108F20004AFD04F08FFC214603F045FD04F08AFC65
:108F30000E4903F040FD04F085FC0E4903F03BFDB3
:108F400009B0BDE8F08300BFBC4F0E00BE4F0E005D
:108F5000D14F0E00E44F0E00EB4F0E00F04F0E000D
:108F6000F64F0E0005500E0009500E00A54E0E00E3
:108F70000D500E00F7520E002DE9F0430C46054649
:108F800089B05049204616461F4608F08BFDAB6855
:108F90004D4A4E49204602F0F1FD334622464C49E7
:108FA0000097204602F0EAFD22464A49204602F098
:108FB000E5FD002695F910309E4264DA06EB86083E
:108FC000EB684FEA88073B440DF10C0993ED020A68
:108FD00049462846FFF700FFEB68CDF8009053F8AC
:108FE00028303B492246204602F0C8FDEB683B444E
:108FF0005B6823B122463849204602F0BFFDEB688A
:109000003B44DB6863B322463449204602F0B6FD98
:10901000EB681F443F69F7B10A2097FBF0F191FB21
:10902000F0F300FB131300FB1171C9B2642297FB2C
:10903000F2F292FBF0FE00FB1E220091DBB2D2B2F4
:10904000274902A802F09AFD02AB22462549204694
:1090500002F094FD04E022462349204602F08EFDF2
:10906000013695F91030F6B29E42224604DA1F49C5
:10907000204602F083FD9DE71D49204602F07EFD5B
:1090800000232B7496E7AB7CC3B104F0DBFB1949DA
:1090900003F091FC04F0D6FB174903F08CFC04F0BC
:1090A000D1FB214603F087FC04F0CCFB114903F00F
:1090B00082FC04F0C7FB034903F07DFC09B0BDE866
:1090C000F08300BFF7520E0016500E002A500E001B
:1090D00036500E003E500E0043500E0049500E0018
:1090E000E44F0E00EB4F0E00F04F0E0009500E0043
:1090F00050500E00A54E0E000D500E002DE9F74306
:1091000004464FF42F701F460E46904602F01EFD97
:10911000E37C013B012B054606D801464346324617
:109120002046FFF729FF03E001462046FFF774FEC3
:10913000A37C23B104F086FB0D4903F03CFC60687E
:109140000368009731464246D3F800902B46C84743
:109150000646284602F002FD0121384605F06EFA67
:10916000002306B163743046237403B0BDE8F08376
:1091700057500E0070B5044601200D461646FAF70A
:109180008CFF067003462A4629462046BDE87040FB
:10919000FFF7B4BF70B506460C4684B1E1683046AF
:1091A000FFF7F8FFE369A56823B104F11401032276
:1091B000084698472046FAF774FF2C46EDE770BD45
:1091C000F0B58DB0044601A80D4617461E4602F0C4
:1091D0009DFC03980130FAF762FF0199206008F0C6
:1091E00061FC2A4633463946E67405A800F08EFD38
:1091F000C82002F0ABFCE06005A800F095FC00235D
:10920000606023740899A56006A8FFF7C3FF01A852
:1092100003F0D0F90DB0F0BD38B500250446057453
:109220004574FFF7CDFF204638BD0000024B0022F9
:109230001A7002F0F5B800BFC4E003202DE9F04138
:109240000446502023730D4616461F4602F07EFC4E
:10925000A0604FF48270FAF720FF804610B12946D3
:1092600000F0DAFD237BC4F80080042B4FF01400DB
:109270000CD0FAF712FF804620B13B463246294611
:10928000FFF7CAFFC4F80480BDE8F081FAF705FFD4
:10929000074620B1012332462946FFF7BDFF67602C
:1092A000BDE8F08110B50023044643738373134671
:1092B000024AFFF7C3FF204610BD00BF67500E00F3
:1092C00038B50446806802F049FC25683DB128465F
:1092D00000F0BAFD4FF48271284605F0AFF9204640
:1092E00038BD30B4057B029C042D03D1006830BC2E
:1092F00000F0B2BD0294406830BCFFF727BD07B54F
:10930000002300931A46FFF7ECFF03B05DF804FB5F
:109310004068FFF72FBF037B8173042B02D04068A6
:10932000FFF754BD006800F0EBBD08B502F078F817
:10933000BDE8084002F024B90175704770B50446D5
:10934000142002F003FC0646142002F0FFFB054641
:10935000204609F0DFF8224600230238984217DD44
:1093600012F8011B0D2911D111780A290ED151785B
:109370000D290BD191780A2908D1191D14222144F5
:10938000304609F0E4F80023337501E00133E5E7E6
:109390000A21304608F06EFB044600B30A21013072
:1093A00008F068FBD8B12146284608F07BFB284628
:1093B00009F0B0F82844002300F8013C284607F0E3
:1093C000ABFF51EC100B07F06BFD0446284602F092
:1093D000C5FB304602F0C2FB00EE104A70BD9FEDA7
:1093E000010A70BD5F42A2CD30B5074D0560002572
:1093F000057541F28835856183600525039B0577F6
:109400004160C360026130BD90510E002DE9F84308
:1094100005460F46904600241D48E6B204F0FBFCCA
:1094200098BB2B7FB34201D8BDE8F8832B7DC3B135
:1094300004F008FA174903F0A7FA04F003FA3946D2
:1094400003F0A2FA04F0FEF9134903F09DFA04F0C8
:10945000F9F90A228146314603F0B9FA484603F089
:109460009EFA00231FFA88F23946094804F0AAFD43
:109470002B7D23B104F0E6F9084903F09CFA4FF480
:109480007A7003F073FD0134C6E7BDE8F88300BFCE
:10949000C8E00320344E0E004A4E0E009C510E00D0
:1094A00070B54D1E0C4601F52F7206462B46002165
:1094B00003F8011F9342FBD1337D4BB104F0C2F995
:1094C000134903F078FA04F0BDF9124903F073FA76
:1094D00004F2BA24104804F089FE40B9337DB3B1D8
:1094E00004F0B0F90D49BDE8704003F064BA0A48D1
:1094F00004F025FD05F8010F337D2BB104F0A2F92E
:10950000036829789B689847A542E3D1E6E770BDD8
:10951000A54E0E00914E0E00C8E00320A44E0E0092
:1095200070B5054600240D4804F060FE064610B9EB
:10953000AB699C4201DB012070BD012003F016FDE8
:10954000AB6901349C42EEDB287D30B104F07AF93E
:10955000034903F030FA304670BD70BDC8E0032007
:109560005E4E0E00F8B50F460269416804461E467D
:10957000FFF74CFF804804F04EFC0546002800F041
:10958000EC807E497C4803F0FFF939467A4803F0C5
:10959000FBF97B49784803F0F7F97A49764803F0FC
:1095A000F3F96168744803F0EFF97749724803F002
:1095B000EBF97649704803F0E7F9A1686E4803F0CB
:1095C000E3F971496C4803F0DFF971496A4803F027
:1095D000DBF9E168684803F0D7F96B49664803F0A6
:1095E000D3F96C49644803F0CFF96B49624803F042
:1095F000CBF9304608F08EFF684905465E4803F017
:10960000C3F9002D05DA2D215B4803F0C1F9694249
:1096100000E029460A22584803F0D9F96049564823
:1096200003F0B2F93146544803F0AEF956495248B6
:1096300003F0AAF9504804F0EDFB237D002B71D014
:1096400004F000F9574903F0B6F904F0FBF84B4970
:1096500003F09AF904F0F6F8394603F095F904F0AE
:10966000F1F8474903F090F904F0ECF8454903F0AC
:109670008BF904F0E7F8616803F086F904F0E2F88A
:10968000414903F081F904F0DDF8404903F07CF929
:1096900004F0D8F8A16803F077F904F0D3F83A4958
:1096A00003F072F904F0CEF8394903F06DF904F0D3
:1096B000C9F8E16803F068F904F0C4F8324903F02E
:1096C00063F904F0BFF8334903F05EF904F0BAF827
:1096D000314903F059F904F0B5F8304903F054F971
:1096E00004F0B0F8002D074603DA2D2103F050F9FD
:1096F0006D420A222946384603F069F904F0A2F8BF
:10970000274903F041F904F09DF8314603F03CF994
:1097100004F098F81C4903F037F904F093F8224953
:1097200003F049F92046FFF7FBFE237D0BB9012426
:109730001DE004F087F81D4903F03DF90E4804F0E0
:1097400055FD0028F3D00C4804F0F9FB044604F062
:1097500079F8E1B203F01CF9F0E7237D33B104F0AE
:1097600071F8134903F027F92C4600E01C46024823
:1097700004F024FD2046F8BDC8E00320AD510E00E2
:10978000C5510E00D1510E00F5520E00D8510E00F9
:10979000E5510E00F4510E0008520E0029520E0041
:1097A000F3520E003A520E0056520E0074520E0042
:1097B00090520E0070B52DED028B044600230E462C
:1097C000154641686848502204F0FCFB20465022B0
:1097D0006168FFF71BFE644804F01DFB002800F0E1
:1097E000B4806249604803F0CFF831465E4803F028
:1097F000CBF85F495C4803F0C7F829465A4803F0A4
:10980000C3F85C49584803F0BFF85B49564803F079
:10981000BBF85A49544803F0B7F80A22502152487D
:1098200003F0D5F85649504803F0AEF855494E4874
:1098300003F0AAF8A1684C4803F0A6F850494A483A
:1098400003F0A2F85049484803F09EF8E168464802
:1098500003F09AF84A49444803F096F84B494248C5
:1098600003F092F8237D002B50D003F0EBFF3F492B
:1098700003F08AF803F0E6FF314603F085F803F0C1
:10988000E1FF3B4903F080F803F0DCFF294603F0D9
:109890007BF803F0D7FF374903F076F803F0D2FFE7
:1098A000354903F071F803F0CDFF344903F06CF84B
:1098B00003F0C8FF0A22502103F089F803F0C2FF29
:1098C0002F4903F061F803F0BDFF2E4903F05CF867
:1098D00003F0B8FFA16803F057F803F0B3FF28497D
:1098E00003F052F803F0AEFF274903F04DF803F000
:1098F000A9FFE16803F048F803F0A4FF204903F052
:1099000043F803F09FFF214903F03EF82046FFF79C
:1099100007FE28B914489FED1E8A04F04FFC1DE095
:109920004FF42F7002F012F9014605462046FFF76A
:10993000B7FD2846FFF702FD0B48B0EE408A04F061
:109940003DFC284602F00AF908E0237D002BE1D017
:1099500003F078FF0F4903F02EF8DBE7B0EE480A7A
:10996000BDEC028B70BD00BFC8E00320BA520E00F0
:10997000CF520E00D1520E00C5510E00D1510E0033
:10998000F5520E00D8510E00E5510E00D5520E00D2
:109990005F42A2CDF8520E0010B5064C01F040FD1A
:1099A000204604F0C3FC2046034A0449BDE81040A9
:1099B00004F036BEC8E0032008BC032019890D005E
:1099C00003681847012A02D0022A02D004E001608D
:1099D00002E00B6800B103600020704713B51C2043
:1099E000FAF75BFB044648B1064B07491B68009336
:1099F00042F23432054B0968FEF7B2FF204602B04E
:109A000010BD00BF1CE1032020E1032016500E0012
:109A100013B52020FAF741FB044640B1054B064937
:109A20001B6800935022054B0968FFF7DDFC2046B8
:109A300002B010BD1CE1032020E1032016500E00EF
:109A400013B51C20FAF729FB044648B1064B074919
:109A50001B68009342F23432054B096800F068FA43
:109A6000204602B010BD00BF1CE1032020E103200E
:109A700016500E0013B51420FAF70FFB044640B140
:109A8000054B06491B68009300231A46096800F03D
:109A9000E9FA204602B010BD1CE1032020E10320BA
:109AA00010B5064B036064330446036102F0F7FA15
:109AB000204602F0B9FC204610BD00BFE4560E005F
:109AC00010B50446FFF7ECFF20464C2104F0B6FD2C
:109AD000204610BD10B586B000230446049321B182
