:02000002D0002C
:1040000000400D00285C0E00000006000D000501B8
:084010000401E80500000000B6
:0440180094400E00C2
:1040200009480A49884208B505D0094A824202D0A7
:10403000121A0CF076FE0748074A0021121A0CF0FB
:104040007BFE014808BD00BFE4BB0320FC5A0E0004
:10405000E8BC0320E8BC0320F0E7032070B508F0BB
:10406000E9FB074C074BE41AA40800251E46A542AD
:1040700004D056F8253098470135F8E770BD00BFE9
:10408000E45A0E00145A0E0000F0B6BD08B500F058
:104090009FFBBDE8084008F08FBB07F037B907F079
:1040A00035B907F03BB907F039B90078B0FA80F0BC
:1040B00040097047012303707047106870477047CC
:1040C00070470000014B01221A70704796BF032011
:1040D00003681847012A02D0022A02D004E00160D6
:1040E00002E00B6800B103600020704703685A6863
:1040F00098681B6812F0010F4FEA620218BF8158DE
:10410000104418BFCB58184738B5064D002404F1A9
:1041100080002844103C07F02DFE14F1900FF6D1DA
:1041200038BD00BF4CBE032010B5044607F022FE88
:10413000204610BD08B506F013FE034B1860034B74
:1041400001221A7008BD00BF3CD70320C0BF032066
:1041500010B5044606F004FE41F26462A358C31A87
:10416000092B05D904F5B3510B6801330B60A0503E
:1041700010BD38B5044606F0F3FD04F5B4510B68E4
:1041800093B1C31A092B10D941F27C62A558AB42F6
:1041900038BFA35041F2746562591344635141F230
:1041A0007862A3580133A350086038BD10B50446A7
:1041B00000F5B050043007F0DDFD04F6063006F0DF
:1041C0008CFC04F10A0006F088FC204610BD43690F
:1041D00013B183690C301847704700007FB5024661
:1041E00008461379956833B13DB90C4904B0BDE870
:1041F000704007F0A9BF0A4B00E00A4B167B0A4C3F
:104200000A49527B0292012E08BF21460191009576
:10421000074A002108F0A9F804B070BDF1400E0073
:10422000274A0E00E0400E00E9400E00ED400E006F
:1042300007410E0013B500210446084606F0D8FDDC
:1042400002A90023204641F8043D06F0E9FD019C47
:104250000CB1012323710021012006F0C9FD2CB10E
:10426000236820469B6898470023237102B010BD45
:10427000022A38B5044605D0032A0FD0012A11D1ED
:104280000B6809E00C200D68FFF707FF034618B123
:1042900095E8070083E80700236003E00C2100682D
:1042A00009F0ACFD002038BD10B5054B00220446D6
:1042B000114640F8043B06F03BFF204610BD00BF0E
:1042C000D0400E0010B50446FFF7EEFF2046202137
:1042D00009F094FD204610BD00221146406806F00A
:1042E0009DBF10B58368044613B103220146984769
:1042F000204610BDF0B500258E4615490571856034
:1043000045610160044692E8030085B002AF04F104
:104310000C0687E8030096E8030082E8030097E8AC
:10432000030086E803009168606990606161D1686C
:10433000A069D060A1618DE82800064A2346714635
:1043400004F1080006F05CFD204605B0F0BD00BF9A
:10435000BC400E0035420D0007B58068002338B11F
:104360008DE80A00022106F063FDB0FA80F04009F2
:1043700003B05DF804FB000038B5104B03608368A0
:104380000446A3B16FF000410022FFF7E5FF0021D2
:10439000A06806F065FD237903F0FF0513B106F070
:1043A0000FFDF8E72946A06806F032FDA56004F18C
:1043B0000C00FFF796FF204638BD00BFBC400E0042
:1043C00010B50446FFF7D8FF20461C2109F016FD62
:1043D000204610BD37B5054600220C461146FFF7B2
:1043E000BBFFA868002340B1019300941A46194608
:1043F00006F01EFDB0FA80F0400903B030BD0000A9
:104400002DE9F04F4D4FDFF84891DFF848818DB02E
:1044100000240125092C00F08D8014F8096009F0B2
:10442000B9FC314608F0D3FF09F0B4FC08F0DAFF1C
:1044300000284ED00A2008F079F909F0ABFC31468B
:1044400008F0C5FF09F0A6FC08F0CCFF002840D01A
:1044500009F0A0FC08F0CDFF09F09CFC314608F003
:10446000B6FF09F097FC08F0BDFF90B308F0CAFD55
:1044700033490546684607F0C4FC3946684607F0EC
:104480009EFD304907F0A7FD2F4907F0A4FD10223B
:10449000824631460DEB020007F027FD04A9504685
:1044A00007F08DFD014608A807F0EAFC08992846A8
:1044B00007F061FE08A807F05DFC04A807F05AFCAD
:1044C0000025684607F056FC08F804500134103700
:1044D000A0E708F097FD1A498246684607F091FC6C
:1044E0003946684607F06BFD184907F074FD164918
:1044F00007F071FD1022834631460DEB020007F0F4
:10450000F4FC04A9584607F05AFD014608A807F034
:10451000B7FC0899504607F02EFE08A807F02AFCC1
:1045200004A807F027FC684607F024FC012308F8DC
:104530000430CBE728460DB0BDE8F08F4CBE032019
:1045400025410E002D410E0035410E0031410E0077
:10455000E4BB03208DBF03202DE9F0431E4D1F4F08
:104560008DB00646002415F8013FB3422DD108F066
:1045700049FD1B498046684607F043FC07EB0411E0
:10458000684607F01CFD174907F025FD164907F09E
:1045900022FD1022814629780DEB020007F0A5FCD0
:1045A00004A9484607F00BFD014608A807F068FC7F
:1045B0000899404607F0DFFD08A807F0DBFB04A8D8
:1045C00007F0D8FB684607F0D5FB0134092CCAD1A7
:1045D0000DB0BDE8F08300BFE3BB03204CBE032059
:1045E00025410E0031410E0035410E0070B508F036
:1045F00009FD1D4907F0BFFD0124002509F0CAFB94
:10460000E1B208F0E4FE09F0C5FB08F0EBFE20B9CA
:104610002046FFF7A1FF013517E0042815D108F067
:10462000F1FC124907F090FD0F2C04D808F0EAFCC9
:104630000F4907F089FD08F0E5FC102206462146E7
:1046400007F0A5FD304607F08AFD01347F2CD5D157
:104650001DB908F0D7FC074902E008F0D3FC064971
:10466000BDE8704007F087BD41410E004D410E008E
:1046700024470E0069410E007F410E00F8B5414D00
:104680002846FFF729FE044640BB08F0BBFC3E4924
:104690003E4E07F070FD234622462146686806F02C
:1046A000C5FD234622462146686806F09FFD204648
:1046B00006F06EFB002504460027002006F068FB8C
:1046C000001B61EB05018F4208BF864235D32D48A0
:1046D000FFF702FE88BB06F0E1FDEEE708F092FC72
:1046E0002B4907F048FD06F0E9FD0446F0B908F053
:1046F00089FC284907F03FFD06F0D8FD204606F06A
:1047000047FB002504464EF65F260027002006F0F2
:104710003FFB001B61EB05018F4208BF86421FD3A0
:1047200006F0CCFDE0B906F0B9FDEFE708F06AFC51
:104730001949BDE8F84007F01EBD1248FFF7CCFD4F
:104740001048FFF7C9FD0028CDD108F05BFC1349E4
:1047500007F011FDC82007F0E9FF06F077FFC2E778
:1047600006F0ACFD06F0AAFD58B908F04BFC0C4968
:1047700007F001FDC82007F0D9FFBDE8F84006F0BA
:1047800065BFF8BDDCE2032085410E001FBF0200BB
:10479000C6410E00D5410E001D420E00A7410E007D
:1047A000FA410E0038B5046805467CB16368013BE8
:1047B00063605BB9236820469B689847A368013B08
:1047C000A3601BB923682046DB689847284638BD9C
:1047D0002DE9F0472DED028BAD4D2B78ECB0002B81
:1047E00000F02581AB4CAC4805F06EFCE088D4F8B5
:1047F00000A00BF0D7FBA2A3D3E900230BF038FCF9
:104800000BF02EFF8146A0890BF0CCFB0022A34BBE
:104810000BF058FD0BF024FFA3888046608908EE5A
:10482000103A0BF0BFFB00229D4B0BF04BFD96A303
:10483000D3E900230BF068FA0BF012FF994B668A5C
:10484000247A074618680BF0BFFBCDE90A01384609
:10485000099608940BF0B8FBB8EE488ACDE906013A
:1048600018EE100A0BF0B0FBCDE9040140460BF046
:10487000ABFBCDE9020148460BF0A6FB5346CDE960
:104880000001894A4FF480712CA806F06FFD874B18
:1048900087491B788DF800302CAA3C2328A808F003
:1048A00037F929A8FFF77EFF07EE90AA81498248D1
:1048B000B8EE670A04F01DF900EE109A7F497E48B1
:1048C00004F017F900EE108A7D497B4804F011F9D5
:1048D000B0EE480A7B49784804F00BF900EE107AF4
:1048E0007949754804F005F907EE904A774972480E
:1048F000774CB8EE670A04F0FCF807EE906A754949
:104900006D48B8EE670A04F0F4F8734B6A481A78F9
:10491000724B196804F0F6F85F490CA805F0A4FC86
:104920000C996F4807F027FC08F06CFB0C9907F016
:1049300022FC237800262E701BB16A4800F06CFD23
:1049400026700023684C2B7008F05CFB674907F069
:1049500012FC0A22216810A807F0D9FA10A914A89D
:1049600007F08EFA624914A807F035FB2179054655
:1049700018A807F0A9FA18A9284607F020FB5C49F7
:1049800007F029FB0A220546A1681CA807F0BFFA18
:104990001CA9284607F013FB554907F01CFB0A2207
:1049A0000546E16820A807F0B2FA20A9284607F0DA
:1049B00006FB4F4907F00FFB94ED040A054606215C
:1049C00024A807F0CBFA24A9284607F0F8FA4849AA
:1049D00007F001FB94ED050A0546062128A807F01B
:1049E000BDFA28A9284607F0EAFA414907F0F3FA88
:1049F000404907F0E4FA01463F4807F032FA28A898
:104A000007F0B8F924A807F0B5F920A807F0B2F923
:104A10001CA807F0AFF918A807F0ACF914A807F024
:104A2000A9F910A807F0A6F90CA807F0A3F9334CD0
:104A30002378DBB1184805F073FA174805F018FA27
:104A4000154805F0A9F8194B2D491B780022227052
:104A50002CA88DF800303C2308F05AF82DA8FFF759
:104A6000A1FE08F0CFFA274907F085FB264B1B78FB
:104A70000BB106F0EBFD6CB0BDEC028BBDE8F0872E
:104A8000FCA9F1D24D62503F6666666666127140BF
:104A9000C0BF0320C0D60320CCBF032000408F40FE
:104AA0000000244050BF032030420E008CBF032082
:104AB00020430E0099420E0098BF0320A2420E0030
:104AC000B7420E00C5420E00DA420E00E6420E006A
:104AD0004CBF0320EE420E00DCBE0320F0BB0320DF
:104AE000F8BC0320D8D60320A8BF0320F8420E004C
:104AF000EB450E0000BF0320C4DB032096BF03205C
:104B000016430E0028430E00D4DB032070B594B08A
:104B100006F026F92F4D304E044606F021F92860A4
:104B200006F0BCFB642007F001FE07F0B4FDB042C4
:104B300005DC06F015F9001BB0F5FA7FEDD307F0A0
:104B4000AAFD264B984207DD07F0A5FD0146244843
:104B500000F07CFC01203AE0224C2349236800222B
:104B600004A807F045FD04A908A807F089F91F4922
:104B700008A807F030FA0546194800F061FC2368E0
:104B8000194902460CA807F033FD0CA9284607F086
:104B900016FA014610A807F073F9154B109A1B7806
:104BA00014498DF8003002A83C2307F0B1FF03A898
:104BB000FFF7F8FD10A807F0DDF80CA807F0DAF809
:104BC00008A807F0D7F804A807F0D4F8002014B01C
:104BD00070BD00BF08E603204DB25E574EB25E576F
:104BE000D8D60320F4BB032018E20320894D0E0021
:104BF0008CBF032030430E0030B5012185B04848FA
:104C000003F083FF002302224649474806F03EFB9B
:104C100000250C230195ADF80430444B4449029320
:104C2000042201AB4348039506F030FB08F0EAF993
:104C30004FF4E13108F0DAF908F01AFB4FF4E131F2
:104C400008F010FB3C4801F02DF83C4800F020FC37
:104C500001220221394800F0D9FB01220321374803
:104C600000F0D4FB06F07CF8354B186041F2883038
:104C700007F05CFDFFF7C4FBFFF7B8FC2F4800F01E
:104C80008FFB0446C8B908F0BDF92E4907F073FA46
:104C90002D49274807F007F9224601212B4806F045
:104CA00047FA08F0AFF92A4907F065FA42F21070A6
:104CB00007F03CFD06F0CAFC30E0264CFFF7DEFCB6
:104CC00022462946244800F0FEFC244B22689A42E2
:104CD00008D02360224644F6206329461E48E3603C
:104CE00000F0E2FCFFF712FF18B108F08BF91C4945
:104CF00002E008F087F91B4907F03DFA1A4800F076
:104D00000BFD1A4805F02EFC6FF000411848FFF724
:104D100061FB6FF000411748FFF75CFB05B030BD49
:104D200098BF0320DC400E0040430E00BB400D0046
:104D3000C4DB032048430E00C2BF0320D8D60320A3
:104D4000C8BF032055430E0077430E0030BE03203A
:104D50009E430E00A8BF0320E0BE03204C1F11009D
:104D6000B6430E00CD430E0010BF0320CCBF03207E
:104D700054BF032070BF03201FB50A4B0A4C1B7899
:104D80000A498DF8003022463C2302A807F0C0FEF5
:104D900003A8FFF707FD08F035F9214607F0EBF906
:104DA00004B010BD8CBF032055430E00E8430E0035
:104DB000F0B589B0044602A880E806001D460C2024
:104DC00000230F46039E0693FFF767F910B10760B3
:104DD000466085600B4B07930B4B06939DF8403064
:104DE000049000939DF838209DF93C3004A920469A
:104DF00008F064F9044604A8FFF773FA204609B0E6
:104E0000F0BD00BFED400D0071420D002DE9F047EF
:104E1000BE4BBF4F00241C70BE4B8AB001251D70D5
:104E200005F0F6FE05F09CFF0322BB49BB4803F0EA
:104E300033FEBB4ABB49B94808F0D2FFBA4B3968C8
:104E4000DC71642283F86024B84A83F83C4411EA98
:104E5000050683F83D4483F86A4483F87454C3F824
:104E6000784483F87C4483F87D44C3F870241C465E
:104E700015460AD13846FFF718F930B13146AC482B
:104E800006F010FB3846FFF715F9A94BC4F86C344F
:104E9000A84CA94B069506AE0025012708930222CF
:104EA0003346A1498DF81C5020468DF824708DF8AA
:104EB000255000F0B1FC9A4AA049DFF80093204643
:104EC00008F08EFF40F6B8332A4614210320A3626F
:104ED00006F070F94FF01E080346CDF800800197E8
:104EE00003224FF47F019648964C06F0B3FA8C4AA1
:104EF0009549934808F074FF2946384606F03AF978
:104F0000924B069332462B464FF4FA619048CDF807
:104F100024900894FFF7EEF93046FFF7E2F9804A53
:104F20008C498B4808F05CFF8B4B069332462B462E
:104F30004EF660218948CDF824900894FFF7DAF9FD
:104F40003046FFF7CEF9764A8249844808F048FF98
:104F5000834B069332462B4641F288318148CDF887
:104F600024900894804CFFF7C5F93046FFF7B9F953
:104F70006B4A78497B4808F033FF204601F007FA76
:104F800004F1080004F0C9FC414604F10A0005F0F0
:104F9000B4FD414604F6063005F0AFFD734800F05D
:104FA000EFF941F25C6A40F61F21714801F078F890
:104FB000042344F80A3004F5B35341F26C686D4A97
:104FC0001D609A60032344F808306B4B6B4A1A60EB
:104FD00041F274634FF0FF39E55041F278631122DA
:104FE000E55041F27C63482144F8039004F5B45342
:104FF0001D6041F28463E250614A002313605360F4
:1050000041F29062A5505F4A136041F29862A55048
:105010005D4A136004F5B5525360156041F2A86211
:10502000A5505A4A1360536041F2B462A55041F250
:10503000B862A55041F2BC62A55004F5B652536067
:105040009360D360136153619361D361156004F57C
:10505000B75202F10C0015605360936000F01BFE24
:1050600034F80800022108F039FE34F80800484BF3
:1050700006934FF0020807950295CDF80490CDF8FD
:10508000008096E806002346FFF792FE414634F87A
:105090000A0008F023FE34F80A003E4B04938DE822
:1050A00000030595029504AA234606CAFFF780FE71
:1050B0001B4A3949204608F093FE384800F060F951
:1050C000174A3749354808F08BFE3A4618233349CA
:1050D000344800F0DEFA18234FF496722F49324814
:1050E00000F00FFB3149324806F08BFE0C4A314983
:1050F0002F4808F075FE2D492F4806F082FE084A19
:105100002C492D4808F06CFE5AE000BFDCBE03209D
:10511000ECBC03208CBF0320F2430E0098BF032099
:10512000E8BC0320B58A0D0040D70320B0400E0034
:10513000F0BC0320F8BC032080F0FA0245590D00B2
:105140002CBE0320D5400D00A9420D00C5400D0026
:1051500054BF032079430D0035410D0070BF03207B
:10516000794D0D0020D70320CCBF0320D0D50320DC
:1051700018D603205839343C3CD60320DBF9BE3F17
:1051800054D6032060D6032068D6032078D60320A7
:1051900073410D0051410D00AD410D00D8D60320E3
:1051A00029410D00E0BE032010BF0320274A0E0056
:1051B000C4DB032075BD0D0000BF0320D1400D00EE
:1051C0001749184806F01DFE1749184806F019FE41
:1051D0001749184806F015FE1749184806F011FE41
:1051E0001749184806F00DFE1749184806F009FE41
:1051F0001749184806F005FE1749184806F001FE41
:105200001749184806F0FDFD174A1849284608F0C6
:10521000E7FD4821164800F03EFD0AB0BDE8F087E2
:10522000FA430E004CBE0320FE430E005CBE03207A
:1052300002440E006CBE03200D440E007CBE032011
:1052400011440E008CBE032016440E009CBE0320A9
:105250001D440E00ACBE032025440E00BCBE03203E
:105260002D440E00CCBE0320E8BC032009410D00F4
:10527000C2BF032008B505F0CBFC014B186008BD88
:10528000D8DB032005F0C4BC037C03F0080302460E
:1052900003F0FF002BB1D36A506A181A48BF6FF0B1
:1052A000004070477047103001F0A2BF103001F08D
:1052B00079BE07B501220DF10701103001F0BFFDE5
:1052C00001280CBF9DF807004FF0FF3003B05DF8D8
:1052D00004FB103002F0FAB807B502AB012203F864
:1052E000011D1030194602F0F1F803B05DF804FB1F
:1052F00010B53421044608F081FD204610BD0000A1
:1053000030B585B01C4B009313798DF80430936849
:105310000293137B8DF80C3000F58C65537B8DF870
:105320000D3004460A466B4600F26C41284602F0F6
:1053300015FCF0B1256004F23C45284601F08EFFD3
:105340000121204602F0B3FA014668B12146284601
:1053500001F05DFD68B194F83C3413F0700316BFA2
:10536000064B18461D6005E0204602F0A0FA002812
:10537000ECD1002005B030BDB0400E0098E0032015
:1053800010B50649044606F03CFD6323237405214D
:1053900004F1140005F00EFA204610BD274A0E0055
:1053A00037B5194B18681B798DF80430009008F058
:1053B000F1FC08F01AF818B908F0ECFC07F0D0FF7F
:1053C00000241DF8045008F0E5FC294607F0FFFF13
:1053D00008F0E0FC08F006F820B90134052CF0D103
:1053E00001200FE008F0D6FC08F003F808F0D2FC2A
:1053F000294607F0ECFF08F0CDFC07F0F3FF00288A
:10540000EBD0002003B030BD68440E00014802F02C
:1054100052BE00BFDDDB032010B5084C0122052180
:10542000204602F048FE322007F080F92046002294
:105430000521BDE8104002F03EBE00BFDDDB0320C9
:10544000014800F0C7BD00BFDCDB0320014800F0CD
:1054500078BD00BFDCDB032030B50024944212D0BD
:10546000085D0509092D00F00F0094BF3035373570
:1054700003F81450092803EB440594BF303037304B
:1054800068700134EAE7002203F8142030BD000000
:1054900030B58DB0054608F07DFC07F0A6FF18B9C1
:1054A00008F078FC07F05CFF142007F03FF908F0E3
:1054B00071FC202107F08BFF08F06CFC07F092FFD5
:1054C00080B108F067FC07F094FF08F063FC20212E
:1054D00007F07DFF08F05EFC07F084FFB0FA80F46F
:1054E000640900E00124614802F0D6FD0122002198
:1054F0005E4802F0D4FD012211465C4802F0CFFD67
:1055000001220221594802F0CAFD01220321574815
:1055100002F0C5FD01220421544802F0C0FD012221
:105520000521524802F0BBFD002206214F4802F03F
:10553000B6FD012207214D4802F0B1FD00220821ED
:105540004A4802F0ACFD00220921484802F0A7FDBC
:1055500000220A21454802F0A2FD00220B21434807
:1055600002F09DFD00220C21404802F098FD00222F
:105570000D213E4802F093FD00220E213B4802F02F
:105580008EFD00220F21394802F089FD0122002101
:10559000364802F0ADFD01221146344802F0A8FD64
:1055A00001220221314802F0A3FD012203212F48EC
:1055B00002F09EFD012204212C4802F099FD0122F7
:1055C00005212A4802F094FD01220621274802F015
:1055D0008FFD01220721254802F08AFD01220821C2
:1055E000224802F085FD01220921204802F080FDB9
:1055F00001220A211D4802F07BFD01220B211B48DC
:1056000002F076FD01220C21184802F071FD012202
:105610000D21164802F06CFD01220E21134802F004
:1056200067FD01220F21114802F062FD00210D22C9
:1056300008A80191029107910BF07EFB01A90C488B
:1056400000F03EFB07AB082201A92846FFF704FF44
:1056500007A903A806F0D5FB03A9284606F01BFC02
:1056600003A806F087FB20460DB030BDDDDB03202C
:10567000DCDB032013B504460498E0600090226050
:105680002371A16004F1100005F088F9204602B0F2
:1056900010BD37B501F11005009514310446FFF730
:1056A000E9FF204603B030BD13B502AB632403F815
:1056B000014D103005F09DF99DF80700B0FA80F01B
:1056C000400902B010BD13B502AB632403F8014DCD
:1056D000103005F078F99DF80700B0FA80F0400925
:1056E00002B010BD13B504460498E060009022603B
:1056F0002371A16004F1100005F091F9204602B079
:1057000010BD37B501F11005009514310446FFF7BF
:10571000E9FF204603B030BD103005F0B8B90000F5
:1057200070B505F075FA1E481E4E00F0C8FA1E4806
:105730001E4A1F4900244FF47A7304744474446071
:1057400083601C4B036008F04BFB1B4B3168DC7122
:10575000642283F86024194AC3F87024012211EAF4
:10576000020583F83C4483F83D4483F86A44C3F857
:10577000784483F87C4483F87D4483F874241C4681
:105780000AD13046FEF791FC30B129460C4805F0AD
:1057900089FE3046FEF78EFC094BC4F86C3470BDB0
:1057A000DCDB0320ECBC0320E0DB0320E8BC0320AF
:1057B000A5520D0048440E0014DC0320B0400E003A
:1057C000F0BC0320F8B50E46074606F09BFF0546E1
:1057D00006F090FF044606F083FF6401C0B2ADB24C
:1057E00004F4FF54A5F2BC75044344EA45243C800C
:1057F00006F058FF054606F05FFF044606F066FF18
:10580000ED02640105F4FF2504F4FF542C43C0F3BA
:10581000460004433480F8BD70B504460025456059
:1058200022731D481D4A2060A16022611A792275E9
:105830009A68A2611A7B22775B7B6377184B23629D
:10584000184B63620A23A36242F2107304F58E764A
:10585000E362012384F830306563A56384F8C830BF
:1058600084F8C950C4F8CC3084F8D05084F8D150B2
:1058700084F8F45084F8F5501022294630460BF095
:105880005BFAC4F82C51C4F82461C4F82861C4F848
:105890003051204670BD00BF0C450E00B0400E00D8
:1058A0006D440E0040420F0010B500F1BC040B46E1
:1058B000034A0C21204605F059FD204610BD00BFCB
:1058C00072440E00F8B5D0F82451044600F1D00718
:1058D000D4F82C21A36A9A4221D929692046FFF7DE
:1058E000E3FF064607F08EFB33460D4A012106F022
:1058F0003CFD3146384601F007FD284608F0E5FA40
:1059000004F58E710646284608F057FBFEF7C9FBE2
:10591000D4F82C31013BC4F82C313546D8E7F8BD1A
:105920007B440E0070B506460C464CB1E16830462B
:10593000FFF7F8FFA5682046FEF7B3FB2C46F4E717
:1059400070BD000010B5054BD0F82011036004466F
:1059500000F58C70FFF7E6FF204610BD0C450E00E9
:1059600010B50446FFF7EEFF20464FF49A7108F099
:1059700045FA204610BD2DE9F0470E4606F1040A0F
:105980008968054617465446012359B13A680B69A0
:105990009A42B4BF8A68CA680C46B4BF0123002388
:1059A0001146F2E733B1F3689C420ED0204608F06E
:1059B0009FFA00E0204602693B689A4205DB2860B6
:1059C00000232B712846BDE8F087A24508D03A682D
:1059D00023699A42ACBF4FF000094FF0010901E082
:1059E0004FF001091420FEF758FB3B6810F1100F2F
:1059F00018BF03618046534601462246484608F0D8
:105A000079FA7369C5F80080013373610123D8E71F
:105A100037B5D0F8CC100446FFF746FF40F20A2312
:105A2000024604F1D00104F1F40001F01EFC054629
:105A300030B104F1CC0204F58C716846FFF79BFF8E
:105A4000284603B030BD000030B5002380F8C830D0
:105A500090F8C9309DB00446E3B9494B494A007BF0
:105A60001A60012108F03AF9474B0C93237D8DF819
:105A70003430A3690E93237F8DF83C30217B637F04
:105A8000A0688DF83D300CAAFFF73AFC84F8C900F5
:105A900000286BD0226A32B3A168002301F23C4196
:105AA0000CA88DF830308DF8313001F0DEFB054662
:105AB000C8B907F0A7FA236A344A012106F055FC59
:105AC000A168226A8DF83050012301F23C410CA8F4
:105AD0008DF8315001F0A9FC28B907F093FA2C4A4F
:105AE000012106F042FCA168226A04F1D0050023DE
:105AF00001F23C41284601F0B8FB88B3002128465A
:105B000001F080FA00238DF80C308DF80D30002262
:105B1000294603A801F02DFBD0B140220CA903A80F
:105B200000F000FD0CA80AF0DAFF009060B16A46B0
:105B300004F58C7101A8FFF71EFF009BD4F8CC2060
:105B40009A42B8BFC4F8CC3003A801F087FBDEE767
:105B50002046FFF7B7FE2046FFF75AFF68B905E079
:105B600007F050FA0B4A012106F0FFFB012384F8ED
:105B7000C83005F0F5F8C4F830011DB030BD00BFE5
:105B80009CE00320C5570D00B0400E00B9440E0044
:105B900094440E00A1440E0038B50446406B28B171
:105BA0000368A26BDB6804F13C01984794F8C830A5
:105BB0005BB1D4F83031002B53D005F0D1F8D4F8D4
:105BC0003031C01AE36A98424BD294F8C930002BA6
:105BD00044D094F8F430002B40D004F1F405A26BCB
:105BE00004F13C01284601F071FC002821DD94F805
:105BF000303013B1284601F0FBFA626AD4F8103154
:105C00009A422BD2284601F029FBD4F8CC3001333C
:105C1000C4F8CC3007F0F6F9D4F8CC30134A01219F
:105C200006F0A3FB2046FFF7F3FE2046FFF74AFEEF
:105C300014E007F0E7F90E4A012106F096FB28462A
:105C400001F00CFB04F1D00001F008FB012384F803
:105C5000C830002384F8C930C4F830310023A3636E
:105C600038BD2046FFF7F0FEAFE700BFCE440E0080
:105C7000E9440E0008B5836B5A1C03447F2A8263F3
:105C800083F83C1001D80A2901D1FFF785FF0120D4
:105C900008BD04F0BDBF0022017008218280417060
:105CA0008270704708B508F075F8BDE8084007F045
:105CB00057BB04F0ADBF0368C9B29B681847704773
:105CC00038B50C4608F066F8572107F084FB08F059
:105CD00061F8F221FFF7EFFF08F05CF807F082FBB4
:105CE00008F058F80622572107F06EFB651E0534B0
:105CF00008F050F803685B69984705F8010FA54262
:105D0000F6D138BD2DE9F74F9A469DF83030019312
:105D100093460D469DF834709DF838609DF83C9090
:105D200008F038F8804607F069FB08F033F86F2177
:105D30000A2407F050FB08F02DF80021FFF7BBFF05
:105D400008F028F8B5FBF4F204FB125505EB021538
:105D5000EDB205F07F01FFF7AEFF08F01BF8BBFBCB
:105D6000F4F104FB11BB0BEB011101F07F01FFF714
:105D7000A2FF08F00FF8BAFBF4F104FB11AA0AEB3A
:105D8000011101F03F01FFF796FF08F003F8019BB6
:105D9000B3FBF4F104FB113101F0070141F00801FC
:105DA000FFF789FF07F0F6FFB7FBF4F104FB11776B
:105DB00007EB011101F03F01FFF77DFF07F0EAFF5C
:105DC000B6FBF4F104FB116606EB011101F01F01B3
:105DD000FFF771FF07F0DEFFB9FBF4F1036804FB86
:105DE000119404EB01119B68C9B2984707F0D2FFE8
:105DF00007F0F8FA07F0CEFF6F2107F0ECFA07F092
:105E0000C9FF0021FFF757FF07F0C4FF45F08001ED
:105E1000FFF751FF07F0BEFF07F0E4FA404603B07A
:105E2000BDE8F04F07F0F3BA2DE9F84FDDF8288010
:105E30000B9F0C9E0D9D994692468B4607F0AAFF3C
:105E4000044607F0DBFA07F0A5FF6F2107F0C3FA5D
:105E500007F0A0FF0021FFF72EFF07F09BFF07F0E0
:105E6000C1FA07F097FF6F21072207F0ADFA07F09C
:105E700091FF03685B699847C0B2C0F3021303EB5C
:105E8000830300F00F0000EB43008BF8000007F0E5
:105E900081FF03685B699847C0B2C0F3021303EB4C
:105EA000830300F00F0000EB43008AF8000007F0C6
:105EB00071FF03685B699847C0B2C0F3011303EB3D
:105EC000830300F00F0000EB430089F8000007F0A7
:105ED00061FF03685B69984700F0070088F80000DD
:105EE00007F058FF03685B699847C0B2C0F301131D
:105EF00003EB830300F00F0000EB4300387007F062
:105F000049FF03685B699847C0B2C0F30012930071
:105F1000134400F00F0000EB4300307007F03AFF2D
:105F200003685B699847C0B2030903EB830300F081
:105F30000F0000EB430028702046BDE8F84F07F043
:105F400066BA2DE9F04F07468DB008460C4606F0BC
:105F50009FFA8046204606F093FA8146204606F0D6
:105F600087FA8246204606F0A3FA0546204606F048
:105F700097FA0646204606F0A5FA8346204606F024
:105F8000ABFA0A22014604A805F0C1FF04A90222C7
:105F900008A806F06BF808A806F06FF8044608A8F1
:105FA00005F0E8FEE4B25FFA8BF3F6B2EDB20293CD
:105FB0005FFA89F25FFA8AF35FFA88F13846039450
:105FC00001960095FFF79EFE04A805F0D3FE0DB0E4
:105FD000BDE8F08F00B591B00DF11B0303930DF1F7
:105FE0001A0302930DF11903019306AB00930DF10F
:105FF00016020DF117030DF11501FFF715FF9DF8BE
:106000001B30252B84BF00238DF81B309DF81530E5
:1060100007939DF8163008939DF8173009939DF863
:1060200019300A939DF81A30013B0B939DF81B30F1
:1060300007A864330C930AF063FF11B05DF804FB0A
:1060400004F0E6BD7047000038B50C46054628222E
:10605000002120460AF070FE0B220A4920460BF070
:1060600056FE00230122E372E260AA686362064BD7
:10607000A36100232261E3610522044B6261236274
:1060800038BD00BF25440E0000E0AB476F12833AD5
:1060900010B51021044607F0B1FE204610BD0000E7
:1060A000044A0260002202734271102282718160F0
:1060B000704700BF38450E008079704740797047BF
:1060C0004FF6FF73994210B539D09A4237D04379D1
:1060D000013BDBB2042B97BF1A4CDFED1B5A04EBDC
:1060E0008303D3ED005A8379202BB7EE007A08D0D2
:1060F000302B09D0102BF3EE096A18BFF0EE476A77
:1061000004E0DFED126A01E0DFED116A07EE901A9C
:1061100006EE102AF8EE677AB8EE466A65EEA66AD1
:1061200086EE275A77EEC67A37EE457A9FED096AF2
:1061300067EE277A86EE867A87EE870A10BD9FED96
:10614000060A10BD1C450E000000C8420000D643E0
:1061500000501A460000CC430000000010B50C4669
:1061600007F018FE292107F036F907F013FE03683F
:1061700021469B68984707F00DFE07F033F907F0BA
:1061800009FE0122292107F01FF907F003FE036829
:106190005B699847C0B210BD10B50C4607F0FAFD18
:1061A000292107F018F907F0F5FD036821469B68DF
:1061B000984707F0EFFD07F015F907F0EBFD022215
:1061C000292107F001F907F0E5FD03685B699847AD
:1061D000044607F0DFFD03685B69984744EA002046
:1061E00080B210BD38B514460D4607F0D3FD292105
:1061F00007F0F1F807F0CEFD036829469B68984741
:1062000007F0C8FD036821469B68984707F0C2FD68
:10621000BDE8384007F0E6B838B5037B04460D46C4
:1062200073B1204600F02EF86279A57120462A430A
:10623000A121FFF7D7FF2046BDE8384000F032B873
:1062400000F003F80028ECD138BD38B5044607F05B
:10625000A1FD07F085F8B2212046FFF77FFF502807
:106260000ED1012561792573204600F02BF8A17924
:106270002046FFF7D1FF204600F014F8284638BD2D
:10628000002038BD10B5037B044633B1204693226D
:10629000A021BDE81040FFF7A5BFFFF7D6FF0028FB
:1062A000F4D110BD10B5037B044633B12046002263
:1062B000A021BDE81040FFF795BFFFF7C6FF0028FB
:1062C000F4D110BD38B5037B04460D4673B12046AA
:1062D000FFF7D8FFA279657120462A43A121FFF775
:1062E00081FF2046BDE83840FFF7DCBFFFF7ADFF78
:1062F0000028ECD138BD38B5037B054623B12846CC
:10630000FFF7C0FF002404E0FFF79FFF0028F6D14D
:1063100038BD6A79E3B29A4204F1010403D37820CC
:1063200006F004FAF5E7B4212846FFF735FFB62159
:1063300084B22846FFF730FF44EA00442846FFF7BE
:10634000B1FF204638BDF8B505460C46FFF7D3FF30
:106350002846FFF7D0FF242706463A46002120466C
:106360000AF0EAFC2760AB6863600523A36004F0D1
:10637000F7FC320C2061B1B22846FFF7A1FE84ED94
:10638000050A0120F8BD04F043BC04F041BC70478D
:1063900030B585B0054607F0FDFC5C2107F01BF821
:1063A000022006F0C3F907F0F5FC07F01BF807F030
:1063B000F1FC5C2107F00FF807F0ECFC0321FFF77C
:1063C0007AFC07F0E7FC0021FFF775FC07F0E2FC20
:1063D0000421FFF770FC07F0DDFC07F003F80A204A
:1063E00006F0A4F907F0D6FC08225C2106F0ECFFC9
:1063F000002407F0CFFC03685B69984701AB185590
:106400000134082CF5D19DF80430032B34D19DF8CC
:106410000530042B30D19DF806309FED196A07EE48
:10642000103A9DF8073007EE903AB8EE477AF8EE4A
:10643000E77AF2EE046AE7EE067A9DF8083003F098
:106440007F0287EEA67ADB094FF0010085ED007A26
:1064500007EE102A9DF8092007EE902AB8EEC77AB9
:10646000F8EEE77AE7EE067A87EEA67A18BFB1EE85
:10647000477A85ED017A00E0002005B030BD00BF0D
:106480000000804310B5044607F084FC06F068FF66
:106490002046BDE81040FFF77BBF70B504460E46AE
:1064A0001546FFF775FF18B16368336023682B60EA
:1064B00070BD04F0ADBB04F0ABBB04F0A9BB10B5DC
:1064C0000446243001F0E4F828B104F50C70BDE86E
:1064D000104001F0DDB810BD411E00F10A0200209D
:1064E000430843EAC01011F8013F53FA80F08A4292
:1064F000C0B2F5D1704738B5CB6804460D4623B914
:106500008968BDE8384000F082BC242200210AF0EE
:1065100013FC102301202370A070AB68A360EB680C
:10652000236238BD2DE9F0438BB003780025804607
:106530000E4617468DF804508DF8055063B10C2AAD
:106540000AD90EE0414601A8FFF7D5FF20B101248A
:1065500098F80330A3420BD24FF0000986F8009060
:1065600055E0C378002BEDD100F0B4FB81464EE03E
:10657000B8F80410091B490101A800F043FD814649
:106580000028E9D0002101A800F01FFD0028E3D079
:10659000C37A0F2BE0D1037803F01F039C42DBD1B9
:1065A000631E0D225A4306EB020E0023042BD9B2C0
:1065B00004D800EB4301B1F801100BE00A2995BFA4
:1065C00003F1FF31591C00EB410100EB410194BF85
:1065D000C988898861B1974210D97E2994BFC9B210
:1065E0003F210EF8031001330D2B02F10102DDD122
:1065F000974203D90378590648BFB554F31903F8F5
:10660000015C03785B0602D40134E4B2A0E748469B
:106610000BB0BDE8F08300002DE9F0470378202B94
:1066200000F1010401D12046F8E7704F886005466B
:106630002C1A2E4615F8013B0BB32F2B01D1031951
:1066400017E05C2B02D10020BDE8F087A3F1220403
:10665000E4B21D2C03D827FA04F4E407F3D403F0C2
:10666000BF043C2CEFD0203B5E2BE1D9EBE72F2D74
:1066700005D11E4613F8015B202DF8D1F9E716600D
:1066800003199842C0EB030809D013F8012D2E2AF4
:10669000F7D0202AF5D0B8F1FF0FD4DC01E04FF09D
:1066A0000008C1F8048001F10C0301F11702202455
:1066B00003F8014F9342FBD103461A1A13F8014B1A
:1066C0002E2CFAD0202CF8D0B2FA82F4640908F10A
:1066D000FF36731C07D100274FF0070E3D46BA4620
:1066E0004FF0080909E0835D2E2BF4D0013EF0E75E
:1066F000835C202B04D1002401324245F8DB4BE0BF
:106700002E2B02D1B242F6D103E0222B17D07C2BE4
:1067100015D0A3F12A0CBCF1050F01D82D2B0ED1F9
:10672000A3F13A0CBCF1050F09D9A3F15B0CBCF144
:10673000020F04D9A3F1210CBCF15D0F02D9B242C2
:106740000ED149E0B24247D0754521D8A3F1610C82
:10675000BCF1190F08D8203BDBB249EA07070AE071
:10676000754515D800245F23A3F1410CBCF1190F26
:1067700098BF49EA0A0A05F1010C5FFA8CFC0D4446
:10678000BCF1060F6B7301D881F80CC06546B3E706
:10679000BEF10A0F17D100244B7B202B3FF453AFDF
:1067A0003CB11AEA070F18BF02270F700120BDE89D
:1067B000F0870B7B0120087019447E234B73312333
:1067C0008B73BDE8F087B242E5DC32464FF00A0E2B
:1067D00008254FF010098EE7BEF10A0FDBD03246D4
:1067E0004FF00A0E08254FF0100985E7010100312E
:1067F000F0B58BB000238DF804308DF805300378A8
:106800001907044608D583789A0705D5016A29B186
:10681000A06801F02EF808B9002049E001212046C7
:1068200000F0BCFA05460028F6D0FFF755FEE52635
:106830002E70002307462370A068FFF740FE002853
:10684000EAD0E378002B33D0214601A8FFF753FEAE
:106850000028E1D00125E378AB42DDD3A188491BB4
:10686000490101A800F0CEFB0028D5D0002101A8E5
:1068700000F0ABFB0028CFD0C37A0F2BCCD102782D
:1068800002F01F039D42C7D1437BBB42C4D10670B7
:10689000A16891F8243043F0010381F824305306B5
:1068A00003D5A068FFF70BFE02E00135EDB2D2E799
:1068B0000BB0F0BD2DE9F84391F80C9006460D465B
:1068C00002247E2701F10D086968AA6863189BB24B
:1068D0001144914206D012F8010B03EB43134340DD
:1068E0009BB2F6E7B9F1030F28BF4FF0030909F196
:1068F0000402D2B203F00F01A818013A0929D2B25A
:1069000094BF30313731914541734FEA1313F1D3BE
:1069100005EB090300215F73304600F073FB012192
:10692000304600F052FB014628B97078B0FA80F08A
:106930004009BDE8F88303784BB1C37A1B07EED456
:106940000B2240460AF0DEF90028E8D102E00120DF
:10695000BDE8F8830134A4B2642CB5D1BDE8F88356
:106960002DE9F04F9B460B7889B013F0700F05901E
:106970000E46914601D10020A0E1059B1B78002B1B
:10698000F9D15368029313789B0700F08D81029B25
:106990000D270C33B3FBF7F70137FFB20021304668
:1069A00000F030FB4FF0000809F10D02CDF80C802B
:1069B000434644464546CDF81080069272690793D7
:1069C00001213046C2F34F1A00F0FFFA079B20B9AD
:1069D0007378002B00F09080CDE70278E52A00D094
:1069E00042B9002C08BFD046BC423CBF0134E4B2DF
:1069F00022B981E0BC4238BF002403E0E52A01D17E
:106A00000025DBE72E2AFBD0C17A0F2952D13DB9F0
:106A10005106D3D5437B039302F01F052B4607E0B5
:106A2000013BDBB29A42EBD1427B03999142E7D121
:106A30005A1E4FF00D0C0CFB02FC029A6245DFD986
:106A40004FF0000EBEF1040F5FFA8EF204D800EB97
:106A50004E02B2F801200CE00A2A95BF0EF1FF3277
:106A60000EF1010200EB420200EB420294BFD28819
:106A700092880299614503D1002A18BF00259DE73D
:106A8000FF2ABDD8D2B2A2F141011929D9F80810C4
:106A900011F80C1098BF20320CF1010AA1F1410C41
:106AA00098BFD2B2BCF1190F9CBF2031C9B291423C
:106AB000A6D1FBE00907A3D44DB1012B7FF45BAF56
:106AC000FFF70AFD039B83427FF455AF0FE00B22D3
:106AD000069907930AF016F9079B00287FF46EAF1A
:106AE00099F80020D20702D50122049266E71BF430
:106AF000006F00F0D1803EE71BF4007F3FF43BAF16
:106B00000BF00303013B012B3FF635AF002C08BF10
:106B1000D046BC4202D3049BCBB91FE000213046D3
:106B200000F053FA10B973785BB124E70134E4B292
:106B3000EFE7B3681B79012BEDD81034E4B2A7421C
:106B4000E9D9304600F0EAF80028F2D113E74946C7
:106B50003046FFF7AFFE00283FF40DAF4FEA481173
:106B6000304600F04FFA00283FF405AF7D1EEDB22D
:106B70002C464FF0000A4FF00F0841E0002130464C
:106B800000F023FA074600283FF4F5AEB26892F809
:106B90002430AC4243F0010382F824300CBF44F0AF
:106BA00040022246027080F80B8080F80CA009F1A8
:106BB0000D000392FFF790FC039A787387F81AA0F0
:106BC00087F81BA002F01F020D23013AD9F808E054
:106BD0005A4300230299914215D91EF80210042B42
:106BE0005FFA83FC03F1010013D807EB4303A3F81A
:106BF00001100D2802F101020346EBD1013CE4B281
:106C0000002CBBD10EE014BF4FF0FF31002189B240
:106C1000E5E7BCF10A0F94BF07EB430307EB400322
:106C20009980E6E7736921463046C3F34F1A00F0B6
:106C3000CCF9074600283FF49EAE202221460AF0F8
:106C40007BF84B4653F80D2F3A605A687A601A89E0
:106C50003A819B7ABB7299F8003003F018033B73BA
:106C6000184B1B682BB107F10E0107F11000984774
:106C700006E021233B7428237B740823BC73FB7339
:106C80003B8A7B823B83FB89FB82B26892F824308B
:106C900043F0010382F8243000955B4652463146AA
:106CA000059800F0F8F909E0012777E60EF1010EEA
:106CB000BEF10D0F3FF482AED446C3E609B0BDE885
:106CC000F08F00BF9CE0032003F0A2BF03F0A0BF41
:106CD00003F09EBF10B50C46017809B9002010BD25
:106CE00011F0600104D02F2323700023637006E0AD
:106CF00000F054F80028F1D0214600F05EF80120A1
:106D000010BD03F085BF8378016943F004038370ED
:106D100000F11002806800F071BD00002DE9F04123
:106D2000037803F02003044603F0FF050BB10026AF
:106D30002EE04269184B9A42F9D8FFF7E4FF064665
:106D40000028F4D02169A06800F0EDFC0746A06897
:106D500005223946243000F0C2FC80460028E6D0E7
:106D600029464FF4007209F0E7FF0125A3681A795C
:106D7000AA4209D94246E919186801F02DF80028FD
:106D8000D5D00135EDB2F1E7636903EB42236361CE
:106D90003046BDE8F08100BFFFFD1F0010B504467E
:106DA00080680A462430A16900F099FC20B1A388CC
:106DB00003F00F0300EB431010BDF0B50024451E97
:106DC000082623462E2715F8012F202A18D0082C34
:106DD00002BFCF545A1CD3B22A78A2F1410E08BF89
:106DE0001026BEF1190F06D890F80CE016EA0E0F27
:106DF0001CBF2032D2B203F1010ECA545FFA8EF3E7
:106E000001340B2CDFD10022CA541846F0BD70B5F6
:106E1000047805460E4684B92422214609F08CFFE9
:106E2000AE60F379102B03D0202B06D1402300E075
:106E3000202301202B70A87070BD002070BD2DE9AB
:106E4000F74F03780446894615464BB18278D1073F
:106E500006D50CE05A46216900F06BFC00283DDAAB
:106E6000637843F0020363704FF0FF3097E01A0736
:106E700003D5E36962699B1A07E09A0608D5A368FF
:106E80001A896369C3EB42139BB29D4228BF1D461A
:106E90002E464FF0000804F1100B002E35D022785A
:106EA0006369A06812F0200FC3F3080A4FEA532168
:106EB00002D0036A19441DE090F8058001EA080831
:106EC000BAF1000F10D1B8F1000F0DD1002BC1D1D4
:106ED00053064CBF036A236A236105E004D123787B
:106EE00013F0700F11D1BBE72169A06800F01BFC03
:106EF00008EB0001A068BAF1000F35D1B6F5007FAC
:106F000032D3C36A994202D12EE0A81B47E0B6F5FE
:106F1000806F1BD3227897064FEA562A06D402794F
:106F2000C8EB0202D2B2924528BF924699424FEA7C
:106F30004A2707D2A06853464A46006800F00AFF75
:106F400060B98DE75344994221D3F3E74A4600687C
:106F500000F0B8FE002883D04FF4007763693B440B
:106F6000B9446361F61B98E70022243000F0B7FBB8
:106F700000283FF475AFCAF50077B74228BF3746FF
:106F800000EB0A013A46484609F0CBFEE6E724301A
:106F9000019100F07DFB01990028CBD160E703B09F
:106FA000BDE8F08F73B501220DF107010446466973
:106FB0000569FFF744FF012805BF9DF807006661DA
:106FC0004FF0FF30256102B070BD37B54369C3F3A0
:106FD0004315044605B169B901220DF107012046A8
:106FE000FFF72DFF40B2012801D0002008E06369BF
:106FF0001F3300E02033A0686361303000EB4510A0
:1070000003B030BD2DE9F0410E4601780769044612
:10701000002939D04569B5423AD00EB9066131E050
:107020000B0703D5C3699E422ED807E0880605D515
:10703000A3681B89B6EB431F26D823E0D4F808E0E9
:107040009EF806306A1E03F10900731EC240C34059
:107050009A4200D84DB94A064CBFDEF82020226A79
:1070600022611D4604F110080AE09B1AF9E7424626
:107070002169A06800F05DFB002805F1FF3503DD04
:10708000002DF4D1666103E027610020BDE8F081A6
:107090000120BDE8F081F8B50F46154600212422F5
:1070A00004461E4609F048FEB868A06005F00F02CD
:1070B000A58000F1300152013B6AE3601144CB7AB4
:1070C0001D074CD4831893F83B3003F0170323704B
:1070D000C97A11F0180F04BF43F0080323709DF81C
:1070E0001830E37006F00303012B09D0022B05D002
:1070F000002B34D1710532D4012302E0032300E0D8
:107100000223A370A1788B0703D5237813F0110F06
:1071100025D14BB216F4005F06F0080114BF6FF0E2
:107120007F07002719433943A170C36AA361024452
:107130007505B2F84410B2F84A3043EA014104D56B
:1071400081B100F096FB68B909E02162D36CE3617C
:1071500073040CD5E1692046FFF754FF38B90020CD
:107160002070F8BDA37843F00403A370F0E701207A
:10717000F8BD2DE9F743037806460D46174653BB85
:107180000B7813F0700F26D04C6914F01F0422D135
:10719000A04600212846D5F81490FFF716FFD0B17D
:1071A0000378C3B12E2B01D10024F2E7E52BFBD0ED
:1071B000C17A11F0080F05D17CB1FFF78DF9804538
:1071C00009D10AE00F29EFD15906E2D503F01F04D7
:1071D00090F80D80DDE7002007E000943B46C9F3FE
:1071E0004F1229463046FFF756FF03B0BDE8F08343
:1071F00038B5037804460BB9012038BD83785A07A7
:1072000023D50121FFF7CAFD054628B9637843F06D
:1072100001036370002038BD0378E52BF6D0237896
:107220001B0744BFE369C361238C4383638C838260
:10723000094B1B682BB100F11601183098472B8BB6
:107240006B82A37823F00403A370A068FFF737F9DB
:107250000028DBD0D0E700BF9CE0032010B5044637
:10726000FFF7C6FF0023237010BDF0B593B01F4693
:1072700000238DF824308DF82530037801920646DE
:107280000C460BB100203DE00B7813F0700FF9D0E5
:1072900013782F2B12D1019B1A782F2A02D1013398
:1072A0000193F8E7A1681AB93046FFF7B0FD29E06D
:1072B00009A8FFF7ACFD0028E4D009AC01AA03A996
:1072C0000198FFF7A9F90028DCD0019B1B789BB13E
:1072D000002303AA21463046FFF742FB0028D1D005
:1072E00035460FCD09AC0FC40FCD0FC42B682360FA
:1072F0003046FFF7B3FFE0E73B4603AA214630469E
:10730000FFF72EFB13B0F0BD00B58BB000238DF856
:1073100004308DF805300A460123014601A8FFF725
:10732000A4FF10B101A8FFF763FA0BB05DF804FBEE
:107330002DE9F0410B7813F0700F88B004460F462A
:107340001CD040F60223FFF70BFBB8B10126102535
:10735000A67025702046FFF7E1FC78B1236923620F
:1073600000212046FFF74EFE2046FFF741FF28B1DF
:1073700031462046FFF712FD034608B9002051E0D0
:10738000C57202466E4600F1200C6D4610685168C9
:10739000B646AEE80300083262457646F6D1B3F849
:1073A00014805E8B2E238DF8003020210023EA18F4
:1073B00001330A2B5170FAD1216AA06800F0B3F9A9
:1073C000A3680146012203F1240000F088F9034676
:1073D0000028D3D0ADF81A60ADF81480AE4606464A
:1073E0000DF1200C724603CA62453060716096460A
:1073F00006F10806F6D12E228DF801203A6AADF882
:107400001A20110CADF81410203308AE2A4603CA16
:10741000B24218605960154603F10803F6D1A0681E
:10742000FFF74DF808B0BDE8F081F0B593B01F4606
:1074300000238DF824308DF825300378019206461C
:107440000C46002B3ED10B7813F0700F3AD0137816
:107450002F2B0CD1019B1A782F2A02D101330193D3
:10746000F8E7A16809A8FFF7D2FC58B309AC01AA54
:1074700003A90198FFF7D0F820B3019B1B78DBB17B
:10748000002303AA21463046FFF76AFA58B1354671
:107490000FCD09AC0FC40FCD0FC42B68236030464D
:1074A000FFF7DCFEE2E76FB103AA21463046FFF7A3
:1074B0003FFF0028EBD105E003AA21463046FFF745
:1074C00037FF00E0002013B0F0BD00002DE9F047C9
:1074D0000378894619070446904608D583789A07A9
:1074E00005D51B070BD5E169FFF78CFD38B963782B
:1074F00043F0010363704FF0FF30BDE8F08763692C
:10750000DB439845F3D846464FF0000A6369002EE6
:1075100000F08180A068427912EA5325C3F308077E
:107520001CD1DFB9216971B104F1100200F001F939
:107530000028DCDB40F08E802046FFF7E4FB0028CB
:1075400040F08880D3E7236A3BB92046FFF7DBFB96
:107550000028CCD02369236200E023612169A06860
:1075600000F0E1F8291817B9B6F5007F21D2C7F568
:107570000075B54228BF354637B96369E269934261
:1075800034BF0122052200E00122A068243000F06F
:10759000A6F80028ABD038442A4649462F4409F0C3
:1075A000C0FBB7F5007F30D1A068243000F070F840
:1075B00017E0B6F5806FA06815D30279521B730AE5
:1075C000D2B2934228BF1346C26A91424FEA432582
:1075D00002D31A44914237D3A7684A46386800F06C
:1075E0006DFC90B983E7C36A994202BF4FF0FF3345
:1075F00080F824A0C362A3684A46186800F0ECFB38
:1076000000283FF474AF4FF4007563692B44636145
:10761000A944761B7AE7E269934201D9E36102E06B
:107620000F4B1B681BB1A37843F00403A37094F9BC
:107630000230002B02DB4046BDE8F0872046FFF712
:10764000D7FD0028F7D152E74FF0FF3280F824A091
:10765000C262C1E72169A06800F065F8014683E7CE
:107660009CE0032003F0D4BA70B505460C460846EA
:1076700049B10AF02FFB2B68024621462846DB68F9
:10768000BDE87040184770BD03F0C2BA03F0C0BA3D
:1076900070B50378DA0704461ED54368816800F1A7
:1076A0000C063246186800F097FB054608B900251D
:1076B00013E023789B0704D4237823F0010323707D
:1076C0000BE06368A068196932460144186800F04D
:1076D00083FB0028F0D1EAE70125284670BD70B58C
:1076E00083688B4204460E46154614D0FFF7D0FF40
:1076F00008B9002070BD6B0703D500232370A66076
:1077000009E0636804F10C023146186800F0DAFA07
:107710000028F2D1EDE72378204605F003051D434C
:1077200000F80C5B70BD83794069023999400844C8
:107730007047012970B505460C46164602D84FF031
:10774000FF3070BDC3699942F9D8C379202B10D19D
:107750008169022201EBD41100F50C70FFF7BFFF25
:107760000028ECD004F07F0450F8243023F070435C
:107770000FE0102BE3D18369C1F3072102221944E2
:1077800000F50C70FFF7ABFF0028D8D0E4B230F85A
:107790001430EA6993429ABF33600120002070BD23
:1077A000012938B50C46154601D8002038BDC369FB
:1077B0009942FAD8C379202B0ED18169032201EBBB
:1077C000D41100F50C70FFF78AFF0028EDD004F00B
:1077D0007F0440F824500FE0102BE6D18369C1F3F9
:1077E00007210322194400F50C70FFF778FF0028E9
:1077F000DBD0E4B220F81450012038BD2DE9F3416C
:10780000C4688C4205460E46904607D20C460027B7
:10781000EB6901349C4203D9CFB9EC680127F7E743
:10782000A64214D001AA21462846FFF782FF00286D
:107830000DDBEDD0019B002BEAD107B1EC606FF0BE
:10784000704221462846FFF7ABFF074608B90027DC
:107850000BE016B9C8F8004007E02246314628463A
:10786000FFF79EFF0028F5D1F1E7384602B0BDE8EA
:10787000F08173B505460C4601AA21462846FFF75C
:1078800058FF061E01DA00200FE00022214628469C
:10789000FFF786FF0028F6D0EB689C429CBF04F1FE
:1078A000FF34EC60019C002EE6D102B070BD70B5D3
:1078B000012304460022C3604FF0FF33C2710D461E
:1078C000A06280F82420C362C4F8340280F8302219
:1078D000C0F83832A1B104295DD811462430FFF731
:1078E000FEFE002857D000EB051393F8AE315B067F
:1078F00051D11B3500EB0515D5F80650002D4AD0A7
:107900000022294604F12400FFF7E9FE002842D0B6
:10791000B0F80B30B3F5007F3DD1037C022B3AD198
:10792000C389002B37D0417B21714B1E637100232B
:10793000A371092601238B4207D0013E2BD0A279E7
:107940005B000132DBB2A271F5E7C28A02B9426A7A
:107950002261C6892E44A661B0F81130238106EB5E
:1079600042012162B0F81120520102F2FF1201EB34
:1079700062226261B0F8133003B9036AAD1A2B4476
:10798000A57923FA05F56B1CE36140F6F4739D427B
:1079900003D80C23E371002070BD4FF6F4739D42B1
:1079A00085BFC36A236210232023E371012070BDC9
:1079B00003F02EB903F02CB903F02AB970B50E4CC0
:1079C0000E46154603F0C4F92368C01A0B4B9842C3
:1079D00008D903F0C5F90A4B186003F05FFC03F007
:1079E000B7F9206003F0BCF980B2801BA842D4BF75
:1079F0000020012070BD00BFA0E00320A086010090
:107A000008E6032038B5057A04464DB9406800F011
:107A10007DFA63682946187D06F071F90123237207
:107A200038BD10B5037A04466BB143680121187D57
:107A300006F065F9FF21606800F09AFA606800F0CE
:107A400079FA0023237210BDF8B504460D46164698
:107A500003F086F987B2606800F06FFAFF28607261
:107A600009D14FF47A7239462046FFF7A7FF002864
:107A7000F1D055230BE0FE2801D0502307E0324619
:107A80002946606800F05EFA607230B160232046DB
:107A90002370FFF7C6FF0020F8BD606800F04DFAC4
:107AA000606800F04AFA0120F8BD70B504460E4641
:107AB00003F056F985B2324629462046FFF77EFF8D
:107AC00030B9606800F039FAFF28F4D1012070BDA8
:107AD000002070BDF7B5037A019204460D460BB93C
:107AE000FFF790FF25B14FF496712046FFF7DDFFB9
:107AF00045F04001606800F03BFA0DF107060DF11A
:107B0000030716F80119606800F032FABE42F8D196
:107B1000002D0CBF95218721606800F029FA60686C
:107B200000F00BFA0B25606800F007FA030660729C
:107B300003D5013D15F0FF05F5D103B0F0BD70B5DB
:107B400004460D46164637210022FFF7C3FF324692
:107B500029462046BDE87040FFF7BCBF2DE9F04143
:107B600000250572057085724160044690461E46E8
:107B700003F0F6F841460746606800F0CBF9636809
:107B80004F4A1D724FF00108DA605D7483F810806F
:107B90002046FFF737FF63684146187D06F0AFF8CF
:107BA0000A25FF216068013D00F0E2F915F0FF05AC
:107BB000F7D163682946187D06F0A1F80A2500224E
:107BC00011462046FFF786FF0128804612D0013D6E
:107BD00015F0FF0501D1202357E0FD21606800F07A
:107BE000C7F94FF40278606800F0A7F9B8F101080E
:107BF000F9D1E4E74FF4D57208212046FFF76AFF78
:107C0000052802D184F80A800FE00425606800F09E
:107C100094F9013D15F0FF056072F7D1AA2802D151
:107C20000223A37201E025232FE0A37A022B0CBFCD
:107C30004FF080450025BFB22A4629212046FFF794
:107C40007EFF024648B14FF4FA6239462046FFF7FC
:107C5000B5FE0028F0D0432317E0A37A022B0ED004
:107C60002046FFF7DEFE6368B0683479317B727BB3
:107C70005A74D8601C7219740120BDE8F0813A2151
:107C80002046FFF727FF38B1372320462370FFF740
:107C9000C8FE0020BDE8F081606800F04EF900F0F9
:107CA000C000C02804BF0323A372606800F045F938
:107CB000606800F042F9606800F03FF9D0E700BF6B
:107CC00090D0030038B5837A032B18BF49021546BC
:107CD0000A4611210446FFF7FDFE10B13023237040
:107CE0000BE029464FF400722046FFF7ADFE054633
:107CF00018B12046FFF795FE03E02046FFF791FEFE
:107D00000025284638BD10B5837A032B0A4618BFD4
:107D10004A0212210446FFF7DDFE30B1312320462E
:107D20002370FFF77EFE002010BD012010BD10B5AE
:107D300000220C210446FFF7CDFE30B12823204657
:107D40002370FFF76EFE002010BD2046FFF769FE8E
:107D5000012010BDF8B5054616461F46FFF7D3FFB4
:107D600098B10024A3B29F4206EB442108D94FF4F6
:107D700000722846FFF768FE01340028F2D104E0C3
:107D80002846BDE8F840FFF7D2BF0020F8BD38B55F
:107D900004461546406800F0EBF84FF4007229469F
:107DA000606800F0E9F8FF21606800F0E1F8FF2169
:107DB000606800F0DDF8606800F0BFF8607200F005
:107DC0001F00052806D0572320462370FFF729FE01
:107DD000002038BD012038BD70B5837A032B18BF51
:107DE000490215460A4618210446FFF773FE064667
:107DF00008B132231DE02A46FE212046FFF7C7FFC7
:107E0000C0B14FF4FA612046FFF74FFE054608B9AE
:107E10005A230EE032460D212046FFF75BFE38B9AB
:107E2000606800F08AF818B92046FFF7FAFD05E00F
:107E3000292323702046FFF7F4FD0025284670BD56
:107E400038B50D464FF4FA610446FFF72EFE10B91F
:107E50005B23237005E02A46FC212046FFF797FFAD
:107E600018B92046FFF7DDFD002038BD10B5837A34
:107E7000032B0A4618BF4A0219210446FFF72AFEBF
:107E800030B1332320462370FFF7CBFD002010BD17
:107E9000012010BD38B54FF4FA610446FFF705FE26
:107EA000054620B1FD21606800F062F801E056232C
:107EB00023702046FFF7B5FD284638BDF8B50546C6
:107EC00016461F46FFF7D2FF70B10024BC4206EBF6
:107ED0004421284604D0FFF7B3FF28B10134F5E769
:107EE000BDE8F840FFF7D6BF2846FFF79AFD00200F
:107EF000F8BD02F08DBE02F08BBE02F089BE00001C
:107F0000014B01221A707047A4E00320011D006894
:107F100003F0FCBA10B504460175006803F0CCFA12
:107F2000207D012105F0DAFE207D0121BDE8104011
:107F300005F0E5BE006803F0D0BAFF21006803F049
:107F400055BB000037B5084B00930025074C00686F
:107F5000257013460A46294603F04EFB2378002B72
:107F6000FCD0002003B030BD017F0D00A4E0032051
:107F7000006803F03BBB000037B5074B00930025BA
:107F8000064C0068257013462A4603F035FB23781B
:107F9000002BFCD003B030BD017F0D00A4E0032016
:107FA00002F036BE10B5044605F0F4FE0368214623
:107FB0009B68BDE81040184708B505F0EBFE036864
:107FC0005B699847C0B208BD38B504460D4605F058
:107FD000E1FE217841F0200105F0FDF92846FFF788
:107FE000E1FF05F0D7FE05F0FDF905F0D3FE21789D
:107FF000012241F0200105F0E7F9BDE83840FFF724
:10800000DBBF70B5064614460D4605F0C3FE317859
:1080100041F0200105F0DFF92846FFF7C3FF2046B5
:10802000FFF7C0FF05F0B6FEBDE8704005F0DAB915
:108030002DE9F0419DF81860072998BF1E4601F010
:1080400007079046314601240546BC40FFF7BCFFB8
:10805000B8F1000F01D0044301E020EA0404E2B2C9
:1080600031462846BDE8F041FFF7CBBF10B50729E0
:1080700028BF07210170044605F08CFE05F070F959
:108080002046FF220021FFF7BCFF2046FF220121EE
:10809000BDE81040FFF7B5BF0021FFF7E7BF07B508
:1080A0000123B2FA82F2009352090023FFF7C0FFC6
:1080B00003B05DF804FB0829F8B501F007060C468B
:1080C00034BF1421152105461746FFF77DFF012314
:1080D000B3400FB1034301E020EA0303082CDAB2F6
:1080E000284634BF12211321BDE8F840FFF789BFAD
:1080F00007B50D2300930C23FFF79AFF03B05DF83B
:1081000004FB02F085BD01757047000038B5846935
:108110000A4B036005467CB16368013B63605BB951
:10812000236820469B689847A368013BA3601BB95E
:1081300023682046DB689847284638BDCC500E009F
:1081400010B50446FFF7E2FF20461C2105F056FE5D
:10815000204610BD30B5064D0560002505758360CD
:1081600041F28835039B85614160C360026130BD87
:1081700058460E002DE9F0410D461746064604F01C
:1081800041FF1C4903F0F7FF00241B4805F06AFC7F
:1081900068BB052C01D1BDE8F081337DC3B104F08B
:1081A00031FF164903F0D0FF04F02CFF294603F0FD
:1081B000CBFF04F027FF124903F0C6FF04F022FFB3
:1081C0000A228046214603F0E2FF404603F0C7FF43
:1081D000094805F0D3FB0023BAB22946064805F04A
:1081E000D1FA4FF47A7004F0A1FA0134CDE7BDE87A
:1081F000F08100BF4C450E00A8E0032064450E004E
:108200007A450E0070B5054600240D4805F0CEFBFA
:10821000064610B9AB699C4201DB012070BD01200C
:1082200004F084FAAB6901349C42EEDB287D30B166
:1082300004F0E8FE034903F09EFF304670BD70BDB8
:10824000A8E003208E450E002DE9F843037D064685
:10825000884615464BB104F0D5FE264903F08BFF46
:1082600004F0D0FE244903F086FF002440F2BB292D
:10827000224805F09BFB78B1204805F040FA337D99
:10828000C7B22BB104F0BEFE036839469B6898471D
:108290002F5501344C45EBD1337D23B104F0B2FEB0
:1082A000174903F068FF00232B55164B98450DD155
:1082B0001549284609F03EFDDFED147A0028B7EE97
:1082C000000A08BFB0EE670ABDE8F8837C212846A3
:1082D00008F0B0FF50B1013008F0FEFB51EC100B7C
:1082E00008F0BEF900EE100ABDE8F8839FED070A1A
:1082F000BDE8F883D5450E00C1450E00A8E0032077
:10830000D4450E00E0450E00E5450E005F42A2CDCB
:1083100070B52DED028B044600230E4615464168CC
:10832000494842F2343205F02DFA204642F2343206
:108330006168FFF71FFF444805F04DF9002877D02A
:10834000A168414803F000FF40493F4803F0FCFEAC
:10835000E1683D4803F0F8FE3D493B4803F0F4FE78
:108360003146394803F0F0FE3A49374803F0ECFE55
:108370002946354803F0E8FE3749334803F0E4FE68
:10838000237DB3B304F03EFE344903F0F4FE04F061
:1083900039FE334903F0EFFE04F034FEA16803F028
:1083A000D3FE04F02FFE294903F0CEFE04F02AFE8E
:1083B000E16803F0C9FE04F025FE254903F0C4FE80
:1083C00004F020FE314603F0BFFE04F01BFE2149FD
:1083D00003F0BAFE04F016FE294603F0B5FE04F0E1
:1083E00011FE1D4903F0B0FE04F00CFE1D4903F020
:1083F000C2FE2046FFF706FF28B9134805F0BEFA73
:108400009FED190A1DE04FF42F7002F07FFF17490E
:10841000024605462046FFF717FF0B48B0EE408A9C
:1084200005F0ACFA284602F079FFB0EE480A08E001
:10843000237D002BE1D004F0E5FD0D4903F09BFE08
:10844000DBE7BDEC028B70BDA8E00320E8450E0021
:10845000EB450E0044470E0082470E0003460E0017
:10846000ED450E0002460E005F42A2CD08460E000A
:108470000B460E0070B52DED028B04464168224874
:1084800042F234321D46002305F07CF9204642F2C8
:1084900034326168FFF76EFE1B4805F09CF830B37C
:1084A0002946194803F050FE2046FFF7ABFE05466B
:1084B00020B9154805F062FA002521E0642002F099
:1084C00025FF1249024606462046FFF7BDFE30460C
:1084D000B0EE408A02F022FFDFED0D7AB4EE678A3B
:1084E000F1EE10FAE5D0084805F048FA08E0237DDF
:1084F000002BDED004F086FD064903F03CFED8E7F1
:10850000BDEC028B284670BDA8E00320E0450E00BC
:108510005F42A2CD31460E0010B5064C02F078FB4A
:10852000204605F0E3FA2046034A0449BDE810401E
:1085300005F056BCA8E00320E8BC03200D810D0027
:1085400038B504460120607494F91000E56800EB2A
:10855000800045F8201094F91010E06801EB8101CB
:1085600000EB810181ED020A94F91010E06801EB43
:10857000810100EB81014A6094F91020E16802EB6F
:10858000820201EB8202D36094F91030E26803EBBF
:10859000830302EB8303049A1A61237C01335BB2E9
:1085A0000A2B237408DDA37C23B104F02BFD0349BF
:1085B00003F0E1FD0A23237438BD00BF64460E00BA
:1085C0008174406803689B681847000030B510EE5E
:1085D000100A87B00C4607F0F7FC01AD02460B46C7
:1085E0002846094902F0AAFE00221346A95C202968
:1085F00005D0E1540133DBB209B9E15402E00132A4
:10860000142AF3D107B030BDE7460E002DE9F04340
:108610000C4689B005464949204608F023FE00264D
:1086200095F910309E426ADA06EB8608EB684FEA4D
:1086300088073B440DF10C0993ED020A4946284690
:10864000FFF7C4FFEB68CDF8009053F828303C49A1
:108650002246204602F072FEEB683B44DB686BB3B7
:1086600022463849204602F069FEEB683B441B690C
:10867000FBB10A2093FBF0F191FBF0FC00FB1C1C0A
:1086800000FB1131C9B2642293FBF2F292FBF0FEBF
:1086900000FB1E2200915FFA8CF3D2B22A4902A895
:1086A00002F04CFE02AB22462849204602F046FE6C
:1086B00004E022462649204602F040FEEB681F44B3
:1086C0007B6823B122462349204602F037FE22462A
:1086D0002149204602F032FE013695F91030F6B2FB
:1086E0009E42224604DA1D49204602F027FE97E703
:1086F0001949204602F022FE00232B7490E7AB7C40
:10870000C3B104F07FFC164903F035FD04F07AFC98
:10871000144903F030FD04F075FC214603F02BFDF5
:1087200004F070FC0E4903F026FD04F06BFC0E49CA
:1087300003F021FD09B0BDE8F08300BFEC460E0058
:10874000EE460E0001470E0014470E001B470E00B8
:1087500020470E0026470E0035470E0039470E0011
:10876000D5450E003D470E00274A0E002DE9F04387
:108770000C46054689B05049204616461F4608F06B
:1087800071FDAB684D4A4E49204602F0D7FD334695
:1087900022464C490097204602F0D0FD22464A4925
:1087A000204602F0CBFD002695F910309E4264DA97
:1087B00006EB8608EB684FEA88073B440DF10C098D
:1087C00093ED020A49462846FFF700FFEB68CDF813
:1087D000009053F828303B492246204602F0AEFD77
:1087E000EB683B445B6823B122463849204602F0DF
:1087F000A5FDEB683B44DB6863B322463449204661
:1088000002F09CFDEB681F443F69F7B10A2097FB1B
:10881000F0F191FBF0F300FB131300FB1171C9B2EF
:10882000642297FBF2F292FBF0FE00FB1E22009105
:10883000DBB2D2B2274902A802F080FD02AB224689
:108840002549204602F07AFD04E0224623492046CD
:1088500002F074FD013695F91030F6B29E422246C0
:1088600004DA1F49204602F069FD9DE71D492046B4
:1088700002F064FD00232B7496E7AB7CC3B104F0D7
:10888000C1FB194903F077FC04F0BCFB174903F066
:1088900072FC04F0B7FB214603F06DFC04F0B2FB60
:1088A000114903F068FC04F0ADFB034903F063FCDD
:1088B00009B0BDE8F08300BF274A0E0046470E000E
:1088C0005A470E0066470E006E470E0073470E00B3
:1088D00079470E0014470E001B470E0020470E007C
:1088E00039470E0080470E00D5450E003D470E006B
:1088F0002DE9F74304464FF42F701F460E4690466D
:1089000002F004FDE37C013B012B054606D801463D
:10891000434632462046FFF729FF03E00146204642
:10892000FFF774FEA37C23B104F06CFB0D4903F048
:1089300022FC60680368009731464246D3F80090F5
:108940002B46C8470646284602F0E8FC0121384677
:1089500005F054FA002306B163743046237403B063
:10896000BDE8F08387470E0070B5044601200D4630
:108970001646FBF792FB067003462A462946204618
:10898000BDE87040FFF7B4BF70B506460C4684B131
:10899000E1683046FFF7F8FFE369A56823B104F109
:1089A00014010322084698472046FBF77AFB2C4621
:1089B000EDE770BDF0B58DB0044601A80D46174631
:1089C0001E4602F083FC03980130FBF768FB019917
:1089D000206008F047FC2A4633463946E67405A86D
:1089E00000F08EFDC82002F091FCE06005A800F0C8
:1089F00095FC0023606023740899A56006A8FFF722
:108A0000C3FF01A803F0B6F90DB0F0BD38B50025DD
:108A1000044605744574FFF7CDFF204638BD0000BD
:108A2000024B00221A7002F0F3B800BFC4E003202A
:108A30002DE9F0410446502023730D4616461F468B
:108A400002F064FCA0604FF48270FBF726FB8046C6
:108A500010B1294600F0DAFD237BC4F80080042B16
:108A60004FF014000CD0FBF718FB804620B13B46BA
:108A700032462946FFF7CAFFC4F80480BDE8F081FA
:108A8000FBF70BFB074620B1012332462946FFF7CF
:108A9000BDFF6760BDE8F08110B500230446437355
:108AA00083731346024AFFF7C3FF204610BD00BF81
:108AB00097470E0038B50446806802F02FFC256801
:108AC0003DB1284600F0BAFD4FF48271284605F00A
:108AD00095F9204638BD30B4057B029C042D03D1A6
:108AE000006830BC00F0B2BD0294406830BCFFF7B3
:108AF00027BD07B5002300931A46FFF7ECFF03B02C
:108B00005DF804FB4068FFF72FBF037B8173042BE4
:108B100002D04068FFF754BD006800F0EBBD08B517
:108B200002F076F8BDE8084002F01AB90175704706
:108B300070B50446142002F0E9FB0646142002F04A
:108B4000E5FB0546204609F0C5F822460023023819
:108B5000984217DD12F8011B0D2911D111780A294D
:108B60000ED151780D290BD191780A2908D1191D00
:108B700014222144304609F0CAF80023337501E07D
:108B80000133E5E70A21304608F054FB044600B300
:108B90000A21013008F04EFBD8B12146284608F0E2
:108BA00061FB284609F096F82844002300F8013CB0
:108BB000284607F091FF51EC100B07F051FD0446D9
:108BC000284602F0ABFB304602F0A8FB00EE104A4C
:108BD00070BD9FED010A70BD5F42A2CD30B5074D5B
:108BE00005600025057541F288358561836005259E
:108BF000039B05774160C360026130BDC0480E0031
:108C00002DE9F84305460F46904600241D48E6B27C
:108C100004F0E1FC98BB2B7FB34201D8BDE8F88398
:108C20002B7DC3B104F0EEF9174903F08DFA04F07F
:108C3000E9F9394603F088FA04F0E4F9134903F03E
:108C400083FA04F0DFF90A228146314603F09FFAE5
:108C5000484603F084FA00231FFA88F2394609488F
:108C600004F090FD2B7D23B104F0CCF9084903F00A
:108C700082FA4FF47A7003F059FD0134C6E7BDE87B
:108C8000F88300BFC8E0032064450E007A450E005B
:108C9000CC480E0070B54D1E0C4601F52F720646ED
:108CA0002B46002103F8011F9342FBD1337D4BB1CA
:108CB00004F0A8F9134903F05EFA04F0A3F912498D
:108CC00003F059FA04F2BA24104804F06FFE40B9D8
:108CD000337DB3B104F096F90D49BDE8704003F05F
:108CE0004ABA0A4804F00BFD05F8010F337D2BB199
:108CF00004F088F9036829789B689847A542E3D176
:108D0000E6E770BDD5450E00C1450E00C8E0032062
:108D1000D4450E0070B5054600240D4804F046FE0B
:108D2000064610B9AB699C4201DB012070BD0120F1
:108D300003F0FCFCAB6901349C42EEDB287D30B1D2
:108D400004F060F9034903F016FA304670BD70BDB7
:108D5000C8E003208E450E00F8B50F460269416851
:108D600004461E46FFF74CFF804804F034FC0546DD
:108D7000002800F0EC807E497C4803F0E5F9394694
:108D80007A4803F0E1F97B49784803F0DDF97A4944
:108D9000764803F0D9F96168744803F0D5F977494A
:108DA000724803F0D1F97649704803F0CDF9A16813
:108DB0006E4803F0C9F971496C4803F0C5F971496F
:108DC0006A4803F0C1F9E168684803F0BDF96B49EE
:108DD000664803F0B9F96C49644803F0B5F96B498A
:108DE000624803F0B1F9304608F074FF684905465F
:108DF0005E4803F0A9F9002D05DA2D215B4803F048
:108E0000A7F9694200E029460A22584803F0BFF951
:108E10006049564803F098F93146544803F094F9F4
:108E20005649524803F090F9504804F0D3FB237D93
:108E3000002B71D004F0E6F8574903F09CF904F0D8
:108E4000E1F84B4903F080F904F0DCF8394603F00F
:108E50007BF904F0D7F8474903F076F904F0D2F82B
:108E6000454903F071F904F0CDF8616803F06CF93D
:108E700004F0C8F8414903F067F904F0C3F8404929
:108E800003F062F904F0BEF8A16803F05DF904F0A4
:108E9000B9F83A4903F058F904F0B4F8394903F045
:108EA00053F904F0AFF8E16803F04EF904F0AAF8C2
:108EB000324903F049F904F0A5F8334903F044F9C5
:108EC00004F0A0F8314903F03FF904F09BF8304971
:108ED00003F03AF904F096F8002D074603DA2D2145
:108EE00003F036F96D420A222946384603F04FF95D
:108EF00004F088F8274903F027F904F083F8314695
:108F000003F022F904F07EF81C4903F01DF904F087
:108F100079F8224903F02FF92046FFF7FBFE237D65
:108F20000BB901241DE004F06DF81D4903F023F98D
:108F30000E4804F03BFD0028F3D00C4804F0DFFBA2
:108F4000044604F05FF8E1B203F002F9F0E7237D94
:108F500033B104F057F8134903F00DF92C4600E043
:108F60001C46024804F00AFD2046F8BDC8E0032074
:108F7000DD480E00F5480E0001490E00254A0E009E
:108F800008490E0015490E0024490E0038490E000C
:108F900059490E00234A0E006A490E0086490E0008
:108FA000A4490E00C0490E0070B52DED028B044699
:108FB00000230E46154641686848502204F0E2FB43
:108FC000204650226168FFF71BFE644804F003FB53
:108FD000002800F0B4806249604803F0B5F83146DB
:108FE0005E4803F0B1F85F495C4803F0ADF82946EC
:108FF0005A4803F0A9F85C49584803F0A5F85B49C2
:10900000564803F0A1F85A49544803F09DF80A2243
:109010005021524803F0BBF85649504803F094F8E9
:1090200055494E4803F090F8A1684C4803F08CF87D
:1090300050494A4803F088F85049484803F084F8FA
:10904000E168464803F080F84A49444803F07CF858
:109050004B49424803F078F8237D002B50D003F0B1
:10906000D1FF3F4903F070F803F0CCFF314603F025
:109070006BF803F0C7FF3B4903F066F803F0C2FF4B
:10908000294603F061F803F0BDFF374903F05CF8AF
:1090900003F0B8FF354903F057F803F0B3FF344944
:1090A00003F052F803F0AEFF0A22502103F06FF8EC
:1090B00003F0A8FF2F4903F047F803F0A3FF2E4960
:1090C00003F042F803F09EFFA16803F03DF803F0BF
:1090D00099FF284903F038F803F094FF274903F07B
:1090E00033F803F08FFFE16803F02EF803F08AFFF6
:1090F000204903F029F803F085FF214903F024F803
:109100002046FFF707FE28B914489FED1E8A04F099
:1091100035FC1DE04FF42F7002F0F8F801460546CB
:109120002046FFF7B7FD2846FFF702FD0B48B0EEDB
:10913000408A04F023FC284602F0F0F808E0237D82
:10914000002BE1D003F05EFF0F4903F014F8DBE7DA
:10915000B0EE480ABDEC028B70BD00BFC8E0032032
:10916000EA490E00FF490E00014A0E00F5480E00C4
:1091700001490E00254A0E0008490E0015490E004F
:10918000054A0E005F42A2CD284A0E0010B5064CDB
:1091900001F03EFD204604F0A9FC2046034A0449A4
:1091A000BDE8104004F01CBEC8E00320E8BC03206A
:1091B0000D810D0003681847012A02D0022A02D04F
:1091C00004E0016002E00B6800B10360002070471A
:1091D00013B51C20FAF761FF044648B1064B074956
:1091E0001B68009342F23432054B0968FEF7B2FF68
:1091F000204602B010BD00BF1CE1032020E1032087
:1092000046470E0013B52020FAF747FF044640B149
:10921000054B06491B6800935022054B0968FFF770
:10922000DDFC204602B010BD1CE1032020E103203C
:1092300046470E0013B51C20FAF72FFF044648B12D
:10924000064B07491B68009342F23432054B09680C
:1092500000F068FA204602B010BD00BF1CE10320F8
:1092600020E1032046470E0013B51420FAF715FF3E
:10927000044640B1054B06491B68009300231A467B
:10928000096800F0E9FA204602B010BD1CE1032095
:1092900020E1032010B5064B0360643304460361EC
:1092A00002F0DDFA204602F09FFC204610BD00BF10
:1092B000144E0E0010B50446FFF7ECFF20464C217B
:1092C00004F09CFD204610BD10B586B00023044676
:1092D000049321B10F4B05930F4B0291049302AB02
:1092E00093E803008DE8030094E8030083E803009B
:1092F0009DE80300049A84E80300A168A260059A2F
:1093000004911846E168E2600591FAF7EAFF204609
:1093100006B010BDB5910D00B9910D0070B500F10A
:109320000801C2680B464AB10478157CA54236BFD5
:10933000D46894681A4613462246F4E7994204D04A
:1093400000781A7C904238BF0B46DA690AB904F0FB
:109350000CFF1A6A03F11400BDE8704010478B68D7
:1093600070B5164604460D1D01225BB130781A7C9B
:10937000904234BF9868D8681D4634BF012200224D
:109380000346F2E732B1CA6895420AD0284604F093
:10939000AFFD00E028463378027C9A424FF000038C
:1093A00002D284E8280001E084E80900204670BD6C
:1093B0002DE9F743064624201F460C46FAF76DFEBA
:1093C0003B6810F110081CBF1B78037406F10407FA
:1093D0001CBF0023C361A742054608D17369002B57
:1093E0005CD03169037C0A7C9A423AD356E090F80B
:1093F0001090237C994517D2F368A342204611D0E0
:1094000004F076FD037C4B4505D2C368002B14BFE6
:109410002046002406E0684642463146FFF79FFF9B
:10942000009C019801461AE02FD93369A34213D05A
:10943000204604F037FD037C4B4505D9E368002B3B
:1094400014BF0446002008E0684642463146FFF754
:1094500086FF9DE8110000E0002021460446A1B1EE
:1094600044B98F4206D0087C2B7C83422CBF00205D
:10947000012000E001203B460A46294604F03AFD5F
:10948000736901337361284610E005F11400FAF79F
:1094900028FF2846FAF705FE204607E031464246F7
:1094A0006846FFF75CFF009C0199D8E703B0BDE870
:1094B000F08300007FB5041D83680A4621464BB146
:1094C00015781E7CAE4236BFDD689D680B46194696
:1094D0002B46F4E78C4203D014780B7C9C4208D2D4
:1094E00004AB43F8042D02AA0092044AFFF760FF80
:1094F000014601F1140004B070BD00BF4E4A0E00D9
:109500002DE9F74304461D46894690460021102266
:10951000083007F011FC257002AD012305F8013D6C
:1095200004F10802261D0027226162612946A76115
:109530003046FFF7BFFF1549FFF7C6FE2946304604
:109540008DF80770FFF7B6FF1149FFF7BDFE022344
:10955000294630468DF80730FFF7ACFF0D49FFF77D
:10956000B3FE0323294630468DF80730FFF7A2FFEC
:109570000949FFF7A9FE094BC3F80090084B2046A4
:10958000C3F8008003B0BDE8F08300BFD1910D00A7
:1095900005920D0035920D0069920D0020E1032027
:1095A0001CE1032070B5104D104C114E01F030FB42
:1095B000284604F09BFA28460E4D2246314604F018
:1095C0000FFC284604F092FA28460B4D22463146FD
:1095D00004F006FC284602F0E9FA2246284607492C
:1095E000BDE8704004F0FCBB00E10320E8BC0320B0
:1095F0000D810D00E4E0032024E1032095920D008D
:1096000000221146406801F009BE00001FB50A4B58
:1096100004466846196001F059FE02980130FAF7D5
:109620003EFD0099206007F01DFE684602F0A2FB97
:10963000204604B010BD00BF78E1032010B50446F9
:10964000006808B1FAF72FFD204610BD2DE9F0475C
:10965000A4B00646894610EE10AA1F46DDF8B08079
:1096600015460BAC52B1104608F034FB642807D9FC
:1096700003F0C8FC1A4902F07EFD01E0194900E040
:109680002946204607F0EEFD08AD2FB13A461649AF
:10969000284601F053FE03E01249284607F0E2FD98
:1096A00007AFB8F1000F05D042461049384601F027
:1096B00045FE03E00B49384607F0D4FD50460497B9
:1096C0000395029406F080FC0436CDE900014A4679
:1096D0000749304601F032FE24B0BDE8F08700BFF4
:1096E0004F4A0E008A4D0E0010470E0024510E0006
:1096F000894A0E00014B1970704700BF70E10320CA
:1097000008B501F085FA01F02BFB014B186008BD8C
:1097100074E103209FED010A704700BF5F42A2CDB4
:109720000175704730B5064D0560002505758360ED
:1097300041F28835039B85614160C360026130BDA1
:109740006C4C0E0010B5064C01F062FA204602F097
:109750002DFA2046034A0449BDE8104004F040BBFE
:109760007CE10320E8BC032095920D0010B504466F
:109770004A68024904F00BFA204610BDDCE20320DF
:10978000F0B58FB00146064602A81F46FFF7EEFF70
:1097900002A803F099FBA0B9337D23B103F032FC9A
:1097A000254902F0E8FCF323009337223D23A92149
:1097B00008A809AD03F0ACFB0FCD03AC0FC42B68B8
:1097C0002370002240F2BD211C4802F01FFA002243
:1097D00042F23431194801F0F4FF03AD184B0893FD
:1097E0000FCD09AC0FC42B681448237042F23432F9
:1097F00008A902F025FA68B167B1384608F06AFA9C
:10980000394602460D4802F038F818B10B4802F00C
:1098100093F858B9337D23B103F0F4FB094902F002
:10982000AAFC064802F01BF8002003E0034802F0FF
:1098300016F801200FB0F0BDB74B0E007CE10320FD
:10984000AC4F0E00434C0E009FED010A704700BF65
:109850005F42A2CD0174704710B5044C0460836070
:109860000024029B04744160C36010BD804C0E0054
:1098700070B5064600200C4601F084FC08B90020B3
:1098800070BD002C03DD01F06BFA054600E00025F9
:1098900073783BB9002C07DD01F062FA401BA0424F
:1098A00002D3ECE7012070BD01F0F8FCF0E730B521
:1098B00085B01A46089B1B788DF8003002A83C231F
:1098C00003F026F9029C00212046FFF7D1FF6378C0
:1098D000BFF35F8F33B100212046FFF7C9FF237824
:1098E000012B13D00025039C94B16368013B636096
:1098F00073B9236820469B689847A368013BA3601F
:1099000033B923682046DB68984701E0257BEAE706
:10991000284605B030BD01F07BB9704710B50C4644
:1099200004F038FA602103F056FD04F033FA0368BE
:1099300021469B68984704F02DFA002103F04EFD64
:1099400004F028FA0122602103F03EFD04F022FA1F
:1099500003685B699847C0B210BD10B5044604F0B7
:1099600019FA03F0FDFC0C212046FFF7D7FFA0F108
:10997000C4035842584110BD38B514460D4604F092
:1099800009FA602103F027FD04F004FA0368294670
:109990009B68984704F0FEF9036821469B68984746
:1099A00004F0F8F90121BDE8384003F017BD10B507
:1099B00026210446FFF7B2FF262100F07F02204651
:1099C000BDE81040FFF7D8BF072928BF072138B5E9
:1099D0000D4626210446FFF7A1FF00F0C70040EA2C
:1099E000C502D2B220462621BDE83840FFF7C4BFE9
:1099F00007221321FFF7C0BF10B526210446FFF749
:109A00008DFF262100F0FD022046FFF7B5FF26213D
:109A10002046FFF783FF40F00202D2B22046262103
:109A2000BDE81040FFF7A8BFF8B500210746FFF7D3
:109A300075FF00213846FFF771FF04F0ABF9602194
:109A400003F0C9FC04F0A6F90121FCF734F904F095
:109A5000A1F9002103F0C2FC04F09CF9032260216B
:109A600003F0B2FC03282CD104F094F903685B697D
:109A70009847064604F08EF903685B6998470446E8
:109A800004F088F903685B6998473604240206F4F9
:109A90007F0604F47F44C5B234432C433846FFF7B5
:109AA000ABFFC5F30115A31107EE905A00EE103A73
:109AB000F8EE677AB8EEC00AB5EE007AA7EE870A2C
:109AC000F8BD9FED010AF8BD00C079C401F0A0B84F
:109AD0002DE9F84F2DED028B41F27865044643598C
