:02000002D0002C
:1040000000400D0088100E00000006000D000501A4
:084010000401E80500000000B6
:0440180048FF0D0050
:1040200009480A49884208B505D0094A824202D0A7
:10403000121A0AF02AFB0748074A0021121A0AF04E
:104040002FFB014808BD00BFB0BD03209C0F0E0030
:1040500074BE032074BE0320F0E7032070B506F0A1
:104060009FFB074C074BE41AA40800251E46A542F7
:1040700004D056F8253098470135F8E770BD00BFE9
:10408000900F0E00E40E0E0000F02EBD08B500F0FB
:104090009DFBBDE8084006F045BB05F0BBBB05F045
:1040A000C1BB05F0BFBB0078B0FA80F04009704793
:1040B0000123037070471068704770477047000015
:1040C000014B01221A70704719C103200368184779
:1040D000012A02D0022A02D004E0016002E00B684B
:1040E00000B103600020704703685A6898681B6835
:1040F00012F0010F4FEA620218BF8158104418BF36
:10410000CB58184738B5064D002404F170002844F8
:10411000103C05F0E5FD14F1800FF6D138BD00BF6D
:10412000D8BF032010B5044605F0DAFD204610BDC7
:1041300008B505F009F9034B1860034B01221A700A
:1041400008BD00BF6CD8032034C1032010B504465D
:1041500005F0FAF841F26462A358C31A092B05D995
:1041600004F5B3510B6801330B60A05010BD38B596
:10417000044605F0E9F804F5B4510B6893B1C31A8D
:10418000092B10D941F27C62A558AB4238BFA3502D
:1041900041F2746562591344635141F27862A35845
:1041A0000133A350086038BD10B5044600F5B05087
:1041B000043005F095FD04F6063004F08AFF04F1A2
:1041C0000A0004F086FF204610BD436913B18369DD
:1041D0000C301847704700007FB502460846137937
:1041E000956833B13DB90C4904B0BDE8704005F0A5
:1041F00061BF0A4B00E00A4B167B0A4C0A49527B0E
:104200000292012E08BF214601910095074A002124
:1042100006F061F804B070BDA1FF0D00D4050E00DA
:1042200090FF0D0099FF0D009DFF0D00B7FF0D00E1
:1042300013B500210446084605F0CEF802A9002374
:10424000204641F8043D05F0DFF8019C0CB1012344
:1042500023710021012005F0BFF82CB1236820460E
:104260009B6898470023237102B010BD022A38B51D
:10427000044605D0032A0FD0012A11D10B6809E0AA
:104280000C200D68FFF709FF034618B195E80700F9
:1042900083E80700236003E00C21006807F07AFA46
:1042A000002038BD10B5054B00220446114640F8E9
:1042B000043B05F0C9F9204610BD00BF84FF0D0086
:1042C00010B50446FFF7EEFF2046202107F062FA02
:1042D000204610BD00221146406805F02BBA10B5EB
:1042E0008368044613B1032201469847204610BD57
:1042F000F0B500258E461549057185604561016060
:10430000044692E8030085B002AF04F10C0687E88A
:10431000030096E8030082E8030097E8030086E8BC
:1043200003009168606990606161D168A069D060A4
:10433000A1618DE82800064A2346714604F1080071
:1043400005F052F8204605B0F0BD00BF70FF0D002B
:1043500031420D0007B58068002338B18DE80A00AE
:10436000022105F059F8B0FA80F0400903B05DF879
:1043700004FB000038B5104B036083680446A3B10A
:104380006FF000410022FFF7E5FF0021A06805F073
:104390005BF8237903F0FF0513B105F005F8F8E7A2
:1043A0002946A06805F028F8A56004F10C00FFF785
:1043B00096FF204638BD00BF70FF0D0010B50446C3
:1043C000FFF7D8FF20461C2107F0E4F9204610BD76
:1043D00037B5054600220C461146FFF7BBFFA8681B
:1043E000002340B1019300941A46194605F014F8D1
:1043F000B0FA80F0400903B030BD00002DE9F04F65
:104400004D4FDFF84891DFF848818DB00024012539
:10441000082C00F08D8014F8096007F087F9314608
:1044200006F067FF07F082F906F06EFF00284ED015
:104430000A2006F031F907F079F9314606F059FF04
:1044400007F074F906F060FF002840D007F06EF91D
:1044500006F061FF07F06AF9314606F04AFF07F0FF
:1044600065F906F051FF90B306F05EFD334905464D
:10447000684605F07CFC3946684605F056FD304933
:1044800005F05FFD2F4905F05CFD102282463146A4
:104490000DEB020005F0DFFC04A9504605F045FDD8
:1044A000014608A805F0A2FC0899284605F019FE67
:1044B00008A805F015FC04A805F012FC00256846C4
:1044C00005F00EFC08F8045001341037A0E706F0A0
:1044D0002BFD1A498246684605F049FC3946684674
:1044E00005F023FD184905F02CFD164905F029FDBE
:1044F0001022834631460DEB020005F0ACFC04A906
:10450000584605F012FD014608A805F06FFC089911
:10451000504605F0E6FD08A805F0E2FB04A805F00A
:10452000DFFB684605F0DCFB012308F80430CBE72D
:1045300028460DB0BDE8F08FD8BF0320D5FF0D0091
:10454000DDFF0D00E5FF0D00E1FF0D00B0BD032014
:1045500011C103202DE9F0431E4D1F4F8DB00646BB
:10456000002415F8013FB3422DD106F0DDFC1B49B4
:104570008046684605F0FBFB07EB0411684605F032
:10458000D4FC174905F0DDFC164905F0DAFC1022D1
:10459000814629780DEB020005F05DFC04A9484630
:1045A00005F0C3FC014608A805F020FC0899404628
:1045B00005F097FD08A805F093FB04A805F090FB13
:1045C000684605F08DFB0134082CCAD10DB0BDE85A
:1045D000F08300BFAFBD0320D8BF0320D5FF0D007F
:1045E000E1FF0D00E5FF0D0070B506F09DFC1D49D3
:1045F00005F077FD0124002507F098F8E1B206F0F8
:1046000078FE07F093F806F07FFE20B92046FFF70A
:10461000A1FF013517E0042815D106F085FC1249E9
:1046200005F048FD0F2C04D806F07EFC0F4905F07C
:1046300041FD06F079FC10220646214605F05DFD9D
:10464000304605F042FD01347F2CD5D11DB906F06E
:104650006BFC074902E006F067FC0649BDE87040C4
:1046600005F03FBDF1FF0D00FDFF0D0019000E002C
:104670001B000E0031000E00F8B5414D2846FFF733
:1046800029FE044640BB06F04FFC3E493E4E05F075
:1046900028FD234622462146686805F053F8234644
:1046A00022462146686805F02DF8204604F064FE95
:1046B000002504460027002004F05EFE001B61EB8D
:1046C00005018F4208BF864235D32D48FFF702FE11
:1046D00088BB05F06FF8EEE706F026FC2B4905F0E5
:1046E00000FD05F077F80446F0B906F01DFC2849F6
:1046F00005F0F7FC05F066F8204604F03DFE0025C5
:1047000004464EF65F260027002004F035FE001B0D
:1047100061EB05018F4208BF86421FD305F05AF8AE
:10472000E0B905F047F8EFE706F0FEFB1949BDE8F0
:10473000F84005F0D6BC1248FFF7CCFD1048FFF753
:10474000C9FD0028CDD106F0EFFB134905F0C9FCE7
:10475000C82005F0A1FF05F0EDF9C2E705F03AF831
:1047600005F038F858B906F0DFFB0C4905F0B9FC44
:10477000C82005F091FFBDE8F84005F0DBB9F8BDB1
:10478000DCE2032037000E001FBF020078000E009D
:1047900087000E00CF000E0059000E00AC000E0086
:1047A00038B5046805467CB16368013B63605BB95A
:1047B000236820469B689847A368013BA3601BB908
:1047C00023682046DB689847284638BD70B5774D8A
:1047D0002B78EEB0002B00F0C380754CE38A0C936D
:1047E000206909F0ADF8CDE90A01237A08936089C0
:1047F00009F094F800226F4B09F020FACDE9060188
:10480000A3880493A08909F089F800226A4B09F073
:1048100015FACDE90201E38800932368674A684CE2
:104820004FF480712EA805F01DF8664B66491B7881
:104830008DF800302EAA3C232AA806F01FF92BA8D9
:10484000FFF7AEFF614803F047FF60490EA804F090
:104850000FF80E995E4805F044FC06F065FB0E99D2
:1048600005F03FFC237800262E701BB1594800F05C
:10487000F5FC26700023584C2B7006F055FB574969
:1048800005F02FFC0A22216812A805F0F6FA12A9F9
:1048900016A805F0ABFA524916A805F052FB21798B
:1048A00005461AA805F0C6FA1AA9284605F03DFBE8
:1048B0004B4905F046FB0A220546A1681EA805F0F3
:1048C000DCFA1EA9284605F030FB454905F039FB06
:1048D0000A220546E16822A805F0CFFA22A9284657
:1048E00005F023FB3E4905F02CFB94ED040A054638
:1048F000062126A805F0E8FA26A9284605F015FBAA
:10490000374905F01EFB94ED050A054606212AA845
:1049100005F0DAFA2AA9284605F007FB304905F028
:1049200010FB304905F001FB01462F4805F04FFA16
:104930002AA805F0D5F926A805F0D2F922A805F095
:10494000CFF91EA805F0CCF91AA805F0C9F916A8E8
:1049500005F0C6F912A805F0C3F90EA805F0C0F9D4
:10496000224C2378DBB1194803F0E2FD174803F02D
:1049700087FD164803F018FC124B1D491B780022D6
:1049800022702EA88DF800303C2306F077F82FA86F
:10499000FFF706FF06F0C8FA164905F0A2FB164B12
:1049A0001B780BB105F0C6F86EB070BD34C10320A2
:1049B0000CD803200000244000408F40E2000E008D
:1049C000C4C0032010C103208C010E0054C1032079
:1049D00084BE032024D803201CC1032062010E00E2
:1049E00080010E0078C00320C8C0032019C1032035
:1049F00082010E0094010E00F4DC032070B594B027
:104A000004F0A2FC2F4D304E044604F09DFC2860BB
:104A100004F0D0FE642005F03FFE05F0F2FDB04248
:104A200005DC04F091FC001BB0F5FA7FEDD305F036
:104A3000E8FD264B984207DD05F0E3FD01462448DA
:104A400000F026FC01203AE0224C23492368002292
:104A500004A805F083FD04A908A805F0C7F91F49BB
:104A600008A805F06EFA0546194800F00BFC23680B
:104A7000194902460CA805F071FD0CA9284605F05D
:104A800054FA014610A805F0B1F9154B109A1B789D
:104A900014498DF8003002A83C2305F0EFFF03A86D
:104AA000FFF77EFE10A805F01BF90CA805F018F919
:104AB00008A805F015F904A805F012F9002014B0B3
:104AC00070BD00BF08E603204DB25E574EB25E5780
:104AD00024D80320B8BD032018E20320A3040E004D
:104AE00010C103209C010E0030B5002385B00222C6
:104AF0004249434804F056FE00250C230195ADF8C9
:104B00000430404B40490293042201AB3F480395D7
:104B100004F048FE06F008FA4FF4E13106F0F8F927
:104B200006F038FB4FF4E13106F02EFB384800F078
:104B3000D1FB01220221364800F08AFB0122032129
:104B4000334800F085FB41F2883005F0A5FDFFF702
:104B500055FCFFF749FD2E4800F044FB0446C8B958
:104B600006F0E2F92B4905F0BCFA2B49264805F07E
:104B700050F922460121294804F066FD06F0D4F9D7
:104B8000274905F0AEFA42F2107005F085FD04F0F9
:104B9000D1FF30E0234CFFF76FFD22462946224823
:104BA00000F0B3FC214B22689A4208D023602246D1
:104BB00044F6206329461C48E36000F097FCFFF7A9
:104BC0001DFF18B106F0B0F9194902E006F0ACF982
:104BD000184905F086FA184800F0C0FC174803F0A1
:104BE000BDFF6FF000411648FFF7F2FB6FF0004188
:104BF0001448FFF7EDFB05B030BD00BF94020E0076
:104C0000AC010E00B7400D00C8C00320B4010E0077
:104C100024D80320C1010E00E3010E00BCBF032015
:104C20000A020E001CC1032058C003204C1F1100B3
:104C300022020E0039020E0088C0032054C1032056
:104C4000D8C00320F4C003201FB50A4B0A4C1B78C0
:104C50000A498DF8003022463C2302A805F00EFFD9
:104C600003A8FFF79DFD06F05FF9214605F039FA2C
:104C700004B010BD10C10320C1010E0054020E008B
:104C8000F0B589B0044602A880E806001D460C2055
:104C900000230F46039E0693FFF7FFF910B107604C
:104CA000466085600B4B07930B4B06939DF8403095
:104CB000049000939DF838209DF93C3004A92046CB
:104CC00006F08EF9044604A8FFF709FB204609B058
:104CD000F0BD00BFE9400D006D420D002DE9F04729
:104CE000BC4BBD4F01248AB01C7004F08DFABB4B45
:104CF000BB4883F87444642183F860143968C3F8AE
:104D00007004002211EA0406DA7183F83C2483F867
:104D10003D2483F86A24C3F8782483F87C2483F83C
:104D20007D241C4605460AD13846FFF7BCF930B150
:104D30003146AC4804F02AFE3846FFF7B9F9A94BD2
:104D4000C4F86C34A84CA94B069506AE0025012783
:104D5000089302223346A1498DF81C5020468DF855
:104D600024708DF8255000F079FCA14AA149DFF8A4
:104D70004493204606F000FD40F6B8332A4614213D
:104D80000320A36204F0A2FC4FF01E080346CDF8F6
:104D90000080019703224FF47F019748974C04F05D
:104DA000CDFD934A9649944806F0E6FC29463846DC
:104DB00004F06CFC934B069332462B464FF4FA6199
:104DC0009148CDF824900894FFF792FA3046FFF707
:104DD00086FA874A8D498C4806F0CEFC8C4B0693A8
:104DE00032462B4644F620618A48CDF82490089438
:104DF000FFF77EFA3046FFF772FA7D4A834985480D
:104E000006F0BAFC844B069332462B4641F28831B9
:104E10008248CDF824900894814CFFF769FA304617
:104E2000FFF75DFA724A79497C4806F0A5FC2046F6
:104E300001F0BFF904F1080003F077F8414604F1EE
:104E40000A0004F056F9414604F6063004F051F920
:104E5000744800F0B7F941F25C6A40F61F217248CD
:104E600001F030F8042344F80A3004F5B3536F4AD4
:104E70009A606F4A1D601A6141F274634FF0FF3906
:104E8000E55041F278631122E55041F27C6341F232
:104E90006C6844F8039004F5B45303201D6041F29C
:104EA00084630221E250634A44F80800002313603F
:104EB000536041F29062A5505F4A136041F29862DC
:104EC000A5505E4A136004F5B5521560536041F277
:104ED000A862A5505A4A1360536041F2B463E5508A
:104EE00006F0C8FB34F80800564B06934FF0020852
:104EF00007950295CDF80490CDF8008096E806005D
:104F00002346FFF7BDFE414634F80A0006F0B2FB27
:104F100034F80A004C4B04938DE800030595029584
:104F200004AA234606CAFFF7ABFE314A474920468A
:104F300006F022FC464800F045F92D4A4549444810
:104F400006F01AFC3A4618234149434800F0C3FAD8
:104F500018234FF496723E49404800F0F4FA404955
:104F6000404804F004FF224A3F493E4806F004FC52
:104F70003B493E4804F0FBFE1D4A3B493B4806F0D6
:104F8000FBFB3B493B4804F0F2FE3B493B4804F045
:104F9000EEFE3B493B4804F0EAFE3B493B4804F047
:104FA000E6FE3B493B4804F0E2FE3B493B4804F047
:104FB000DEFE3B493B4804F0DAFE3B493B4804F047
:104FC000D6FE0B4A3A49284606F0D6FB0AB0BDE8A1
:104FD000F08700BF10C1032078BE032070D80320E3
:104FE00064FF0D007CBE032084BE032080F0FA0223
:104FF00074BE032089570D00B8BF0320D1400D00B7
:10500000A5420D00C1400D00D8C0032075430D001E
:1050100031410D00F4C00320494C0D0038C103207C
:1050200054C1032058D70320A0D703205839343C5B
:10503000DBF9BE3FDCD70320E8D70320F0D70320FD
:1050400000D803206F410D004D410D00A9410D0016
:1050500024D8032025410D0058C0032088C0032018
:10506000D4050E00C8C00320E19C0D0078C00320C9
:105070005E020E00D8BF032062020E00E8BF0320CC
:1050800066020E00F8BF032071020E0008C0032064
:1050900075020E0018C003207A020E0028C00320FB
:1050A00081020E0038C0032089020E0048C0032090
:1050B00005410D00CD400D0008B504F0A5F8014BE9
:1050C000186008BDF8DC032004F09EB8037C03F0F0
:1050D0000803024603F0FF002BB1D36A506A181A86
:1050E00048BF6FF0004070477047103001F092BF2A
:1050F000103001F069BE07B501220DF10701103033
:1051000001F0AFFD01280CBF9DF807004FF0FF3004
:1051100003B05DF804FB103002F0EAB807B502AB4B
:10512000012203F8011D1030194602F0E1F803B026
:105130005DF804FB10B53421044606F02BFB204635
:1051400010BD000030B585B01C4B009313798DF86D
:10515000043093680293137B8DF80C3000F58C6556
:10516000537B8DF80D3004460A466B4600F26C41C5
:10517000284602F005FCF0B1256004F23C452846C3
:1051800001F07EFF0121204602F0A3FA014668B13A
:105190002146284601F04DFD68B194F83C3413F0E7
:1051A000700316BF064B18461D6005E0204602F04E
:1051B00090FA0028ECD1002005B030BD64FF0D004E
:1051C000B8E1032010B50649044604F0D0FD63237E
:1051D0002374052104F1140003F0E8FD204610BDFE
:1051E000D4050E0037B5194B18681B798DF80430BB
:1051F000009006F09BFA06F08AF818B906F096FAC5
:1052000006F040F800241DF8045006F08FFA2946F5
:1052100006F06FF806F08AFA06F076F820B9013445
:10522000052CF0D101200FE006F080FA06F073F8AB
:1052300006F07CFA294606F05CF806F077FA06F0EC
:1052400063F80028EBD0002003B030BDC0020E0090
:10525000014802F042BE00BFFDDC032010B5084C3F
:1052600001220521204602F038FE322005F014FA12
:10527000204600220521BDE8104002F02EBE00BFEE
:10528000FDDC0320014800F0B7BD00BFFCDC0320BB
:10529000014800F068BD00BFFCDC032030B50024ED
:1052A000944212D0085D0509092D00F00F0094BF4B
:1052B0003035373503F81450092803EB440594BF03
:1052C0003030373068700134EAE7002203F81420E8
:1052D00030BD000030B58DB0054606F027FA06F067
:1052E00016F818B906F022FA05F0CCFF142005F0E4
:1052F000D3F906F01BFA202105F0FBFF06F016FAA1
:1053000006F002F880B106F011FA06F004F806F093
:105310000DFA202105F0EDFF06F008FA05F0F4FF84
:10532000B0FA80F4640900E00124614802F0C6FD8F
:10533000012200215E4802F0C4FD012211465C48B2
:1053400002F0BFFD01220221594802F0BAFD0122FC
:105350000321574802F0B5FD01220421544802F010
:10536000B0FD01220521524802F0ABFD00220621CA
:105370004F4802F0A6FD012207214D4802F0A1FD91
:10538000002208214A4802F09CFD002209214848D9
:1053900002F097FD00220A21454802F092FD00220A
:1053A0000B21434802F08DFD00220C21404802F001
:1053B00088FD00220D213E4802F083FD00220E21CF
:1053C0003B4802F07EFD00220F21394802F079FDB2
:1053D00001220021364802F09DFD01221146344889
:1053E00002F098FD01220221314802F093FD0122D2
:1053F00003212F4802F08EFD012204212C4802F0E7
:1054000089FD012205212A4802F084FD012206219E
:10541000274802F07FFD01220721254802F07AFD8E
:1054200001220821224802F075FD012209212048AD
:1054300002F070FD01220A211D4802F06BFD0122DD
:105440000B211B4802F066FD01220C21184802F0D6
:1054500061FD01220D21164802F05CFD01220E21A2
:10546000134802F057FD01220F21114802F052FDAE
:1054700000210D2208A801910291079109F010F96D
:1054800001A90C4800F02EFB07AB082201A9284611
:10549000FFF704FF07A903A804F069FC03A9284645
:1054A00004F0AFFC03A804F01BFC20460DB030BD97
:1054B000FDDC0320FCDC032013B504460498E06007
:1054C000009022602371A16004F1100003F062FDDE
:1054D000204602B010BD37B501F11005009514311A
:1054E0000446FFF7E9FF204603B030BD13B502AB19
:1054F000632403F8014D103003F077FD9DF8070099
:10550000B0FA80F0400902B010BD13B502AB6324BD
:1055100003F8014D103003F052FD9DF80700B0FA7A
:1055200080F0400902B010BD13B504460498E06055
:10553000009022602371A16004F1100003F06BFD64
:10554000204602B010BD37B501F1100500951431A9
:105550000446FFF7E9FF204603B030BD103003F0EA
:1055600092BD000070B503F04FFE1E481E4E00F0C5
:10557000B8FA1E481E4A1F4900244FF47A73047477
:105580004474446083601C4B036006F0F5F81B4BC9
:105590003168DC71642283F86024194AC3F87024EE
:1055A000012211EA020583F83C4483F83D4483F864
:1055B0006A44C3F8784483F87C4483F87D4483F8D4
:1055C00074241C460AD13046FEF76DFD30B12946E1
:1055D0000C4804F0DBF93046FEF76AFD094BC4F8CD
:1055E0006C3470BDFCDC032078BE032000DD03209A
:1055F00074BE0320E9500D00A0020E0034DD03202C
:1056000064FF0D007CBE0320F8B50E46074605F08A
:105610002FF8054605F024F8044605F017F8640154
:10562000C0B2ADB204F4FF54A5F2BC75044344EA21
:1056300045243C8004F0ECFF054604F0F3FF0446EB
:1056400004F0FAFFED02640105F4FF2504F4FF54B1
:105650002C43C0F3460004433480F8BD70B50446C3
:105660000025456022731D481D4A2060A16022610B
:105670001A7922759A68A2611A7B22775B7B63771D
:10568000184B2362184B63620A23A36242F2107321
:1056900004F58E76E362012384F830306563A563F8
:1056A00084F8C83084F8C950C4F8CC3084F8D0509D
:1056B00084F8D15084F8F45084F8F550102229462B
:1056C000304608F0EDFFC4F82C51C4F82461C4F84A
:1056D0002861C4F83051204670BD00BF64030E003D
:1056E00064FF0D00C5020E0040420F0010B500F12E
:1056F000BC040B46034A0C21204604F0B3F82046B4
:1057000010BD00BFCA020E00F8B5D0F824510446FF
:1057100000F1D007D4F82C21A36A9A4221D9296933
:105720002046FFF7E3FF064605F0FEFB33460D4A31
:10573000012104F0D0FD3146384601F0F7FC28463F
:1057400006F07CF804F58E710646284606F0EEF861
:10575000FEF7A5FCD4F82C31013BC4F82C313546BA
:10576000D8E7F8BDD3020E0070B506460C464CB122
:10577000E1683046FFF7F8FFA5682046FEF78FFC8A
:105780002C46F4E770BD000010B5054BD0F8201191
:105790000360044600F58C70FFF7E6FF204610BD5D
:1057A00064030E0010B50446FFF7EEFF20464FF4E9
:1057B0009A7105F0EFFF204610BD2DE9F0470E4627
:1057C00006F1040A8968054617465446012359B173
:1057D0003A680B699A42B4BF8A68CA680C46B4BF7B
:1057E000012300231146F2E733B1F3689C420ED047
:1057F000204606F036F800E0204602693B689A42EF
:1058000005DB286000232B712846BDE8F087A24500
:1058100008D03A6823699A42ACBF4FF000094FF0B4
:10582000010901E04FF001091420FEF736FC3B6846
:1058300010F1100F18BF03618046534601462246FF
:10584000484606F010F87369C5F8008001337361AB
:105850000123D8E737B5D0F8CC100446FFF746FF50
:1058600040F20A23024604F1D00104F1F40001F0F1
:105870000EFC054630B104F1CC0204F58C7168468B
:10588000FFF79BFF284603B030BD000030B5002372
:1058900080F8C83090F8C9309DB00446E3B9494B50
:1058A000494A007B1A60012105F0E4FE474B0C9346
:1058B000237D8DF83430A3690E93237F8DF83C301F
:1058C000217B637FA0688DF83D300CAAFFF73AFC7E
:1058D00084F8C90000286BD0226A32B3A168002383
:1058E00001F23C410CA88DF830308DF8313001F0D8
:1058F000CEFB0546C8B905F017FB236A344A0121DF
:1059000004F0E9FCA168226A8DF83050012301F20D
:105910003C410CA88DF8315001F099FC28B905F0F4
:1059200003FB2C4A012104F0D6FCA168226A04F191
:10593000D005002301F23C41284601F0A8FB88B3C2
:105940000021284601F070FA00238DF80C308DF804
:105950000D300022294603A801F01DFBD0B14022E2
:105960000CA903A800F0F0FC0CA808F071FD009051
:1059700060B16A4604F58C7101A8FFF71EFF009B19
:10598000D4F8CC209A42B8BFC4F8CC3003A801F0B8
:1059900077FBDEE72046FFF7B7FE2046FFF75AFF0A
:1059A00068B905E005F0C0FA0B4A012104F093FC48
:1059B000012384F8C83003F0C7FCC4F830011DB0DF
:1059C00030BD00BFBCE1032009560D0064FF0D008F
:1059D00011030E00EC020E00F9020E0038B5044669
:1059E000406B28B10368A26BDB6804F13C01984767
:1059F00094F8C8305BB1D4F83031002B53D003F0A9
:105A0000A3FCD4F83031C01AE36A98424BD294F820
:105A1000C930002B44D094F8F430002B40D004F16E
:105A2000F405A26B04F13C01284601F061FC00285A
:105A300021DD94F8303013B1284601F0EBFA626AA8
:105A4000D4F810319A422BD2284601F019FBD4F831
:105A5000CC300133C4F8CC3005F066FAD4F8CC3041
:105A6000134A012104F037FC2046FFF7F3FE2046DD
:105A7000FFF74AFE14E005F057FA0E4A012104F040
:105A80002AFC284601F0FCFA04F1D00001F0F8FAF3
:105A9000012384F8C830002384F8C930C4F83031B9
:105AA0000023A36338BD2046FFF7F0FEAFE700BF39
:105AB00026030E0041030E0008B5836B5A1C0344F5
:105AC0007F2A826383F83C1001D80A2901D1FFF7AD
:105AD00085FF012008BD03F097BB0368C9B29B682E
:105AE0001847704738B50C4605F020FE572105F0E1
:105AF00004FC05F01BFEF221FFF7EFFF05F016FE98
:105B000005F002FC05F012FE0622572105F0EEFB1F
:105B1000651E053405F00AFE03685B69984705F8C1
:105B2000010FA542F6D138BD2DE9F74F9A469DF8F1
:105B30003030019393460D469DF834709DF83860DF
:105B40009DF83C9005F0F2FD804605F0E9FB05F07C
:105B5000EDFD6F210A2405F0D0FB05F0E7FD0021E3
:105B6000FFF7BBFF05F0E2FDB5FBF4F204FB1255B5
:105B700005EB0215EDB205F07F01FFF7AEFF05F072
:105B8000D5FDBBFBF4F104FB11BB0BEB011101F0E4
:105B90007F01FFF7A2FF05F0C9FDBAFBF4F104FB9A
:105BA00011AA0AEB011101F03F01FFF796FF05F082
:105BB000BDFD019BB3FBF4F104FB113101F00701C2
:105BC00041F00801FFF789FF05F0B0FDB7FBF4F1E4
:105BD00004FB117707EB011101F03F01FFF77DFF97
:105BE00005F0A4FDB6FBF4F104FB116606EB011110
:105BF00001F01F01FFF771FF05F098FDB9FBF4F10B
:105C0000036804FB119404EB01119B68C9B2984727
:105C100005F08CFD05F078FB05F088FD6F2105F09F
:105C20006CFB05F083FD0021FFF757FF05F07EFDBB
:105C300045F08001FFF751FF05F078FD05F064FBAA
:105C4000404603B0BDE8F04F05F073BB2DE9F84FB7
:105C5000DDF828800B9F0C9E0D9D994692468B4641
:105C600005F064FD044605F05BFB05F05FFD6F2168
:105C700005F043FB05F05AFD0021FFF72EFF05F06C
:105C800055FD05F041FB05F051FD6F21072205F0A0
:105C90002DFB05F04BFD03685B699847C0B2C0F36C
:105CA000021303EB830300F00F0000EB43008BF8BB
:105CB000000005F03BFD03685B699847C0B2C0F384
:105CC000021303EB830300F00F0000EB43008AF89C
:105CD000000005F02BFD03685B699847C0B2C0F374
:105CE000011303EB830300F00F0000EB430089F87E
:105CF000000005F01BFD03685B69984700F0070092
:105D000088F8000005F012FD03685B699847C0B28F
:105D1000C0F3011303EB830300F00F0000EB43001B
:105D2000387005F003FD03685B699847C0B2C0F3A3
:105D300000129300134400F00F0000EB430030709A
:105D400005F0F4FC03685B699847C0B2030903EBF4
:105D5000830300F00F0000EB430028702046BDE8ED
:105D6000F84F05F0E6BA2DE9F04F07468DB008462A
:105D70000C4604F043FB8046204604F037FB814686
:105D8000204604F02BFB8246204604F047FB0546E4
:105D9000204604F03BFB0646204604F049FB8346C0
:105DA000204604F04FFB0A22014604A804F065F8DF
:105DB00004A9022208A804F00FF908A804F013F9B6
:105DC000044608A803F08CFFE4B25FFA8BF3F6B246
:105DD000EDB202935FFA89F25FFA8AF35FFA88F113
:105DE0003846039401960095FFF79EFE04A803F041
:105DF00077FF0DB0BDE8F08F00B591B00DF11B033A
:105E000003930DF11A0302930DF11903019306ABED
:105E100000930DF116020DF117030DF11501FFF7B7
:105E200015FF9DF81B30252B84BF00238DF81B30F8
:105E30009DF8153007939DF8163008939DF817309C
:105E400009939DF819300A939DF81A30013B0B9382
:105E50009DF81B3007A864330C9308F005FD11B0C2
:105E60005DF804FB03F0D0B97047000038B50C466C
:105E7000054628220021204608F012FC0B220A4980
:105E8000204609F0F8FB00230122E372E260AA68D1
:105E90006362064BA36100232261E3610522044B88
:105EA0006261236238BD00BF89020E0000E0AB478B
:105EB0006F12833A10B51021044605F06BFC2046A2
:105EC00010BD0000044A02600022027342711022D9
:105ED00082718160704700BF90030E008079704727
:105EE000407970474FF6FF73994210B539D09A4206
:105EF00037D04379013BDBB2042B97BF1A4CDFED5F
:105F00001B5A04EB8303D3ED005A8379202BB7EEA1
:105F1000007A08D0302B09D0102BF3EE096A18BF95
:105F2000F0EE476A04E0DFED126A01E0DFED116A8E
:105F300007EE901A06EE102AF8EE677AB8EE466A77
:105F400065EEA66A86EE275A77EEC67A37EE457A70
:105F50009FED096A67EE277A86EE867A87EE870AD2
:105F600010BD9FED060A10BD74030E000000C8426C
:105F70000000D64300501A460000CC430000000049
:105F800010B50C4605F0D2FB292105F0B6F905F055
:105F9000CDFB036821469B68984705F0C7FB05F0D9
:105FA000B3F905F0C3FB0122292105F09FF905F0A3
:105FB000BDFB03685B699847C0B210BD10B50C46C5
:105FC00005F0B4FB292105F098F905F0AFFB036853
:105FD00021469B68984705F0A9FB05F095F905F067
:105FE000A5FB0222292105F081F905F09FFB03683A
:105FF0005B699847044605F099FB03685B6998471D
:1060000044EA002080B210BD38B514460D4605F0B4
:106010008DFB292105F071F905F088FB03682946FD
:106020009B68984705F082FB036821469B68984768
:1060300005F07CFBBDE8384005F066B938B5037B58
:1060400004460D4673B1204600F02EF86279A57122
:1060500020462A43A121FFF7D7FF2046BDE838405C
:1060600000F032B800F003F80028ECD138BD38B5A4
:10607000044605F05BFB05F005F9B2212046FFF769
:106080007FFF50280ED1012561792573204600F04D
:106090002BF8A1792046FFF7D1FF204600F014F835
:1060A000284638BD002038BD10B5037B044633B107
:1060B00020469322A021BDE81040FFF7A5BFFFF7BF
:1060C000D6FF0028F4D110BD10B5037B044633B1D0
:1060D00020460022A021BDE81040FFF795BFFFF742
:1060E000C6FF0028F4D110BD38B5037B04460D4629
:1060F00073B12046FFF7D8FFA279657120462A4385
:10610000A121FFF781FF2046BDE83840FFF7DCBF43
:10611000FFF7ADFF0028ECD138BD38B5037B05464D
:1061200023B12846FFF7C0FF002404E0FFF79FFFDC
:106130000028F6D138BD6A79E3B29A4204F101042D
:1061400003D3782004F0A8FAF5E7B4212846FFF736
:1061500035FFB62184B22846FFF730FF44EA0044F9
:106160002846FFF7B1FF204638BDF8B505460C4676
:10617000FFF7D3FF2846FFF7D0FF242706463A460D
:106180000021204608F08CFA2760AB686360052385
:10619000A36003F0D9F8320C2061B1B22846FFF7B2
:1061A000A1FE84ED050A0120F8BD03F02DB803F02F
:1061B0002BB8704730B585B0054605F0B7FA5C21BD
:1061C00005F09BF8022004F067FA05F0AFFA05F03D
:1061D0009BF805F0ABFA5C2105F08FF805F0A6FA04
:1061E0000321FFF77AFC05F0A1FA0021FFF775FC07
:1061F00005F09CFA0421FFF770FC05F097FA05F012
:1062000083F80A2004F048FA05F090FA08225C218D
:1062100005F06CF8002405F089FA03685B6998477B
:1062200001AB18550134082CF5D19DF80430032B2F
:1062300034D19DF80530042B30D19DF806309FED08
:10624000196A07EE103A9DF8073007EE903AB8EE5B
:10625000477AF8EEE77AF2EE046AE7EE067A9DF8FE
:10626000083003F07F0287EEA67ADB094FF00100C9
:1062700085ED007A07EE102A9DF8092007EE902A96
:10628000B8EEC77AF8EEE77AE7EE067A87EEA67AF6
:1062900018BFB1EE477A85ED017A00E0002005B025
:1062A00030BD00BF0000804310B5044605F03EFA43
:1062B00004F0E8FF2046BDE81040FFF77BBF70B553
:1062C00004460E461546FFF775FF18B16368336044
:1062D00023682B6070BD02F097BF02F095BF02F0FB
:1062E00093BF10B50446243001F0E4F828B104F55A
:1062F0000C70BDE8104001F0DDB810BD411E00F18A
:106300000A020020430843EAC01011F8013F53FA83
:1063100080F08A42C0B2F5D1704738B5CB680446E8
:106320000D4623B98968BDE8384000F082BC2422BC
:10633000002108F0B5F9102301202370A070AB688C
:10634000A360EB68236238BD2DE9F0438BB003787E
:10635000002580460E4617468DF804508DF80550EE
:1063600063B10C2A0AD90EE0414601A8FFF7D5FF18
:1063700020B1012498F80330A3420BD24FF000095A
:1063800086F8009055E0C378002BEDD100F0B4FB07
:1063900081464EE0B8F80410091B490101A800F03D
:1063A00043FD81460028E9D0002101A800F01FFD2F
:1063B0000028E3D0C37A0F2BE0D1037803F01F034A
:1063C0009C42DBD1631E0D225A4306EB020E0023D2
:1063D000042BD9B204D800EB4301B1F801100BE053
:1063E0000A2995BF03F1FF31591C00EB410100EB75
:1063F000410194BFC988898861B1974210D97E292B
:1064000094BFC9B23F210EF8031001330D2B02F1E6
:106410000102DDD1974203D90378590648BFB5542C
:10642000F31903F8015C03785B0602D40134E4B28B
:10643000A0E748460BB0BDE8F08300002DE9F04727
:106440000378202B00F1010401D12046F8E7704FBA
:10645000886005462C1A2E4615F8013B0BB32F2BEE
:1064600001D1031917E05C2B02D10020BDE8F087B1
:10647000A3F12204E4B21D2C03D827FA04F4E407A4
:10648000F3D403F0BF043C2CEFD0203B5E2BE1D9CA
:10649000EBE72F2D05D11E4613F8015B202DF8D117
:1064A000F9E7166003199842C0EB030809D013F806
:1064B000012D2E2AF7D0202AF5D0B8F1FF0FD4DC19
:1064C00001E04FF00008C1F8048001F10C0301F174
:1064D0001702202403F8014F9342FBD103461A1AF6
:1064E00013F8014B2E2CFAD0202CF8D0B2FA82F4FB
:1064F000640908F1FF36731C07D100274FF0070E1F
:106500003D46BA464FF0080909E0835D2E2BF4D0D2
:10651000013EF0E7835C202B04D100240132424588
:10652000F8DB4BE02E2B02D1B242F6D103E0222B56
:1065300017D07C2B15D0A3F12A0CBCF1050F01D884
:106540002D2B0ED1A3F13A0CBCF1050F09D9A3F103
:106550005B0CBCF1020F04D9A3F1210CBCF15D0F5F
:1065600002D9B2420ED149E0B24247D0754521D896
:10657000A3F1610CBCF1190F08D8203BDBB249EA4A
:1065800007070AE0754515D800245F23A3F1410CE5
:10659000BCF1190F98BF49EA0A0A05F1010C5FFA2C
:1065A0008CFC0D44BCF1060F6B7301D881F80CC054
:1065B0006546B3E7BEF10A0F17D100244B7B202BB1
:1065C0003FF453AF3CB11AEA070F18BF02270F7010
:1065D0000120BDE8F0870B7B0120087019447E2361
:1065E0004B7331238B73BDE8F087B242E5DC324652
:1065F0004FF00A0E08254FF010098EE7BEF10A0F82
:10660000DBD032464FF00A0E08254FF0100985E71F
:1066100001010031F0B58BB000238DF804308DF806
:10662000053003781907044608D583789A0705D5FD
:10663000016A29B1A06801F02EF808B9002049E0EC
:106640000121204600F0BCFA05460028F6D0FFF7ED
:1066500055FEE5262E70002307462370A068FFF73D
:1066600040FE0028EAD0E378002B33D0214601A871
:10667000FFF753FE0028E1D00125E378AB42DDD3DC
:10668000A188491B490101A800F0CEFB0028D5D004
:10669000002101A800F0ABFB0028CFD0C37A0F2B5C
:1066A000CCD1027802F01F039D42C7D1437BBB428D
:1066B000C4D10670A16891F8243043F0010381F839
:1066C0002430530603D5A068FFF70BFE02E0013526
:1066D000EDB2D2E70BB0F0BD2DE9F84391F80C9084
:1066E00006460D4602247E2701F10D086968AA6856
:1066F00063189BB21144914206D012F8010B03EBD0
:10670000431343409BB2F6E7B9F1030F28BF4FF0A4
:10671000030909F10402D2B203F00F01A818013AEB
:106720000929D2B294BF30313731914541734FEAD4
:106730001313F1D305EB090300215F73304600F01A
:1067400073FB0121304600F052FB014628B97078F6
:10675000B0FA80F04009BDE8F88303784BB1C37A02
:106760001B07EED40B22404607F080FF0028E8D13B
:1067700002E00120BDE8F8830134A4B2642CB5D155
:10678000BDE8F8832DE9F04F9B460B7889B013F0F4
:10679000700F05900E46914601D10020A0E1059BA7
:1067A0001B78002BF9D15368029313789B0700F0F4
:1067B0008D81029B0D270C33B3FBF7F70137FFB236
:1067C0000021304600F030FB4FF0000809F10D02C7
:1067D000CDF80C80434644464546CDF810800692DD
:1067E0007269079301213046C2F34F1A00F0FFFA95
:1067F000079B20B97378002B00F09080CDE70278DA
:10680000E52A00D042B9002C08BFD046BC423CBFAC
:106810000134E4B222B981E0BC4238BF002403E075
:10682000E52A01D10025DBE72E2AFBD0C17A0F290A
:1068300052D13DB95106D3D5437B039302F01F05D6
:106840002B4607E0013BDBB29A42EBD1427B039936
:106850009142E7D15A1E4FF00D0C0CFB02FC029A3C
:106860006245DFD94FF0000EBEF1040F5FFA8EF2E1
:1068700004D800EB4E02B2F801200CE00A2A95BFC2
:106880000EF1FF320EF1010200EB420200EB420278
:1068900094BFD28892880299614503D1002A18BF1B
:1068A00000259DE7FF2ABDD8D2B2A2F141011929E6
:1068B000D9F8081011F80C1098BF20320CF1010A19
:1068C000A1F1410C98BFD2B2BCF1190F9CBF20318D
:1068D000C9B29142A6D1FBE00907A3D44DB1012B67
:1068E0007FF45BAFFFF70AFD039B83427FF455AF54
:1068F0000FE00B220699079307F0B8FE079B0028CC
:106900007FF46EAF99F80020D20702D501220492DD
:1069100066E71BF4006F00F0D1803EE71BF4007FB8
:106920003FF43BAF0BF00303013B012B3FF635AFC8
:10693000002C08BFD046BC4202D3049BCBB91FE059
:106940000021304600F053FA10B973785BB124E7A8
:106950000134E4B2EFE7B3681B79012BEDD81034B2
:10696000E4B2A742E9D9304600F0EAF80028F2D1B3
:1069700013E749463046FFF7AFFE00283FF40DAF5E
:106980004FEA4811304600F04FFA00283FF405AFB7
:106990007D1EEDB22C464FF0000A4FF00F0841E08B
:1069A0000021304600F023FA074600283FF4F5AEF8
:1069B000B26892F82430AC4243F0010382F82430EC
:1069C0000CBF44F040022246027080F80B8080F831
:1069D0000CA009F10D000392FFF790FC039A787365
:1069E00087F81AA087F81BA002F01F020D23013AB6
:1069F000D9F808E05A4300230299914215D91EF8AC
:106A00000210042B5FFA83FC03F1010013D807EB9B
:106A10004303A3F801100D2802F101020346EBD154
:106A2000013CE4B2002CBBD10EE014BF4FF0FF31AB
:106A3000002189B2E5E7BCF10A0F94BF07EB4303DD
:106A400007EB40039980E6E7736921463046C3F3BC
:106A50004F1A00F0CCF9074600283FF49EAE2022E2
:106A6000214607F01DFE4B4653F80D2F3A605A6839
:106A70007A601A893A819B7ABB7299F8003003F0E8
:106A800018033B73184B1B682BB107F10E0107F17C
:106A90001000984706E021233B7428237B740823C9
:106AA000BC73FB733B8A7B823B83FB89FB82B268AE
:106AB00092F8243043F0010382F8243000955B46BD
:106AC00052463146059800F0F8F909E0012777E6CB
:106AD0000EF1010EBEF10D0F3FF482AED446C3E6B7
:106AE00009B0BDE8F08F00BFBCE1032002F08CBB11
:106AF00002F08ABB02F088BB10B50C46017809B9D8
:106B0000002010BD11F0600104D02F23237000235A
:106B1000637006E000F054F80028F1D0214600F040
:106B20005EF8012010BD02F06FBB8378016943F06D
:106B30000403837000F11002806800F071BD000052
:106B40002DE9F041037803F02003044603F0FF052C
:106B50000BB100262EE04269184B9A42F9D8FFF794
:106B6000E4FF06460028F4D02169A06800F0EDFC9F
:106B70000746A06805223946243000F0C2FC804652
:106B80000028E6D029464FF4007207F089FD012560
:106B9000A3681A79AA4209D94246E919186801F08E
:106BA0002DF80028D5D00135EDB2F1E7636903EB8C
:106BB000422363613046BDE8F08100BFFFFD1F0046
:106BC00010B5044680680A462430A16900F099FC9B
:106BD00020B1A38803F00F0300EB431010BDF0B504
:106BE0000024451E082623462E2715F8012F202AAB
:106BF00018D0082C02BFCF545A1CD3B22A78A2F165
:106C0000410E08BF1026BEF1190F06D890F80CE00F
:106C100016EA0E0F1CBF2032D2B203F1010ECA5485
:106C20005FFA8EF301340B2CDFD10022CA541846D0
:106C3000F0BD70B5047805460E4684B9242221467D
:106C400007F02EFDAE60F379102B03D0202B06D178
:106C5000402300E0202301202B70A87070BD00208D
:106C600070BD2DE9F74F03780446894615464BB1B0
:106C70008278D10706D50CE05A46216900F06BFCFA
:106C800000283DDA637843F0020363704FF0FF3071
:106C900097E01A0703D5E36962699B1A07E09A0631
:106CA00008D5A3681A896369C3EB42139BB29D425E
:106CB00028BF1D462E464FF0000804F1100B002E91
:106CC00035D022786369A06812F0200FC3F3080A58
:106CD0004FEA532102D0036A19441DE090F8058061
:106CE00001EA0808BAF1000F10D1B8F1000F0DD178
:106CF000002BC1D153064CBF036A236A236105E010
:106D000004D1237813F0700F11D1BBE72169A0687B
:106D100000F01BFC08EB0001A068BAF1000F35D1B0
:106D2000B6F5007F32D3C36A994202D12EE0A81B88
:106D300047E0B6F5806F1BD3227897064FEA562AB4
:106D400006D40279C8EB0202D2B2924528BF92461D
:106D500099424FEA4A2707D2A06853464A4600683C
:106D600000F00AFF60B98DE75344994221D3F3E75D
:106D70004A46006800F0B8FE002883D04FF4007740
:106D800063693B44B9446361F61B98E700222430F1
:106D900000F0B7FB00283FF475AFCAF50077B742A3
:106DA00028BF374600EB0A013A46484607F06DFC1B
:106DB000E6E72430019100F07DFB01990028CBD15A
:106DC00060E703B0BDE8F08F73B501220DF1070154
:106DD000044646690569FFF744FF012805BF9DF891
:106DE000070066614FF0FF30256102B070BD37B516
:106DF0004369C3F34315044605B169B901220DF196
:106E000007012046FFF72DFF40B2012801D00020E6
:106E100008E063691F3300E02033A068636130300D
:106E200000EB451003B030BD2DE9F0410E4601786E
:106E300007690446002939D04569B5423AD00EB9F0
:106E4000066131E00B0703D5C3699E422ED807E0E7
:106E5000880605D5A3681B89B6EB431F26D823E017
:106E6000D4F808E09EF806306A1E03F10900731E8C
:106E7000C240C3409A4200D84DB94A064CBFDEF822
:106E80002020226A22611D4604F110080AE09B1AA4
:106E9000F9E742462169A06800F05DFB002805F192
:106EA000FF3503DD002DF4D1666103E0276100208A
:106EB000BDE8F0810120BDE8F081F8B50F46154628
:106EC0000021242204461E4607F0EAFBB868A060B1
:106ED00005F00F02A58000F1300152013B6AE3602A
:106EE0001144CB7A1D074CD4831893F83B3003F040
:106EF00017032370C97A11F0180F04BF43F0080379
:106F000023709DF81830E37006F00303012B09D0BD
:106F1000022B05D0002B34D1710532D4012302E0BD
:106F2000032300E00223A370A1788B0703D5237805
:106F300013F0110F25D14BB216F4005F06F00801D3
:106F400014BF6FF07F07002719433943A170C36A4C
:106F5000A36102447505B2F84410B2F84A3043EA1E
:106F6000014104D581B100F096FB68B909E02162C6
:106F7000D36CE36173040CD5E1692046FFF754FF3D
:106F800038B900202070F8BDA37843F00403A37043
:106F9000F0E70120F8BD2DE9F743037806460D46DA
:106FA000174653BB0B7813F0700F26D04C6914F0C2
:106FB0001F0422D1A04600212846D5F81490FFF7DF
:106FC00016FFD0B10378C3B12E2B01D10024F2E714
:106FD000E52BFBD0C17A11F0080F05D17CB1FFF78A
:106FE0008DF9804509D10AE00F29EFD15906E2D584
:106FF00003F01F0490F80D80DDE7002007E0009407
:107000003B46C9F34F1229463046FFF756FF03B0FF
:10701000BDE8F08338B5037804460BB9012038BDCC
:1070200083785A0723D50121FFF7CAFD054628B901
:10703000637843F001036370002038BD0378E52BCB
:10704000F6D023781B0744BFE369C361238C4383D5
:10705000638C8382094B1B682BB100F11601183039
:1070600098472B8B6B82A37823F00403A370A0684E
:10707000FFF737F90028DBD0D0E700BFBCE10320E1
:1070800010B50446FFF7C6FF0023237010BDF0B50E
:1070900093B01F4600238DF824308DF825300378F7
:1070A000019206460C460BB100203DE00B7813F030
:1070B000700FF9D013782F2B12D1019B1A782F2A39
:1070C00002D101330193F8E7A1681AB93046FFF7FE
:1070D000B0FD29E009A8FFF7ACFD0028E4D009AC19
:1070E00001AA03A90198FFF7A9F90028DCD0019BA8
:1070F0001B789BB1002303AA21463046FFF742FBD1
:107100000028D1D035460FCD09AC0FC40FCD0FC428
:107110002B6823603046FFF7B3FFE0E73B4603AA46
:1071200021463046FFF72EFB13B0F0BD00B58BB003
:1071300000238DF804308DF805300A4601230146FE
:1071400001A8FFF7A4FF10B101A8FFF763FA0BB085
:107150005DF804FB2DE9F0410B7813F0700F88B057
:1071600004460F461CD040F60223FFF70BFBB8B1D4
:1071700001261025A67025702046FFF7E1FC78B1A6
:107180002369236200212046FFF74EFE2046FFF7C9
:1071900041FF28B131462046FFF712FD034608B9EA
:1071A000002051E0C57202466E4600F1200C6D468B
:1071B00010685168B646AEE803000832624576466C
:1071C000F6D1B3F814805E8B2E238DF80030202189
:1071D0000023EA1801330A2B5170FAD1216AA06802
:1071E00000F0B3F9A3680146012203F1240000F086
:1071F00088F903460028D3D0ADF81A60ADF81480A2
:10720000AE4606460DF1200C724603CA6245306058
:107210007160964606F10806F6D12E228DF80120FF
:107220003A6AADF81A20110CADF81410203308AEEC
:107230002A4603CAB24218605960154603F1080392
:10724000F6D1A068FFF74DF808B0BDE8F081F0B5C1
:1072500093B01F4600238DF824308DF82530037835
:10726000019206460C46002B3ED10B7813F0700FAE
:107270003AD013782F2B0CD1019B1A782F2A02D1E8
:1072800001330193F8E7A16809A8FFF7D2FC58B3CE
:1072900009AC01AA03A90198FFF7D0F820B3019B1C
:1072A0001B78DBB1002303AA21463046FFF76AFAB8
:1072B00058B135460FCD09AC0FC40FCD0FC42B68A4
:1072C00023603046FFF7DCFEE2E76FB103AA2146F8
:1072D0003046FFF73FFF0028EBD105E003AA214627
:1072E0003046FFF737FF00E0002013B0F0BD00008C
:1072F0002DE9F0470378894619070446904608D5DA
:1073000083789A0705D51B070BD5E169FFF78CFD3C
:1073100038B9637843F0010363704FF0FF30BDE884
:10732000F0876369DB439845F3D846464FF0000A7F
:107330006369002E00F08180A068427912EA53252B
:10734000C3F308071CD1DFB9216971B104F1100240
:1073500000F001F90028DCDB40F08E802046FFF7CA
:10736000E4FB002840F08880D3E7236A3BB920463D
:10737000FFF7DBFB0028CCD02369236200E0236108
:107380002169A06800F0E1F8291817B9B6F5007F67
:1073900021D2C7F50075B54228BF354637B96369B4
:1073A000E269934234BF0122052200E00122A06875
:1073B000243000F0A6F80028ABD038442A464946CD
:1073C0002F4407F062F9B7F5007F30D1A068243070
:1073D00000F070F817E0B6F5806FA06815D3027959
:1073E000521B730AD2B2934228BF1346C26A91421B
:1073F0004FEA432502D31A44914237D3A7684A463D
:10740000386800F06DFC90B983E7C36A994202BF07
:107410004FF0FF3380F824A0C362A3684A4618687F
:1074200000F0ECFB00283FF474AF4FF40075636983
:107430002B446361A944761B7AE7E269934201D940
:10744000E36102E00F4B1B681BB1A37843F0040318
:10745000A37094F90230002B02DB4046BDE8F087B0
:107460002046FFF7D7FD0028F7D152E74FF0FF3253
:1074700080F824A0C262C1E72169A06800F065F825
:10748000014683E7BCE1032001F0BEBE70B50546AE
:107490000C46084649B108F0D1F82B68024621464F
:1074A0002846DB68BDE87040184770BD01F0ACBEEF
:1074B00001F0AABE70B50378DA0704461ED543680A
:1074C000816800F10C063246186800F097FB05460B
:1074D00008B9002513E023789B0704D4237823F010
:1074E000010323700BE06368A06819693246014408
:1074F000186800F083FB0028F0D1EAE70125284650
:1075000070BD70B583688B4204460E46154614D094
:10751000FFF7D0FF08B9002070BD6B0703D500232B
:107520002370A66009E0636804F10C023146186814
:1075300000F0DAFA0028F2D1EDE72378204605F0D2
:1075400003051D4300F80C5B70BD83794069023967
:10755000994008447047012970B505460C46164607
:1075600002D84FF0FF3070BDC3699942F9D8C37992
:10757000202B10D18169022201EBD41100F50C708F
:10758000FFF7BFFF0028ECD004F07F0450F8243050
:1075900023F070430FE0102BE3D18369C1F307217F
:1075A0000222194400F50C70FFF7ABFF0028D8D079
:1075B000E4B230F81430EA6993429ABF3360012094
:1075C000002070BD012938B50C46154601D80020B1
:1075D00038BDC3699942FAD8C379202B0ED181698D
:1075E000032201EBD41100F50C70FFF78AFF00288D
:1075F000EDD004F07F0440F824500FE0102BE6D1CA
:107600008369C1F307210322194400F50C70FFF7C9
:1076100078FF0028DBD0E4B220F81450012038BDF8
:107620002DE9F341C4688C4205460E46904607D2C8
:107630000C460027EB6901349C4203D9CFB9EC68B2
:107640000127F7E7A64214D001AA21462846FFF7F2
:1076500082FF00280DDBEDD0019B002BEAD107B1A2
:10766000EC606FF0704221462846FFF7ABFF0746FB
:1076700008B900270BE016B9C8F8004007E0224619
:1076800031462846FFF79EFF0028F5D1F1E738463E
:1076900002B0BDE8F08173B505460C4601AA21464B
:1076A0002846FFF758FF061E01DA00200FE00022EF
:1076B00021462846FFF786FF0028F6D0EB689C425B
:1076C0009CBF04F1FF34EC60019C002EE6D102B0B7
:1076D00070BD70B5012304460022C3604FF0FF3334
:1076E000C2710D46A06280F82420C362C4F834023F
:1076F00080F83022C0F83832A1B104295DD8114693
:107700002430FFF7FEFE002857D000EB051393F856
:10771000AE315B0651D11B3500EB0515D5F806508F
:10772000002D4AD00022294604F12400FFF7E9FE8B
:10773000002842D0B0F80B30B3F5007F3DD1037C78
:10774000022B3AD1C389002B37D0417B21714B1ECC
:1077500063710023A371092601238B4207D0013EE8
:107760002BD0A2795B000132DBB2A271F5E7C28AAD
:1077700002B9426A2261C6892E44A661B0F811306E
:10778000238106EB42012162B0F81120520102F27E
:10779000FF1201EB62226261B0F8133003B9036A91
:1077A000AD1A2B44A57923FA05F56B1CE36140F66D
:1077B000F4739D4203D80C23E371002070BD4FF693
:1077C000F4739D4285BFC36A236210232023E371B3
:1077D000012070BD01F018BD01F016BD01F014BD0F
:1077E00070B50E4C0E46154601F0A6FD2368C01A72
:1077F0000B4B984208D901F0A7FD0A4B186001F025
:10780000D9FF01F099FD206001F09EFD80B2801B40
:10781000A842D4BF0020012070BD00BFC0E10320FA
:10782000A086010008E6032038B5057A04464DB964
:10783000406800F07DFA63682946187D03F02BFF4D
:107840000123237238BD10B5037A04466BB1436837
:107850000121187D03F01FFFFF21606800F09AFAF4
:10786000606800F079FA0023237210BDF8B5044671
:107870000D46164601F068FD87B2606800F06FFAA9
:10788000FF28607209D14FF47A7239462046FFF71B
:10789000A7FF0028F1D055230BE0FE2801D050238C
:1078A00007E032462946606800F05EFA607230B147
:1078B000602320462370FFF7C6FF0020F8BD6068F4
:1078C00000F04DFA606800F04AFA0120F8BD70B58A
:1078D00004460E4601F038FD85B232462946204660
:1078E000FFF77EFF30B9606800F039FAFF28F4D165
:1078F000012070BD002070BDF7B5037A01920446E7
:107900000D460BB9FFF790FF25B14FF49671204655
:10791000FFF7DDFF45F04001606800F03BFA0DF134
:1079200007060DF1030716F80119606800F032FA36
:10793000BE42F8D1002D0CBF95218721606800F070
:1079400029FA606800F00BFA0B25606800F007FA6E
:107950000306607203D5013D15F0FF05F5D103B0B4
:10796000F0BD70B504460D46164637210022FFF7DC
:10797000C3FF324629462046BDE87040FFF7BCBF32
:107980002DE9F041002505720570857241600446BD
:1079900090461E4601F0D8FC41460746606800F05C
:1079A000CBF963684F4A1D724FF00108DA605D74CD
:1079B00083F810802046FFF737FF63684146187D43
:1079C00003F069FE0A25FF216068013D00F0E2F93D
:1079D00015F0FF05F7D163682946187D03F05BFEBB
:1079E0000A25002211462046FFF786FF012880461F
:1079F00012D0013D15F0FF0501D1202357E0FD21F4
:107A0000606800F0C7F94FF40278606800F0A7F9E9
:107A1000B8F10108F9D1E4E74FF4D5720821204606
:107A2000FFF76AFF052802D184F80A800FE00425D9
:107A3000606800F094F9013D15F0FF056072F7D120
:107A4000AA2802D10223A37201E025232FE0A37A02
:107A5000022B0CBF4FF080450025BFB22A462921DA
:107A60002046FFF77EFF024648B14FF4FA623946DE
:107A70002046FFF7B5FE0028F0D0432317E0A37A95
:107A8000022B0ED02046FFF7DEFE6368B068347923
:107A9000317B727B5A74D8601C7219740120BDE866
:107AA000F0813A212046FFF727FF38B137232046DF
:107AB0002370FFF7C8FE0020BDE8F081606800F089
:107AC0004EF900F0C000C02804BF0323A372606811
:107AD00000F045F9606800F042F9606800F03FF995
:107AE000D0E700BF90D0030038B5837A032B18BFCE
:107AF000490215460A4611210446FFF7FDFE10B162
:107B0000302323700BE029464FF400722046FFF724
:107B1000ADFE054618B12046FFF795FE03E020466E
:107B2000FFF791FE0025284638BD10B5837A032B58
:107B30000A4618BF4A0212210446FFF7DDFE30B1A3
:107B4000312320462370FFF77EFE002010BD012068
:107B500010BD10B500220C210446FFF7CDFE30B158
:107B6000282320462370FFF76EFE002010BD20461C
:107B7000FFF769FE012010BDF8B5054616461F4601
:107B8000FFF7D3FF98B10024A3B29F4206EB442134
:107B900008D94FF400722846FFF768FE0134002828
:107BA000F2D104E02846BDE8F840FFF7D2BF00203C
:107BB000F8BD38B504461546406800F0EBF84FF4C0
:107BC00000722946606800F0E9F8FF21606800F063
:107BD000E1F8FF21606800F0DDF8606800F0BFF8B0
:107BE000607200F01F00052806D05723204623703E
:107BF000FFF729FE002038BD012038BD70B5837A1B
:107C0000032B18BF490215460A4618210446FFF700
:107C100073FE064608B132231DE02A46FE212046A7
:107C2000FFF7C7FFC0B14FF4FA612046FFF74FFEE0
:107C3000054608B95A230EE032460D212046FFF7CB
:107C40005BFE38B9606800F08AF818B92046FFF783
:107C5000FAFD05E0292323702046FFF7F4FD0025F7
:107C6000284670BD38B50D464FF4FA610446FFF75B
:107C70002EFE10B95B23237005E02A46FC21204626
:107C8000FFF797FF18B92046FFF7DDFD002038BD4C
:107C900010B5837A032B0A4618BF4A0219210446FD
:107CA000FFF72AFE30B1332320462370FFF7CBFDC8
:107CB000002010BD012010BD38B54FF4FA61044614
:107CC000FFF705FE054620B1FD21606800F062F86F
:107CD00001E0562323702046FFF7B5FD284638BD46
:107CE000F8B5054616461F46FFF7D2FF70B10024CF
:107CF000BC4206EB4421284604D0FFF7B3FF28B16D
:107D00000134F5E7BDE8F840FFF7D6BF2846FFF796
:107D10009AFD0020F8BD01F077BA01F075BA01F0C4
:107D200073BA0000014B01221A707047C4E10320AE
:107D3000011D006801F05EBE10B5044601750068C3
:107D400001F02EFE207D012103F094FC207D012115
:107D5000BDE8104003F09FBC006801F032BEFF2177
:107D6000006801F0B7BE000037B5084B009300254E
:107D7000074C0068257013460A46294601F0B0FEFC
:107D80002378002BFCD0002003B030BD257D0D00F2
:107D9000C4E10320006801F09DBE000037B5074B29
:107DA00000930025064C0068257013462A4601F012
:107DB00097FE2378002BFCD003B030BD257D0D004D
:107DC000C4E1032001F020BA10B5044603F0AEFC74
:107DD000036821469B68BDE81040184708B503F0CA
:107DE000A5FC03685B699847C0B208BD38B5044676
:107DF0000D4603F09BFC217841F0200103F07DFA51
:107E00002846FFF7E1FF03F091FC03F07DFA03F051
:107E10008DFC2178012241F0200103F067FABDE8D2
:107E20003840FFF7DBBF70B5064614460D4603F039
:107E30007DFC317841F0200103F05FFA2846FFF71E
:107E4000C3FF2046FFF7C0FF03F070FCBDE87040A1
:107E500003F05ABA2DE9F0419DF81860072998BF40
:107E60001E4601F007079046314601240546BC40F6
:107E7000FFF7BCFFB8F1000F01D0044301E020EA96
:107E80000404E2B231462846BDE8F041FFF7CBBF1B
:107E900010B5072928BF07210170044603F046FCEE
:107EA00003F0F0F92046FF220021FFF7BCFF204637
:107EB000FF220121BDE81040FFF7B5BF0021FFF709
:107EC000E7BF07B50123B2FA82F2009352090023FB
:107ED000FFF7C0FF03B05DF804FB0829F8B501F017
:107EE00007060C4634BF1421152105461746FFF737
:107EF0007DFF0123B3400FB1034301E020EA0303F8
:107F0000082CDAB2284634BF12211321BDE8F8400C
:107F1000FFF789BF07B50D2300930C23FFF79AFFE6
:107F200003B05DF804FB01F06FB9704710B50C4663
:107F300003F0FCFB602103F0E0F903F0F7FB0368BA
:107F400021469B68984703F0F1FB002103F0D8F924
:107F500003F0ECFB0122602103F0C8F903F0E6FB1B
:107F600003685B699847C0B210BD10B5044603F0C2
:107F7000DDFB03F087F90C212046FFF7D7FFA0F1C6
:107F8000C4035842584110BD38B514460D4603F09D
:107F9000CDFB602103F0B1F903F0C8FB036829466B
:107FA0009B68984703F0C2FB036821469B6898478B
:107FB00003F0BCFB0121BDE8384003F0A1B910B5C6
:107FC00026210446FFF7B2FF262100F07F0220465B
:107FD000BDE81040FFF7D8BF072928BF072138B5F3
:107FE0000D4626210446FFF7A1FF00F0C70040EA36
:107FF000C502D2B220462621BDE83840FFF7C4BFF3
:1080000007221321FFF7C0BF10B526210446FFF752
:108010008DFF262100F0FD022046FFF7B5FF262147
:108020002046FFF783FF40F00202D2B2204626210D
:10803000BDE81040FFF7A8BFF8B500210746FFF7DD
:1080400075FF00213846FFF771FF03F06FFB6021D9
:1080500003F053F903F06AFB0121FDF73EFD03F045
:1080600065FB002103F04CF903F060FB0322602163
:1080700003F03CF903282CD103F058FB03685B693B
:108080009847064603F052FB03685B69984704462D
:1080900003F04CFB03685B6998473604240206F43E
:1080A0007F0604F47F44C5B234432C433846FFF7BF
:1080B000ABFFC5F30115A31107EE905A00EE103A7D
:1080C000F8EE677AB8EEC00AB5EE007AA7EE870A36
:1080D000F8BD9FED010AF8BD00C079C401F094B865
:1080E0002DE9F84F2DED028B41F278650446435996
:1080F0008A4623B99FED2A0A81ED000A4CE000F57B
:10810000B35341F2746B186905F01AFC0022254B39
:1081100005F06AFC0646605954F80B3007EE900AE9
:10812000F8EE677A0F4617EE900A08EE103A05F05F
:1081300007FC32463B4605F057FCF8EE487A80468D
:1081400017EE900A894605F0FBFB02460B464046B7
:10815000494605F073FD05F03FFF002344F80B305E
:10816000635141F27C658046605907EE900AF8EE53
:10817000677A17EE900A05F0E3FB0B460246394694
:10818000304605F05BFD05F027FF4FF0FF33CAF8DE
:10819000000000EE108A6351BDEC028BBDE8F88F41
:1081A0000000000000408F40F8B5054603F0BEFA1D
:1081B00002224D2103F09AF803F0B8FA03681B6914
:1081C0009847022832D103F0B1FA03685B699847F7
:1081D000064603F0ABFA03685B69984740EA06205D
:1081E00007EE900AF8EE677A05F5B55417EE900A97
:1081F00005F0A6FB0022104B05F0F6FB0CA3D3E91B
:10820000002305F0F1FB064620690F4605F098FBB8
:1082100002460B463046394605F034FA05F0DCFEDE
:1082200041F2B4622061AB580133AB50F8BD00BFDE
:1082300048E17A14AE472B400000303F41F2B4626F
:1082400000F5B5538158D3ED046A07EE901AB8EEE5
:10825000677A82B0C6EE877A0021196100238350C5
:108260009FED057A67EE877AFCEEE77ACDED017A2D
:10827000BDF8040002B0704700007A4400F5B35323
:1082800093ED000AD3ED027AB8EE400A00221A609C
:1082900020EE270A70470000F8B541F290672DEDF7
:1082A000028BC3599FED288A0446002B41D007EE6C
:1082B000903A00F5B456D6ED036A96ED027AF8EEE0
:1082C000677A3546C7EE278A86EEA77AC7EE287A00
:1082D00017EE900A05F034FB41EC100B03F04CFD57
:1082E000002251EC100B194B05F07EFB14A3D3E9CF
:1082F000002305F0A3FC05F06FFEF4EEC88AF1EE52
:1083000010FA00EE100A48BFDFED117A86ED028AFE
:1083100048BF30EE270A0023B5EEC00AF1EE10FA8E
:1083200085ED038AE35106D5DFED0A7A30EE270AA0
:1083300001E0B0EE480ABDEC028BF8BDAFF300805F
:108340006E861BF0F92109400000000000806640A5
:10835000000034430000B443A1F69803C72B42D970
:10836000A1F63403632B41D9A1F54863622B40D9B0
:10837000A1F61C43632B3FD9A1F632736C2B3ED977
:10838000A1F674634F2B3DD9A1F6C4636D2B3CD984
:10839000A1F64853632B3BD9A1F6F253812B3AD96E
:1083A000A1F62823632B39D9A1F6BE23632B38D934
:1083B000A1F2E653452B37D9A1F22C63452B36D9D0
:1083C000A1F2BE53272B35D9A1F26C73632B34D99C
:1083D000A1F2A461DFED1A7A3229BFEE000A38BF9C
:1083E000B0EE670A70479FED170A70479FED160AB7
:1083F00070479FED160A70479FED150A70479FED75
:10840000150A70479FED140A7047B1EE060A7047CF
:108410009FED120A70479FED120A70479FED110AF7
:1084200070479FED110A70479FED100A70479FED4E
:10843000100A70479FED0F0A70479FED0F0A7047B3
:10844000295C2F40C3F5484085EB61401F857B4088
:10845000713D8A4052B896401F85A340E17ABC40E6
:108460000000000014AEC73E713D4A3F3D0A973FF1
:10847000C3F5C83F48E1FA3F3D0A1740000000003D
:1084800030B52DED028B41F2846383B00446C05AAF
:1084900003F01AF901462046FFF75EFFB5EEC00A69
:1084A000F1EE10FA3CDD10EE100A05F049FA1EA3B9
:1084B000D3E9002341EC180B05F008FD80B3B0EEC2
:1084C000480AF0EE680A03F0A3FE04F5B45553EC35
:1084D000102BA868CDE9002305F032FADDE900236E
:1084E00005F0D0F805F078FDB0EE480AF0EE680A25
:1084F000A86003F0F5FE04F5B45553EC102BE868C2
:10850000CDE9002305F01CFADDE9002305F0BAF8F7
:1085100005F062FD41F29062E860A3580133A35078
:1085200003B0BDEC028B30BD37C30DF8FC90184092
:1085300030B585B002AA03A90446FDF7C0FEDDED03
:10854000037AB2EE047A67EE877A0546FCEEE77AA4
:1085500004F10A0017EE901A01F6AC2189B200F07E
:10856000D8FDDDED027AFCEEE77A04F60630CDEDBB
:10857000017ABDF8041000F0CCFD002D48D09DED2F
:10858000027AB5EEC07AF1EE10FA13DDDFED317A42
:10859000B4EEE77AF1EE10FA0CD504F5B453D3ED4E
:1085A000057A77EE877A41F29862C3ED057AA3588F
:1085B0000133A350039805F0C3F90022264B05F0C0
:1085C00013FA0022254B05F039FB0022244B05F05D
:1085D00059F805F001FDDFED237A07EE100AB4EE3D
:1085E000E77AF1EE10FA13DDDFED1F7AB4EEE77AE9
:1085F000F1EE10FA0CD504F5B453D3ED077A77EE0B
:10860000877A04F5B552C3ED077A13680133136016
:1086100004F10800FFF710FDDFED147AB4EEE70A6D
:10862000F1EE10FA13DDDFED127AB4EEE70AF1EEA7
:1086300010FA0CD504F5B553D3ED017A37EE800A64
:1086400041F2A86283ED010AA3580133A35005B09B
:1086500030BD00BF0000D2420000224000001440A4
:1086600000004040000048C20000164300409C4704
:1086700000D8D64700F5B5529FED090A13686BB1D3
:1086800007EE903A00F5B45090ED077A80ED070AB6
:10869000F8EE677A002387EE270A1360704700BF61
:1086A0000000000041F2A8619FED090A43586BB138
:1086B00007EE903A00F5B55292ED017A82ED010A8B
:1086C000F8EE677A002387EE270A4350704700BF11
:1086D000000000000000000037B5054600F5B0506E
:1086E0000430FCF7CFFD424C01A920602846FFF77B
:1086F000F7FC10EE100A05F023F939A3D3E90023A3
:1087000005F072F941EC100B03F0F2FC51EC100B88
:1087100005F042FCE0802846FFF7B0FDDFED357A3A
:1087200060EE277A17EE900A05F00AF941EC100B7B
:1087300003F0DEFC51EC100B05F02EFCA081284666
:10874000FFF7AAFD10EE100A05F0FAF841EC100B45
:1087500003F0CEFC51EC100B05F01EFCA080284667
:10876000FFF788FF10EE100A05F0EAF80022224B0E
:1087700004F086FF0022214B05F036F90022204B41
:1087800005F05CFA18A3D3E9002304F07BFF41EC69
:10879000100B03F0ADFC51EC100B05F0FDFB6081FC
:1087A00005F6063000F0F8FC05F0A8F841EC100BD7
:1087B00003F09EFC51EC100B05F0EEFB20722846F6
:1087C000FFF770FFF2EE047A80EE270A284684ED68
:1087D000040AFFF733FDE08203B030BDAFF3008041
:1087E0008FC2F5285C259940000000000057A54085
:1087F0000CD803200070C6460000404000004940ED
:1088000000002240F8B50446104692681E4602F168
:10881000080323F0070300AFADEB030D6946002307
:10882000013201F0A0FB2E2168466D4606F0B6F934
:10883000A8B10346F21AD042194603D40A7801338C
:10884000002AF7D100224B1E0A701978302902D174
:1088500003F80129F9E72E2904BF00221A702946DE
:10886000204601F084FA2046BD46F8BD0000000015
:108870002DE9F0479E4C9F4DC0B00E4680460A221F
:108880002168684601F00CFB694604A801F0AEFAC5
:10889000294604A801F055FB0A220746A18808A82A
:1088A00001F0EBFA08A9384601F03FFB294601F038
:1088B00048FB8146E088904F07EE900AF8EE677A11
:1088C00017EE900A05F03CF883A3D3E9002305F0E6
:1088D000B5F902460B460CA8394601F089FB012385
:1088E0000CAA314610A8FFF78DFF10A9484601F0E9
:1088F0001CFB294601F025FB0A228146217A14A897
:1089000001F0A9FA14A9484601F00FFB294601F02D
:1089100018FB8146608907EE900AF8EE677A17EE39
:10892000900A05F00DF86EA3D3E9002304F0A8FE29
:108930000022724B05F058F80022714B05F07EF9C9
:108940000022704B04F09EFE02460B4618A83946E2
:1089500001F04EFB18AA012331461CA8FFF752FF75
:108960001CA9484601F0E1FA294601F0EAFAA38978
:108970009FED657ADFF89C9107EE903AF8EE677A02
:108980008246C7EE876A16EE900A04F0D9FF0246C7
:108990000B4620A8494601F02BFB20AA03233146B1
:1089A00024A8FFF72FFF24A9504601F0BEFA29465C
:1089B00001F0C7FA8246206904F0C2FF4AA3D3E956
:1089C000002305F03BF902460B4628A84F4901F069
:1089D0000FFB28AA022331462CA8FFF713FF2CA96E
:1089E000504601F0A2FA294601F0ABFA8246A08A6D
:1089F00004F094FF38A3D3E9002305F01FF905F034
:108A0000EBFA04F09DFF02460B4630A8394601F010
:108A1000EFFA30AA0123314634A8FFF7F3FE34A958
:108A2000504601F082FA294601F08BFA0546E08AA9
:108A300007EE900AF8EE677A17EE900A04F080FFCE
:108A40000022334B05F0FAF802460B4638A8494697
:108A500001F0CEFA032338AA31463CA8FFF7D2FE34
:108A60003CA9284601F061FA0146404601F0BEF9F2
:108A70003CA801F035F938A801F032F934A801F02A
:108A80002FF930A801F02CF92CA801F029F928A819
:108A900001F026F924A801F023F920A801F020F91B
:108AA0001CA801F01DF918A801F01AF914A801F08A
:108AB00017F910A801F014F90CA801F011F908A891
:108AC00001F00EF904A801F00BF9684601F008F96D
:108AD000404640B0BDE8F0878FC2F5285C2599403C
:108AE000000000000057A540A1D634EF382A754099
:108AF0000CD80320A4030E00A6030E0000002240A1
:108B000000004940000040400070C646B0030E001F
:108B100000408F40AB030E002DE9F04107460C46A4
:108B200015462AB90368C9B29B68BDE8F0411847E9
:108B3000002907DA0A2A05D12D2101F0BFFA614286
:108B4000064601E021460026EAB2384601F0D5FA91
:108B50003044BDE8F08100F057BB000041F2746280
:108B6000002330B5835041F278624FF0FF318350DB
:108B700041F27C6200F10805815000F5B4528BB0DF
:108B8000136004462846FFF7F0F92846FFF717FA66
:108B900007212846FFF720FA2846FFF731FA20463A
:108BA000FDF782FB04F5B25402F0BEF94FF4165102
:108BB00002F0AEF90C3402F0B7F9694901F09BFA02
:108BC0002046FDF754FA18B102F0AEF9654902E00B
:108BD00002F0AAF9644901F08EFA69462046FDF7D1
:108BE00045F902F0A1F9614901F085FA02F09CF91A
:108BF0005F4901F066FA02F097F9694601F071FAEF
:108C000002F092F95B4901F05CFA02F08DF90A2258
:108C100003990546FFF780FF284601F056FA02F057
:108C200083F9554901F04DFA02F07EF90A220499C0
:108C30000546FFF771FF284601F047FA02F074F984
:108C40004E4901F03EFA02F06FF99DED060A02214D
:108C500001F032FB02F068F9494901F04CFA02F0E8
:108C600063F9484901F02DFA02F05EF99DED070A1B
:108C7000022101F021FB02F057F9414901F03BFAD2
:108C800002F052F9404901F01CFA02F04DF99DED55
:108C9000080A042101F010FB02F046F9384901F0FE
:108CA0002AFA02F041F9314901F025FA02F03CF9C3
:108CB000364901F020FA4FF4FA7001F0EDFC102172
:108CC0002046FDF7BBF902212046FDF70DFA02F020
:108CD0002BF9264901F00FFA02F026F92C4901F090
:108CE000F0F92046FDF7FAF810280DD004D8A0B905
:108CF00002F01AF927490EE0202809D030280CD1BB
:108D000002F012F9244906E002F00EF9234902E0CC
:108D100002F00AF9224901F0EEF902F005F92149C1
:108D200001F0CFF902F000F905462046FDF7D8F82A
:108D300064210A2200FB01112846FFF7EDFE02F034
:108D4000F3F8194901F0D7F902F0EEF8074901F0FC
:108D5000D2F902F0E9F80D4901F0CDF90BB030BDC0
:108D6000B5030E00D5030E00EC030E0013040E0035
:108D700038040E0047040E0056040E0065040E0071
:108D800074040E0079040E0088040E00D4050E0051
:108D900097040E00A6040E00C8040E00AF040E00D7
:108DA000BC040E00D4040E00E3040E0050224270F6
:108DB00041F6FF7210B5426043F6FF728260C260F6
:108DC00047F6FF720261426182614FF6FF720170E5
:108DD000C2618024002200EB8101026244624A6881
:108DE00082627F3AD209C262046310BD2DE9F0416C
:108DF0001E4614460F46054602F098FC804602F0D7
:108E00008FFA02F093FC697802F073FA02F08EFC9C
:108E1000C7F30721FCF761FE02F088FCF9B2FCF70A
:108E20005CFE02F083FC02F06FFA02F07FFC224647
:108E3000697802F05BFA013C751E3444A54207D004
:108E400002F074FC03685B69984705F8010FF5E7C9
:108E500002F06CFC02F058FA4046BDE8F04102F026
:108E600068BA2DE9F0411E4614460D46804602F0D0
:108E70005DFC074602F054FA02F058FC98F8011025
:108E800002F037FA02F052FCC5F30721FCF725FE89
:108E900002F04CFCE9B2FCF720FE013C751E3444A4
:108EA000A54207D002F042FC036815F8011F9B6839
:108EB0009847F5E702F03AFC02F026FA3846BDE89A
:108EC000F04102F036BAF8B51446426A8A420746C3
:108ED0001ED8806A81421BD8621E7F2A1AD80A4493
:108EE000904219D31D46CE1A1D2C05EB060107D959
:108EF0002B461E223846FFF779FF1E351E3CF3E74E
:108F000024B12B46E2B23846FFF770FF0020F8BDCF
:108F10000120F8BD0220F8BD0320F8BDF8B51446C5
:108F2000426A8A4207461ED8806A81421BD8621E66
:108F30007F2A1AD80A44904219D31D46CE1A1D2CF6
:108F400005EB060107D92B461E223846FFF789FF9D
:108F50001E351E3CF3E724B12B46E2B23846FFF73C
:108F600080FF0020F8BD0120F8BD0220F8BD0320DD
:108F7000F8BD10B5046B836A2144994238BF016380
:108F80004FF000032DBF0321A0B21370117028BF52
:108F9000184610BD10B50446802B084611462160C6
:108FA000029A2371E06004D25943FFF7E2FFA06008
:108FB00003E0042313700023A360204610BD70B5A6
:108FC000856816461C460DB9062303E003688B42EC
:108FD00002D80523237070BD0279C068334602FBB6
:108FE0000151FFF770FF207070BD70B5856816469F
:108FF0001C460DB9062303E003688B4202D8052303
:10900000237070BD0279C068334602FB0151FFF73F
:1090100085FF207070BD38B504461546802B084684
:10902000049A25602371E1600BD2013505FB03F141
:1090300025600C31FFF79DFFE368A0601B6BA36107
:1090400003E0042313700023A360204638BD836827
:109050006BB142690369816A0362134442625A1820
:10906000034643F81C2F0C22C068FFF757BF704718
:109070006323036264234362816A00F11C030C22B0
:10908000C068FFF720BF10B5044602F04FFB02F0A6
:109090003EF918B902F04AFB02F0F4F8A3690C3B60
:1090A000A3622046FFF7E4FF04F120010EC9E06946
:1090B0000B441344834213BF002321616261236187
:1090C00018BF63612046BDE81040FFF7C0BF00F045
:1090D0009BB8704700238380C3800370418800F5EC
:1090E000B0609AB28A4203D220F8022F0133F8E727
:1090F000704710B5044629B140F2BD239942A8BF7C
:10910000194600E0012120466180FFF7E3FF204679
:1091100010BDC288531C04329BB2C38020F81210C9
:109120004288934224BF0023C38083889A4284BF2D
:10913000013383800023037070472DE9F043B0F8BA
:1091400004E000260EF1FF3CB2B2624520DA0123B2
:109150001F46C2EB0E05AB4217DA00EB43020133A8
:10916000B2F88015B2F8824501F1040904F104084F
:1091700030F8199030F81880C14582BFA2F88045B8
:10918000A2F8821500279BB2E5E70136002FDBD05D
:1091900001230370BDE8F08310B583880446F3B162
:1091A00003780BB9FFF7C9FFA38813F0010F4FEA4B
:1091B000530304EB430305D0B3F88235043334F88A
:1091C00013300CE0B3F88225043234F81210B3F8EF
:1091D0008025043234F812300B44C3F34F03184691
:1091E00010BD00F011B8000008B5024B1B689B6869
:1091F000019308BD6802030008B5024B1B68DB68D9
:10920000019308BD6802030008B5024B1B681B6888
:10921000019308BD2C02030008B5024B1B685B6874
:10922000019308BD2C02030008B5024B1B689B6824
:10923000019308BD2C02030008B5024B1B68DB68D4
:10924000019308BD2C02030008B5024B1B681B6983
:10925000019308BD2C02030008B5024B1B689B69F3
:10926000019308BD2C02030008B5024B1B68DB69A3
:10927000019308BD2C02030008B5024B1B681B6B51
:10928000019308BD2C02030008B5024B1B681B6844
:10929000019308BD3002030008B5024B1B685B69EF
:1092A000019308BD3002030008B5024B1B68DB695F
:1092B000019308BD3002030008B5024B1B681B6A0E
:1092C000019308BD3002030008B5024B1B685B6ABE
:1092D000019308BD3002030008B5024B1B689B6A6E
:1092E000019308BD3002030008B5024B1B689B6B5D
:1092F000019308BD3002030008B5024B1B68DB6B0D
:10930000019308BD3002030008B5024B1B681B6CBB
:10931000019308BD3002030008B5024B1B685B6C6B
:10932000019308BD3002030008B5024B1B685B685F
:10933000019308BD1802030008B5024B1B681B69A6
:10934000019308BD1802030008B5024B1B685B6956
:10935000019308BD1802030008B5024B1B68DB69C6
:10936000019308BD1802030008B5024B1B689B6DF2
:10937000019308BD1802030008B5024B1B68DB6DA2
:10938000019308BD1802030008B5024B1B689B6ED1
:10939000019308BD3402030008B5024B1B689B68AB
:1093A000019308BD4802030008B5024B1B68DB6847
:1093B000019308BD4802030008B5024B1B681B69F6
:1093C000019308BD4802030008B5024B1B685B69A6
:1093D000019308BD4802030008B5024B1B68DB6916
:1093E000019308BD4802030008B5024B1B681B6AC5
:1093F000019308BD4802030008B5024B1B685B6A75
:10940000019308BD4802030008B5024B1B689B6A24
:10941000019308BD4802030008B5024B1B68DB6AD4
:10942000019308BD4802030008B5024B1B685B6C42
:10943000019308BD4802030008B5024B1B689B6CF2
:10944000019308BD4802030008B5024B1B681B6F5F
:10945000019308BD4802030008B5024B1B685B6915
:10946000019308BD6402030008B5024B1B681B682A
:10947000019308BD3C02030008B5024B1B68DB6882
:10948000019308BD3C02030008B5024B1B681B6931
:10949000019308BD3C02030008B5024B1B685B69E1
:1094A000019308BD3C02030008B5024B1B689B6991
:1094B000019308BD3C02030008B5024B1B68DB6941
:1094C000019308BD3C02030008B5024B1B681B6AF0
:1094D000019308BD3C02030008B5024B1B689B6A60
:1094E000019308BD3C02030008B5024B1B68DB6A10
:1094F000019308BD3C02030008B5024B1B68DB6802
:10950000019308BD2802030008B5024B1B689B6944
:10951000019308BD2802030008B5024B1B68DB69F4
:10952000019308BD2802030008B5024B1B681B6AA3
:10953000019308BD2802030008B5024B1B685B6A53
:10954000019308BD2802030008B5024B1B689B6A03
:10955000019308BD2802030008B5024B1B68DB6AB3
:10956000019308BD2802030008B5024B1B681B6B62
:10957000019308BD2802030008B5024B1B685B6B12
:10958000019308BD2802030008B5024B1B681B6C41
:10959000019308BD2802030008B5024B1B685B6CF1
:1095A000019308BD2802030008B5024B1B689B6CA1
:1095B000019308BD2802030008B5024B1B68DB6C51
:1095C000019308BD2802030008B5024B1B681B6D00
:1095D000019308BD2802030008B5024B1B681B68F5
:1095E000019308BD4C02030008B5024B1B685B6881
:1095F000019308BD4C02030008B5024B1B681B69B0
:10960000019308BD4C02030008B5024B1B685B695F
:10961000019308BD4C02030008B5024B1B689B690F
:10962000019308BD4C02030008B5024B1B68DB69BF
:10963000019308BD4C02030008B5024B1B681B6A6E
:10964000019308BD4C02030008B5034B1B68D3F817
:109650008030019308BD00006002030008B5024B92
:109660001B681B68019308BD2002030008B5024B6C
:109670001B685B68019308BD2002030008B5024B1C
:109680001B685B69019308BD2002030008B5024B0B
:109690001B68DB6A019308BD2002030008B5024B7A
:1096A0001B68DB6C019308BD2002030008B5024B68
:1096B0001B685B6D019308BD2002030008B5024BD7
:1096C0001B689B6D019308BD2002030008B5024B87
:1096D0001B68DB6F019308BD2002030008B5034B34
:1096E0001B68D3F88830019308BD000020020300F6
:1096F00008B5034B1B68D3F89430019308BD0000F4
:109700002002030008B5024B1B685B68019308BD8B
:109710004002030008B5024B1B689B68019308BD1B
:109720004002030008B5024B1B68DB68019308BDCB
:109730004002030008B5024B1B681B69019308BD7A
:109740004002030008B5024B1B685B69019308BD2A
:109750004002030008B5024B1B689B69019308BDDA
:109760004002030008B5024B1B68DB69019308BD8A
:109770004002030008B5024B1B681B6A019308BD39
:109780004002030008B5024B1B681B6B019308BD28
:109790004002030008B5024B1B685B6B019308BDD8
:1097A0004002030008B5024B1B681B68019308BD0B
:1097B0004402030008B5024B1B689B68019308BD77
:1097C0004402030008B5024B1B68DB68019308BD27
:1097D0004402030008B5024B1B685B69019308BD96
:1097E0004402030008B5024B1B681B6A019308BDC5
:1097F0004402030008B5024B1B681B6B019308BDB4
:109800004402030008B5024B1B68DB6B019308BDE3
:109810004402030008B5024B1B681B68019308BD96
:109820001C02030008B5024B1B685B68019308BD6E
:109830001C02030008B5024B1B689B68019308BD1E
:109840001C02030008B5024B1B681B69019308BD8D
:109850001C02030008B5024B1B689B69019308BDFD
:109860001C02030008B5024B1B68DB69019308BDAD
:109870001C02030008B5024B1B681B6A019308BD5C
:109880001C02030008B5024B1B685B6A019308BD0C
:109890001C02030008B5024B1B68DB6A019308BD7C
:1098A0001C02030008B5024B1B681B6B019308BD2B
:1098B0001C020300002211464068FFF75BBF002234
:1098C00011464068FFF766BF00224068FFF75ABFA5
:1098D000002281F001014068FFF744BF00231A46CF
:1098E00019464068FFF736BF00231A4619464068FC
:1098F000FFF728BF002211464068FFF71BBF002278
:1099000011464068FFF706BF002202214068FFF7BA
:1099100009BF00231A464068FFF7F4BE024B03223A
:109920005A60024A1A607047C8E10320F0040E0032
:109930000A680B46926801461846104770B50E4CEF
:1099400004601C2444609DF814409DF8106004F0ED
:10995000030444EA86040025E4B204744274857466
:109960004161427C85600F2A08BF044BC56006BF79
:109970008361C061038370BD84FF0D0031990D00C8
:109980000021FFF7C1BC0021FFF7C6BC10B504469B
:1099900001700846FFF788FC00236360204610BD75
:1099A00010B504460078FFF7EBFF48B920784FF672
:1099B000FF71FFF769FC2078BDE81040FFF7E3BFB7
:1099C00010BD0078FFF7DFBF400830B518600024F5
:1099D00018688842E5B206D90134082C02D0400844
:1099E0001860F5E70725024B5B5D137030BD00BFC3
:1099F0001C050E002DE9F04307468FB000780E4697
:109A0000FFF7BEFF002862DB3C781422002109A882
:109A100004F046FE0B232046002209A9ADF82430AD
:109A2000FFF752FC9DF82D4054B19DF82C5035B9EC
:109A3000DDF830809DF834909DF8354003E0002437
:109A4000A146A0460125337905B1BBB99D420BD192
:109A5000B268424508D18DF820908DF82140BDF8BC
:109A60002010B289914209D053B100243878019472
:109A70000094234622460121FFF73EFC002026E009
:109A80008DF80F30B1680A9804AB0DF10F02FFF7A3
:109A90009BFF317905B1B1B9A94208D000243878CB
:109AA0000194747B337B9DF80F200094E4E7B36846
:109AB0004345F3D38DF820908DF82140BDF8202048
:109AC000B3899A42EAD1049B4345E7D1D6E70FB068
:109AD000BDE8F08308B50078FFF7DEFBC0B208BD33
