:02000002D0002C
:1040000000400D00B8100E00000006000D00050174
:084010000401E80500000000B6
:0440180090FF0D0008
:1040200009480A49884208B505D0094A824202D0A7
:10403000121A0AF04EFB0748074A0021121A0AF02A
:1040400053FB014808BD00BFB4BD0320CC0F0E00D8
:1040500078BE032078BE0320F0E7032070B506F099
:10406000C3FB074C074BE41AA40800251E46A542D3
:1040700004D056F8253098470135F8E770BD00BFE9
:10408000B80F0E000C0F0E0000F04ABD08B500F08E
:104090009FFBBDE8084006F069BB05F0DFBB05F0FB
:1040A000E5BB05F0E3BB0078B0FA80F0400970474B
:1040B0000123037070471068704770477047000015
:1040C000014B01221A7070471DC103200368184775
:1040D000012A02D0022A02D004E0016002E00B684B
:1040E00000B103600020704703685A6898681B6835
:1040F00012F0010F4FEA620218BF8158104418BF36
:10410000CB58184738B5064D002404F170002844F8
:10411000103C05F009FE14F1800FF6D138BD00BF48
:10412000DCBF032010B5044605F0FEFD204610BD9F
:1041300008B505F02DF9034B1860034B01221A70E6
:1041400008BD00BF6CD8032038C1032010B5044659
:1041500005F01EF941F26462A358C31A092B05D970
:1041600004F5B3510B6801330B60A05010BD38B596
:10417000044605F00DF904F5B4510B6893B1C31A68
:10418000092B10D941F27C62A558AB4238BFA3502D
:1041900041F2746562591344635141F27862A35845
:1041A0000133A350086038BD10B5044600F5B05087
:1041B000043005F0B9FD04F6063004F0AEFF04F15A
:1041C0000A0004F0AAFF204610BD436913B18369B9
:1041D0000C301847704700007FB502460846137937
:1041E000956833B13DB90C4904B0BDE8704005F0A5
:1041F00085BF0A4B00E00A4B167B0A4C0A49527BEA
:104200000292012E08BF214601910095074A002124
:1042100006F085F804B070BDE9FF0D00FC050E0046
:10422000D8FF0D00E1FF0D00E5FF0D00FFFF0D00C1
:1042300013B500210446084605F0F2F802A9002350
:10424000204641F8043D05F003F9019C0CB101231F
:1042500023710021012005F0E3F82CB123682046EA
:104260009B6898470023237102B010BD022A38B51D
:10427000044605D0032A0FD0012A11D10B6809E0AA
:104280000C200D68FFF709FF034618B195E80700F9
:1042900083E80700236003E00C21006807F09EFA22
:1042A000002038BD10B5054B00220446114640F8E9
:1042B000043B05F0EDF9204610BD00BFCCFF0D001A
:1042C00010B50446FFF7EEFF2046202107F086FADE
:1042D000204610BD00221146406805F04FBA10B5C7
:1042E0008368044613B1032201469847204610BD57
:1042F000F0B500258E461549057185604561016060
:10430000044692E8030085B002AF04F10C0687E88A
:10431000030096E8030082E8030097E8030086E8BC
:1043200003009168606990606161D168A069D060A4
:10433000A1618DE82800064A2346714604F1080071
:1043400005F076F8204605B0F0BD00BFB8FF0D00BF
:1043500031420D0007B58068002338B18DE80A00AE
:10436000022105F07DF8B0FA80F0400903B05DF855
:1043700004FB000038B5104B036083680446A3B10A
:104380006FF000410022FFF7E5FF0021A06805F073
:104390007FF8237903F0FF0513B105F029F8F8E75A
:1043A0002946A06805F04CF8A56004F10C00FFF761
:1043B00096FF204638BD00BFB8FF0D0010B504467B
:1043C000FFF7D8FF20461C2107F008FA204610BD51
:1043D00037B5054600220C461146FFF7BBFFA8681B
:1043E000002340B1019300941A46194605F038F8AD
:1043F000B0FA80F0400903B030BD00002DE9F04F65
:104400004D4FDFF84891DFF848818DB00024012539
:10441000082C00F08D8014F8096007F0ABF93146E4
:1044200006F08BFF07F0A6F906F092FF00284ED0A9
:104430000A2006F055F907F09DF9314606F07DFF98
:1044400007F098F906F084FF002840D007F092F9B1
:1044500006F085FF07F08EF9314606F06EFF07F093
:1044600089F906F075FF90B306F082FD33490546E1
:10447000684605F0A0FC3946684605F07AFD3049EB
:1044800005F083FD2F4905F080FD1022824631465C
:104490000DEB020005F003FD04A9504605F069FD8F
:1044A000014608A805F0C6FC0899284605F03DFE1F
:1044B00008A805F039FC04A805F036FC002568467C
:1044C00005F032FC08F8045001341037A0E706F07C
:1044D0004FFD1A498246684605F06DFC394668462C
:1044E00005F047FD184905F050FD164905F04DFD52
:1044F0001022834631460DEB020005F0D0FC04A9E2
:10450000584605F036FD014608A805F093FC0899C9
:10451000504605F00AFE08A805F006FC04A805F0C0
:1045200003FC684605F000FC012308F80430CBE7E3
:1045300028460DB0BDE8F08FDCBF03201D000E0043
:1045400025000E002D000E0029000E00B4BD032032
:1045500015C103202DE9F0431E4D1F4F8DB00646B7
:10456000002415F8013FB3422DD106F001FD1B498F
:104570008046684605F01FFC07EB0411684605F00D
:10458000F8FC174905F001FD164905F0FEFC102264
:10459000814629780DEB020005F081FC04A948460C
:1045A00005F0E7FC014608A805F044FC08994046E0
:1045B00005F0BBFD08A805F0B7FB04A805F0B4FBA7
:1045C000684605F0B1FB0134082CCAD10DB0BDE836
:1045D000F08300BFB3BD0320DCBF03201D000E002D
:1045E00029000E002D000E0070B506F0C1FC1D491B
:1045F00005F09BFD0124002507F0BCF8E1B206F0B0
:104600009CFE07F0B7F806F0A3FE20B92046FFF79E
:10461000A1FF013517E0042815D106F0A9FC1249C5
:1046200005F06CFD0F2C04D806F0A2FC0F4905F034
:1046300065FD06F09DFC10220646214605F081FD31
:10464000304605F066FD01347F2CD5D11DB906F04A
:104650008FFC074902E006F08BFC0649BDE870407C
:1046600005F063BD39000E0045000E0061000E002C
:1046700063000E0079000E00F8B5414D2846FFF7A3
:1046800029FE044640BB06F073FC3E493E4E05F051
:104690004CFD234622462146686805F077F82346FC
:1046A00022462146686805F051F8204604F088FE4D
:1046B000002504460027002004F082FE001B61EB69
:1046C00005018F4208BF864235D32D48FFF702FE11
:1046D00088BB05F093F8EEE706F04AFC2B4905F09D
:1046E00024FD05F09BF80446F0B906F041FC28498A
:1046F00005F01BFD05F08AF8204604F061FE002558
:1047000004464EF65F260027002004F059FE001BE9
:1047100061EB05018F4208BF86421FD305F07EF88A
:10472000E0B905F06BF8EFE706F022FC1949BDE8A7
:10473000F84005F0FABC1248FFF7CCFD1048FFF72F
:10474000C9FD0028CDD106F013FC134905F0EDFC9E
:10475000C82005F0C5FF05F011FAC2E705F05EF8C4
:1047600005F05CF858B906F003FC0C4905F0DDFCD7
:10477000C82005F0B5FFBDE8F84005F0FFB9F8BD69
:10478000DCE203207F000E001FBF0200C0000E000D
:10479000CF000E0017010E00A1000E00F4000E0065
:1047A00038B5046805467CB16368013B63605BB95A
:1047B000236820469B689847A368013BA3601BB908
:1047C00023682046DB689847284638BD0000000073
:1047D00070B5854D2B78EAB0002B00F0D780834C64
:1047E000834803F095FF638A0893E08907EE900AF7
:1047F000F8EE677A002617EE900A09F0C5F8CDE9C1
:104800000601237A0493608909F0ACF80022794B01
:1048100009F038FA70A3D3E9002308F055FF09F036
:10482000DFFB80B20390A3880293A3894FF47A72CE
:10483000B3FBF2F30193E08809F094F868A3D3E99D
:10484000002309F0F5F809F0CBFB80B20090236853
:10485000694A6A4C4FF480712AA805F027F8684B22
:1048600068491B788DF800302AAA3C2326A806F058
:1048700029F927A8FFF794FF5D490AA804F014F866
:104880000A99614805F051FC06F072FB0A9905F09F
:104890004CFC23782E701BB15C4800F0FBFC2670AA
:1048A00000235B4C2B7006F063FB5A4905F03DFC7E
:1048B0000A2221680EA805F004FB0EA912A805F033
:1048C000B9FA554912A805F060FB2179054616A8EA
:1048D00005F0D4FA16A9284605F04BFB4E4905F021
:1048E00054FB0A220546A1681AA805F0EAFA1AA99B
:1048F000284605F03EFB484905F047FB0A220546DD
:10490000E1681EA805F0DDFA1EA9284605F031FB76
:10491000414905F03AFB94ED040A0546062122A818
:1049200005F0F6FA22A9284605F023FB3A4905F0DE
:104930002CFB94ED050A0546062126A805F0E8FAA9
:1049400026A9284605F015FB334905F01EFB33491F
:1049500005F00FFB0146324805F05DFA26A805F088
:10496000E3F922A805F0E0F91EA805F0DDF91AA880
:1049700005F0DAF916A805F0D7F912A805F0D4F970
:104980000EA805F0D1F90AA805F0CEF9254C237838
:10499000DBB1174803F0E8FD154803F08DFD14481E
:1049A00003F01EFC164B20491B78002222702AA817
:1049B0008DF800303C2306F085F82BA8FFF7F0FEB9
:1049C00006F0D6FA194905F0B0FB194B1B780BB16C
:1049D00005F0D4F86AB070BD66666666661271400E
:1049E000FCA9F1D24D62503F38C1032010D80320FA
:1049F00058C10320000024402A010E00C8C0032033
:104A000014C10320B4010E0088BE032024D8032063
:104A100020C103208A010E00A8010E007CC00320E3
:104A2000CCC003201DC10320AA010E00BC010E0052
:104A3000F4DC032070B594B004F0AAFC2F4D304E86
:104A4000044604F0A5FC286004F0D8FE642005F0BC
:104A500047FE05F0FAFDB04205DC04F099FC001BAE
:104A6000B0F5FA7FEDD305F0F0FD264B984207DD57
:104A700005F0EBFD0146244800F026FC01203AE059
:104A8000224C23492368002204A805F08BFD04A9C9
:104A900008A805F0CFF91F4908A805F076FA0546E1
:104AA000194800F00BFC2368194902460CA805F0D0
:104AB00079FD0CA9284605F05CFA014610A805F01E
:104AC000B9F9154B109A1B7814498DF8003002A8DB
:104AD0003C2305F0F7FF03A8FFF762FE10A805F0DE
:104AE00023F90CA805F020F908A805F01DF904A881
:104AF00005F01AF9002014B070BD00BF08E60320CD
:104B00004DB25E574EB25E5724D80320BCBD032081
:104B100018E20320CB040E0014C10320C4010E00D0
:104B200030B5002385B002224249434804F05EFEBE
:104B300000250C230195ADF80430404B4049029309
:104B4000042201AB3F48039504F050FE06F010FA32
:104B50004FF4E13106F000FA06F040FB4FF4E1318A
:104B600006F036FB384800F0D1FB0122022136481E
:104B700000F08AFB01220321334800F085FB41F25B
:104B8000883005F0ADFDFFF739FCFFF72DFD2E480D
:104B900000F044FB0446C8B906F0EAF92B4905F0D9
:104BA000C4FA2B49264805F058F922460121294824
:104BB00004F06EFD06F0DCF9274905F0B6FA42F282
:104BC000107005F08DFD04F0D9FF30E0234CFFF7A5
:104BD00053FD22462946224800F0B3FC214B2268AF
:104BE0009A4208D02360224644F6206329461C4896
:104BF000E36000F097FCFFF71DFF18B106F0B8F96D
:104C0000194902E006F0B4F9184905F08EFA18487F
:104C100000F0C0FC174803F0C5FF6FF000411648D4
:104C2000FFF7D6FB6FF000411448FFF7D1FB05B04A
:104C300030BD00BFBC020E00D4010E00B7400D0015
:104C4000CCC00320DC010E0024D80320E9010E00B3
:104C50000B020E00C0BF032032020E0020C1032051
:104C60005CC003204C1F11004A020E0061020E00BE
:104C70008CC0032058C10320DCC00320F8C00320EF
:104C80001FB50A4B0A4C1B780A498DF800302246A2
:104C90003C2302A805F016FF03A8FFF781FD06F0EC
:104CA00067F9214605F041FA04B010BD14C1032094
:104CB000E9010E007C020E00F0B589B0044602A89E
:104CC00080E806001D460C2000230F46039E069335
:104CD000FFF7E3F910B10760466085600B4B07935F
:104CE0000B4B06939DF84030049000939DF83820BC
:104CF0009DF93C3004A9204606F096F9044604A824
:104D0000FFF7EDFA204609B0F0BD00BFE9400D0005
:104D10006D420D002DE9F047BC4BBD4F01248AB018
:104D20001C7004F095FABB4BBB4883F874446421B3
:104D300083F860143968C3F87004002211EA04068D
:104D4000DA7183F83C2483F83D2483F86A24C3F89D
:104D5000782483F87C2483F87D241C4605460AD1F8
:104D60003846FFF7A0F930B13146AC4804F032FEC6
:104D70003846FFF79DF9A94BC4F86C34A84CA94BF1
:104D8000069506AE00250127089302223346A14965
:104D90008DF81C5020468DF824708DF8255000F0B9
:104DA00079FCA14AA149DFF84493204606F008FDAA
:104DB00040F6B8332A4614210320A36204F0AAFC6B
:104DC0004FF01E080346CDF80080019703224FF4F0
:104DD0007F019748974C04F0D5FD934A9649944833
:104DE00006F0EEFC2946384604F074FC934B06931B
:104DF00032462B464FF4FA619148CDF8249008943E
:104E0000FFF776FA3046FFF76AFA874A8D498C48F1
:104E100006F0D6FC8C4B069332462B4644F62061B6
:104E20008A48CDF824900894FFF762FA3046FFF7DD
:104E300056FA7D4A8349854806F0C2FC844B0693A6
:104E400032462B4641F288318248CDF824900894AE
:104E5000814CFFF74DFA3046FFF741FA724A794923
:104E60007C4806F0ADFC204601F0BFF904F10800D3
:104E700003F077F8414604F10A0004F05EF9414678
:104E800004F6063004F059F9744800F0B7F941F21D
:104E90005C6A40F61F21724801F030F8042344F8A0
:104EA0000A3004F5B3536F4A9A606F4A1D601A6165
:104EB00041F274634FF0FF39E55041F278631122FB
:104EC000E55041F27C6341F26C6844F8039004F5CC
:104ED000B45303201D6041F284630221E250634A0F
:104EE00044F8080000231360536041F29062A5501B
:104EF0005F4A136041F29862A5505E4A136004F560
:104F0000B5521560536041F2A862A5505A4A136029
:104F1000536041F2B463E55006F0D0FB34F808006A
:104F2000564B06934FF0020807950295CDF8049072
:104F3000CDF8008096E806002346FFF7BDFE414607
:104F400034F80A0006F0BAFB34F80A004C4B04931C
:104F50008DE800030595029504AA234606CAFFF7CB
:104F6000ABFE314A4749204606F02AFC464800F08D
:104F700045F92D4A4549444806F022FC3A46182393
:104F80004149434800F0C3FA14234FF496723E4956
:104F9000404800F0F4FA4049404804F00CFF224A2F
:104FA0003F493E4806F00CFC3B493E4804F003FFF5
:104FB0001D4A3B493B4806F003FC3B493B4804F093
:104FC000FAFE3B493B4804F0F6FE3B493B4804F0FF
:104FD000F2FE3B493B4804F0EEFE3B493B4804F0FF
:104FE000EAFE3B493B4804F0E6FE3B493B4804F0FF
:104FF000E2FE3B493B4804F0DEFE0B4A3A492846B4
:1050000006F0DEFB0AB0BDE8F08700BF14C1032044
:105010007CBE032070D80320ACFF0D0080BE0320AF
:1050200088BE032080F0FA0278BE0320C1570D002D
:10503000BCBF0320D1400D00A5420D00C1400D00B2
:10504000DCC0032075430D0031410D00F8C0032082
:10505000814C0D003CC1032058C103205CD70320C4
:10506000A4D703205839343CDBF9BE3FE0D70320F6
:10507000ECD70320F4D7032004D803206F410D00A0
:105080004D410D00A9410D0024D8032025410D00FC
:105090005CC003208CC00320FC050E00CCC00320A4
:1050A000299D0D007CC0032086020E00DCBF03207A
:1050B0008A020E00ECBF03208E020E00FCBF03200C
:1050C00099020E000CC003209D020E001CC003209C
:1050D000A2020E002CC00320A9020E003CC0032037
:1050E000B1020E004CC0032005410D00CD400D0063
:1050F00008B504F0ADF8014B186008BDF8DC0320DA
:1051000004F0A6B8037C03F00803024603F0FF0096
:105110002BB1D36A506A181A48BF6FF0004070472D
:105120007047103001F092BF103001F069BE07B532
:1051300001220DF10701103001F0AFFD01280CBF75
:105140009DF807004FF0FF3003B05DF804FB10300E
:1051500002F0EAB807B502AB012203F8011D1030D6
:10516000194602F0E1F803B05DF804FB10B53421F4
:10517000044606F033FB204610BD000030B585B074
:105180001C4B009313798DF8043093680293137BC2
:105190008DF80C3000F58C65537B8DF80D3004468E
:1051A0000A466B4600F26C41284602F005FCF0B15D
:1051B000256004F23C45284601F07EFF012120468F
:1051C00002F0A3FA014668B12146284601F04DFDE0
:1051D00068B194F83C3413F0700316BF064B1846C0
:1051E0001D6005E0204602F090FA0028ECD1002076
:1051F00005B030BDACFF0D00B8E1032010B5064985
:10520000044604F0D8FD63232374052104F114003F
:1052100003F0F0FD204610BDFC050E0037B5194B1C
:1052200018681B798DF80430009006F0A3FA06F098
:1052300092F818B906F09EFA06F048F800241DF816
:10524000045006F097FA294606F077F806F092FA2D
:1052500006F07EF820B90134052CF0D101200FE0D2
:1052600006F088FA06F07BF806F084FA294606F084
:1052700064F806F07FFA06F06BF80028EBD0002007
:1052800003B030BDE8020E00014802F042BE00BF8C
:10529000FDDC032010B5084C01220521204602F058
:1052A00038FE322005F01CFA204600220521BDE818
:1052B000104002F02EBE00BFFDDC0320014800F0CC
:1052C000B7BD00BFFCDC0320014800F068BD00BF93
:1052D000FCDC032030B50024944212D0085D05099F
:1052E000092D00F00F0094BF3035373503F8145006
:1052F000092803EB440594BF30303730687001341F
:10530000EAE7002203F8142030BD000030B58DB06C
:10531000054606F02FFA06F01EF818B906F02AFA2C
:1053200005F0D4FF142005F0DBF906F023FA202164
:1053300006F003F806F01EFA06F00AF880B106F04F
:1053400019FA06F00CF806F015FA202105F0F5FF21
:1053500006F010FA05F0FCFFB0FA80F4640900E0F2
:105360000124614802F0C6FD012200215E4802F0DE
:10537000C4FD012211465C4802F0BFFD012202215A
:10538000594802F0BAFD01220321574802F0B5FD49
:1053900001220421544802F0B0FD012205215248A7
:1053A00002F0ABFD002206214F4802F0A6FD0122CB
:1053B00007214D4802F0A1FD002208214A4802F0D1
:1053C0009CFD00220921484802F097FD00220A2195
:1053D000454802F092FD00220B21434802F08DFD6A
:1053E00000220C21404802F088FD00220D213E4899
:1053F00002F083FD00220E213B4802F07EFD0022D8
:105400000F21394802F079FD01220021364802F0CF
:105410009DFD01221146344802F098FD012202212F
:10542000314802F093FD012203212F4802F08EFD46
:10543000012204212C4802F089FD012205212A487D
:1054400002F084FD01220621274802F07FFD01229F
:105450000721254802F07AFD01220821224802F0A6
:1054600075FD01220921204802F070FD01220A2168
:105470001D4802F06BFD01220B211B4802F066FD66
:1054800001220C21184802F061FD01220D2116486D
:1054900002F05CFD01220E21134802F057FD0122AB
:1054A0000F21114802F052FD00210D2208A80191A0
:1054B0000291079109F018F901A90C4800F02EFBA0
:1054C00007AB082201A92846FFF704FF07A903A894
:1054D00004F071FC03A9284604F0B7FC03A804F00B
:1054E00023FC20460DB030BDFDDC0320FCDC032096
:1054F00013B504460498E060009022602371A16017
:1055000004F1100003F06AFD204602B010BD37B56B
:1055100001F11005009514310446FFF7E9FF20461C
:1055200003B030BD13B502AB632403F8014D103056
:1055300003F07FFD9DF80700B0FA80F0400902B04B
:1055400010BD13B502AB632403F8014D103003F016
:105550005AFD9DF80700B0FA80F0400902B010BD76
:1055600013B504460498E060009022602371A160A6
:1055700004F1100003F073FD204602B010BD37B5F2
:1055800001F11005009514310446FFF7E9FF2046AC
:1055900003B030BD103003F09ABD000070B503F0C9
:1055A00057FE1E481E4E00F0B8FA1E481E4A1F49FC
:1055B00000244FF47A7304744474446083601C4B79
:1055C000036006F0FDF81B4B3168DC71642283F840
:1055D0006024194AC3F87024012211EA020583F8F5
:1055E0003C4483F83D4483F86A44C3F8784483F824
:1055F0007C4483F87D4483F874241C460AD13046E9
:10560000FEF751FD30B129460C4804F0E3F930466D
:10561000FEF74EFD094BC4F86C3470BDFCDC032072
:105620007CBE032000DD032078BE032021510D0045
:10563000C8020E0034DD0320ACFF0D0080BE032045
:10564000F8B50E46074605F037F8054605F02CF884
:10565000044605F01FF86401C0B2ADB204F4FF5473
:10566000A5F2BC75044344EA45243C8004F0F4FFF1
:10567000054604F0FBFF044605F002F8ED02640164
:1056800005F4FF2504F4FF542C43C0F34600044303
:105690003480F8BD70B504460025456022731D486E
:1056A0001D4A2060A16022611A7922759A68A26160
:1056B0001A7B22775B7B6377184B2362184B6362FC
:1056C0000A23A36242F2107304F58E76E36201238B
:1056D00084F830306563A56384F8C83084F8C95015
:1056E000C4F8CC3084F8D05084F8D15084F8F45009
:1056F00084F8F55010222946304608F0F5FFC4F82A
:105700002C51C4F82461C4F82861C4F830512046F3
:1057100070BD00BF8C030E00ACFF0D00ED020E004B
:1057200040420F0010B500F1BC040B46034A0C21A7
:10573000204604F0BBF8204610BD00BFF2020E0068
:10574000F8B5D0F82451044600F1D007D4F82C2144
:10575000A36A9A4221D929692046FFF7E3FF06464A
:1057600005F006FC33460D4A012104F0D8FD314610
:10577000384601F0F7FC284606F084F804F58E71EF
:105780000646284606F0F6F8FEF789FCD4F82C31D8
:10579000013BC4F82C313546D8E7F8BDFB020E00BA
:1057A00070B506460C464CB1E1683046FFF7F8FF8D
:1057B000A5682046FEF773FC2C46F4E770BD000098
:1057C00010B5054BD0F820110360044600F58C702D
:1057D000FFF7E6FF204610BD8C030E0010B504460F
:1057E000FFF7EEFF20464FF49A7105F0F7FF2046D1
:1057F00010BD2DE9F0470E4606F1040A89680546FA
:1058000017465446012359B13A680B699A42B4BF0E
:105810008A68CA680C46B4BF012300231146F2E728
:1058200033B1F3689C420ED0204606F03EF800E00B
:10583000204602693B689A4205DB286000232B71F1
:105840002846BDE8F087A24508D03A6823699A4205
:10585000ACBF4FF000094FF0010901E04FF0010922
:105860001420FEF71AFC3B6810F1100F18BF0361FB
:105870008046534601462246484606F018F87369AA
:10588000C5F80080013373610123D8E737B5D0F83C
:10589000CC100446FFF746FF40F20A23024604F10B
:1058A000D00104F1F40001F00EFC054630B104F122
:1058B000CC0204F58C716846FFF79BFF284603B0C5
:1058C00030BD000030B5002380F8C83090F8C930F2
:1058D0009DB00446E3B9494B494A007B1A60012157
:1058E00005F0ECFE474B0C93237D8DF83430A36913
:1058F0000E93237F8DF83C30217B637FA0688DF869
:105900003D300CAAFFF73AFC84F8C90000286BD0A0
:10591000226A32B3A168002301F23C410CA88DF841
:1059200030308DF8313001F0CEFB0546C8B905F0B6
:105930001FFB236A344A012104F0F1FCA168226AAA
:105940008DF83050012301F23C410CA88DF8315004
:1059500001F099FC28B905F00BFB2C4A012104F059
:10596000DEFCA168226A04F1D005002301F23C416B
:10597000284601F0A8FB88B30021284601F070FA00
:1059800000238DF80C308DF80D300022294603A835
:1059900001F01DFBD0B140220CA903A800F0F0FCDF
:1059A0000CA808F079FD009060B16A4604F58C718E
:1059B00001A8FFF71EFF009BD4F8CC209A42B8BF85
:1059C000C4F8CC3003A801F077FBDEE72046FFF7F0
:1059D000B7FE2046FFF75AFF68B905E005F0C8FAA0
:1059E0000B4A012104F09BFC012384F8C83003F02A
:1059F000CFFCC4F830011DB030BD00BFBCE10320B6
:105A000041560D00ACFF0D0039030E0014030E00CB
:105A100021030E0038B50446406B28B10368A26B21
:105A2000DB6804F13C01984794F8C8305BB1D4F8C6
:105A30003031002B53D003F0ABFCD4F83031C01A16
:105A4000E36A98424BD294F8C930002B44D094F8C2
:105A5000F430002B40D004F1F405A26B04F13C01BA
:105A6000284601F061FC002821DD94F8303013B1A4
:105A7000284601F0EBFA626AD4F810319A422BD230
:105A8000284601F019FBD4F8CC300133C4F8CC30EF
:105A900005F06EFAD4F8CC30134A012104F03FFC33
:105AA0002046FFF7F3FE2046FFF74AFE14E005F01C
:105AB0005FFA0E4A012104F032FC284601F0FCFA9C
:105AC00004F1D00001F0F8FA012384F8C830002373
:105AD00084F8C930C4F830310023A36338BD2046B0
:105AE000FFF7F0FEAFE700BF4E030E0069030E00A4
:105AF00008B5836B5A1C03447F2A826383F83C10E9
:105B000001D80A2901D1FFF785FF012008BD03F064
:105B10009FBB0368C9B29B681847704738B50C46ED
:105B200005F028FE572105F00CFC05F023FEF221BC
:105B3000FFF7EFFF05F01EFE05F00AFC05F01AFE68
:105B40000622572105F0F6FB651E053405F012FE0E
:105B500003685B69984705F8010FA542F6D138BD87
:105B60002DE9F74F9A469DF83030019393460D4644
:105B70009DF834709DF838609DF83C9005F0FAFD72
:105B8000804605F0F1FB05F0F5FD6F210A2405F0D4
:105B9000D8FB05F0EFFD0021FFF7BBFF05F0EAFDA4
:105BA000B5FBF4F204FB125505EB0215EDB205F05E
:105BB0007F01FFF7AEFF05F0DDFDBBFBF4F104FB59
:105BC00011BB0BEB011101F07F01FFF7A2FF05F004
:105BD000D1FDBAFBF4F104FB11AA0AEB011101F0AB
:105BE0003F01FFF796FF05F0C5FD019BB3FBF4F104
:105BF00004FB113101F0070141F00801FFF789FFB3
:105C000005F0B8FDB7FBF4F104FB117707EB0111C8
:105C100001F03F01FFF77DFF05F0ACFDB6FBF4F1AD
:105C200004FB116606EB011101F01F01FFF771FF84
:105C300005F0A0FDB9FBF4F1036804FB119404EB3B
:105C400001119B68C9B2984705F094FD05F080FBEF
:105C500005F090FD6F2105F074FB05F08BFD002130
:105C6000FFF757FF05F086FD45F08001FFF751FF74
:105C700005F080FD05F06CFB404603B0BDE8F04F39
:105C800005F07BBB2DE9F84FDDF828800B9F0C9EBB
:105C90000D9D994692468B4605F06CFD044605F035
:105CA00063FB05F067FD6F2105F04BFB05F062FD1E
:105CB0000021FFF72EFF05F05DFD05F049FB05F023
:105CC00059FD6F21072205F035FB05F053FD0368F0
:105CD0005B699847C0B2C0F3021303EB830300F083
:105CE0000F0000EB43008BF8000005F043FD036854
:105CF0005B699847C0B2C0F3021303EB830300F063
:105D00000F0000EB43008AF8000005F033FD036844
:105D10005B699847C0B2C0F3011303EB830300F043
:105D20000F0000EB430089F8000005F023FD036835
:105D30005B69984700F0070088F8000005F01AFD3D
:105D400003685B699847C0B2C0F3011303EB830398
:105D500000F00F0000EB4300387005F00BFD036806
:105D60005B699847C0B2C0F300129300134400F07F
:105D70000F0000EB4300307005F0FCFC03685B692A
:105D80009847C0B2030903EB830300F00F0000EB58
:105D9000430028702046BDE8F84F05F0EEBA2DE923
:105DA000F04F07468DB008460C4604F04BFB80468A
:105DB000204604F03FFB8146204604F033FB824638
:105DC000204604F04FFB0546204604F043FB064600
:105DD000204604F051FB8346204604F057FB0A227C
:105DE000014604A804F06DF804A9022208A804F0F2
:105DF00017F908A804F01BF9044608A803F094FF5B
:105E0000E4B25FFA8BF3F6B2EDB202935FFA89F275
:105E10005FFA8AF35FFA88F1384603940196009599
:105E2000FFF79EFE04A803F07FFF0DB0BDE8F08FE2
:105E300000B591B00DF11B0303930DF11A0302930A
:105E40000DF11903019306AB00930DF116020DF14C
:105E500017030DF11501FFF715FF9DF81B30252BDA
:105E600084BF00238DF81B309DF8153007939DF8F3
:105E7000163008939DF8173009939DF819300A934E
:105E80009DF81A30013B0B939DF81B3007A8643333
:105E90000C9308F00DFD11B05DF804FB03F0D8B9C8
:105EA0007047000038B50C460546282200212046E0
:105EB00008F01AFC0B220A49204609F000FC0023D6
:105EC0000122E372E260AA686362064BA3610023C9
:105ED0002261E3610522044B6261236238BD00BF89
:105EE000B1020E0000E0AB476F12833A10B51021EB
:105EF000044605F073FC204610BD0000044A026011
:105F0000002202734271102282718160704700BFCB
:105F1000B8030E0080797047407970474FF6FF73E1
:105F2000994210B539D09A4237D04379013BDBB260
:105F3000042B97BF1A4CDFED1B5A04EB8303D3ED00
:105F4000005A8379202BB7EE007A08D0302B09D085
:105F5000102BF3EE096A18BFF0EE476A04E0DFED9C
:105F6000126A01E0DFED116A07EE901A06EE102AC0
:105F7000F8EE677AB8EE466A65EEA66A86EE275AAC
:105F800077EEC67A37EE457A9FED096A67EE277A93
:105F900086EE867A87EE870A10BD9FED060A10BD51
:105FA0009C030E000000C8420000D64300501A4671
:105FB0000000CC430000000010B50C4605F0DAFBF1
:105FC000292105F0BEF905F0D5FB036821469B6841
:105FD000984705F0CFFB05F0BBF905F0CBFB01229C
:105FE000292105F0A7F905F0C5FB03685B6998470F
:105FF000C0B210BD10B50C4605F0BCFB292105F060
:10600000A0F905F0B7FB036821469B68984705F0A7
:10601000B1FB05F09DF905F0ADFB0222292105F049
:1060200089F905F0A7FB03685B699847044605F00A
:10603000A1FB03685B69984744EA002080B210BD69
:1060400038B514460D4605F095FB292105F079F980
:1060500005F090FB036829469B68984705F08AFB8A
:10606000036821469B68984705F084FBBDE83840EB
:1060700005F06EB938B5037B04460D4673B1204672
:1060800000F02EF86279A57120462A43A121FFF77E
:10609000D7FF2046BDE8384000F032B800F003F8E2
:1060A0000028ECD138BD38B5044605F063FB05F097
:1060B0000DF9B2212046FFF77FFF50280ED10125B0
:1060C00061792573204600F02BF8A1792046FFF76F
:1060D000D1FF204600F014F8284638BD002038BD16
:1060E00010B5037B044633B120469322A021BDE8BE
:1060F0001040FFF7A5BFFFF7D6FF0028F4D110BD71
:1061000010B5037B044633B120460022A021BDE830
:106110001040FFF795BFFFF7C6FF0028F4D110BD70
:1061200038B5037B04460D4673B12046FFF7D8FF10
:10613000A279657120462A43A121FFF781FF2046FD
:10614000BDE83840FFF7DCBFFFF7ADFF0028ECD11A
:1061500038BD38B5037B054623B12846FFF7C0FF9D
:10616000002404E0FFF79FFF0028F6D138BD6A79CC
:10617000E3B29A4204F1010403D3782004F0B0FAA8
:10618000F5E7B4212846FFF735FFB62184B228464B
:10619000FFF730FF44EA00442846FFF7B1FF2046EE
:1061A00038BDF8B505460C46FFF7D3FF2846FFF784
:1061B000D0FF242706463A460021204608F094FAEC
:1061C0002760AB6863600523A36003F0E1F8320C3D
:1061D0002061B1B22846FFF7A1FE84ED050A012037
:1061E000F8BD03F035B803F033B8704730B585B06B
:1061F000054605F0BFFA5C2105F0A3F8022004F083
:106200006FFA05F0B7FA05F0A3F805F0B3FA5C21D0
:1062100005F097F805F0AEFA0321FFF77AFC05F0D8
:10622000A9FA0021FFF775FC05F0A4FA0421FFF795
:1062300070FC05F09FFA05F08BF80A2004F050FA84
:1062400005F098FA08225C2105F074F8002405F0A6
:1062500091FA03685B69984701AB18550134082C23
:10626000F5D19DF80430032B34D19DF80530042B73
:1062700030D19DF806309FED196A07EE103A9DF86F
:10628000073007EE903AB8EE477AF8EEE77AF2EE8A
:10629000046AE7EE067A9DF8083003F07F0287EE85
:1062A000A67ADB094FF0010085ED007A07EE102A8F
:1062B0009DF8092007EE902AB8EEC77AF8EEE77A43
:1062C000E7EE067A87EEA67A18BFB1EE477A85ED3B
:1062D000017A00E0002005B030BD00BF000080431F
:1062E00010B5044605F046FA04F0F0FF2046BDE87C
:1062F0001040FFF77BBF70B504460E461546FFF70A
:1063000075FF18B16368336023682B6070BD02F0BD
:106310009FBF02F09DBF02F09BBF10B50446243022
:1063200001F0E4F828B104F50C70BDE8104001F06C
:10633000DDB810BD411E00F10A020020430843EA07
:10634000C01011F8013F53FA80F08A42C0B2F5D173
:10635000704738B5CB6804460D4623B98968BDE857
:10636000384000F082BC2422002108F0BDF910233F
:1063700001202370A070AB68A360EB68236238BD76
:106380002DE9F0438BB00378002580460E46174672
:106390008DF804508DF8055063B10C2A0AD90EE02F
:1063A000414601A8FFF7D5FF20B1012498F803303A
:1063B000A3420BD24FF0000986F8009055E0C37855
:1063C000002BEDD100F0B4FB81464EE0B8F804108C
:1063D000091B490101A800F043FD81460028E9D0CE
:1063E000002101A800F01FFD0028E3D0C37A0F2B85
:1063F000E0D1037803F01F039C42DBD1631E0D2222
:106400005A4306EB020E0023042BD9B204D800EB4A
:106410004301B1F801100BE00A2995BF03F1FF31E8
:10642000591C00EB410100EB410194BFC9888988E8
:1064300061B1974210D97E2994BFC9B23F210EF8AD
:10644000031001330D2B02F10102DDD1974203D974
:106450000378590648BFB554F31903F8015C037873
:106460005B0602D40134E4B2A0E748460BB0BDE8B5
:10647000F08300002DE9F0470378202B00F10104A0
:1064800001D12046F8E7704F886005462C1A2E4649
:1064900015F8013B0BB32F2B01D1031917E05C2B2F
:1064A00002D10020BDE8F087A3F12204E4B21D2C44
:1064B00003D827FA04F4E407F3D403F0BF043C2C18
:1064C000EFD0203B5E2BE1D9EBE72F2D05D11E4607
:1064D00013F8015B202DF8D1F9E7166003199842F3
:1064E000C0EB030809D013F8012D2E2AF7D0202A7B
:1064F000F5D0B8F1FF0FD4DC01E04FF00008C1F88F
:10650000048001F10C0301F11702202403F8014F6C
:106510009342FBD103461A1A13F8014B2E2CFAD0E2
:10652000202CF8D0B2FA82F4640908F1FF36731C0B
:1065300007D100274FF0070E3D46BA464FF0080935
:1065400009E0835D2E2BF4D0013EF0E7835C202B25
:1065500004D1002401324245F8DB4BE02E2B02D15E
:10656000B242F6D103E0222B17D07C2B15D0A3F139
:106570002A0CBCF1050F01D82D2B0ED1A3F13A0C3A
:10658000BCF1050F09D9A3F15B0CBCF1020F04D9D2
:10659000A3F1210CBCF15D0F02D9B2420ED149E04A
:1065A000B24247D0754521D8A3F1610CBCF1190F57
:1065B00008D8203BDBB249EA07070AE0754515D841
:1065C00000245F23A3F1410CBCF1190F98BF49EAE5
:1065D0000A0A05F1010C5FFA8CFC0D44BCF1060FB0
:1065E0006B7301D881F80CC06546B3E7BEF10A0FA2
:1065F00017D100244B7B202B3FF453AF3CB11AEA58
:10660000070F18BF02270F700120BDE8F0870B7B32
:106610000120087019447E234B7331238B73BDE82E
:10662000F087B242E5DC32464FF00A0E08254FF003
:1066300010098EE7BEF10A0FDBD032464FF00A0E8A
:1066400008254FF0100985E701010031F0B58BB046
:1066500000238DF804308DF80530037819070446BF
:1066600008D583789A0705D5016A29B1A06801F099
:106670002EF808B9002049E00121204600F0BCFABC
:1066800005460028F6D0FFF755FEE5262E700023BC
:1066900007462370A068FFF740FE0028EAD0E378A1
:1066A000002B33D0214601A8FFF753FE0028E1D08C
:1066B0000125E378AB42DDD3A188491B490101A83C
:1066C00000F0CEFB0028D5D0002101A800F0ABFBE4
:1066D0000028CFD0C37A0F2BCCD1027802F01F0351
:1066E0009D42C7D1437BBB42C4D10670A16891F8DB
:1066F000243043F0010381F82430530603D5A06809
:10670000FFF70BFE02E00135EDB2D2E70BB0F0BDB2
:106710002DE9F84391F80C9006460D4602247E2799
:1067200001F10D086968AA6863189BB2114491428F
:1067300006D012F8010B03EB431343409BB2F6E77C
:10674000B9F1030F28BF4FF0030909F10402D2B2D7
:1067500003F00F01A818013A0929D2B294BF3031D1
:106760003731914541734FEA1313F1D305EB090318
:1067700000215F73304600F073FB0121304600F0CA
:1067800052FB014628B97078B0FA80F04009BDE8A4
:10679000F88303784BB1C37A1B07EED40B22404633
:1067A00007F088FF0028E8D102E00120BDE8F88367
:1067B0000134A4B2642CB5D1BDE8F8832DE9F04FC3
:1067C0009B460B7889B013F0700F05900E469146EA
:1067D00001D10020A0E1059B1B78002BF9D1536863
:1067E000029313789B0700F08D81029B0D270C33D9
:1067F000B3FBF7F70137FFB20021304600F030FB62
:106800004FF0000809F10D02CDF80C8043464446D4
:106810004546CDF8108006927269079301213046F3
:10682000C2F34F1A00F0FFFA079B20B97378002BD0
:1068300000F09080CDE70278E52A00D042B9002C24
:1068400008BFD046BC423CBF0134E4B222B981E06B
:10685000BC4238BF002403E0E52A01D10025DBE774
:106860002E2AFBD0C17A0F2952D13DB95106D3D57A
:10687000437B039302F01F052B4607E0013BDBB28D
:106880009A42EBD1427B03999142E7D15A1E4FF0D5
:106890000D0C0CFB02FC029A6245DFD94FF0000E92
:1068A000BEF1040F5FFA8EF204D800EB4E02B2F88C
:1068B00001200CE00A2A95BF0EF1FF320EF1010211
:1068C00000EB420200EB420294BFD2889288029908
:1068D000614503D1002A18BF00259DE7FF2ABDD8D6
:1068E000D2B2A2F141011929D9F8081011F80C10FF
:1068F00098BF20320CF1010AA1F1410C98BFD2B22D
:10690000BCF1190F9CBF2031C9B29142A6D1FBE066
:106910000907A3D44DB1012B7FF45BAFFFF70AFD4C
:10692000039B83427FF455AF0FE00B220699079338
:1069300007F0C0FE079B00287FF46EAF99F8002097
:10694000D20702D50122049266E71BF4006F00F023
:10695000D1803EE71BF4007F3FF43BAF0BF0030315
:10696000013B012B3FF635AF002C08BFD046BC429F
:1069700002D3049BCBB91FE00021304600F053FA4C
:1069800010B973785BB124E70134E4B2EFE7B36880
:106990001B79012BEDD81034E4B2A742E9D9304677
:1069A00000F0EAF80028F2D113E749463046FFF735
:1069B000AFFE00283FF40DAF4FEA4811304600F01B
:1069C0004FFA00283FF405AF7D1EEDB22C464FF084
:1069D000000A4FF00F0841E00021304600F023FA92
:1069E000074600283FF4F5AEB26892F82430AC4276
:1069F00043F0010382F824300CBF44F040022246E9
:106A0000027080F80B8080F80CA009F10D00039251
:106A1000FFF790FC039A787387F81AA087F81BA0F9
:106A200002F01F020D23013AD9F808E05A4300236F
:106A30000299914215D91EF80210042B5FFA83FCCB
:106A400003F1010013D807EB4303A3F801100D284D
:106A500002F101020346EBD1013CE4B2002CBBD1B0
:106A60000EE014BF4FF0FF31002189B2E5E7BCF121
:106A70000A0F94BF07EB430307EB40039980E6E757
:106A8000736921463046C3F34F1A00F0CCF907462C
:106A900000283FF49EAE2022214607F025FE4B46FB
:106AA00053F80D2F3A605A687A601A893A819B7AB6
:106AB000BB7299F8003003F018033B73184B1B6846
:106AC0002BB107F10E0107F11000984706E02123D2
:106AD0003B7428237B740823BC73FB733B8A7B8243
:106AE0003B83FB89FB82B26892F8243043F00103B8
:106AF00082F8243000955B4652463146059800F0F6
:106B0000F8F909E0012777E60EF1010EBEF10D0F4D
:106B10003FF482AED446C3E609B0BDE8F08F00BFB3
:106B2000BCE1032002F094BB02F092BB02F090BBE8
:106B300010B50C46017809B9002010BD11F06001B4
:106B400004D02F2323700023637006E000F054F874
:106B50000028F1D0214600F05EF8012010BD02F0BF
:106B600077BB8378016943F00403837000F110025E
:106B7000806800F071BD00002DE9F041037803F05A
:106B80002003044603F0FF050BB100262EE0426906
:106B9000184B9A42F9D8FFF7E4FF06460028F4D0D4
:106BA0002169A06800F0EDFC0746A068052239467F
:106BB000243000F0C2FC80460028E6D029464FF47D
:106BC000007207F091FD0125A3681A79AA4209D93C
:106BD0004246E919186801F02DF80028D5D0013592
:106BE000EDB2F1E7636903EB422363613046BDE830
:106BF000F08100BFFFFD1F0010B5044680680A4603
:106C00002430A16900F099FC20B1A38803F00F03A0
:106C100000EB431010BDF0B50024451E08262346A6
:106C20002E2715F8012F202A18D0082C02BFCF5488
:106C30005A1CD3B22A78A2F1410E08BF1026BEF129
:106C4000190F06D890F80CE016EA0E0F1CBF203280
:106C5000D2B203F1010ECA545FFA8EF301340B2C49
:106C6000DFD10022CA541846F0BD70B5047805463D
:106C70000E4684B92422214607F036FDAE60F37932
:106C8000102B03D0202B06D1402300E0202301202D
:106C90002B70A87070BD002070BD2DE9F74F0378F0
:106CA0000446894615464BB18278D10706D50CE0DB
:106CB0005A46216900F06BFC00283DDA637843F006
:106CC000020363704FF0FF3097E01A0703D5E369C2
:106CD00062699B1A07E09A0608D5A3681A89636956
:106CE000C3EB42139BB29D4228BF1D462E464FF078
:106CF000000804F1100B002E35D022786369A068DB
:106D000012F0200FC3F3080A4FEA532102D0036A9E
:106D100019441DE090F8058001EA0808BAF1000F57
:106D200010D1B8F1000F0DD1002BC1D153064CBFCB
:106D3000036A236A236105E004D1237813F0700FFE
:106D400011D1BBE72169A06800F01BFC08EB000132
:106D5000A068BAF1000F35D1B6F5007F32D3C36A0F
:106D6000994202D12EE0A81B47E0B6F5806F1BD3F5
:106D7000227897064FEA562A06D40279C8EB020217
:106D8000D2B2924528BF924699424FEA4A2707D28B
:106D9000A06853464A46006800F00AFF60B98DE7D4
:106DA0005344994221D3F3E74A46006800F0B8FE05
:106DB000002883D04FF4007763693B44B944636192
:106DC000F61B98E70022243000F0B7FB00283FF4C0
:106DD00075AFCAF50077B74228BF374600EB0A0106
:106DE0003A46484607F075FCE6E72430019100F08A
:106DF0007DFB01990028CBD160E703B0BDE8F08F9F
:106E000073B501220DF10701044646690569FFF7D4
:106E100044FF012805BF9DF8070066614FF0FF3071
:106E2000256102B070BD37B54369C3F3431504460D
:106E300005B169B901220DF107012046FFF72DFFC9
:106E400040B2012801D0002008E063691F3300E050
:106E50002033A0686361303000EB451003B030BDD3
:106E60002DE9F0410E46017807690446002939D022
:106E70004569B5423AD00EB9066131E00B0703D53A
:106E8000C3699E422ED807E0880605D5A3681B89F2
:106E9000B6EB431F26D823E0D4F808E09EF806306E
:106EA0006A1E03F10900731EC240C3409A4200D813
:106EB0004DB94A064CBFDEF82020226A22611D46E9
:106EC00004F110080AE09B1AF9E742462169A0681C
:106ED00000F05DFB002805F1FF3503DD002DF4D146
:106EE000666103E027610020BDE8F0810120BDE874
:106EF000F081F8B50F4615460021242204461E46AF
:106F000007F0F2FBB868A06005F00F02A58000F161
:106F1000300152013B6AE3601144CB7A1D074CD427
:106F2000831893F83B3003F017032370C97A11F0EC
:106F3000180F04BF43F0080323709DF81830E37066
:106F400006F00303012B09D0022B05D0002B34D10E
:106F5000710532D4012302E0032300E00223A37071
:106F6000A1788B0703D5237813F0110F25D14BB2ED
:106F700016F4005F06F0080114BF6FF07F070027CA
:106F800019433943A170C36AA36102447505B2F87D
:106F90004410B2F84A3043EA014104D581B100F00F
:106FA00096FB68B909E02162D36CE36173040CD5E8
:106FB000E1692046FFF754FF38B900202070F8BD82
:106FC000A37843F00403A370F0E70120F8BD2DE996
:106FD000F743037806460D46174653BB0B7813F06C
:106FE000700F26D04C6914F01F0422D1A046002156
:106FF0002846D5F81490FFF716FFD0B10378C3B137
:107000002E2B01D10024F2E7E52BFBD0C17A11F041
:10701000080F05D17CB1FFF78DF9804509D10AE051
:107020000F29EFD15906E2D503F01F0490F80D8027
:10703000DDE7002007E000943B46C9F34F122946E4
:107040003046FFF756FF03B0BDE8F08338B503784C
:1070500004460BB9012038BD83785A0723D5012196
:10706000FFF7CAFD054628B9637843F00103637052
:10707000002038BD0378E52BF6D023781B0744BFEA
:10708000E369C361238C4383638C8382094B1B6850
:107090002BB100F11601183098472B8B6B82A37827
:1070A00023F00403A370A068FFF737F90028DBD0B2
:1070B000D0E700BFBCE1032010B50446FFF7C6FFD0
:1070C0000023237010BDF0B593B01F4600238DF848
:1070D00024308DF825300378019206460C460BB11A
:1070E00000203DE00B7813F0700FF9D013782F2BB0
:1070F00012D1019B1A782F2A02D101330193F8E7AC
:10710000A1681AB93046FFF7B0FD29E009A8FFF7DA
:10711000ACFD0028E4D009AC01AA03A90198FFF74F
:10712000A9F90028DCD0019B1B789BB1002303AA9E
:1071300021463046FFF742FB0028D1D035460FCD1F
:1071400009AC0FC40FCD0FC42B6823603046FFF786
:10715000B3FFE0E73B4603AA21463046FFF72EFB8C
:1071600013B0F0BD00B58BB000238DF804308DF85E
:1071700005300A460123014601A8FFF7A4FF10B11C
:1071800001A8FFF763FA0BB05DF804FB2DE9F041AD
:107190000B7813F0700F88B004460F461CD040F6F1
:1071A0000223FFF70BFBB8B101261025A67025704E
:1071B0002046FFF7E1FC78B12369236200212046D5
:1071C000FFF74EFE2046FFF741FF28B1314620462B
:1071D000FFF712FD034608B9002051E0C5720246D0
:1071E0006E4600F1200C6D4610685168B646AEE858
:1071F0000300083262457646F6D1B3F814805E8B00
:107200002E238DF8003020210023EA1801330A2BA9
:107210005170FAD1216AA06800F0B3F9A368014661
:10722000012203F1240000F088F903460028D3D09E
:10723000ADF81A60ADF81480AE4606460DF1200C8C
:10724000724603CA624530607160964606F10806D0
:10725000F6D12E228DF801203A6AADF81A20110CD1
:10726000ADF81410203308AE2A4603CAB2421860A3
:107270005960154603F10803F6D1A068FFF74DF8F1
:1072800008B0BDE8F081F0B593B01F4600238DF83B
:1072900024308DF825300378019206460C46002BE9
:1072A0003ED10B7813F0700F3AD013782F2B0CD1FE
:1072B000019B1A782F2A02D101330193F8E7A168C4
:1072C00009A8FFF7D2FC58B309AC01AA03A9019899
:1072D000FFF7D0F820B3019B1B78DBB1002303AA92
:1072E00021463046FFF76AFA58B135460FCD09AC52
:1072F0000FC40FCD0FC42B6823603046FFF7DCFEB0
:10730000E2E76FB103AA21463046FFF73FFF0028AE
:10731000EBD105E003AA21463046FFF737FF00E036
:10732000002013B0F0BD00002DE9F0470378894636
:1073300019070446904608D583789A0705D51B0798
:107340000BD5E169FFF78CFD38B9637843F0010391
:1073500063704FF0FF30BDE8F0876369DB43984509
:10736000F3D846464FF0000A6369002E00F0818092
:10737000A068427912EA5325C3F308071CD1DFB98C
:10738000216971B104F1100200F001F90028DCDB81
:1073900040F08E802046FFF7E4FB002840F0888014
:1073A000D3E7236A3BB92046FFF7DBFB0028CCD0AC
:1073B0002369236200E023612169A06800F0E1F8FD
:1073C000291817B9B6F5007F21D2C7F50075B54267
:1073D00028BF354637B96369E269934234BF012259
:1073E000052200E00122A068243000F0A6F8002861
:1073F000ABD038442A4649462F4407F06AF9B7F51E
:10740000007F30D1A068243000F070F817E0B6F5A6
:10741000806FA06815D30279521B730AD2B29342CF
:1074200028BF1346C26A91424FEA432502D31A4449
:10743000914237D3A7684A46386800F06DFC90B98E
:1074400083E7C36A994202BF4FF0FF3380F824A05C
:10745000C362A3684A46186800F0ECFB00283FF4BA
:1074600074AF4FF4007563692B446361A944761BC4
:107470007AE7E269934201D9E36102E00F4B1B68AE
:107480001BB1A37843F00403A37094F90230002BDE
:1074900002DB4046BDE8F0872046FFF7D7FD002815
:1074A000F7D152E74FF0FF3280F824A0C262C1E763
:1074B0002169A06800F065F8014683E7BCE103207C
:1074C00001F0C6BE70B505460C46084649B108F045
:1074D000D9F82B68024621462846DB68BDE8704093
:1074E000184770BD01F0B4BE01F0B2BE70B50378AC
:1074F000DA0704461ED54368816800F10C0632465F
:10750000186800F097FB054608B9002513E02378BA
:107510009B0704D4237823F0010323700BE06368F6
:10752000A068196932460144186800F083FB0028FE
:10753000F0D1EAE70125284670BD70B583688B421B
:1075400004460E46154614D0FFF7D0FF08B90020B8
:1075500070BD6B0703D500232370A66009E0636844
:1075600004F10C023146186800F0DAFA0028F2D172
:10757000EDE72378204605F003051D4300F80C5B7A
:1075800070BD8379406902399940084470470129E8
:1075900070B505460C46164602D84FF0FF3070BD58
:1075A000C3699942F9D8C379202B10D1816902228D
:1075B00001EBD41100F50C70FFF7BFFF0028ECD0F1
:1075C00004F07F0450F8243023F070430FE0102BB8
:1075D000E3D18369C1F307210222194400F50C703D
:1075E000FFF7ABFF0028D8D0E4B230F81430EA69D6
:1075F00093429ABF33600120002070BD012938B545
:107600000C46154601D8002038BDC3699942FAD806
:10761000C379202B0ED18169032201EBD41100F52F
:107620000C70FFF78AFF0028EDD004F07F0440F8CB
:1076300024500FE0102BE6D18369C1F30721032208
:10764000194400F50C70FFF778FF0028DBD0E4B296
:1076500020F81450012038BD2DE9F341C4688C4254
:1076600005460E46904607D20C460027EB690134CA
:107670009C4203D9CFB9EC680127F7E7A64214D0A2
:1076800001AA21462846FFF782FF00280DDBEDD036
:10769000019B002BEAD107B1EC606FF070422146EC
:1076A0002846FFF7ABFF074608B900270BE016B9DD
:1076B000C8F8004007E0224631462846FFF79EFF03
:1076C0000028F5D1F1E7384602B0BDE8F08173B586
:1076D00005460C4601AA21462846FFF758FF061E1C
:1076E00001DA00200FE0002221462846FFF786FF3E
:1076F0000028F6D0EB689C429CBF04F1FF34EC609C
:10770000019C002EE6D102B070BD70B50123044685
:107710000022C3604FF0FF33C2710D46A06280F8B3
:107720002420C362C4F8340280F83022C0F8383212
:10773000A1B104295DD811462430FFF7FEFE0028D0
:1077400057D000EB051393F8AE315B0651D11B35D2
:1077500000EB0515D5F80650002D4AD00022294629
:1077600004F12400FFF7E9FE002842D0B0F80B3006
:10777000B3F5007F3DD1037C022B3AD1C389002BA6
:1077800037D0417B21714B1E63710023A371092601
:1077900001238B4207D0013E2BD0A2795B0001323E
:1077A000DBB2A271F5E7C28A02B9426A2261C689D8
:1077B0002E44A661B0F81130238106EB420121620C
:1077C000B0F81120520102F2FF1201EB6222626155
:1077D000B0F8133003B9036AAD1A2B44A57923FA24
:1077E00005F56B1CE36140F6F4739D4203D80C234E
:1077F000E371002070BD4FF6F4739D4285BFC36AEC
:10780000236210232023E371012070BD01F020BD0D
:1078100001F01EBD01F01CBD70B50E4C0E461546A4
:1078200001F0AEFD2368C01A0B4B984208D901F055
:10783000AFFD0A4B186001F0E1FF01F0A1FD2060EF
:1078400001F0A6FD80B2801BA842D4BF0020012019
:1078500070BD00BFC0E10320A086010008E6032040
:1078600038B5057A04464DB9406800F07DFA636882
:107870002946187D03F033FF0123237238BD10B56C
:10788000037A04466BB143680121187D03F027FF9A
:10789000FF21606800F09AFA606800F079FA00232E
:1078A000237210BDF8B504460D46164601F070FD72
:1078B00087B2606800F06FFAFF28607209D14FF458
:1078C0007A7239462046FFF7A7FF0028F1D05523EA
:1078D0000BE0FE2801D0502307E0324629466068BD
:1078E00000F05EFA607230B1602320462370FFF72B
:1078F000C6FF0020F8BD606800F04DFA606800F037
:107900004AFA0120F8BD70B504460E4601F040FD6C
:1079100085B2324629462046FFF77EFF30B96068BF
:1079200000F039FAFF28F4D1012070BD002070BDAD
:10793000F7B5037A019204460D460BB9FFF790FFA5
:1079400025B14FF496712046FFF7DDFF45F0400169
:10795000606800F03BFA0DF107060DF1030716F819
:107960000119606800F032FABE42F8D1002D0CBF58
:1079700095218721606800F029FA606800F00BFA11
:107980000B25606800F007FA0306607203D5013D1D
:1079900015F0FF05F5D103B0F0BD70B504460D46F6
:1079A000164637210022FFF7C3FF324629462046FC
:1079B000BDE87040FFF7BCBF2DE9F041002505721E
:1079C000057085724160044690461E4601F0E0FC59
:1079D00041460746606800F0CBF963684F4A1D7264
:1079E0004FF00108DA605D7483F810802046FFF7DD
:1079F00037FF63684146187D03F071FE0A25FF21B9
:107A00006068013D00F0E2F915F0FF05F7D1636809
:107A10002946187D03F063FE0A2500221146204600
:107A2000FFF786FF0128804612D0013D15F0FF05C3
:107A300001D1202357E0FD21606800F0C7F94FF421
:107A40000278606800F0A7F9B8F10108F9D1E4E71D
:107A50004FF4D57208212046FFF76AFF052802D1AE
:107A600084F80A800FE00425606800F094F9013D75
:107A700015F0FF056072F7D1AA2802D10223A37284
:107A800001E025232FE0A37A022B0CBF4FF08045A5
:107A90000025BFB22A4629212046FFF77EFF024675
:107AA00048B14FF4FA6239462046FFF7B5FE002888
:107AB000F0D0432317E0A37A022B0ED02046FFF725
:107AC000DEFE6368B0683479317B727B5A74D860AB
:107AD0001C7219740120BDE8F0813A212046FFF79D
:107AE00027FF38B1372320462370FFF7C8FE002058
:107AF000BDE8F081606800F04EF900F0C000C028D9
:107B000004BF0323A372606800F045F9606800F0C9
:107B100042F9606800F03FF9D0E700BF90D0030061
:107B200038B5837A032B18BF490215460A4611213E
:107B30000446FFF7FDFE10B1302323700BE0294609
:107B40004FF400722046FFF7ADFE054618B12046FF
:107B5000FFF795FE03E02046FFF791FE002528463B
:107B600038BD10B5837A032B0A4618BF4A0212218A
:107B70000446FFF7DDFE30B1312320462370FFF7C6
:107B80007EFE002010BD012010BD10B500220C218A
:107B90000446FFF7CDFE30B1282320462370FFF7BF
:107BA0006EFE002010BD2046FFF769FE012010BDCB
:107BB000F8B5054616461F46FFF7D3FF98B10024D7
:107BC000A3B29F4206EB442108D94FF40072284625
:107BD000FFF768FE01340028F2D104E02846BDE832
:107BE000F840FFF7D2BF0020F8BD38B5044615466F
:107BF000406800F0EBF84FF400722946606800F02E
:107C0000E9F8FF21606800F0E1F8FF21606800F00A
:107C1000DDF8606800F0BFF8607200F01F00052812
:107C200006D0572320462370FFF729FE002038BDD9
:107C3000012038BD70B5837A032B18BF4902154661
:107C40000A4618210446FFF773FE064608B13223A0
:107C50001DE02A46FE212046FFF7C7FFC0B14FF4C2
:107C6000FA612046FFF74FFE054608B95A230EE099
:107C700032460D212046FFF75BFE38B9606800F000
:107C80008AF818B92046FFF7FAFD05E0292323708A
:107C90002046FFF7F4FD0025284670BD38B50D4697
:107CA0004FF4FA610446FFF72EFE10B95B232370F0
:107CB00005E02A46FC212046FFF797FF18B9204629
:107CC000FFF7DDFD002038BD10B5837A032B0A468F
:107CD00018BF4A0219210446FFF72AFE30B13323A8
:107CE00020462370FFF7CBFD002010BD012010BD02
:107CF00038B54FF4FA610446FFF705FE054620B19A
:107D0000FD21606800F062F801E0562323702046F0
:107D1000FFF7B5FD284638BDF8B5054616461F469F
:107D2000FFF7D2FF70B10024BC4206EB4421284685
:107D300004D0FFF7B3FF28B10134F5E7BDE8F84000
:107D4000FFF7D6BF2846FFF79AFD0020F8BD01F0E7
:107D50007FBA01F07DBA01F07BBA0000014B01222D
:107D60001A707047C4E10320011D006801F066BE6F
:107D700010B504460175006801F036FE207D012132
:107D800003F09CFC207D0121BDE8104003F0A7BC5E
:107D9000006801F03ABEFF21006801F0BFBE00009C
:107DA00037B5084B00930025074C00682570134633
:107DB0000A46294601F0B8FE2378002BFCD00020AB
:107DC00003B030BD5D7D0D00C4E10320006801F00B
:107DD000A5BE000037B5074B00930025064C006890
:107DE000257013462A4601F09FFE2378002BFCD015
:107DF00003B030BD5D7D0D00C4E1032001F028BA61
:107E000010B5044603F0B6FC036821469B68BDE844
:107E10001040184708B503F0ADFC03685B6998474C
:107E2000C0B208BD38B504460D4603F0A3FC217866
:107E300041F0200103F085FA2846FFF7E1FF03F047
:107E400099FC03F085FA03F095FC2178012241F0BA
:107E5000200103F06FFABDE83840FFF7DBBF70B5D3
:107E6000064614460D4603F085FC317841F02001AA
:107E700003F067FA2846FFF7C3FF2046FFF7C0FF6D
:107E800003F078FCBDE8704003F062BA2DE9F041E0
:107E90009DF81860072998BF1E4601F00707904615
:107EA000314601240546BC40FFF7BCFFB8F1000F86
:107EB00001D0044301E020EA0404E2B2314628463E
:107EC000BDE8F041FFF7CBBF10B5072928BF072158
:107ED0000170044603F04EFC03F0F8F92046FF223F
:107EE0000021FFF7BCFF2046FF220121BDE8104022
:107EF000FFF7B5BF0021FFF7E7BF07B50123B2FACF
:107F000082F2009352090023FFF7C0FF03B05DF82F
:107F100004FB0829F8B501F007060C4634BF14210C
:107F2000152105461746FFF77DFF0123B3400FB12A
:107F3000034301E020EA0303082CDAB2284634BFE9
:107F400012211321BDE8F840FFF789BF07B50D23C3
:107F500000930C23FFF79AFF03B05DF804FB01F0D8
:107F600077B9704710B50C4603F004FC602103F0AC
:107F7000E8F903F0FFFB036821469B68984703F08C
:107F8000F9FB002103F0E0F903F0F4FB012260218A
:107F900003F0D0F903F0EEFB03685B699847C0B2C9
:107FA00010BD10B5044603F0E5FB03F08FF90C217A
:107FB0002046FFF7D7FFA0F1C4035842584110BD37
:107FC00038B514460D4603F0D5FB602103F0B9F92E
:107FD00003F0D0FB036829469B68984703F0CAFB6F
:107FE000036821469B68984703F0C4FB0121BDE864
:107FF000384003F0A9B910B526210446FFF7B2FFB7
:10800000262100F07F022046BDE81040FFF7D8BFD0
:10801000072928BF072138B50D4626210446FFF75A
:10802000A1FF00F0C70040EAC502D2B220462621D7
:10803000BDE83840FFF7C4BF07221321FFF7C0BFD8
:1080400010B526210446FFF78DFF262100F0FD0222
:108050002046FFF7B5FF26212046FFF783FF40F0BB
:108060000202D2B220462621BDE81040FFF7A8BF89
:10807000F8B500210746FFF775FF00213846FFF7E6
:1080800071FF03F077FB602103F05BF903F072FBF3
:108090000121FDF73EFD03F06DFB002103F054F9D3
:1080A00003F068FB0322602103F044F903282CD17C
:1080B00003F060FB03685B699847064603F05AFBD0
:1080C00003685B699847044603F054FB03685B69E7
:1080D00098473604240206F47F0604F47F44C5B2B0
:1080E00034432C433846FFF7ABFFC5F30115A3110A
:1080F00007EE905A00EE103AF8EE677AB8EEC00A32
:10810000B5EE007AA7EE870AF8BD9FED010AF8BD2B
:1081100000C079C401F09CB82DE9F84F2DED028B19
:1081200041F27865044643598A4623B99FED2A0AED
:1081300081ED000A4CE000F5B35341F2746B18690D
:1081400005F022FC0022254B05F072FC0646605922
:1081500054F80B3007EE900AF8EE677A0F4617EEE8
:10816000900A08EE103A05F00FFC32463B4605F047
:108170005FFCF8EE487A804617EE900A894605F0D3
:1081800003FC02460B464046494605F07BFD05F0E0
:1081900047FF002344F80B30635141F27C65804671
:1081A000605907EE900AF8EE677A17EE900A05F02C
:1081B000EBFB0B4602463946304605F063FD05F001
:1081C0002FFF4FF0FF33CAF8000000EE108A635112
:1081D000BDEC028BBDE8F88F0000000000408F402E
:1081E000F8B5054603F0C6FA02224D2103F0A2F8C5
:1081F00003F0C0FA03681B699847022832D103F0E4
:10820000B9FA03685B699847064603F0B3FA036856
:108210005B69984740EA062007EE900AF8EE677A15
:1082200005F5B55417EE900A05F0AEFB0022104B91
:1082300005F0FEFB0CA3D3E9002305F0F9FB06468D
:1082400020690F4605F0A0FB02460B463046394632
:1082500005F03CFA05F0E4FE41F2B4622061AB584F
:108260000133AB50F8BD00BF48E17A14AE472B4054
:108270000000303F41F2B46200F5B5538158D3EDB0
:10828000046A07EE901AB8EE677A82B0C6EE877A73
:1082900000211961002383509FED057A67EE877AEC
:1082A000FCEEE77ACDED017ABDF8040002B070472C
:1082B00000007A4400F5B35393ED000AD3ED027A3F
:1082C000B8EE400A00221A6020EE270A704700002C
:1082D000F8B541F290672DED028BC3599FED288AC6
:1082E0000446002B41D007EE903A00F5B456D6ED87
:1082F000036A96ED027AF8EE677A3546C7EE278A6A
:1083000086EEA77AC7EE287A17EE900A05F03CFBB6
:1083100041EC100B03F054FD002251EC100B194BF3
:1083200005F086FB14A3D3E9002305F0ABFC05F0B0
:1083300077FEF4EEC88AF1EE10FA00EE100A48BF9C
:10834000DFED117A86ED028A48BF30EE270A00235E
:10835000B5EEC00AF1EE10FA85ED038AE35106D5B9
:10836000DFED0A7A30EE270A01E0B0EE480ABDECF4
:10837000028BF8BDAFF300806E861BF0F921094037
:108380000000000000806640000034430000B44359
:10839000A1F69803C72B42D9A1F63403632B41D928
:1083A000A1F54863622B40D9A1F61C43632B3FD94A
:1083B000A1F632736C2B3ED9A1F674634F2B3DD9D5
:1083C000A1F6C4636D2B3CD9A1F64853632B3BD96E
:1083D000A1F6F253812B3AD9A1F62823632B39D980
:1083E000A1F6BE23632B38D9A1F2E653452B37D92A
:1083F000A1F22C63452B36D9A1F2BE53272B35D9D8
:10840000A1F26C73632B34D9A1F2A461DFED1A7A67
:108410003229BFEE000A38BFB0EE670A70479FED01
:10842000170A70479FED160A70479FED160A7047AE
:108430009FED150A70479FED150A70479FED140ACE
:108440007047B1EE060A70479FED120A70479FED24
:10845000120A70479FED110A70479FED110A70478D
:108460009FED100A70479FED100A70479FED0F0AAD
:1084700070479FED0F0A7047295C2F40C3F54840B5
:1084800085EB61401F857B40713D8A4052B8964024
:108490001F85A340E17ABC400000000014AEC73E37
:1084A000713D4A3F3D0A973FC3F5C83F48E1FA3F57
:1084B0003D0A17400000000030B52DED028B41F25F
:1084C000846383B00446C05A03F022F90146204673
:1084D000FFF75EFFB5EEC00AF1EE10FA3CDD10EEDC
:1084E000100A05F051FA1EA3D3E9002341EC180B42
:1084F00005F010FD80B3B0EE480AF0EE680A03F014
:10850000ABFE04F5B45553EC102BA868CDE900235D
:1085100005F03AFADDE9002305F0D8F805F080FD12
:10852000B0EE480AF0EE680AA86003F0FDFE04F51C
:10853000B45553EC102BE868CDE9002305F024FA7C
:10854000DDE9002305F0C2F805F06AFD41F2906212
:10855000E860A3580133A35003B0BDEC028B30BDDB
:1085600037C30DF8FC90184030B585B002AA03A9B6
:108570000446FDF7C0FEDDED037AB2EE047A67EE45
:10858000877A0546FCEEE77A04F10A0017EE901AA6
:1085900001F6AC2189B200F0E0FDDDED027AFCEEDF
:1085A000E77A04F60630CDED017ABDF8041000F04C
:1085B000D4FD002D48D09DED027AB5EEC07AF1EEE3
:1085C00010FA13DDDFED317AB4EEE77AF1EE10FA4E
:1085D0000CD504F5B453D3ED057A77EE877A41F2E2
:1085E0009862C3ED057AA3580133A350039805F0B0
:1085F000CBF90022264B05F01BFA0022254B05F093
:1086000041FB0022244B05F061F805F009FDDFED88
:10861000237A07EE100AB4EEE77AF1EE10FA13DDD2
:10862000DFED1F7AB4EEE77AF1EE10FA0CD504F51F
:10863000B453D3ED077A77EE877A04F5B552C3EDDC
:10864000077A13680133136004F10800FFF710FD87
:10865000DFED147AB4EEE70AF1EE10FA13DDDFED88
:10866000127AB4EEE70AF1EE10FA0CD504F5B55320
:10867000D3ED017A37EE800A41F2A86283ED010A58
:10868000A3580133A35005B030BD00BF0000D24253
:10869000000022400000144000004040000048C29A
:1086A0000000164300409C4700D8D64700F5B5525D
:1086B0009FED090A13686BB107EE903A00F5B450CC
:1086C00090ED077A80ED070AF8EE677A002387EECF
:1086D000270A1360704700BF0000000041F2A86144
:1086E0009FED090A43586BB107EE903A00F5B55279
:1086F00092ED017A82ED010AF8EE677A002387EEA7
:10870000270A4350704700BF00000000000000002F
:1087100037B5054600F5B0500430FCF7CFFD424CAC
:1087200001A920602846FFF7F7FC10EE100A05F0BB
:108730002BF939A3D3E9002305F07AF941EC100BAA
:1087400003F0FAFC51EC100B05F04AFCE0802846DF
:10875000FFF7B0FDDFED357A60EE277A17EE900A6D
:1087600005F012F941EC100B03F0E6FC51EC100B94
:1087700005F036FCA0812846FFF7AAFD10EE100A8E
:1087800005F002F941EC100B03F0D6FC51EC100B94
:1087900005F026FCA0802846FFF788FF10EE100A9F
:1087A00005F0F2F80022224B04F08EFF0022214B4C
:1087B00005F03EF90022204B05F064FA18A3D3E936
:1087C000002304F083FF41EC100B03F0B5FC51ECE7
:1087D000100B05F005FC608105F6063000F000FD89
:1087E00005F0B0F841EC100B03F0A6FC51EC100BB7
:1087F00005F0F6FB20722846FFF770FFFCEEC07A0A
:10880000284617EE903AE381FFF734FD608203B00B
:1088100030BD00BFAFF300808FC2F5285C259940C2
:10882000000000000057A54010D803200070C64685
:10883000000040400000494000002240F8B50446D6
:10884000104692681E4602F1080323F0070300AFAA
:10885000ADEB030D69460023013201F0A8FB2E2188
:1088600068466D4606F0BEF9A8B10346F21AD0423A
:10887000194603D40A780133002AF7D100224B1E8F
:108880000A701978302902D103F80129F9E72E2955
:1088900004BF00221A702946204601F08CFA2046B7
:1088A000BD46F8BD000000002DE9F047A24CA34DE5
:1088B000C0B00E4680460A222168684601F014FBCB
:1088C000694604A801F0B6FA294604A801F05DFB48
:1088D0000A220746A18808A801F0F3FA08A9384639
:1088E00001F047FB294601F050FB8146E088944F98
:1088F00007EE900AF8EE677A17EE900A05F044F852
:1089000087A3D3E9002305F0BDF902460B460CA866
:10891000394601F091FB01230CAA314610A8FFF75C
:108920008DFF10A9484601F024FB294601F02DFBDC
:108930000A228146217A14A801F0B1FA14A9484606
:1089400001F017FB294601F020FB8146608907EE04
:10895000900AF8EE677A17EE900A05F015F872A300
:10896000D3E9002304F0B0FE0022764B05F060F856
:108970000022754B05F086F90022744B04F0A6FE28
:1089800002460B4618A8394601F056FB18AA0123E7
:1089900031461CA8FFF752FF1CA9484601F0E9FA2E
:1089A000294601F0F2FAA3899FED697ADFF8AC91CC
:1089B00007EE903AF8EE677A8246C7EE876A16EEBF
:1089C000900A04F0E1FF02460B4620A8494601F058
:1089D00033FB20AA0323314624A8FFF72FFF24A945
:1089E000504601F0C6FA294601F0CFFA8246E089E6
:1089F00007EE900AF8EE677A17EE900A04F0C4FFCB
:108A00004BA3D3E9002305F03DF902460B4628A805
:108A1000504901F011FB28AA022331462CA8FFF788
:108A20000DFF2CA9504601F0A4FA294601F0ADFA39
:108A30008246208A04F096FF39A3D3E9002305F08B
:108A400021F905F0EDFA04F09FFF02460B4630A82D
:108A5000394601F0F1FA30AA0123314634A8FFF774
:108A6000EDFE34A9504601F084FA294601F08DFA52
:108A70000546608A07EE900AF8EE677A17EE900ACC
:108A800004F082FF0022344B05F0FCF802460B464E
:108A900038A8494601F0D0FA032338AA31463CA849
:108AA000FFF7CCFE3CA9284601F063FA0146404698
:108AB00001F0C0F93CA801F037F938A801F034F909
:108AC00034A801F031F930A801F02EF92CA801F0FA
:108AD0002BF928A801F028F924A801F025F920A8ED
:108AE00001F022F91CA801F01FF918A801F01CF9E7
:108AF00014A801F019F910A801F016F90CA801F05A
:108B000013F908A801F010F904A801F00DF968465E
:108B100001F00AF9404640B0BDE8F087AFF30080AD
:108B20008FC2F5285C259940000000000057A54041
:108B3000A1D634EF382A754010D80320CC030E009C
:108B4000CE030E00000022400000494000004040DB
:108B50000070C646D8030E0000408F40D3030E00BD
:108B60002DE9F04107460C4615462AB90368C9B2FB
:108B70009B68BDE8F0411847002907DA0A2A05D1A9
:108B80002D2101F0BFFA6142064601E02146002690
:108B9000EAB2384601F0D5FA3044BDE8F08100F081
:108BA00057BB000041F27462002330B5835041F29C
:108BB00078624FF0FF31835041F27C6200F108058A
:108BC000815000F5B4528BB0136004462846FFF77D
:108BD000E8F92846FFF70FFA07212846FFF718FAA9
:108BE0002846FFF729FA2046FDF77AFB04F5B25430
:108BF00002F0BEF94FF4165102F0AEF90C3402F057
:108C0000B7F9694901F09BFA2046FDF74CFA18B113
:108C100002F0AEF9654902E002F0AAF9644901F0F8
:108C20008EFA69462046FDF73DF902F0A1F9614947
:108C300001F085FA02F09CF95F4901F066FA02F052
:108C400097F9694601F071FA02F092F95B4901F077
:108C50005CFA02F08DF90A2203990546FFF780FFBE
:108C6000284601F056FA02F083F9554901F04DFA11
:108C700002F07EF90A2204990546FFF771FF2846A3
:108C800001F047FA02F074F94E4901F03EFA02F0A1
:108C90006FF99DED060A022101F032FB02F068F93E
:108CA000494901F04CFA02F063F9484901F02DFA04
:108CB00002F05EF99DED070A022101F021FB02F0AE
:108CC00057F9414901F03BFA02F052F9404901F0ED
:108CD0001CFA02F04DF99DED080A042101F010FB89
:108CE00002F046F9384901F02AFA02F041F9314917
:108CF00001F025FA02F03CF9364901F020FA4FF470
:108D0000FA7001F0EDFC10212046FDF7B3F90221C5
:108D10002046FDF705FA02F02BF9264901F00FFA7B
:108D200002F026F92C4901F0F0F92046FDF7F2F89F
:108D300010280DD004D8A0B902F01AF927490EE086
:108D4000202809D030280CD102F012F9244906E07D
:108D500002F00EF9234902E002F00AF9224901F07B
:108D6000EEF902F005F9214901F0CFF902F000F91E
:108D700005462046FDF7D0F864210A2200FB0111C8
:108D80002846FFF7EDFE02F0F3F8194901F0D7F994
:108D900002F0EEF8074901F0D2F902F0E9F80D49C6
:108DA00001F0CDF90BB030BDDD030E00FD030E0068
:108DB00014040E003B040E0060040E006F040E004D
:108DC0007E040E008D040E009C040E00A1040E0013
:108DD000B0040E00FC050E00BF040E00CE040E0011
:108DE000F0040E00D7040E00E4040E00FC040E0094
:108DF0000B050E005022427041F6FF7210B5426022
:108E000043F6FF728260C26047F6FF720261426100
:108E100082614FF6FF720170C2618024002200EB74
:108E20008101026244624A6882627F3AD209C26268
:108E3000046310BD2DE9F0411E4614460F46054659
:108E400002F098FC804602F08FFA02F093FC6978F9
:108E500002F073FA02F08EFCC7F30721FCF759FE0B
:108E600002F088FCF9B2FCF754FE02F083FC02F039
:108E70006FFA02F07FFC2246697802F05BFA013C4F
:108E8000751E3444A54207D002F074FC03685B6988
:108E9000984705F8010FF5E702F06CFC02F058FA6C
:108EA0004046BDE8F04102F068BA2DE9F0411E46A7
:108EB00014460D46804602F05DFC074602F054FA67
:108EC00002F058FC98F8011002F037FA02F052FC58
:108ED000C5F30721FCF71DFE02F04CFCE9B2FCF7DC
:108EE00018FE013C751E3444A54207D002F042FC36
:108EF000036815F8011F9B689847F5E702F03AFCF4
:108F000002F026FA3846BDE8F04102F036BAF8B56C
:108F10001446426A8A4207461ED8806A81421BD89C
:108F2000621E7F2A1AD80A44904219D31D46CE1ACF
:108F30001D2C05EB060107D92B461E223846FFF7EC
:108F400079FF1E351E3CF3E724B12B46E2B23846CA
:108F5000FFF770FF0020F8BD0120F8BD0220F8BD2A
:108F60000320F8BDF8B51446426A8A4207461ED867
:108F7000806A81421BD8621E7F2A1AD80A44904216
:108F800019D31D46CE1A1D2C05EB060107D92B4619
:108F90001E223846FFF789FF1E351E3CF3E724B139
:108FA0002B46E2B23846FFF780FF0020F8BD0120D3
:108FB000F8BD0220F8BD0320F8BD10B5046B836A2C
:108FC0002144994238BF01634FF000032DBF0321B4
:108FD000A0B21370117028BF184610BD10B504461A
:108FE000802B084611462160029A2371E06004D26A
:108FF0005943FFF7E2FFA06003E00423137000234E
:10900000A360204610BD70B5856816461C460DB994
:10901000062303E003688B4202D80523237070BD4A
:109020000279C068334602FB0151FFF770FF2070E0
:1090300070BD70B5856816461C460DB9062303E061
:1090400003688B4202D80523237070BD0279C06883
:10905000334602FB0151FFF785FF207070BD38B524
:1090600004461546802B0846049A25602371E1606A
:109070000BD2013505FB03F125600C31FFF79DFF95
:10908000E368A0601B6BA36103E00423137000235B
:10909000A360204638BD83686BB142690369816A69
:1090A0000362134442625A18034643F81C2F0C22F1
:1090B000C068FFF757BF70476323036264234362AE
:1090C000816A00F11C030C22C068FFF720BF10B5B5
:1090D000044602F04FFB02F03EF918B902F04AFBD9
:1090E00002F0F4F8A3690C3BA3622046FFF7E4FF0B
:1090F00004F120010EC9E0690B441344834213BFFD
:10910000002321616261236118BF63612046BDE8CD
:109110001040FFF7C0BF00F09BB87047002383806A
:10912000C3800370418800F5B0609AB28A4203D2CE
:1091300020F8022F0133F8E7704710B5044629B133
:1091400040F2BD239942A8BF194600E00121204604
:109150006180FFF7E3FF204610BDC288531C043234
:109160009BB2C38020F812104288934224BF002390
:10917000C38083889A4284BF0133838000230370B5
:1091800070472DE9F043B0F804E000260EF1FF3CF3
:10919000B2B2624520DA01231F46C2EB0E05AB4294
:1091A00017DA00EB43020133B2F88015B2F88245BA
:1091B00001F1040904F1040830F8199030F818801E
:1091C000C14582BFA2F88045A2F8821500279BB254
:1091D000E5E70136002FDBD001230370BDE8F08303
:1091E00010B583880446F3B103780BB9FFF7C9FFC4
:1091F000A38813F0010F4FEA530304EB430305D098
:10920000B3F88235043334F813300CE0B3F8822518
:10921000043234F81210B3F88025043234F81230D6
:109220000B44C3F34F03184610BD00F011B8000003
:1092300008B5024B1B689B68019308BD68020300D8
:1092400008B5024B1B68DB68019308BD6802030088
:1092500008B5024B1B681B68019308BD2C02030074
:1092600008B5024B1B685B68019308BD2C02030024
:1092700008B5024B1B689B68019308BD2C020300D4
:1092800008B5024B1B68DB68019308BD2C02030084
:1092900008B5024B1B681B69019308BD2C02030033
:1092A00008B5024B1B689B69019308BD2C020300A3
:1092B00008B5024B1B68DB69019308BD2C02030053
:1092C00008B5024B1B681B6B019308BD2C02030001
:1092D00008B5024B1B681B68019308BD30020300F0
:1092E00008B5024B1B685B69019308BD300203009F
:1092F00008B5024B1B68DB69019308BD300203000F
:1093000008B5024B1B681B6A019308BD30020300BD
:1093100008B5024B1B685B6A019308BD300203006D
:1093200008B5024B1B689B6A019308BD300203001D
:1093300008B5024B1B689B6B019308BD300203000C
:1093400008B5024B1B68DB6B019308BD30020300BC
:1093500008B5024B1B681B6C019308BD300203006B
:1093600008B5024B1B685B6C019308BD300203001B
:1093700008B5024B1B685B68019308BD1802030027
:1093800008B5024B1B681B69019308BD1802030056
:1093900008B5024B1B685B69019308BD1802030006
:1093A00008B5024B1B68DB69019308BD1802030076
:1093B00008B5024B1B689B6D019308BD18020300A2
:1093C00008B5024B1B68DB6D019308BD1802030052
:1093D00008B5024B1B689B6E019308BD3402030065
:1093E00008B5024B1B689B68019308BD4802030047
:1093F00008B5024B1B68DB68019308BD48020300F7
:1094000008B5024B1B681B69019308BD48020300A5
:1094100008B5024B1B685B69019308BD4802030055
:1094200008B5024B1B68DB69019308BD48020300C5
:1094300008B5024B1B681B6A019308BD4802030074
:1094400008B5024B1B685B6A019308BD4802030024
:1094500008B5024B1B689B6A019308BD48020300D4
:1094600008B5024B1B68DB6A019308BD4802030084
:1094700008B5024B1B685B6C019308BD48020300F2
:1094800008B5024B1B689B6C019308BD48020300A2
:1094900008B5024B1B681B6F019308BD480203000F
:1094A00008B5024B1B685B69019308BD64020300A9
:1094B00008B5024B1B681B68019308BD3C02030002
:1094C00008B5024B1B68DB68019308BD3C02030032
:1094D00008B5024B1B681B69019308BD3C020300E1
:1094E00008B5024B1B685B69019308BD3C02030091
:1094F00008B5024B1B689B69019308BD3C02030041
:1095000008B5024B1B68DB69019308BD3C020300F0
:1095100008B5024B1B681B6A019308BD3C0203009F
:1095200008B5024B1B689B6A019308BD3C0203000F
:1095300008B5024B1B68DB6A019308BD3C020300BF
:1095400008B5024B1B68DB68019308BD28020300C5
:1095500008B5024B1B689B69019308BD28020300F4
:1095600008B5024B1B68DB69019308BD28020300A4
:1095700008B5024B1B681B6A019308BD2802030053
:1095800008B5024B1B685B6A019308BD2802030003
:1095900008B5024B1B689B6A019308BD28020300B3
:1095A00008B5024B1B68DB6A019308BD2802030063
:1095B00008B5024B1B681B6B019308BD2802030012
:1095C00008B5024B1B685B6B019308BD28020300C2
:1095D00008B5024B1B681B6C019308BD28020300F1
:1095E00008B5024B1B685B6C019308BD28020300A1
:1095F00008B5024B1B689B6C019308BD2802030051
:1096000008B5024B1B68DB6C019308BD2802030000
:1096100008B5024B1B681B6D019308BD28020300AF
:1096200008B5024B1B681B68019308BD4C02030080
:1096300008B5024B1B685B68019308BD4C02030030
:1096400008B5024B1B681B69019308BD4C0203005F
:1096500008B5024B1B685B69019308BD4C0203000F
:1096600008B5024B1B689B69019308BD4C020300BF
:1096700008B5024B1B68DB69019308BD4C0203006F
:1096800008B5024B1B681B6A019308BD4C0203001E
:1096900008B5034B1B68D3F88030019308BD000068
:1096A0006002030008B5024B1B681B68019308BDEC
:1096B0002002030008B5024B1B685B68019308BDDC
:1096C0002002030008B5024B1B685B69019308BDCB
:1096D0002002030008B5024B1B68DB6A019308BD3A
:1096E0002002030008B5024B1B68DB6C019308BD28
:1096F0002002030008B5024B1B685B6D019308BD97
:109700002002030008B5024B1B689B6D019308BD46
:109710002002030008B5024B1B68DB6F019308BDF4
:109720002002030008B5034B1B68D3F8883001936F
:1097300008BD00002002030008B5034B1B68D3F8E6
:109740009430019308BD00002002030008B5024BCD
:109750001B685B68019308BD4002030008B5024B1B
:109760001B689B68019308BD4002030008B5024BCB
:109770001B68DB68019308BD4002030008B5024B7B
:109780001B681B69019308BD4002030008B5024B2A
:109790001B685B69019308BD4002030008B5024BDA
:1097A0001B689B69019308BD4002030008B5024B8A
:1097B0001B68DB69019308BD4002030008B5024B3A
:1097C0001B681B6A019308BD4002030008B5024BE9
:1097D0001B681B6B019308BD4002030008B5024BD8
:1097E0001B685B6B019308BD4002030008B5024B88
:1097F0001B681B68019308BD4402030008B5024BB7
:109800001B689B68019308BD4402030008B5024B26
:109810001B68DB68019308BD4402030008B5024BD6
:109820001B685B69019308BD4402030008B5024B45
:109830001B681B6A019308BD4402030008B5024B74
:109840001B681B6B019308BD4402030008B5024B63
:109850001B68DB6B019308BD4402030008B5024B93
:109860001B681B68019308BD1C02030008B5024B6E
:109870001B685B68019308BD1C02030008B5024B1E
:109880001B689B68019308BD1C02030008B5024BCE
:109890001B681B69019308BD1C02030008B5024B3D
:1098A0001B689B69019308BD1C02030008B5024BAD
:1098B0001B68DB69019308BD1C02030008B5024B5D
:1098C0001B681B6A019308BD1C02030008B5024B0C
:1098D0001B685B6A019308BD1C02030008B5024BBC
:1098E0001B68DB6A019308BD1C02030008B5024B2C
:1098F0001B681B6B019308BD1C020300002211466C
:109900004068FFF75BBF002211464068FFF766BF63
:1099100000224068FFF75ABF002281F00101406831
:10992000FFF744BF00231A4619464068FFF736BFC9
:1099300000231A4619464068FFF728BF0022114647
:109940004068FFF71BBF002211464068FFF706BFC3
:10995000002202214068FFF709BF00231A46406831
:10996000FFF7F4BE024B03225A60024A1A607047A6
:10997000C8E1032018050E000A680B4692680146EC
:109980001846104770B50E4C04601C2444609DF8C6
:1099900014409DF8106004F0030444EA8604002596
:1099A000E4B20474427485744161427C85600F2A7C
:1099B00008BF044BC56006BF8361C061038370BDEF
:1099C000CCFF0D0079990D000021FFF7C1BC0021EB
:1099D000FFF7C6BC10B5044601700846FFF788FCC7
:1099E00000236360204610BD10B504460078FFF7E1
:1099F000EBFF48B920784FF6FF71FFF769FC20783C
:109A0000BDE81040FFF7E3BF10BD0078FFF7DFBFF0
:109A1000400830B51860002418688842E5B206D9BD
:109A20000134082C02D040081860F5E70725024BE6
:109A30005B5D137030BD00BF44050E002DE9F0439F
:109A400007468FB000780E46FFF7BEFF002862DBA6
:109A50003C781422002109A804F046FE0B2320467E
:109A6000002209A9ADF82430FFF752FC9DF82D40E3
:109A700054B19DF82C5035B9DDF830809DF8349004
:109A80009DF8354003E00024A146A0460125337926
:109A900005B1BBB99D420BD1B268424508D18DF8E2
:109AA00020908DF82140BDF82010B289914209D054
:109AB00053B10024387801940094234622460121B2
:109AC000FFF73EFC002026E08DF80F30B1680A98C1
:109AD00004AB0DF10F02FFF79BFF317905B1B1B96E
