:02000002D0002C
:1040000000400D000C070E00000006000D00050129
:084010000401D50700000000C7
:044018006CF40D0037
:1040200009480A49884208B505D0094A824202D0A7
:10403000121A09F0C9FC0748074A0021121A09F0B0
:10404000D1FC014808BD00BF88BF03209C040E00BE
:10405000D0C10320D0C10320EDE7032070B5074E87
:10406000074C06F0E9FBA41BA4080025A54200D1DB
:1040700070BD56F8043B98470135F7E75C040E0025
:1040800088040E0000F00EBD08B500F0B7FBBDE8D7
:10409000084006F093BB05F0A9BB05F0A7BB05F0EF
:1040A000ADBB0078B0FA80F040097047012303707F
:1040B000704710687047704770470000014B01223D
:1040C0001A707047B8C4032003681847012A03D048
:1040D000022A03D0002070470160FBE70B680360F1
:1040E000F8E7704738B5044D072405EB041005F0D8
:1040F000F3FD013CF9D238BDA0C2032010B504463F
:1041000005F0EAFD204610BD08B505F0CFF8034BD9
:104110001860034B01221A7008BD00BF30E0032075
:10412000B9C4032010B5044605F0C0F841F264623A
:10413000A358C31A092B05D904F5B3510B680133F1
:104140000B60A05010BD38B5044605F0AFF804F57B
:10415000B4510B6893B1C31A092B10D941F27C6298
:10416000A5589D4288BFA35041F27465625913441B
:10417000635141F27862A3580133A350086038BDFF
:1041800010B5044600F5B050043005F0A5FD04F666
:10419000063004F0B2FF04F10A0004F0AEFF20463E
:1041A00010BD10B51021044607F059FA204610BD85
:1041B000436913B183690C301847704713B5002168
:1041C0000446084605F09AF80023204601A9019309
:1041D00005F0ACF8019C0CB10123237100210120F2
:1041E00005F08CF82CB1236820469B689847002383
:1041F000237102B010BD022A38B5044607D0032A45
:1042000011D0012A01D10B682360002038BD0C2099
:104210000D68FFF740FF03460028F5D095E807003A
:1042200083E80700F0E700680028EED00C2107F0D3
:1042300016FAEAE710B403685A6899681B685410C4
:1042400001EB6200D20748BF0A595DF8044B48BF32
:10425000D358184710B5054B00220446114640F8C4
:10426000043B05F0D3F9204610BD00BF30F70D0028
:1042700010B50446FFF7EEFF2046202107F0EFF9C6
:10428000204610BD0EB403B503AB002153F8042B38
:10429000019306F02CF802B05DF804EB03B0704710
:1042A00073B5044608462279A36832B1A3B90B4915
:1042B00002B0BDE8704005F001BF094A267B094DF8
:1042C0000949647B012E18BF2946CDE9001407492E
:1042D000FFF7D8FF02B070BD054AEFE791F40D007B
:1042E0009BFF0D008DF40D0089F40D00A7F40D0067
:1042F00080F40D0000224068114605F007BA10B5A1
:104300008368044613B1032201469847204610BD36
:10431000F0B58C460025144905710446856001609E
:1043200092E8030085B002AF04F10C0687E80300B1
:1043300096E8030082E8030097E8030086E803009C
:104340009168A0696161D1689560D060A161CDE993
:104350000035064A2346614604F1080004F0D6FF02
:10436000204605B0F0BD00BF1CF70D00BD410D009B
:1043700007B58068002338B1CDE90013022104F0AD
:10438000DDFFB0FA80F0400903B05DF804FB37B5FB
:10439000054600220C461146FFF7EAFFA8680023F5
:1043A00040B1CDE900431A46194604F0C7FFB0FA00
:1043B00080F0400903B030BD38B5104B036083680E
:1043C0000446A3B16FF000410022FFF7D1FFA068BF
:1043D000002104F0CBFF237903F0FF0513B104F0B3
:1043E00085FFF8E7A068294604F098FFA56004F16E
:1043F0000C00FFF784FF204638BD00BF1CF70D00FE
:1044000010B50446FFF7D8FF20461C2107F027F916
:10441000204610BD2DE9F04F4D4FDFF848B1DFF8D1
:1044200048818DB000250124082D00F08D80494B76
:10443000EE5C07F0E7F8314606F07CFF07F0E2F8A3
:1044400006F083FF0BEB051988BB06F091FD414692
:104450008246684605F08BFC4946684605F067FDD4
:104460003D4905F070FD3D4905F06DFD1022814686
:1044700031460DEB020005F0F0FC04A9484605F0BA
:1044800056FD014608A805F0B2FC0899504605F013
:104490002CFE08A805F020FC04A805F01DFC6846C9
:1044A00005F01AFC01233B7001350137BCE70A20F7
:1044B00006F038F907F0A6F8314606F03BFF07F0A2
:1044C000A1F806F042FF0028BFD007F09BF806F0E5
:1044D00043FF07F097F8314606F02CFF07F092F8FB
:1044E00006F033FF0028B0D006F042FD41460446F6
:1044F000684605F03CFC4946684605F018FD184939
:1045000005F021FD154905F01EFD102281463146BA
:104510000DEB020005F0A1FC04A9484605F007FDDB
:10452000014608A805F063FC0899204605F0DDFD6A
:1045300008A805F0D1FB04A805F0CEFB00246846CE
:1045400005F0CAFB3C70AFE720460DB0BDE8F08F28
:1045500098C2032088BF0320DCF40D00CCF40D00CA
:10456000D8F40D00A0C20320C4F40D002DE9F04FD3
:10457000214DDFF88C90DFF88CA0DFF88CB08DB087
:104580000646002415F8013BB3422ED106F0F0FC9C
:1045900049460746684605F0EAFB0AEB04116846FF
:1045A00005F0C5FC594605F0CEFC144905F0CBFCDE
:1045B000102215F8011C80460DEB020005F04DFCA1
:1045C00004A9404605F0B3FC014608A805F00FFC1D
:1045D0000899384605F089FD08A805F07DFB04A878
:1045E00005F07AFB684605F077FB0134082CC9D149
:1045F0000DB0BDE8F08F00BF88BF0320CCF40D00E4
:10460000C4F40D00A0C20320DCF40D002DE9F0413C
:1046100006F0AEFC1E491F4FDFF8848005F065FDF3
:104620000124002506F0EEFFE1B206F083FE06F05D
:10463000E9FF06F08AFE70B92046FFF797FF0135C3
:1046400001347F2CEED1FDB906F092FC1249BDE891
:10465000F04105F04ABD0428F2D106F089FC394644
:1046600005F02CFD0F2C04D806F082FC414605F025
:1046700025FD06F07DFC10220646214605F041FD91
:10468000304605F026FDDBE706F072FC0349DEE765
:10469000E0F40D00ECF40D000AF50D0020F50D001E
:1046A00008F50D002DE9F047414D2846FFF722FEA1
:1046B000044600285CD106F05BFC3E4905F015FD80
:1046C000686823462246214605F028F86868234694
:1046D0002246214605F002F8204604F0F7FD824606
:1046E000002004F0F3FDB0EB0A08334A61EB040943
:1046F00000234B4508BF424506D32846FFF7FAFD85
:1047000010B905F043F8EBE72948FFF7F3FD284817
:10471000FFF7F0FD48B906F02BFC284905F0E5FC51
:10472000C82005F0FFFF05F0FFF905F03FF804464B
:10473000A8BB06F01DFC224905F0D7FC05F02EF8B9
:10474000204604F0C3FD4EF65F2805464FF00009F1
:10475000002004F0BBFD461B61EB0407B94508BF10
:10476000B0450BD305F022F840B905F00FF8EFE79C
:1047700006F0FEFB134905F0B8FCD6E705F016F885
:1047800005F014F890B906F0F3FB0F4905F0ADFC05
:10479000C82005F0C7FFBDE8F04705F0C5B906F031
:1047A000E7FBBDE8F047094905F09FBCBDE8F0878D
:1047B00048E6032026F50D001FBF020048F50D0056
:1047C00076F50D0067F50D009BF50D00BEF50D00AB
:1047D00038B5046805467CB16368013B63605BB92A
:1047E000236820469B689847A368013BA3601BB9D8
:1047F00023682046DB689847284638BD70B55D4C75
:104800002378A2B0002B00F08F805B485B4D04F052
:1048100083F8594902A803F027FF0299584805F088
:1048200064FC06F0A5FB029905F05FFC2B780026DE
:1048300026701BB1534800F0E7FC2E700023237054
:10484000514C06F095FB514905F04FFC0A222168B6
:1048500006A805F014FB06A90AA805F0C8FA4C49F9
:104860000AA805F070FB217905460EA805F0E4FAC8
:104870000EA9284605F05BFB454905F064FB0A22BA
:104880000546A16812A805F0FAFA12A9284605F013
:104890004EFB3F4905F057FB0A220546E16816A882
:1048A00005F0EDFA16A9284605F041FB384905F058
:1048B0004AFB94ED040A054606211AA805F006FBFA
:1048C0001AA9284605F033FB314905F03CFB94ED6D
:1048D000050A054606211EA805F0F8FA1EA9284675
:1048E00005F025FB2A4905F02EFB2A4905F01FFBA0
:1048F0000146294805F06CFA1EA805F0EDF91AA842
:1049000005F0EAF916A805F0E7F912A805F0E4F9B0
:104910000EA805F0E1F90AA805F0DEF906A805F0F1
:10492000DBF902A805F0D8F91C4C2378DBB112485A
:1049300003F08EFD104803F047FD0F4803F0DCFB49
:10494000174B18491B78002222701EA88DF80030E2
:104950003C2306F0C9F81FA8FFF73AFF06F008FB52
:10496000114905F0C2FB114B1B780BB105F0DCF8C7
:1049700022B070BDB9C4032074C903202CE0032009
:1049800084C3032020C30320E4C10320D1F50D001C
:10499000EFF50D0088C2032038C20320B8C40320FD
:1049A000E0C10320F1F50D0003F60D00BAC40320A9
:1049B00070B594B004F07AFC314D324E044604F0E8
:1049C00075FC286004F0E2FE642005F0ABFE05F003
:1049D0004AFEB04205DC04F069FC031BB3F5FA7F24
:1049E000EDD305F040FE284B984240DC274D284986
:1049F0002B6800930022134604A805F0D5FD04A9F6
:104A000008A805F0F4F9234908A805F09CFA044623
:104A1000214800F00DFC2B681D490093024600233D
:104A20000CA805F0C1FD0CA9204605F080FA01464E
:104A300010A805F0DCF9194B109A1B7818498DF86D
:104A4000003002A83C2306F04FF803A8FFF7C0FE91
:104A500010A805F041F90CA805F03EF908A805F0EA
:104A60003BF904A805F038F9002014B070BD05F03A
:104A7000FAFD0146084800F0E1FB0120F5E700BF20
:104A8000A0E703204DB25E574EB25E5794BF03209D
:104A900040E50320ADF90D0020C30320E0C1032051
:104AA0000BF60D0030B54449444885B0002302227E
:104AB00004F064FE00250C230195ADF80430404B52
:104AC00040490293042201AB3F48039504F056FE8F
:104AD00006F04EFA4FF4E13106F03EFA06F07CFBA8
:104AE0004FF4E13106F074FB384800F0C9FB374859
:104AF0000122022100F082FB01220321334800F051
:104B00007DFB41F2883005F00DFEFFF783FCFFF7D7
:104B10007DFD2E4800F03AFB0446D0B906F028FA95
:104B20002B4905F0E2FA2B49264805F073F9224695
:104B30000121294804F06AFD06F01AFA274905F018
:104B4000D4FA42F2107005F0EDFD04F0EDFF05B06F
:104B500030BD234CFFF7A6FD22462248294600F02F
:104B6000AEFC214B22689A4208D023601D4844F6CF
:104B7000206322462946E36000F090FCFFF718FF0F
:104B8000A8B106F0F5F9194905F0AFFA184800F098
:104B9000C1FC184803F0E2FF6FF000411648FFF730
:104BA000F6FB6FF000411548FFF7F1FBCFE706F089
:104BB000DFF91349E8E700BF3CF70D001BF60D00D5
:104BC000B3400D0038C2032023F60D0020C303209C
:104BD00030F60D0052F60D004CC2032079F60D00A0
:104BE000E4C1032068C203204C1F110091F60D00A0
:104BF000FCC1032074C9032068C3032058C90320E3
:104C0000A8F60D001FB50A4B0A4C1B780A498DF80F
:104C1000003022463C2302A805F066FF03A8FFF7F8
:104C2000D7FD06F0A5F9214605F05FFA04B010BDE6
:104C3000E0C1032030F60D00C3F60D00F0B58DB0D5
:104C400002AD85E80600064695E8030005AC84E859
:104C500005001F460C2000230A93FFF71CFA0246AA
:104C600020B194E8030082E8030097600B4B0B939C
:104C70000B4B0A939DF85030089200939DF8482002
:104C80009DF94C3008A9304606F0D0F9044608A832
:104C9000FFF735FB20460DB0F0BD00BF35420D00DB
:104CA000F7410D002DE9F04FBA4BBB4CBB4DBC4E4C
:104CB000C4F870540022012164201970E271A4F834
:104CC0003C2484F8600484F86A2484F87414C4F8DA
:104CD0007824A4F87C243178BFF35B8F11F00101B4
:104CE0008DB00BD130460591FFF7DBF9059928B15E
:104CF000AC4804F03FFE3046FFF7D8F9A94BC4F8A2
:104D00006C34A94AA94CAA49A348DFF86C9306F071
:104D1000A1FC08AEA74B0895012700250A939E49E0
:104D20008DF82450334602222046ADF82C7000F056
:104D300083FC9D4AA049204606F08CFC40F6B8331F
:104D40002A4614210320A36204F0A2FC4FF01E089F
:104D50000346CDF80080019703224FF47F01974866
:104D6000974C04F0DFFD904A9649944806F072FC97
:104D70002946384604F06CFC934B089332462B4688
:104D80004FF4FA619148CDF82C900A94FFF7C0FADD
:104D90003046FFF7B4FA844A8D498C4806F05AFC35
:104DA0008C4B089332462B464EF660218A48CDE95B
:104DB0000A49FFF7ADFA3046FFF7A1FA7A4A84496B
:104DC000854806F047FC854B089332462B4641F256
:104DD00088318348CDE90A49824CFFF799FA304679
:104DE000FFF78DFA704A7A497D4806F033FC204679
:104DF00001F09FF904F1080003F02AF8414604F19C
:104E00000A0004F08AF9414604F6063004F085F9F8
:104E1000754800F0ABF941F25C6840F61F21734819
:104E200001F016F8042344F8083004F5B353704A2F
:104E30009A60704A1D601A6141F274634FF0FF3945
:104E4000E55041F278631122E55041F27C6341F272
:104E50006C6A44F8039004F5B45303201D6041F2DA
:104E6000846344F80A00E250634A002313605360ED
:104E700041F290620221A550604A136041F29862AB
:104E80004FF0020BA5505E4A136004F5B552156051
:104E9000536041F2A862A5505A4A1360536041F230
:104EA000B463E55006F054FB574BCDF800B0CDE9A4
:104EB0000835CDE90195234696E8060034F80A0046
:104EC000FFF7BCFE34F80800594606F041FBCDE977
:104ED00001954E4BCDF800B0CDE906352A46234664
:104EE0004A4934F80800FFF7A9FE2F4A48492046EE
:104EF00006F0B0FB474800F039F92B4A46494548CF
:104F000006F0A8FB3A4643494448182300F0BBFA90
:104F100018234FF496723F49414800F0F0FA414996
:104F2000414804F024FF204A40493F4806F092FBE4
:104F30003C493F4804F01BFF1B4A3C493C4806F0F3
:104F400089FB3C493C4804F012FF3C493C4804F0D2
:104F50000EFF3C493C4804F00AFF3C493C4804F041
:104F600006FF3C493C4804F002FF3C493C4804F041
:104F7000FEFE3C493C4804F0FAFE3C493C4804F043
:104F8000F6FE094A3B49284606F064FB0DB0BDE831
:104F9000F08F00BFE0C10320BCC4032008F70D0060
:104FA000D4C10320D8C10320D0C1032084C303206F
:104FB000E3400D0080F0FA024D570D0048C2032077
:104FC000CD400D0055420D00BD400D0068C30320CB
:104FD000B9430D0009410D0058C90320054C0D00CF
:104FE00034E0032074C9032078DF0320C0DF0320EE
:104FF0005839343CDBF9BE3FFCDF032008E00320D6
:1050000010E0032020E0032047410D0025410D0062
:1050100081410D0020C30320FD400D0068C2032024
:10502000FCC103209BFF0D0038C20320D99C0D005A
:1050300088C20320CDF60D00A0C20320D1F60D00DA
:10504000B0C20320D5F60D00C0C20320E0F60D006B
:10505000D0C20320E4F60D00E0C20320E9F60D0003
:10506000F0C20320F0F60D0000C30320F8F60D0097
:1050700010C30320E5400D00C9400D00037C13F070
:1050800008031EBFC36A406A1B1A002BACBF184638
:105090006FF000407047704710B53421044606F0A9
:1050A000DEFA204610BD103001F068BF103001F06C
:1050B00046BE07B501220DF10701103001F091FD48
:1050C00001280CBF9DF807004FF0FF3003B05DF8DA
:1050D00004FB103002F0BEB807B501228DF80710AE
:1050E00010300DF1070102F0B5F803B05DF804FBD4
:1050F00030B585B01B4B009313798DF8043093685D
:10510000029300F58C659389ADF80C3004460A468D
:105110006B4600F26C41284602F0D4FB10B9002027
:1051200005B030BD256004F23C45284601F05CFF27
:105130000121204602F074FA014668B12146284652
:1051400001F036FD0028EAD094F83C3413F0700FDB
:10515000E5D0054B1D60E3E7204602F061FA002828
:10516000ECD1DCE708F70D0014E5032010B5064983
:10517000044604F0FCFD63232374052104F11400AC
:1051800003F02CFE204610BD9BFF0D0073B51A4B9B
:1051900018681B798DF80430009006F033FA06F099
:1051A000D7F818B906F02EFA06F092F86C460025EA
:1051B00014F8016B06F026FA314606F0BBF806F04B
:1051C00021FA06F0C2F820B90135052DF0D10120F1
:1051D0000FE006F017FA06F0BFF806F013FA3146B2
:1051E00006F0A8F806F00EFA06F0AFF80028EBD0AB
:1051F000002002B070BD00BF40F70D00014802F072
:10520000FFBD00BFD4E4032010B5084C01220521E6
:10521000204602F0F5FD322005F084FA20460022F7
:10522000BDE81040052102F0EBBD00BFD4E403202F
:10523000014800F0ABBD00BF0CE50320014800F0C1
:1052400054BD00BF0CE50320F0B500205F1C904268
:1052500011D00E5C06F00F0435099F2E94BF303537
:105260003735092C94BF3034373403F8105007F821
:1052700010400130EBE7002203F81020F0BD0000E1
:1052800030B58DB0054606F0BDF906F061F818B9E5
:1052900006F0B8F906F01CF8142005F043FA06F001
:1052A000B1F9202106F046F806F0ACF906F04DF809
:1052B000002800F0D38006F0A5F906F04DF806F0BE
:1052C000A1F9202106F036F806F09CF906F03DF829
:1052D000B0FA80F46409624802F083FD604801225C
:1052E000002102F081FD012211465D4802F07CFDA3
:1052F0005B480122022102F077FD59480122032177
:1053000002F072FD56480122042102F06DFD54485E
:105310000122052102F068FD51480022062102F019
:1053200063FD4F480122072102F05EFD4C48002238
:10533000082102F059FD4A480022092102F054FDDB
:10534000474800220A2102F04FFD454800220B2168
:1053500002F04AFD424800220C2102F045FD40487F
:1053600000220D2102F040FD3D4800220E2102F0F6
:105370003BFD3B4800220F2102F036FD3848012258
:10538000002102F05CFD01221146354802F057FD74
:1053900033480122022102F052FD3148012203214B
:1053A00002F04DFD2E480122042102F048FD2C4858
:1053B0000122052102F043FD29480122062102F0C5
:1053C0003EFD27480122072102F039FD2448012231
:1053D000082102F034FD22480122092102F02FFDAC
:1053E0001F4801220A2102F02AFD1D4801220B213B
:1053F00002F025FD1A4801220C2102F020FD184878
:1054000001220D2102F01BFD154801220E2102F0A0
:1054100016FD134801220F2102F011FD00210D227B
:1054200008A8CDE90111079108F0DCFA01A90D489F
:1054300000F020FB07AB082201A92846FFF704FF74
:1054400007A903A804F093FC03A9284604F0DAFC9A
:1054500003A804F041FC20460DB030BD01243AE71A
:10546000D4E403200CE5032013B50446049800900F
:10547000C4E902102260237104F1100003F0A0FDC2
:10548000204602B010BD37B501F11005009514316A
:105490000446FFF7E9FF204603B030BD07B563239C
:1054A0008DF8073010300DF1070303F0B5FD9DF8BE
:1054B0000700B0FA80F0400903B05DF804FB07B5BF
:1054C00063238DF8073010300DF1070303F08EFDD4
:1054D0009DF80700B0FA80F0400903B05DF804FBC6
:1054E00013B5044604980090C4E9021022602371A9
:1054F00004F1100003F0A6FD204602B010BD37B540
:1055000001F11005009514310446FFF7E9FF20462C
:1055100003B030BD103003F0CDBD000037B52048DA
:10552000204D00F0A6FA2048204A21494FF47A7312
:10553000002483601F4B04824460036006F08AF8F5
:105540001D4B642283F860241C4AC3F87024012296
:10555000DC71A3F83C4483F86A44C3F87844A3F8A8
:105560007C4483F874242978BFF35B8F11401C4678
:105570000BD128460191FEF794FD019928B11048FE
:1055800004F0F8F92846FEF791FD0D4B074A0D4946
:105590000948C4F86C3403B0BDE8304006F05AB88E
:1055A0000CE50320D4C10320D8E40320D0C103209C
:1055B00097500D0050F70D0050E0032008F70D0044
:1055C000D8C10320E3400D00F8B50E46054605F0AE
:1055D00093F8044605F088F8074605F079F87F014E
:1055E000C3B2A4B207F4FF57A4F2BC743B4343EA2E
:1055F00044232B8005F048F8044605F051F8054691
:1056000005F05AF8E4026D0104F4FF2405F4FF5597
:105610002C43C0F3460004433480F8BD0EB403B5F8
:1056200003AB012153F8042B019304F060FE02B098
:105630005DF804EB03B0704770B50273164A02615F
:105640001A7902759A689B8982618383134A144B85
:1056500003620A23C0E9092342F21073C3620123E3
:105660000025104E80F83030A0F8C830C0F8CC309B
:1056700000F58E73C0E90D55C0E94853C0E94A35BD
:10568000456006608160A0F8D050A0F8F45080F822
:105690001C51C0F8305170BD08F70D0040420F009A
:1056A00070F70D000CF80D0010B500F1BC040B46AE
:1056B000034A0C21204604F0C1F8204610BD00BF6B
:1056C00075F70D002DE9F843DFF85C90D0F8245110
:1056D000044600F1D00800F58E77A26AD4F82C3188
:1056E0009A421FD229692046FFF7DEFF064605F0E1
:1056F0003FFC32464946FFF791FF3146404601F0F4
:10570000C7FC284605F0F0FF39460646284606F055
:105710005CF8FEF7C4FCD4F82C31013BC4F82C3102
:105720003546DAE7BDE8F8837EF70D0070B505462B
:105730000C464CB1E1682846FFF7F8FFA668204602
:10574000FEF7ADFC3446F4E770BD000010B5054B24
:10575000D0F820110360044600F58C70FFF7E6FFD7
:10576000204610BD0CF80D0010B50446FFF7EEFF03
:1057700020464FF49A7105F072FF204610BD2DE9C6
:10578000F047174601F1040A8A6804460E4655465A
:1057900001235AB1396813699942B4BF9168D1683D
:1057A0001546B4BF012300230A46F2E77BB1F36834
:1057B000AB4229D0284605F0AAFF02693B689A420D
:1057C00022DB2060002323712046BDE8F0872846B5
:1057D000F3E73A682B699A42ACBF4FF000094FF0EB
:1057E00001091420FEF757FC3B68036180465346CD
:1057F00001462A46484605F08CFF7369C4F80080CC
:10580000013373610123DEE7AA45E2D14FF00109BC
:10581000E7E737B5D0F8CC100446FFF745FF40F274
:105820000A23024604F1D00104F1F40001F0E3FB85
:10583000054630B104F1CC0204F58C716846FFF7DF
:105840009EFF284603B030BD30B5002380F8C83035
:1058500090F8C9309DB0044603BB434B434A007BDC
:105860001A60012105F074FE414B0C93237D8DF8E5
:105870003430A3690E93217BA38BA068ADF83C3034
:105880000CAAFFF735FC84F8C90038B9012384F865
:10589000C83003F00BFDC4F830015DE0226A02B3AA
:1058A000A168002301F23C410CA8ADF8303001F0B2
:1058B000A2FB0546A8B905F05BFB226A2D49FFF75C
:1058C000ADFEA168226AADF83050012301F23C41DF
:1058D0000CA801F06EFC20B905F04AFB2649FFF741
:1058E0009DFEA168226A04F1D005002301F23C412B
:1058F000284601F080FB88B30021284601F051FAC8
:105900000023ADF80C300022294603A801F0F9FA73
:10591000D0B140220CA903A800F0D0FC0CA807F0DD
:1059200039FF009060B16A4604F58C7101A8FFF759
:1059300026FF009BD4F8CC209A42B8BFC4F8CC30E4
:1059400003A801F051FBDEE72046FFF7BBFE20462F
:10595000FFF75FFF002899D01DB030BD05F008FBB0
:105960000649FFF75BFE91E710E50320C9550D00DE
:1059700008F70D0097F70D00ACF70D00B9F70D0013
:1059800038B50446406B28B10368A26BDB6804F1AC
:105990003C01984794F8C8302BB1D4F83031ABBBF8
:1059A0002046FFF751FF94F8C93063B394F8F43000
:1059B0004BB304F1F405A26B04F13C01284601F05D
:1059C00049FC00282BDD94F8303013B1284601F053
:1059D000D5FA626AD4F810319A4214D2284601F0FE
:1059E00003FBD4F8CC300133C4F8CC3005F0C0FA56
:1059F000D4F8CC201349FFF711FE2046FFF709FF2A
:105A00002046FFF75FFE0023A36338BD03F04EFC82
:105A1000D4F83031C01AE36A9842C1D2C3E705F026
:105A2000A7FA0949FFF7FAFD284601F0DDFA04F16B
:105A3000D00001F0D9FA0123A4F8C8300023C4F83B
:105A40003031E0E7D1F70D00ECF70D0008B5836BBE
:105A50005A1C03447F2A826383F83C1001D80A2928
:105A600001D1FFF78DFF012008BD0368C9B29B6813
:105A70001847704738B50C4605F0C4FD572105F0AE
:105A80005DFC05F0BFFDF221FFF7EFFF05F0BAFD69
:105A900005F05BFC05F0B6FD0622572105F047FC3A
:105AA000651E053405F0AEFD03685B69984705F88F
:105AB000010FA542F6D138BD2DE9F74F1E469DF8DE
:105AC0003030019317460D469DF834909DF838808C
:105AD0009DF83CB005F096FD824605F042FC05F0CD
:105AE00091FD6F210A2405F029FC05F08BFD0021B2
:105AF000FFF7BBFF05F086FDB5FBF4F204FB125186
:105B000001EB0211CDB201F07F01FFF7AEFF05F00E
:105B100079FDB7FBF4F104FB117707EB011101F0FC
:105B20007F01FFF7A2FF05F06DFDB6FBF4F104FB6A
:105B3000116606EB011101F03F01FFF796FF05F03A
:105B400061FD019BB3FBF4F104FB113101F007018E
:105B500041F00801FFF789FF05F054FDB9FBF4F1AE
:105B600004FB119909EB011101F03F01FFF77DFFE3
:105B700005F048FDB8FBF4F104FB118808EB0111B6
:105B800001F01F01FFF771FF05F03CFDBBFBF4F1D5
:105B9000036804FB11B404EB01119B68C9B2984778
:105BA00005F030FD05F0D1FB05F02CFD6F2105F06F
:105BB000C5FB05F027FD0021FFF757FF05F022FD8B
:105BC00045F08001FFF751FF05F01CFD05F0BDFB1E
:105BD000504603B0BDE8F04F05F0CCBB2DE9F84FBF
:105BE000984692468B46DDE90A97DDE90C6505F09B
:105BF00009FD044605F0B5FB05F004FD6F2105F035
:105C00009DFB05F0FFFC0021FFF72FFF05F0FAFCDC
:105C100005F09BFB05F0F6FC6F21072205F087FBE2
:105C200005F0F0FC03685B699847C0F3021303EBCF
:105C3000830300F00F0000EB43008BF8000005F039
:105C4000E1FC03685B699847C0F3021303EB83032D
:105C500000F00F0000EB43008AF8000005F0D2FCD2
:105C600003685B699847C0F3011303EB830300F0FB
:105C70000F0000EB430088F8000005F0C3FC036848
:105C80005B69984700F0070089F8000005F0BAFC4E
:105C900003685B699847C0F3011303EB830300F0CB
:105CA0000F0000EB4300387005F0ACFC03685B6943
:105CB0009847C0F300139A001A4400F00F0303EB57
:105CC0004203337005F09EFC03685B699847C0F39C
:105CD000031303EB830200F00F0303EB42032B706B
:105CE0002046BDE8F84F05F045BB2DE9F04F0025F3
:105CF0008FB00C4681460846294604F085FB2946AC
:105D00008246204604F078FB29468346204604F06C
:105D10006BFB29460590204604F086FB2946064683
:105D2000204604F079FB29460746204604F086FB0E
:105D300029468046204604F08BFB0A22014606A82D
:105D400004F09DF806A902220AA804F049F90AA85D
:105D500004F04DF904460AA803F0BEFF059B5FFA64
:105D600088F0E4B2FFB2F6B20290DBB25FFA8BF2D7
:105D70005FFA8AF14846039401970096FFF79CFE6C
:105D800006A803F0A9FF0FB0BDE8F08F00B591B0F1
:105D90000DF11B0303930DF11A0302930DF1190387
:105DA000019306AB00930DF116020DF117030DF1EF
:105DB0001501FFF713FF9DF81B30252B84BF00232F
:105DC0008DF81B309DF8153007939DF81630089319
:105DD0009DF8173009939DF819300A939DF81A30F1
:105DE000013B0B939DF81B3007A864330C9307F01D
:105DF000D9FE11B05DF804FB704770470B4610B533
:105E0000282204460021184607F0ECFD09490B2220
:105E100008F046FE00220121C272C160A168426200
:105E2000054A826100220161C2610521034A416184
:105E3000026210BDF8F60D0000E0AB476F12833A26
:105E400010B51021044605F00AFC204610BD0000E4
:105E5000044A026000220273427110228271816042
:105E6000704700BF38F80D0080797047407970475F
:105E70004FF6FF73994210B539D09A4237D0437923
:105E8000013BDBB2042B97BF1A4CDFED1B5A04EB2E
:105E90008303D3ED005A8379202BF7EE006A20D0DC
:105EA000302B21D0102BB3EE096A18BFB0EE666A12
:105EB00007EE901A07EE102AF8EE677AB8EE477AE6
:105EC00025EE866A87EE275A77EEC77A76EEC56AA0
:105ED00066EEA77ADFED096A86EE267A87EE870AF4
:105EE00010BD9FED076AE3E79FED066AE0E79FEDCF
:105EF000060AF5E71CF80D000000C8420000CC437C
:105F00000000D64300501A460000000010B50C46B1
:105F100005F078FB292105F011FA05F073FB036801
:105F200021469B68984705F06DFB05F00EFA05F0D9
:105F300069FB0122292105F0FAF905F063FB0368EA
:105F40005B699847C0B210BD10B50C4605F05AFB0E
:105F5000292105F0F3F905F055FB036821469B68FC
:105F6000984705F04FFB05F0F0F905F04BFB0222D6
:105F7000292105F0DCF905F045FB03685B699847CA
:105F8000044605F03FFB03685B69984744EA00203C
:105F900080B210BD38B514460D4605F033FB2921FB
:105FA00005F0CCF905F02EFB036829469B6898475D
:105FB00005F028FB036821469B68984705F022FB03
:105FC000BDE8384005F0C1B938B5037B04460D463D
:105FD00073B1204600F02EF8A279657120462A435D
:105FE000A121FFF7D7FF2046BDE8384000F032B8C6
:105FF00000F003F80028ECD138BD38B5044605F0B0
:1060000001FB05F065F9B2212046FFF77FFF50281C
:106010000ED10125617925732046FFF7D5FFA179BF
:10602000204600F027F8204600F014F8284638BD36
:106030000020FCE710B5037B044633B120469322D1
:10604000BDE81040A021FFF7A5BFFFF7D6FF00284D
:10605000F4D110BD10B5037B044633B120460022B5
:10606000BDE81040A021FFF795BFFFF7C6FF00284D
:10607000F4D110BD38B5037B04460D4673B12046FC
:10608000FFF7D8FF6279A57120462A43A121FFF7C7
:1060900081FF2046BDE83840FFF7DCBFFFF7ADFFCA
:1060A0000028ECD138BD70B5037B0646D3B130462D
:1060B000FFF7C0FF0024782004F034FB013472792C
:1060C000E3B29A42F7D2B4213046FFF73DFFB62142
:1060D00085B23046FFF738FF45EA00453046FFF706
:1060E000B9FF04E0FFF789FF0028E0D10546284604
:1060F00070BD70B505460C46FFF7D5FF2846FFF783
:10610000D2FF202206460021201D07F06BFC24232D
:106110002360AB6863600523A36003F0C7F8320C0B
:106120002061B1B22846FFF7A3FE012084ED050AE5
:1061300070BD70477FB5054605F064FA5C2105F037
:10614000FDF8022004F0EEFA05F05CFA05F0FDF827
:1061500005F058FA5C2105F0F1F805F053FA032137
:10616000FFF783FC05F04EFA0021FFF77EFC05F0F7
:1061700049FA0421FFF779FC05F044FA05F0E5F847
:106180000A2004F0CFFA05F03DFA08225C2105F060
:10619000CEF801AE082405F035FA03685B6998472C
:1061A000013C14F0FF0406F8010BF4D19DF8043013
:1061B000032B35D19DF80530042B31D19DF80630E5
:1061C0009FED186A07EE103A9DF8073007EE903AF7
:1061D000B8EE477AF8EEE77AF2EE046AE7EE067A6E
:1061E0009DF8083003F07F0287EEA67ADB094FF0B6
:1061F000010085ED007A07EE102A9DF8092007EED0
:10620000902AB8EEC77AF8EEE77AE7EE067A87EEDC
:10621000A67A18BFB1EE477A85ED017A04B070BD59
:106220002046FBE70000804310B5044605F0EAF97C
:1062300005F04EF82046BDE81040FFF77BBF70B573
:1062400004460E461546FFF775FF18B163683360C4
:1062500023682B6070BD10B50446243001F0D2F8DD
:1062600028B104F50C70BDE8104001F0CBB810BDAA
:10627000411E00F10A030020420842EAC01011F852
:10628000012F52FA80F08B42C0B2F5D1704738B579
:10629000CB6804460D4623B9BDE83840896800F054
:1062A00087BC2422002107F09DFB102301202370CE
:1062B000A070AB68A360EB68236238BD2DE9F04F96
:1062C0008DB00378002783460D461646ADF80C7056
:1062D000002B72D00C2A70D9C37833B900F0CEFBF2
:1062E000044620460DB0BDE8F08F014603A8FFF735
:1062F000CEFF002861D0AB194FF001094FF00D0A15
:1063000001939BF803205FFA89F8424555D3BBF807
:106310000410A1EB0901490103A800F042FD044665
:1063200000284AD0002103A800F01CFD002844D01A
:10633000C27A0F2A41D1027802F01F0242453CD1B5
:1063400009F1FF320AFB02F205EB020E00210429DB
:106350005FFA81FC20D800EB410CBCF8013063B13E
:10636000964210D97F2B01F1010128BF3F230D294F
:106370000EF8013B02F10102E9D1964203D90178FE
:10638000490648BFAF54019B03F8017C02785306CD
:1063900009F10109B5D5A4E7BCF10A0F95BF01F1D8
:1063A000FF3C01F1010C00EB4C0C00EB4C0C94BFDA
:1063B000BCF80630BCF80430D1E700242C7090E71C
:1063C0002DE9F047064610F8013B202BFAD06B4D23
:1063D0008E600024335DC3B12F2B16D05C2B02D10D
:1063E0000020BDE8F087A3F12200C0B21D2803D829
:1063F00025FA00F0C007F3D403F0BF003C28EFD02B
:10640000203B5E2BECD80134E4E7331918460746ED
:1064100010F8015B202DFAD02F2DF8D017604CB169
:1064200013F8012D2E2A01D0202A01D1013CF6E7D4
:10643000FF2CD5DC4C6001F10D0301F11802202086
:1064400003F8010B9342FBD14FF0000816F8083017
:106450002E2B01D0202B02D108F10108F6E7B8FA63
:1064600088F04009651E6B1C02D0735D2E2B14D181
:106470004FF0000907274A46CA464FF0080EA045CC
:1064800069DA16F80830202B03D02E2B07D1A84547
:1064900012D0002008F10108F1E7013DE3E7222BCB
:1064A00008D07C2B06D0A3F12A0CBCF1050F0BD829
:1064B0002D2B13D0A8455CD10A2F4BD0A8460A2714
:1064C00008224FF0100EE5E7A3F13A0CBCF1050FDE
:1064D000F0D9A3F15B0CBCF1020FEBD9A3F1210CB5
:1064E000BCF15D0FE6D8A845E6D0BA4230D8A3F19A
:1064F000610CBCF1190F1AD8203B4EEA0909DBB236
:106500005FFA89F902F1010C5FFA8CFC0A44BCF1D4
:10651000060F537301D881F80CC06246BAE7A8454C
:1065200018DCA8460A2708224FF0100EB1E7A3F1A5
:10653000410CBCF1190F98BF4EEA0A0AE2E70B7B47
:106540000120087019447E234B7331238B7348E775
:106550000A2FE4D100204B7B202B3FF441AF0028D1
:10656000EDD01AEA090F18BF4FF0020981F8009028
:1065700037E7BA42ECD85F230020C3E701010031BE
:106580002DE9F0418AB00023ADF8043003781907F3
:1065900004460AD583789A0707D5016A39B90121DB
:1065A000204600F0CBFA054638B9002048E0806864
:1065B00001F019F80028F2D1F7E7FFF759FEE526B8
:1065C0002E70002307462370A068FFF744FE0028C2
:1065D000EBD0E378002B33D0214601A8FFF757FE1C
:1065E0000028E2D00125E3785FFA85F84345DCD343
:1065F000A188491B490101A800F0D3FB0028D4D091
:10660000002101A800F0AEFB0028CED0C37A0F2BEA
:10661000CBD1027802F01F034345C6D1437BBB4276
:10662000C3D10670A16891F8243043F0010381F8CA
:106630002430530605F10105D5D5A068FFF70BFE00
:106640000AB0BDE8F0812DE9F84391F80C900646B8
:106650000C4602257E2701F10D086168A2686B18BF
:106660009BB21144914206D012F8010B03EB431385
:1066700043409BB2F6E7B9F1030F28BF4FF003097F
:1066800009F10402D2B203F00F01A018013A09295E
:10669000D2B294BF30313731914541734FEA131371
:1066A000F1D104EB090300215F73304600F079FB60
:1066B0000121304600F056FB014628B97078B0FA47
:1066C00080F04009BDE8F88303786BB1C37A1B07FB
:1066D000EED40B22404607F069F90028E8D10135D5
:1066E000ADB2642DB9D1EDE70120EBE72DE9F04F14
:1066F0002DED028B89B00D4605930B78069013F0B3
:10670000700F904605D1002009B0BDEC028BBDE8AA
:10671000F08F069B1B78002BF5D1536804931378F8
:1067200099071CBF049B03F10C074FF0000118BF31
:106730000D2328461DBFB7FBF3F70137FFB2012732
:1067400000F02FFB08F10D02002308EE102A9B46F3
:106750001C461E4603939A466A6907930121284600
:10676000C2F34F1900F0FEFA079B00286ED16B7838
:10677000002BC8D1059B9A05C5D503F00303013B47
:10678000012BC0D8039B002C08BF4B460393BC428F
:10679000C0F00381BAF1000F40F01B81039B284633
:1067A000590100F0FEFA0028ADD0013F5FFA87FAE8
:1067B00056464FF000090F27002E00F021810021DE
:1067C000284600F0CFFA044600289CD0AA6892F828
:1067D0002430564543F001030CBF46F0400BB3464E
:1067E00082F8243080F800B0C77280F80C9008F16D
:1067F0000D00FFF73DFD0BF01F0B607384F81A903E
:1068000084F81B900BF1FF3B0D22D8F808C002FB67
:106810000BF200230499914240F2E3801CF802102D
:10682000042B5FFA83FE03F1010000F2E08004EB29
:106830004303A3F801100D2802F101020346E9D138
:10684000013EF6B2B8E74FF0010A85E70278E52A83
:1068500000D07AB90399002C08BF4946BC4238BF22
:106860000134039138BFE4B2002A83D0E52A04D171
:10687000002671E7BC4238BF00242E2AF8D0C17A26
:106880000F295DD13EBB12F040063FF465AF02F028
:106890001F06437BB3460BF1FF324FF00D0E0EFB8C
:1068A00002FE049A7245E3D9A2EB0E0207924FF062
:1068B000000CBCF1040F0CEB0E095FFA8CF214D83B
:1068C00000EB4C02B2F8012007998C451BD1002A3D
:1068D00018BF002640E70BF1FF3B5FFA8BFB5A45E0
:1068E000C6D1427B9A42D6D0C2E70A2A95BF0CF1A4
:1068F000FF320CF1010200EB420200EB420294BFB6
:10690000D2889288E0E7FF2AB2D8D2B2A2F1410140
:106910001929D8F8081011F8091098BF2032A1F1F0
:10692000410998BFD2B2B9F1190F9CBF2031C9B249
:1069300091429DD10CF1010CBCF10D0FB9D10BE7C7
:106940000A0795D466B1BBF1010F03937FF4DBAE68
:10695000FFF78EFC039B98427FF4D5AEB2460FE062
:1069600018EE101A0B22079307F020F8079B002857
:106970007FF4F2AE98F800A01AF0010A7FF463AF3A
:10698000059B19053FF5BFAE059B0698CDF800A005
:106990004A46294600F048FAB6E60021284600F0AB
:1069A000E1F998B96B78002B7FF4ADAE284600F082
:1069B00087F800283FF4A7AEAB681B79012B3FF6A0
:1069C000E9AE1034E4B2A742F0D8E3E60134E4B211
:1069D000DDE641462846FFF736FE00287FF4DEAEAE
:1069E00091E614BF4FF0FF31002189B218E7BEF1E4
:1069F0000A0F94BF04EB430304EB400399801AE7AA
:106A0000314628466F6900F0ADF9044600283FF48E
:106A10007AAE2022314606F0E5FF434653F80D2FAB
:106A200022605A6862601A8922819B7AA37298F860
:106A3000003003F0180323730F4B1B689BB104F164
:106A40000E0104F110009847238A63822383E389AF
:106A5000E382AA6892F8243043F00103C7F34F1988
:106A600082F8243090E721232374282363740823B9
:106A7000A673E373E8E700BF10E5032010B50C46EA
:106A8000017809B9002010BD11F0600105D02F2355
:106A90002370002363700120F5E700F04FF8002811
:106AA000F0D0214600F059F8F5E78378016943F00A
:106AB0000403837000F11002806800F059BD0000EB
:106AC0002DE9F041017811F02005044603D000269D
:106AD0003046BDE8F0814269174B9A42F7D2FFF782
:106AE000E4FF06460028F2D02169A06800F0D5FC3A
:106AF0000746A06805223946243000F0ABFC8046EA
:106B00000028E4D029464FF4007206F06BFF0125FF
:106B1000A3681A79AA4209D918684246E91901F00E
:106B200002F80028D3D00135EDB2F1E7636903EB39
:106B300042236361CCE700BF00FE1F0010B504468E
:106B400080680A462430A16900F084FC20B1A38843
:106B500003F00F0300EB431010BD0023F0B5044613
:106B6000451E082618462E2715F8012F202A18D072
:106B7000082B02BF0F54421CD0B22A78A2F1410C5C
:106B800008BF1026BCF1190F06D894F80CC016EAFD
:106B90000C0F1CBF2032D2B200F1010C0A545FFA74
:106BA0008CF00133DBB20B2BDED100230B54F0BD94
:106BB00070B5047805460E464CB92422214606F0ED
:106BC00011FFAE60F379102B03D0202B07D00020EB
:106BD00004E0202301242B70AC70204670BD4023BC
:106BE000F8E72DE9F74F0378044688461546002B51
:106BF0005DD08278D1075AD51A072DD5C36942696D
:106C00009B1A9D4228BF1D462E464FF0000904F1F5
:106C1000100B002E00F08F8022786369A068970621
:106C2000C3F3080A4FEA53211FD5006A0144A06844
:106C3000BAF1000F42D1B6F5007F3FD3C36A994243
:106C40003CD0B6F5806F52D20068424600F0E2FEBA
:106C500068B34FF4007744E09B06D5D583681A8962
:106C60004369C3EB42139BB2CBE790F8059009EA66
:106C70000109BAF1000F08D1B9F1000F05D15BB9D4
:106C800051064CBF036A236A23612169A06800F0A2
:106C900004FC09EB0001CAE721695A4600F003FC35
:106CA000002804DBF1D1237813F0700F43D163780F
:106CB00043F0020363704FF0FF303DE0CAF5007708
:106CC000B7424FF0000200F1240028BF374600F021
:106CD000C1FB0028EBD000EB0A013A46404606F023
:106CE00073FE63693B44B8446361F61B91E7227805
:106CF00092064FEA562A06D40279A2EB0902D2B2D2
:106D0000924528BF924699424FEA4A2708D2A06886
:106D100053460068424600F0C5FE0028E1D1C6E7B0
:106D200053448B42F3D92430019100F06BFB01995D
:106D30000028ECD1BBE7A81B03B0BDE8F08F73B50A
:106D400001220DF10701D0E904560446FFF749FF7F
:106D500001280ABF9DF807004FF0FF30C4E9045630
:106D600002B070BD37B5436913F4F07F0446C3F336
:106D7000431500D099B901220DF107012046FFF714
:106D800030FF40B2012802D0002003B030BD63695B
:106D90001F33A0686361303000EB4510F5E7203306
:106DA000F7E72DE9F0410278076904460D4662B124
:106DB0004069884202D019B921616561012006E06D
:106DC000160706D5E3698B420BD227610020BDE888
:106DD000F081910605D5A3681B89B5EB431FECD95B
:106DE000F3E7D4F808C09CF80660431E06F10901D9
:106DF0006E1ECB40CE40B34200D898B953064CBF6C
:106E0000DCF82030236A236104F11008002ED4D06E
:106E10002169A068424600F046FB002806F1FF36D3
:106E2000F4DCD2E7F61AEFE7F8B50F461646002174
:106E3000242204461D4606F0D5FDB868A060A68051
:106E400000F1300206F00F063B6AE360710102EBCD
:106E50004616F37A1F0746D4431893F83B3003F0E5
:106E600017032370F27A12F0180F04BF43F00803DF
:106E700023709DF81830E37005F00303012B2CD02C
:106E8000022B28D07BBB6A052DD40123A370A278E6
:106E9000930704D52378DF0625D4DE0723D4AB116E
:106EA00023F07F0305F0080633431343A370C36A3E
:106EB000A3614318B3F84420B3F84A1041EA0241F1
:106EC0006A0513D559B9A37843F00403A3706B0482
:106ED00010D40120F8BD0323D8E70223D6E700F041
:106EE00082FB0028EFD100202070F3E72162DB6CE9
:106EF000E361ECE7E1692046FFF753FF0028E8D1A2
:106F0000F1E72DE9F347037807460D46924653BB58
:106F10000B7813F0700F26D04C6914F01F0422D1A7
:106F2000A04600212846D5F81490FFF71BFFD0B1EA
:106F30000678C6B12E2E10D0E52E0ED0C37A1A07D1
:106F400013D464B900945346C9F34F122946384606
:106F5000FFF76AFF02B0BDE8F0870024E1E7FFF722
:106F600087F94045EED00020F4E70F2BF5D17306EA
:106F7000D7D590F80D8006F01F04D2E738B5037816
:106F800004460BB9012038BD83785A0723D5012167
:106F9000FFF7D4FD054628B9637843F00103637019
:106FA0000020F0E70378E52BF6D023781B0744BFD9
:106FB000E369C361238C4383638C8382094B1B6821
:106FC0002BB100F11601183098472B8B6B82A378F8
:106FD00023F00403A370A068FFF73DF90028DBD07D
:106FE000D0E700BF10E5032010B50446FFF7C6FF49
:106FF0000023237010BDF0B593B01F460023ADF8F9
:1070000024300378019206460C4613B1002013B0D9
:10701000F0BD0B7813F0700FF8D013782F2B12D12E
:10702000019A13782F2B02D101320192F8E7A1685F
:107030001BB93046FFF7BCFDE9E709A8FFF7B8FD2B
:107040000028E3D009AC019801AA03A9FFF7B8F919
:107050000028DBD0019B1B789BB1002303AA2146AB
:107060003046FFF743FB0028D0D035460FCD09ACA2
:107070000FC40FCD0FC42B6823603046FFF7B4FF59
:10708000E0E73B4603AA21463046FFF72FFBBEE769
:1070900000B58BB000230A46ADF804300146012349
:1070A00001A8FFF7A8FF10B101A8FFF769FA0BB01C
:1070B0005DF804FB2DE9F0410B7813F0700F88B0F8
:1070C00004460E4603D1002008B0BDE8F08140F62A
:1070D0000223FFF70BFB0028F5D001271025A7702E
:1070E00025702046FFF7ECFC0028ECD023692362D2
:1070F00000212046FFF755FE2046FFF73FFF0028FE
:10710000E1D039462046FFF719FD03460028DAD0C2
:107110006F46C572024600F1200E3D461068516868
:10712000BC46ACE80300083272456746F6D1B3F8B6
:1071300014805F8B20220123EA5401330B2BFBD1F7
:10714000216AA06800F0A9F90146A0680122243054
:1071500000F080F903460028B5D02E22ADF81A7051
:107160008DF80020ADF81480AC4607460DF1200ED6
:10717000624603CA724538607960944607F1080791
:10718000F6D12E228DF80120326AADF81A20110CAA
:10719000ADF81410203308AE2A4603CAB242186074
:1071A0005960154603F10803F6D1A068FFF753F8BC
:1071B0008AE7F0B593B01F460023ADF8243003787A
:1071C000019206460C4613B1002013B0F0BD0B78B7
:1071D00013F0700FF8D013782F2B0DD1019A13787C
:1071E0002F2B02D101320192F8E7A16809A8FFF71D
:1071F000DFFC0028E8D009AC019801AA03A9FFF739
:10720000DFF80028E0D0019B1B78E3B1002303AA3C
:1072100021463046FFF76AFA58B135460FCD09AC22
:107220000FC40FCD0FC42B6823603046FFF7DCFE80
:10723000E1E7002FC8D003AA21463046FFF73AFF06
:107240000028EAD1C0E703AA21463046FFF732FF03
:10725000BBE700002DE9F04703788946190704468B
:1072600017465BD583789A0758D51B0751D46369B5
:10727000DB43BB4252D3B84604F1100A6669B8F149
:10728000000F00F09180A0684379C6F3080513EA67
:1072900056260ED16DB92169002946D0524600F01C
:1072A00002F900283ADB04D12046FFF7FEFB002854
:1072B00034D02169A06800F0F0F83118A06815B941
:1072C000B8F5007F3FD2C5F50076464528BF464653
:1072D000002D36D16269E3699A4234BF012205224A
:1072E000243000F0B7F8C8B1284432464946354446
:1072F00006F06AFBB5F5007F04D1A068243000F0E9
:1073000081F858B1636933446361B144A8EB06085E
:10731000B4E7C169FFF745FD0028A8D1637843F0C1
:10732000010363704FF0FF3050E0236A3BB9204601
:10733000FFF7BBFB0028F1D023692362B9E7236183
:10734000B7E70122CCE7B8F5806FC26A1BD390F88B
:1073500004C0ACEB0606F3B24FEA582E734528BFC3
:10736000734691424FEA432607D31A448A4282BFAA
:107370004FF0FF3280F82450C262A5684A46286860
:1073800000F047FCBDE7914202BF4FF0FF3380F8A9
:107390002450C362A3684A46186800F0C4FB002862
:1073A000BCD04FF40076ADE7E269A378B24204D2D4
:1073B000E66143F00403A37003E0084A1268002A60
:1073C000F7D194F90230002B02DB3846BDE8F08794
:1073D0002046FFF7D3FD0028F7D19FE710E50320F3
:1073E00013B50446084659B1019107F03FFB2368E5
:1073F0000199DB680246204602B0BDE810401847FC
:1074000002B010BD37B50378DA07044620D54368CB
:10741000816800F10C021868019200F084FB019A67
:10742000054618B90025284603B030BD23789B07D0
:1074300004D4237823F001032370F4E7D4E9013066
:1074400019690144186800F06EFB0028F1D1E9E7E2
:107450000125E8E770B583688B4204460E46154661
:1074600009D0FFF7CFFF08B9002070BD6B070AD520
:1074700000232370A660227805F0030520461543FB
:1074800000F80C5BF1E7636804F10C021868314600
:1074900000F0C0FA0028EBD1E6E7837940690239B1
:1074A000994008447047012970B505460C461646B8
:1074B00002D84FF0FF3070BDC3698B42F9D3C37956
:1074C000202B16D18169022201EBD41100F50C703A
:1074D000FFF7C0FF0028ECD004F07F0450F8243000
:1074E00023F07043EA699A4226BF336001200020EE
:1074F000E1E7102BDDD18369C1F307210222194492
:1075000000F50C70FFF7A6FF0028D2D0E4B230F8E7
:107510001430E7E7012938B50C46154601D800209C
:1075200038BDC3698B42FAD3C379202B0FD181694F
:10753000032201EBD41100F50C70FFF78BFF00283C
:10754000EDD004F07F0440F824500120E8E7102B30
:10755000E5D18369C1F307210322194400F50C70BA
:10756000FFF778FF0028DAD0E4B220F81450ECE7F7
:107570002DE9F341C4688C4205460E46904601D37E
:10758000012701E00C460027EB690134A34202D237
:10759000C7B9EC68F4E7A64214D001AA21462846F0
:1075A000FFF781FF00280DDBEED0019B002BEBD114
:1075B00007B1EC606FF0704221462846FFF7AAFF42
:1075C000074620B90027384602B0BDE8F08116B959
:1075D000C8F80040F7E7224631462846FFF79AFFF1
:1075E0000028F5D1EEE773B505460C4601AA214601
:1075F0002846FFF758FF061E10DB002221462846CA
:10760000FFF788FF50B1EB68A34224BF04F1FF34B9
:10761000EC60019C002EE9D102B070BD0020FBE7B8
:10762000012370B50022C3604FF0FF330446C271DE
:1076300000F12406806280F82420C362C0F834027E
:1076400080F83022C0F838320D46B9B1042901D98A
:10765000002070BD11463046FFF7FCFE0028F7D031
:1076600000EB051393F8AE315B06F1D105F11B0178
:1076700000EB0111D1F80650002DE9D00022294677
:107680003046FFF7E7FE0028E2D0B0F80B30B3F544
:10769000007FDDD1037C022BDAD1C389002BD7D048
:1076A000417B21714B1E63710023A37109260123C5
:1076B000994207D0013ECBD0A2795B000132DBB208
:1076C000A271F5E7C18A01B9416A2161C3892B44DE
:1076D000A361B0F81120228103EB41032362B0F8CB
:1076E0001110490101F2FF1103EB51236361B0F85E
:1076F000132002B9026AE91AA3791144D9404B1C3C
:10770000E36140F6F473994202D80C23E3719FE7DA
:107710004FF6F473994285BFC36A23621023202376
:10772000E371012095E7000070B50E4E0D4614463A
:1077300001F0B4FD3368C01A0B4B984208D901F030
:10774000B5FD0A4B186002F021F801F0A7FD30608A
:1077500001F0ACFD80B2401BA042D4BF002001204C
:1077600070BD00BF18E50320A0860100A0E703203C
:1077700038B5057A04464DB9406800F06BFA636885
:107780002946187D03F0F5FE0123237238BD10B59C
:10779000037A04466BB143680121187D03F0E9FECA
:1077A0006068FF2100F088FA606800F067FA002343
:1077B000237210BDF8B504460D46164601F076FD5D
:1077C00087B2606800F05DFAFF2860720ED14FF456
:1077D0007A7239462046FFF7A7FF0028F1D05523DB
:1077E00020462370FFF7D3FF0020F8BDFE2801D00C
:1077F0005023F5E760683246294600F047FA607288
:1078000008B16023ECE7606800F03BFA606800F0C4
:1078100038FA0120E9E770B504460E4601F046FD4E
:1078200085B2324629462046FFF77EFF30B96068B0
:1078300000F027FAFF28F4D1012070BD0020FCE7FA
:10784000F7B5037A019204460D460BB9FFF790FF96
:1078500025B14FF496712046FFF7DDFF606845F0D3
:10786000400100F029FA032601AFB95D606800F01D
:1078700023FA013EF9D2002D60680CBF95218721C3
:1078800000F01AFA606800F0FCF90B25606800F05F
:10789000F8F90306607203D5013D15F0FF05F5D137
:1078A00003B0F0BD70B504460D46164637210022E0
:1078B000FFF7C6FF324629462046BDE87040FFF775
:1078C000BFBF00002DE9F0410025057205708572EB
:1078D0004160044690461E4601F0E8FC41460746DA
:1078E000606800F0BBF96368494A1D720125DA60DF
:1078F0001D822046FFF73CFF63682946187D03F090
:1079000038FE0A256068FF21013D00F0D5F915F029
:10791000FF05F7D163682946187D03F02AFE0A2582
:10792000002211462046FFF78BFF0128804618D021
:10793000013D15F0FF0507D1202320462370FFF7F6
:1079400026FF0020BDE8F0816068FD2100F0B4F959
:107950004FF40278606800F094F9B8F10108F9D1A9
:10796000DEE74FF4D57208212046FFF769FF0528AE
:1079700014D184F80A800025BFB22A462921204666
:10798000FFF790FF0246D8B14FF4FA62394620461D
:10799000FFF7CAFE0028F0D04323CEE70425606835
:1079A00000F06FF9013D15F0FF056072F7D1AA28CC
:1079B00004D10223A3724FF08045DDE72523BCE705
:1079C000A37A022B18D13A212046FFF739FF08B1DC
:1079D0003723B2E7606800F054F900F0C000C02817
:1079E00004BF0323A372606800F04BF9606800F0E5
:1079F00048F9606800F045F92046FFF7C8FE636863
:107A00003079B168B2891A821872D960012099E779
:107A100090D0030038B5837A032B18BF490215466E
:107A20000A4611210446FFF70BFF30B130232370C3
:107A30002046FFF7ACFE00250BE029464FF400720C
:107A40002046FFF7B7FE05460028F1D02046FFF795
:107A50009EFE284638BD10B5837A032B0A4618BF10
:107A60004A0212210446FFF7EBFE30B131232046D3
:107A70002370FFF78CFE002010BD0120FCE710B53D
:107A800000220C210446FFF7DBFE30B128232046FC
:107A90002370FFF77CFE002010BD2046FFF777FE25
:107AA0000120F9E7F8B5044616461F46FFF7D3FF55
:107AB00068B10025ABB2BB4206EB452109D24FF4B9
:107AC00000722046FFF776FE01350028F2D1002033
:107AD000F8BD2046BDE8F840FFF7D1BF38B50446F1
:107AE0001546406800F0E8F84FF4007260682946D7
:107AF00000F0E6F86068FF2100F0DEF86068FF2122
:107B000000F0DAF8606800F0BCF8607200F01F0066
:107B1000052806D0572320462370FFF738FE0020A3
:107B200038BD0120FCE770B5837A032B18BF4902EA
:107B300015460A4618210446FFF782FE064630B174
:107B4000322323702046FFF722FE00251FE02A463D
:107B5000FE212046FFF7C2FF0028F3D04FF4FA6160
:107B60002046FFF758FE054608B95A23E9E7324692
:107B70000D212046FFF764FE08B12923E1E7606884
:107B800000F07FF80028F8D12046FFF700FE2846D5
:107B900070BD13B501914FF4FA610446FFF73BFE47
:107BA000019A30B95B2323702046FFF7F0FD0020D7
:107BB00005E0FC212046FFF791FF0028F4D002B039
:107BC00010BD10B5837A032B0A4618BF4A0219214B
:107BD0000446FFF735FE30B1332320462370FFF70C
:107BE000D6FD002010BD0120FCE738B54FF4FA6146
:107BF0000446FFF710FE054630B956232370204691
:107C0000FFF7C5FD284638BD6068FD2100F054F837
:107C1000F5E7F8B5044616461F46FFF7D2FF70B1E8
:107C20000025BD4206EB4521204604D0FFF7B1FFF9
:107C300028B10135F5E7BDE8F840FFF7D6BF20468B
:107C4000FFF7A5FD0020F8BD014B01221A70704717
:107C50001CE50320011D006801F0C0BE10B50446FC
:107C60000175006801F090FE207D012103F070FC99
:107C7000207D0121BDE8104003F07BBC006801F0CD
:107C800094BE0068FF2101F017BF000037B513460E
:107C9000074A00920025074C006825700A462946CD
:107CA00001F010FF2378002BFCD0002003B030BD82
:107CB000497C0D001CE50320006801F0FDBE0000BA
:107CC00037B51346064A00920025064C0068257019
:107CD0002A4601F0F7FE2378002BFCD003B030BD1C
:107CE000497C0D001CE5032007B5019003F08AFCD8
:107CF000036801999B6803B05DF804EB184708B569
:107D000003F080FC03685B699847C0B208BD38B5D2
:107D100004460D4603F076FC217841F0200103F083
:107D20000DFB2846FFF7E0FF03F06CFC03F00DFBB2
:107D300003F068FC2178012241F0200103F0F7FAFA
:107D4000BDE83840FFF7DBBF70B5064614460D4668
:107D500003F058FC317841F0200103F0EFFA284697
:107D6000FFF7C2FF2046FFF7BFFF03F04BFCBDE863
:107D7000704003F0EABA73B516469DF818200C4619
:107D8000072994BF1946114601910546FFF7BFFF29
:107D900004F00702012494400199E4B246B140EA9C
:107DA0000402D2B2284602B0BDE87040FFF7CCBF53
:107DB00020EA0402F5E710B5072928BF0721017062
:107DC000044603F01FFC03F083FA2046FF22002143
:107DD000FFF7BAFF2046FF22BDE810400121FFF760
:107DE000B3BF0021FFF7E7BF07B50123B2FA82F264
:107DF000009352090023FFF7BEFF03B05DF804FBB8
:107E00000829F8B501F007070C4634BF14211521E5
:107E100005461646FFF77BFF0123BB40DBB25EB190
:107E200040EA0302082C2846D2B2BDE8F84034BF2D
:107E300012211321FFF788BF20EA0302F2E707B5FA
:107E40000D2300930C23FFF796FF03B05DF804FBAE
:107E5000704710B50C4603F0D5FB602103F06EFAB5
:107E600003F0D0FB036821469B68984703F0CAFBE8
:107E7000002103F066FA03F0C5FB0122602103F044
:107E800056FA03F0BFFB03685B699847C0B210BDA8
:107E900010B5044603F0B6FB03F01AFA0C21204695
:107EA000FFF7D7FFA0F1C4035842584110BD38B5C1
:107EB00014460D4603F0A6FB602103F03FFA03F0E1
:107EC000A1FB036829469B68984703F09BFB036866
:107ED00021469B68984703F095FBBDE83840012197
:107EE00003F02FBA10B526210446FFF7B2FF262172
:107EF00000F07F022046BDE81040FFF7D8BF0729F9
:107F000028BF072138B50D4626210446FFF7A1FFFB
:107F100000F0C70242EAC5022046D2B2BDE83840AE
:107F20002621FFF7C4BF07221321FFF7C0BF10B5FA
:107F300026210446FFF78DFF262100F0FD02204692
:107F4000FFF7B5FF26212046FFF783FF40F0020030
:107F5000C2B226212046BDE81040FFF7A8BF0000AE
:107F6000F8B500210746FFF774FF00213846FFF7F8
:107F700070FF03F047FB602103F0E0F903F042FBE0
:107F80000121FDF772FD03F03DFB002103F0D9F95B
:107F900003F038FB0322602103F0C9F903282BD139
:107FA00003F030FB03685B699847044603F02AFB43
:107FB00003685B699847064603F024FB03685B6926
:107FC00098472404360204F47F04B6B2C5B23443A1
:107FD0002C433846FFF7ABFFC5F30115A31107EE9D
:107FE000905A00EE103AF8EE677AB8EEC00AB5EE95
:107FF000007AA7EE870AF8BD9FED010AFBE700BFF4
:1080000000C079C413B5054B1B788DF800303C23B4
:10801000044602F069FD204602B010BD1DE50320B4
:108020002DE9F84F2DED028B41F2786A044650F8A5
:108030000A300D464BB99FED2D8A81ED008AB0EED6
:10804000480ABDEC028BBDE8F88F00F5B35341F24E
:10805000746B186904F03EFE0022254B04F092FE7A
:10806000064654F80A0007EE900AF8EE677A0F46C3
:1080700017EE900A04EB0B0393ED008A04F02AFE3E
:1080800032463B4604F07EFEF8EE487A804617EE14
:10809000900A894604F01EFE02460B4640464946B9
:1080A00004F09AFF05F066F9002344F80B3041F222
:1080B0007C6844F80A3008EE100A54F8080007EE0D
:1080C000900AF8EE677A17EE900A04F003FE0B466A
:1080D00002463946304604F07FFF05F04BF94FF079
:1080E000FF33286044F80830A9E700BF0000000013
:1080F00000408F4000000000F8B5044603F082FA0B
:1081000002224D2103F013F903F07CFA03681B6986
:108110009847022832D103F075FA03685B699847E3
:10812000064603F06FFA03685B69984740EA062049
:1081300007EE900AF8EE677A04F5B55517EE900A47
:1081400004F0C8FD104B002204F01CFE0CA3D3E980
:10815000002304F017FE064628690F4604F0BAFD16
:1081600002460B463046394604F056FC05F002F94B
:1081700041F2B4622861A3580133A350F8BD00BF97
:1081800048E17A14AE472B400000303F41F2B46220
:1081900000F5B5538158D3ED046A07EE901AB8EE96
:1081A000677A0021C6EE877A1961002383509FED1C
:1081B000057A67EE877AFCEEE77A17EE903A98B286
:1081C000704700BF00007A4400F5B35393ED000AF6
:1081D000D3ED027AB8EE400A002220EE270A1A6098
:1081E0007047000000000000F8B541F290672DEDE7
:1081F000028BC3599FED268A0446002B3ED007EE22
:10820000903A00F5B456F8EE677A96ED027AC7EE2A
:10821000278A96ED037A87EE270A80EE280A03F074
:108220003BFC10EE100A04F055FD1A4B002204F03E
:10823000A9FD15A3D3E9002304F0CEFE05F09AF8BA
:10824000F4EEC88AF1EE10FA00EE100A48BFDFED36
:10825000127A86ED028A48BF30EE270A0023B5EE77
:10826000C00AF1EE10FA86ED038AE35103D5DFED83
:108270000B7A30EE270ABDEC028BF8BDB0EE480A4F
:10828000F9E700BFAFF300806E861BF0F9210940CB
:108290000000000000806640000034430000B4434A
:1082A000A1F69803C72B42D9A1F63403632B41D919
:1082B000A1F54863622B40D9A1F61C43632B3FD93B
:1082C000A1F632736C2B3ED9A1F674634F2B3DD9C6
:1082D000A1F6C4636D2B3CD9A1F64853632B3BD95F
:1082E000A1F6F253812B3AD9A1F62823632B39D971
:1082F000A1F6BE23632B38D9A1F2E653452B37D91B
:10830000A1F22C63452B36D9A1F2BE53272B35D9C8
:10831000A1F26C73632B34D9A1F2A4619FED1A0A08
:108320003229FFEE007A28BFB0EE670A70479FED52
:10833000170A70479FED160A70479FED160A70479F
:108340009FED150A70479FED150A70479FED140ABF
:108350007047B1EE060A70479FED120A70479FED15
:10836000120A70479FED110A70479FED110A70477E
:108370009FED100A70479FED100A70479FED0F0A9E
:1083800070479FED0F0A7047295C2F40C3F54840A6
:1083900085EB61401F857B40713D8A4052B8964015
:1083A0001F85A340E17ABC400000000014AEC73E28
:1083B000713D4A3F3D0A973FC3F5C83F48E1FA3F48
:1083C0003D0A17400000000010B52DED028B41F270
:1083D00084630446C05A03F0E5F801462046FFF7DF
:1083E0005FFFB5EEC00AF1EE10FAB0EE408A26DD6E
:1083F00010EE100A04F06EFC13A3D3E9002304F07E
:1084000033FFE0B1B0EE480A03F064FC04F5B45366
:10841000D3ED027A37EE800A83ED020AB0EE480A05
:1084200003F0A8FC04F5B453D3ED037A37EE800AC9
:1084300041F2906283ED030AA3580133A350BDECCF
:10844000028B10BDAFF3008037C30DF8FC901840CD
:1084500037B56A4601A90446FDF7F1FEDDED017A64
:10846000B2EE047A67EE877A0546FCEEE77A04F10D
:108470000A0017EE901A01F6AC2189B200F05EFEF8
:10848000DDED007AFCEEE77A04F6063017EE903A5E
:1084900099B200F053FE002D48D09DED007AB5EE64
:1084A000C07AF1EE10FA13DDDFED317AB4EEE77A3F
:1084B000F1EE10FA0CD504F5B453D3ED057A77EE4E
:1084C000877A41F29862C3ED057AA3580133A3502D
:1084D000019804F0FFFB274B002204F053FC264BCD
:1084E000002204F079FD254B002204F095FA04F0F7
:1084F00041FF9FED237A07EE900AF4EEC77AF1EE82
:1085000010FA13DD9FED1F7AF4EEC77AF1EE10FA40
:108510000CD504F5B45393ED077A77EE277A04F57A
:10852000B552C3ED077A13680133136004F10800F4
:10853000FFF716FDDFED147AB4EEE70AF1EE10FA5C
:1085400013DDDFED127AB4EEE70AF1EE10FA0CD586
:1085500004F5B553D3ED017A37EE800A41F2A862F3
:1085600083ED010AA3580133A35003B030BD00BF0F
:108570000000D242000022400000144000004040B1
:10858000000048C20000164300409C4700D8D64770
:1085900000F5B5529FED0A7A136873B107EE903A71
:1085A00000F5B450D0ED076A80ED077AF8EE677AEF
:1085B000002386EEA70A13607047B0EE470A7047A3
:1085C0000000000041F2A8619FED0A7A425872B1A2
:1085D00007EE902A00F5B553D3ED016A83ED017AD9
:1085E000F8EE677A002386EEA70A43507047B0EE94
:1085F000470A704700000000F8B50446104692682C
:108600001E4602F1080323F0070300AFADEB030D94
:1086100001320023694601F0ABFC2E21684605F0CB
:108620008BFC6D460246B0B10644B11A00291346D0
:1086300003DB197801320029F7D1002203F8012960
:10864000184613F80119302901D15A70F8E72E297C
:1086500004BF002303702946204601F088FB204612
:10866000BD46F8BD000000002DE9F047A04CA14E2A
:10867000DFF89CA2DFF89C92C0B00D4607460A22A4
:108680002168684601F00EFC694604A801F0AFFBC2
:10869000314604A801F057FC0A22A188804608A8A8
:1086A00001F0EDFB08A9404601F041FC314601F024
:1086B0004AFC8046E08807EE900AF8EE677A17EEEB
:1086C000900A04F007FB84A3D3E9002304F084FCA0
:1086D00002460B460CA8514601F08EFC01230CAA61
:1086E000294610A8FFF788FF10A9404601F01FFC9B
:1086F000314601F028FC0A22217A804614A801F0B4
:10870000ACFB14A9404601F012FC314601F01BFC01
:108710008046608907EE900AF8EE677A17EE900AB5
:1087200004F0D8FA6EA3D3E9002304F073F9724B76
:10873000002204F027FB714B002204F04DFC704B2B
:10874000002204F069F902460B4618A8514601F0D0
:1087500053FC18AA012329461CA8FFF74DFF1CA9AA
:10876000404601F0E4FB314601F0EDFBA3899FEDAB
:10877000657A07EE903AF8EE677A8046C7EE877A18
:1087800017EE900A04F0A6FA02460B4620A84946C6
:1087900001F032FC20AA0323294624A8FFF72CFF6E
:1087A00024A9404601F0C3FB314601F0CCFB8046D2
:1087B000206904F08FFA4CA3D3E9002304F00CFCE9
:1087C00002460B4628A8504901F016FC28AA0223AD
:1087D00029462CA8FFF710FF2CA9404601F0A7FB63
:1087E000314601F0B0FB8046A08A04F061FA3AA35A
:1087F000D3E9002304F0F0FB04F0BCFD04F06AFAB6
:1088000002460B4630A8514601F0F6FB30AA012380
:10881000294634A8FFF7F0FE34A9404601F087FB53
:10882000314601F090FB0646E08A07EE900AF8EE2A
:10883000677A17EE900A04F04DFA344B002204F0E8
:10884000CBFB02460B4638A8494601F0D5FB032373
:1088500038AA29463CA8FFF7CFFE3CA9304601F0D4
:1088600066FB0146384601F0C2FA3CA801F034FA32
:1088700038A801F031FA34A801F02EFA30A801F03E
:108880002BFA2CA801F028FA28A801F025FA24A830
:1088900001F022FA20A801F01FFA1CA801F01CFA2E
:1088A00018A801F019FA14A801F016FA10A801F09E
:1088B00013FA0CA801F010FA08A801F00DFA04A8A8
:1088C00001F00AFA684601F007FA384640B0BDE800
:1088D000F08700BFAFF300808FC2F5285C25994078
:1088E000000000000057A540A1D634EF382A75409B
:1088F00040C903204CF80D00000022400000494010
:10890000000040400070C64658F80D0000408F40FF
:108910004EF80D0053F80D0030B5044600F5B05088
:1089200089B00430FCF784FC7D4D01A92860204605
:10893000FFF776FB10EE100A04F0CCF970A3D3E930
:10894000002304F01FFA41EC100B03F025F851EC62
:10895000100B04F0EFFC80B204F0AAF96AA3D3E98B
:10896000002304F039FB04F0E5FC0A2281B204A8DC
:10897000E98001F084FA049A6A4902A8FFF742FBF1
:1089800003A8FBF725FF04A801F0A6F92046FFF78E
:108990001BFCDFED657A20EE270A03F055F9BCEEEB
:1089A000C00A10EE103A98B204F082F958A3D3E945
:1089B000002304F011FB04F0BDFC0A2281B204A8DC
:1089C000A98101F05CFA049A584902A8FFF71AFB42
:1089D00003A8FBF7FDFE04A801F07EF92046FFF78F
:1089E00003FC03F031F9BCEEC00A0A2210EE103A83
:1089F00004A899B2A98001F042FA049A4C4902A84D
:108A0000FFF700FB03A8FBF7E3FE04A801F064F9FD
:108A10002046FFF7BDFD10EE100A04F05BF9454B50
:108A2000002203F0F7FF444B002204F0ABF9434B64
:108A3000002204F0D1FA38A3D3E9002303F0ECFFBD
:108A400041EC100B02F0A8FF51EC100B04F072FC8B
:108A50000A2281B204A8698101F011FA049A384906
:108A600002A8FFF7CFFA03A8FBF7B2FE04A801F0B3
:108A700033F904F6063000F0A4FB0A22C1B204A8C0
:108A8000297201F0EAF9049A2E4902A8FFF7BAFA0E
:108A900003A8FBF79DFE04A801F01EF92046FFF78E
:108AA00091FDB2EE047AC0EE077A062104A8B0EE7A
:108AB000670AC5ED047A01F009FA049A224902A86E
:108AC000FFF7A0FA03A8FBF783FE04A801F004F95E
:108AD0002046FFF75BFB0A220146E88204A801F06A
:108AE000CEF9049A194902A8FFF78CFA03A8FBF7FC
:108AF0006FFE04A801F0F0F809B030BDAFF30080BC
:108B00008FC2F5285C2599408AE5965643E2E33FFB
:108B100051DA1B7C6132D93F000000000057A540AC
:108B200040C903205DF80D000070C64673F80D00C3
:108B300086F80D000000404000004940000022403F
:108B40009BF80D00A7F80D00AFF80D00B7F80D0069
:108B5000014B00221A7070471DE5032041F2746238
:108B6000002370B5835041F278624FF0FF3183509B
:108B700041F27C6200F10805815000F5B4528AB0E0
:108B8000136004462846FFF783F92846FFF7AAF941
:108B900007212846FFF7B3F92846FFF7C4F9204616
:108BA000FDF742FB04F5B25402F0E2F94FF416511E
:108BB00002F0D2F90C3402F0DBF9754901F09FFAAA
:108BC0002046FDF71AFA002800F0C58002F0D0F91F
:108BD000704901F094FA69462046FDF70FF902F05A
:108BE000C7F96D4901F08BFA02F0C2F96B4901F047
:108BF0006CFA02F0BDF9694601F077FA02F0B8F9B3
:108C0000674901F062FA02F0B3F9039D002D0646B0
:108C100080F2A5802D2101F055FA69420A223046E2
:108C200001F06FFA304601F054FA02F0A1F95D4903
:108C300001F04BFA02F09CF9049D002D064680F2EB
:108C400090802D2101F03EFA69420A22304601F05F
:108C500058FA304601F03DFA02F08AF9524901F023
:108C600034FA02F085F99DED060A022101F030FB8D
:108C700002F07EF94D4901F042FA02F079F94C49CF
:108C800001F023FA02F074F99DED070A022101F0C8
:108C90001FFB02F06DF9454901F031FA02F068F965
:108CA000444901F012FA02F063F99DED080A04212B
:108CB00001F00EFB02F05CF93C4901F020FA02F0F1
:108CC00057F9354901F01BFA02F052F93A4901F01F
:108CD00016FA4FF4FA7001F025FD10212046FDF739
:108CE000C9F902212046FDF76FF902F041F92A493E
:108CF00001F005FA02F03CF9304901F0E6F92046AE
:108D0000FDF7B2F820283ED02DD890B3102836D0E9
:108D100002F02EF92A4901F0D8F902F029F90546A6
:108D20002046FDF7A3F864210A2200FB0111284622
:108D300001F0E7F902F01CF9224901F0E0F902F034
:108D400017F9154901F0DBF902F012F91A4901F09F
:108D5000D6F90AB070BD02F00BF91B4939E7294674
:108D60005CE7294671E73028D2D102F001F91749B2
:108D700002E002F0FDF8164901F0C1F9C8E702F07F
:108D8000F7F81449F8E702F0F3F81349F4E700BFE5
:108D9000BFF80D00DFF80D001DF90D0042F90D00C0
:108DA00051F90D0060F90D006FF90D007EF90D000D
:108DB00083F90D0092F90D009BFF0D00A1F90D0044
:108DC000DEF90D00EDF90D00F6F80D00D2F90D00F9
:108DD000B0F90D00B9F90D00C6F90D00502210B51B
:108DE000427041F6FF7443F6FF72C0E90142C2606F
:108DF00047F6FF72C0E9042282614FF6FF7C002231
:108E0000C0E907C20170802400EB810144624A6816
:108E100082627F3AD209C0E90B2410BD2DE9F041EE
:108E200015461C460F46064602F0ECFB804602F053
:108E300098FA02F0E7FB717802F07CFA02F0E2FBAC
:108E4000C7F30721FCF711FE02F0DCFBF9B2FCF7D7
:108E50000CFE02F0D7FB02F078FA02F0D3FB2A46B0
:108E6000717802F064FA2544A54207D002F0CAFBEB
:108E700003685B69984704F8010BF5E702F0C2FB51
:108E800002F063FA4046BDE8F04102F073BA2DE902
:108E9000F04115461C460E46804602F0B3FB0746DD
:108EA00002F05FFA02F0AEFB98F8011002F042FA0D
:108EB00002F0A8FBC6F30721FCF7D7FD02F0A2FBE6
:108EC000F1B2FCF7D2FD2544A54207D002F09AFB8F
:108ED000036814F8011B9B689847F5E702F092FBC2
:108EE00002F033FA3846BDE8F04102F043BAF8B573
:108EF0000646406A88421ED8B46A8C421BD3501E74
:108F00007F281AD80844844219D314469F188D1814
:108F10001D2CA7EB0403A5EB040105D91E22304646
:108F2000FFF77CFF1E3CF3E75CB13046E2B2FFF78F
:108F300075FF0020F8BD0120FCE70220FAE70320BE
:108F4000F8E72046F6E7F8B50646406A88421ED89C
:108F5000B46A8C421BD3501E7F281AD8084484421E
:108F600019D314469F188D181D2CA7EB0403A5EBED
:108F7000040105D91E223046FFF789FF1E3CF3E7A6
:108F80005CB13046E2B2FFF782FF0020F8BD01205D
:108F9000FCE70220FAE70320F8E72046F6E710B5E1
:108FA000046B836A2144994238BF01634FF0000388
:108FB0002DBF03211370A0B2117028BF184610BD39
:108FC00010B5044613F0800F084611462160029A3E
:108FD0002371E06005D15943FFF7E1FFA06020460F
:108FE00010BD042313700023A360F8E770B58668F2
:108FF00015461C4616B90623237070BD03688B42C4
:1090000001D80523F8E70279C0682B4601FB02610D
:10901000FFF76DFF2070F0E770B5866815461C46B7
:1090200016B90623237070BD03688B4201D805234F
:10903000F8E70279C0682B4601FB0261FFF783FF66
:109040002070F0E738B504461D06084622600499F2
:109050002371E0600DD4551C25605D430A4605F17F
:109060000C01FFF79CFFE368A0601B6BA361204627
:1090700038BD04230B700023A360F8E783686BB14D
:1090800002694369816A4362134402625A180346C3
:1090900043F81C2F0C22C068FFF755BF70476322AE
:1090A0006423C0E90823816A00F11C030C22C06814
:1090B000FFF71DBF10B5044602F0A4FA02F048F90C
:1090C00018B902F09FFA02F003F9A3690C3BA362FE
:1090D0002046FFF7E4FFD4E90812A36AE0690B44D5
:1090E0001344984216BF0023C4E90412C4E90433B0
:1090F0002046BDE81040FFF7C1BF704700234188FC
:109100008380C380037000F282509AB2914203D9E7
:1091100020F8022B0133F8E7704707B561B140F240
:10912000BD239942A8BF194641800190FFF7E6FF91
:10913000019803B05DF804FB0121F5E7C288531CD8
:1091400004329BB2C38020F812104288934224BF9D
:109150000023C38083889A4284BF01338380002325
:1091600003707047B0F804C02DE9F0430CF1FF3EE6
:109170000026B2B2724520DA01231F46ACEB02058D
:10918000AB4217DA00EB43020133B2F88015B2F8B4
:10919000824501F1040904F1040830F8199030F80F
:1091A0001880C14582BFA2F88045A2F88215002729
:1091B0009BB2E5E70136002FDBD001230370BDE849
:1091C000F08310B583880446B3B103780BB9FFF779
:1091D000C9FFA1884A0804EB4202C907B2F88235E8
:1091E00003F1040334F8133006D4B2F880250432B6
:1091F00034F8122013445B08184610BD08B5024B22
:109200001B689B68019308BD6802030008B5024B08
:109210001B68DB68019308BD6802030008B5024BB8
:109220001B685B68019308BD2C02030008B5024B64
:109230001B689B68019308BD2C02030008B5024B14
:109240001B68DB68019308BD2C02030008B5024BC4
:109250001B681B69019308BD2C02030008B5024B73
:109260001B689B69019308BD2C02030008B5024BE3
:109270001B68DB69019308BD2C02030008B5024B93
:109280001B681B6B019308BD2C02030008B5024B41
:109290001B685B68019308BD1802030008B5024B08
:1092A0001B681B69019308BD1802030008B5024B37
:1092B0001B685B69019308BD1802030008B5024BE7
:1092C0001B689B6D019308BD1802030008B5024B93
:1092D0001B68DB6D019308BD1802030008B5024B43
:1092E0001B685B6E019308BD1802030008B5024BB2
:1092F0001B68DB68019308BD4802030008B5024BF8
:109300001B68DB69019308BD4802030008B5024BE6
:109310001B681B6A019308BD4802030008B5024B95
:109320001B685B6A019308BD4802030008B5024B45
:109330001B689B6A019308BD4802030008B5024BF5
:109340001B68DB6A019308BD4802030008B5024BA5
:109350001B685B6C019308BD4802030008B5024B13
:109360001B689B6C019308BD4802030008B5024BC3
:109370001B681B6F019308BD4802030008B5024B30
:109380001B685B69019308BD6402030008B5024BCA
:109390001B681B68019308BD3C02030008B5024B23
:1093A0001B68DB68019308BD3C02030008B5024B53
:1093B0001B681B69019308BD3C02030008B5024B02
:1093C0001B685B69019308BD3C02030008B5024BB2
:1093D0001B689B69019308BD3C02030008B5024B62
:1093E0001B68DB69019308BD3C02030008B5024B12
:1093F0001B681B6A019308BD3C02030008B5024BC1
:109400001B689B6A019308BD3C02030008B5024B30
:109410001B68DB6A019308BD3C02030008B5024BE0
:109420001B68DB68019308BD2802030008B5024BE6
:109430001B689B69019308BD2802030008B5024B15
:109440001B68DB69019308BD2802030008B5024BC5
:109450001B681B6A019308BD2802030008B5024B74
:109460001B685B6A019308BD2802030008B5024B24
:109470001B689B6A019308BD2802030008B5024BD4
:109480001B68DB6A019308BD2802030008B5024B84
:109490001B681B6B019308BD2802030008B5024B33
:1094A0001B685B6B019308BD2802030008B5024BE3
:1094B0001B681B6C019308BD2802030008B5024B12
:1094C0001B685B6C019308BD2802030008B5024BC2
:1094D0001B689B6C019308BD2802030008B5024B72
:1094E0001B68DB6C019308BD2802030008B5024B22
:1094F0001B681B6D019308BD2802030008B5024BD1
:109500001B681B68019308BD3002030008B5024BBD
:109510001B685B69019308BD3002030008B5024B6C
:109520001B68DB69019308BD3002030008B5024BDC
:109530001B681B6A019308BD3002030008B5024B8B
:109540001B685B6A019308BD3002030008B5024B3B
:109550001B689B6A019308BD3002030008B5024BEB
:109560001B689B6B019308BD3002030008B5024BDA
:109570001B68DB6B019308BD3002030008B5024B8A
:109580001B681B6C019308BD3002030008B5024B39
:109590001B685B6C019308BD3002030008B5024BE9
:1095A0001B681B68019308BD4C02030008B5024B01
:1095B0001B685B68019308BD4C02030008B5024BB1
:1095C0001B681B69019308BD4C02030008B5024BE0
:1095D0001B685B69019308BD4C02030008B5024B90
:1095E0001B689B69019308BD4C02030008B5024B40
:1095F0001B68DB69019308BD4C02030008B5024BF0
:109600001B681B6A019308BD4C02030008B5034B9D
:109610001B68D3F88030019308BD0000600203008E
:1096200008B5024B1B681B68019308BD20020300AC
:1096300008B5024B1B685B68019308BD200203005C
:1096400008B5024B1B685B69019308BD200203004B
:1096500008B5024B1B68DB6A019308BD20020300BA
:1096600008B5024B1B68DB6C019308BD20020300A8
:1096700008B5024B1B685B6D019308BD2002030017
:1096800008B5024B1B689B6D019308BD20020300C7
:1096900008B5024B1B68DB6F019308BD2002030075
:1096A00008B5034B1B68D3F88830019308BD000050
:1096B0002002030008B5034B1B68D3F894300193D4
:1096C00008BD00002002030008B5034B1B68D3F857
:1096D000B030019308BD00002002030008B5024B22
:1096E0001B685B68019308BD4002030008B5024B8C
:1096F0001B689B68019308BD4002030008B5024B3C
:109700001B68DB68019308BD4002030008B5024BEB
:109710001B681B69019308BD4002030008B5024B9A
:109720001B685B69019308BD4002030008B5024B4A
:109730001B689B69019308BD4002030008B5024BFA
:109740001B68DB69019308BD4002030008B5024BAA
:109750001B681B6A019308BD4002030008B5024B59
:109760001B681B6B019308BD4002030008B5024B48
:109770001B685B6B019308BD4002030008B5024BF8
:109780001B681B68019308BD4402030008B5024B27
:109790001B689B68019308BD4402030008B5024B97
:1097A0001B68DB68019308BD4402030008B5024B47
:1097B0001B685B69019308BD4402030008B5024BB6
:1097C0001B681B6A019308BD4402030008B5024BE5
:1097D0001B681B6B019308BD4402030008B5024BD4
:1097E0001B68DB6B019308BD4402030008B5024B04
:1097F0001B681B68019308BD1C02030008B5024BDF
:109800001B685B68019308BD1C02030008B5024B8E
:109810001B689B68019308BD1C02030008B5024B3E
:109820001B681B69019308BD1C02030008B5024BAD
:109830001B689B69019308BD1C02030008B5024B1D
:109840001B68DB69019308BD1C02030008B5024BCD
:109850001B681B6A019308BD1C02030008B5024B7C
:109860001B685B6A019308BD1C02030008B5024B2C
:109870001B68DB6A019308BD1C02030008B5024B9C
:109880001B681B6B019308BD1C02030008B5024B4B
:109890001B685B6C019308BD1C020300002240683A
:1098A0001146FFF753BF002240681146FFF75EBF25
:1098B00040680022FFF752BF4068002281F001019A
:1098C000FFF73CBF002340681A461946FFF72EBF3A
:1098D000002340681A461946FFF720BF002240685F
:1098E0001146FFF713BF002240681146FFF7FEBE86
:1098F000406800220221FFF701BF002340681A469A
:10990000FFF7ECBE024B03225A60024A1A6070470E
:1099100020E50320FCF90D000A680B469268014619
:109920001846104770B50E4C046000251C24C0E991
:1099300001459DF814409DF81060C56004F00304D3
:1099400044EA8604E4B20474427485744161427C42
:109950000F2A0ABF034B0383C0E9063070BD00BF66
:1099600030F70D0019990D000021FFF707BE002107
:10997000FFF70CBE10B5044608462170FFF7CEFD78
:1099800000236360204610BD10B504460078FFF741
:10999000EBFF48B920784FF6FF71FFF7AFFD207855
:1099A000BDE81040FFF7E3BF10BD0078FFF7DFBF51
:1099B000400830B51860002418688842E5B206D91E
:1099C0000134082C02D040081860F5E70725024B47
:1099D0005B5D137030BD00BF28FA0D002DE9F04328
:1099E00006468FB000780D46FFF7BEFF00281BDB50
:1099F00034781422002109A803F0F4FF0B2300227D
:109A000009A92046ADF82430FFF798FD9DF82D30C8
:109A100013B19DF82C4054B10027B946B846012433
:109A20002B795CB1C3B100200FB0BDE8F083DDF845
:109A300030809DF834909DF83570F1E7002B35D1DA
:109A4000AB68434508D18DF820908DF82170BDF8A2
:109A50002020AB899A42E6D00023A9688DF80F3008
:109A60000A9804AB0DF10F02FFF7A2FF297984B920
:109A700089B9AB6843450ED38DF820908DF82170DD
:109A8000BDF82020AB899A4205D1049B434502D101
:109A9000C9E70029F9D1002301936B7B00939DF85E
:109AA0000F202B7B3078FFF761FDBCE7CDE9004448
:109AB000234622460121F5E708B50078FFF726FD89
:109AC000C0B208BD30B587B004460A9D0095007845
:109AD000FFF73CFD3DB9207802A9FFF73FFD9DF857
